{
  "_format": "hh-sol-artifact-1",
  "contractName": "Groth16Verifier",
  "sourceName": "contracts/OnchainVerifier.sol",
  "abi": [
    {
      "inputs": [
        {
          "internalType": "uint256[2]",
          "name": "_pA",
          "type": "uint256[2]"
        },
        {
          "internalType": "uint256[2][2]",
          "name": "_pB",
          "type": "uint256[2][2]"
        },
        {
          "internalType": "uint256[2]",
          "name": "_pC",
          "type": "uint256[2]"
        },
        {
          "internalType": "uint256[32]",
          "name": "_pubSignals",
          "type": "uint256[32]"
        }
      ],
      "name": "verifyProof",
      "outputs": [
        {
          "internalType": "bool",
          "name": "",
          "type": "bool"
        }
      ],
      "stateMutability": "view",
      "type": "function"
    }
  ],
  "bytecode": "0x6080806040523460155761189a908161001b8239f35b600080fdfe6080604052600436101561001257600080fd5b60003560e01c633cc08b241461002757600080fd5b34610200576105003660031901126102005761004236610205565b3660c4116102005761005336610212565b3661050411610200576101f79161040060405261007261010435610220565b61007e61012435610220565b61008a61014435610220565b61009661016435610220565b6100a261018435610220565b6100ae6101a435610220565b6100ba6101c435610220565b6100c66101e435610220565b6100d261020435610220565b6100de61022435610220565b6100ea61024435610220565b6100f661026435610220565b61010261028435610220565b61010e6102a435610220565b61011a6102c435610220565b6101266102e435610220565b61013261030435610220565b61013e61032435610220565b61014a61034435610220565b61015661036435610220565b61016261038435610220565b61016e6103a435610220565b61017a6103c435610220565b6101866103e435610220565b61019261040435610220565b61019e61042435610220565b6101aa61044435610220565b6101b661046435610220565b6101c261048435610220565b6101ce6104a435610220565b6101da6104c435610220565b6101e66104e435610220565b6101f261050435610220565b6113d1565b60005260206000f35b600080fd5b9060049160441161020057565b9060c4916101041161020057565b7f30644e72e131a029b85045b68181585d2833e84879b9709143e1f593f0000001111561024957565b6000805260206000f35b604051917f11010d9c6e38fa7c3cf45810cf9f531f458f567048e95539963fa9711c73917583527f018ccd0277cd1b06c9d2130b73f047c28f6ee4753a037754d3822b71fab25f4a60208401526040830190815260408360608160076107cf195a01fa1561024957815190526020810151606083015260409160809060066107cf195a01fa1561024957565b604051917f198fe48d9eb27296e4d46c93838ed990cfeddeace4ff225688cb36b82ec4271783527f0485afca2daab6776d99aa26b27c474e7529ca01b1ad0be331a49e6c5571447b60208401526040830190815260408360608160076107cf195a01fa1561024957815190526020810151606083015260409160809060066107cf195a01fa1561024957565b604051917f1f13a3fe67c7727d8a0335bc1c15fc2b764e5bd95daf0081c34cfd8dee47875f83527f229c0a86659cf518a997bbb20276ae50b93aba41373084e38bc70c4f6b45a0ce60208401526040830190815260408360608160076107cf195a01fa1561024957815190526020810151606083015260409160809060066107cf195a01fa1561024957565b604051917f1967416ceb3a4beb17e6ad4b4cdb175da60c26fcbb8086d1c45588be6cd6eae483527f1a22199e40346c8b01f07fa3be60cb695a950b9b3f023ad02d70a212dc4a7b4160208401526040830190815260408360608160076107cf195a01fa1561024957815190526020810151606083015260409160809060066107cf195a01fa1561024957565b604051917f1cd400afadce3d551aa765bfd507b4e32ad1449facdf798f29fd1329fccb135083527f15e80f197e156bfc612be47582fe9963f9d0396b4a4c545aaea48eb0d7330b8760208401526040830190815260408360608160076107cf195a01fa1561024957815190526020810151606083015260409160809060066107cf195a01fa1561024957565b604051917f23de5e0cf0d193985bb1f5e4eaf05a3d1411e932c6385fb906a116cb7afab8c983527f0a337e439f9058771097f19f2ab0fd3e298e38dd432ee2206d239ecdb9ab15fb60208401526040830190815260408360608160076107cf195a01fa1561024957815190526020810151606083015260409160809060066107cf195a01fa1561024957565b604051917f1b2c4dc7aadd5c5615cfbec2193c72eec4351f6388962a398d6318ee94684b0f83527f29b039e1766ccc319311e0a2418c8c6b61e2e7048c12fc038a969753d8b13f0560208401526040830190815260408360608160076107cf195a01fa1561024957815190526020810151606083015260409160809060066107cf195a01fa1561024957565b604051917f06a78a92f313fee6dfac403a8ca45110ba3c1d779469a93a74962ff0e51ab4d283527f2f43fac8c2c2dab2041d82d998c81e664872120d19664344a4db0e8fd293b99d60208401526040830190815260408360608160076107cf195a01fa1561024957815190526020810151606083015260409160809060066107cf195a01fa1561024957565b604051917f01cb1c4a07e2108684351408498b8259e7ae34214f54db065f7fa090ebea6aea83527f1f9785dc9f5562990187842a69793e9bf0a33ebac57224a593781a97ddafe94760208401526040830190815260408360608160076107cf195a01fa1561024957815190526020810151606083015260409160809060066107cf195a01fa1561024957565b604051917f04acdd3175587ad1dca2b0577dced9b765f1cce61209905fd467eb23bf3c6ebb83527f2499ba0dc99e8af0dd56ecb56b922f5478f83803c34cdcbf9fcc994df915341a60208401526040830190815260408360608160076107cf195a01fa1561024957815190526020810151606083015260409160809060066107cf195a01fa1561024957565b604051917f0711f2a71684b202a430e7dbf85431d15a2bb54ee16eeebd496eab3994074b1683527f14ae7c51cce8d46b87997a393ba565285227d1e639e7fa32bfdbdd377902a30860208401526040830190815260408360608160076107cf195a01fa1561024957815190526020810151606083015260409160809060066107cf195a01fa1561024957565b604051917f23330a0ae1259ace2f28ad040bf2e0c77504a413c2ff82638cb4b3cf647f3cda83527f27bceeb635df7332f9618d74565686ca6ec61aa24f0acdb09cff7e3a215b9bfa60208401526040830190815260408360608160076107cf195a01fa1561024957815190526020810151606083015260409160809060066107cf195a01fa1561024957565b604051917f20303fce6392875c09ca31b2894778446424475fec4e23b20af0cd4aaa6487fe83527f2568f820c814c94a40744b6f171fcd34cbe98b3a46299583fb4fb3634fcfb50660208401526040830190815260408360608160076107cf195a01fa1561024957815190526020810151606083015260409160809060066107cf195a01fa1561024957565b604051917f287947ba205e2ba1d5174b136e93848e50f104b5c802bdf0c3c62088cc22356183527f17c233346c6b4aaf4accf74881746ff097edf954aa4318e6ac89aefa4edef27560208401526040830190815260408360608160076107cf195a01fa1561024957815190526020810151606083015260409160809060066107cf195a01fa1561024957565b604051917f0e650541e9d2ec1d43807215375199f5a5ee2ebf4a5d3adf31fe93aae2f3796583527f15fad1251cb10082ad4e2528ea8ca77aa738ec5e86bb7b3adffa3e59c46b9e1360208401526040830190815260408360608160076107cf195a01fa1561024957815190526020810151606083015260409160809060066107cf195a01fa1561024957565b604051917f15590df5329bf6e99e6408770870d5ef1874c610416cd1d761b0c22cd0ee62d483527f1778b105a18c2910177a284eff8c0455b04bf1eb6610321ec03861dba6f5062b60208401526040830190815260408360608160076107cf195a01fa1561024957815190526020810151606083015260409160809060066107cf195a01fa1561024957565b604051917f17bf4d437010bee75009e5e1142dbeb4fd8e1bcfaa7d622083608786e0dc516e83527f24fff15b6df784700f53380202335d1b730c4f2785f3ebf9c9c04e5c5a9fe2b160208401526040830190815260408360608160076107cf195a01fa1561024957815190526020810151606083015260409160809060066107cf195a01fa1561024957565b604051917f08e006f7d5fe8f935d858885b8ebfaca99a13267e381f23108f134c17d78d39e83527f21892acceb9ba86650e4216ff30c077f2261c023e240d95ffb7346ac02513f8260208401526040830190815260408360608160076107cf195a01fa1561024957815190526020810151606083015260409160809060066107cf195a01fa1561024957565b604051917f263a958dc60569351ec7b99c5b144788bfec258cba37987e5abbbe6c34024f8383527f063f51092a1138e56509c3312ccc8601feb633646e8bc55b2c1808ffd258799d60208401526040830190815260408360608160076107cf195a01fa1561024957815190526020810151606083015260409160809060066107cf195a01fa1561024957565b604051917f1ce127bc75a2766c47f2aaed7e153731df98b92a0f983c912727c4a034078f7e83527f1bdab421c58a7fda6a41fb161c294b8c5ffaf7e2ba6fbc71cfc852bfeb10d86760208401526040830190815260408360608160076107cf195a01fa1561024957815190526020810151606083015260409160809060066107cf195a01fa1561024957565b604051917f185654525df54e91acc61c25647550698884a5f90a363d8dce3c73685837a23983527f16070596f4d1ae539bb992a236f3c9fe1febe33a7f0dabea87e6ea66cd76f47b60208401526040830190815260408360608160076107cf195a01fa1561024957815190526020810151606083015260409160809060066107cf195a01fa1561024957565b604051917f0170434e55af68cf14aba84d5a6201bf4459908f4272ed31ed74647595f8a5a583527f1e7ce3133949ea40a0441e3b0767e17d48a192d94752fda196bcd9cf55ba8d2460208401526040830190815260408360608160076107cf195a01fa1561024957815190526020810151606083015260409160809060066107cf195a01fa1561024957565b604051917e2b0e212e9f118c89478d3fdf9d77c0f9941760d4217ef45dfc2daedaf7edc483527f050090d0e9f95d287260387b80c5126a7e391a9638cc98e5ae9ffc86f3e72c1060208401526040830190815260408360608160076107cf195a01fa1561024957815190526020810151606083015260409160809060066107cf195a01fa1561024957565b604051917f11b9321b72aad9b82450e03336453e13d5688d3180a64139c73619b8f18cee6c83527f08d574dfa32e40352abaca79905afea14f0c25f650076b9dfb8b3b9ce670b80260208401526040830190815260408360608160076107cf195a01fa1561024957815190526020810151606083015260409160809060066107cf195a01fa1561024957565b604051917f2eae40c0aa87ffbb66bc10056e07c74a03d40266e0fffc1145d1a0c108bcfddf83527f1fd345fa97ba4246a0e5bdb19e7702b85f039fdfb7108bb91da02b46863378ea60208401526040830190815260408360608160076107cf195a01fa1561024957815190526020810151606083015260409160809060066107cf195a01fa1561024957565b604051917f07182515694d14480866446e299fe8ef8e526868062365ef6f22717bb277373483527f0c8545960481b22a260411aaf88e79fbeda4915c83486be1b7182733d41a8c9660208401526040830190815260408360608160076107cf195a01fa1561024957815190526020810151606083015260409160809060066107cf195a01fa1561024957565b604051917f0b4f5d9df420fdae60d9e119f9b4cc27c10ed0778706e78a33d529a28bedacef83527f14743a7006b2405669e1a1a5e67535da2da0f6ca8cf96e0b70463eaaae6c350860208401526040830190815260408360608160076107cf195a01fa1561024957815190526020810151606083015260409160809060066107cf195a01fa1561024957565b604051917f1cd803e77e85858819bff62686255b41df102895bc8e78e49d09557d384e3a1f83527f1e3121d260c6d9f91ff59435159f1e9db0fc35ad97cfda64194a2bc051e74a8960208401526040830190815260408360608160076107cf195a01fa1561024957815190526020810151606083015260409160809060066107cf195a01fa1561024957565b604051917f0488f90b11633501d63cba615b9fadff16e17e62d9ae5a63042b4ec05d85100683527f12aee098b3466c531da162e87e2354c5eafe265e00b2180968ce9ce450bd258f60208401526040830190815260408360608160076107cf195a01fa1561024957815190526020810151606083015260409160809060066107cf195a01fa1561024957565b604051917e4da33fa9998640d59f84629a8d0de5cf7f211bcbea72cbaffa0c92c5bb3d6283527f0f5203253ac1c168418a5708fc65f53e2efc8f599a6cb6943d8bf72318dde26460208401526040830190815260408360608160076107cf195a01fa1561024957815190526020810151606083015260409160809060066107cf195a01fa1561024957565b604051917f2fb25dcc3dd96e6e137261213f9a05c4d710e63e10eea32e9b06436bc4053e1d83527f0b260d90f09a1ccf7a42baa2113982af1df5d1d7290527f3720671fba819892c60208401526040830190815260408360608160076107cf195a01fa1561024957815190526020810151606083015260409160809060066107cf195a01fa1561024957565b604051917f0c9b526a00bdbd1e7031f3aae102dc8ddc653a153156f6426ffc7545bf88ec7e83527f048dacc60ffc2bd58b94bc051329fa03e919aa4ff1bc74cfdfd5994a3a293c1060208401526040830190815260408360608160076107cf195a01fa1561024957815190526020810151606083015260409160809060066107cf195a01fa1561024957565b907f30644e72e131a029b85045b68181585d97816a916871ca8d3c208c16d87cfd47602080937f0f8087d78fd3a13a9551931f3b55398f864454fe608e861546c590e110ce20206080527f26728a8140b0c67542590f90e0a88cb92e3d6213cf5453fec32e7778a785d5e860a05261144d610104356080610253565b61145b6101243560806102df565b61146961014435608061036b565b6114776101643560806103f7565b611485610184356080610483565b6114936101a435608061050f565b6114a16101c435608061059b565b6114af6101e4356080610627565b6114bd6102043560806106b3565b6114cb61022435608061073f565b6114d96102443560806107cb565b6114e7610264356080610857565b6114f56102843560806108e3565b6115036102a435608061096f565b6115116102c43560806109fb565b61151f6102e4356080610a87565b61152d610304356080610b13565b61153b610324356080610b9f565b611549610344356080610c2b565b611557610364356080610cb7565b611565610384356080610d43565b6115736103a4356080610dcf565b6115816103c4356080610e5b565b61158f6103e4356080610ee6565b61159d610404356080610f72565b6115ab610424356080610ffe565b6115b961044435608061108a565b6115c7610464356080611116565b6115d56104843560806111a2565b6115e36104a435608061122e565b6115f16104c43560806112b9565b6115ff6104e4356080611345565b80356101005201358103066101205260443561014052606435610160526084356101805260a4356101a0527f2bcb07e090c509648460310ef6e09672b1f3a802f8f6afcd5b560ebc8dfed4006101c0527f1c2d0b45b0ea4b29d9ec33c5bd4ca4051d136bc9c27c417d1ce735c8865f7d8d6101e0527f170bef003071274cf9c722c4a2ec8825cd56327bdb311e929ba9c19c64bd2b93610200527f04c196246635e807257b64025d1da2f3d497f10f70ca9f9e14014d70985e1811610220527f0cd90adfe289ba215558d896ee457af9708af3c0c6133d61a0cd907e92782292610240527f196faee2853f78c04d354e9b0c2ff38f5b3e4dbc2ce3c6bc79755aca3163c44f610260526080516102805260a0516102a0527f118591cd5f93db67a738b3bd1556a7c5a116c5eddff9c7f9d7fb0d3297ed3d3d6102c0527f10226223146e0333ac07a3026a095213b10aab8a51a69112004a6243c070be536102e0527f08d524789251ea760d321556433b9df73389cc6310afdbe037237780f106234c610300527f0e50609f485f6635911ca9685614f031713af9768d2b317dfedc99569353b5fe610320528035610340520135610360527f2edd92a231b4a44dcad9e185f8c7778a31a0b32a9c97be302d7009250dcfb23e610380527f1bf9ad1a92c8d86777ca41065a4fef9225d3ae380e6055617c6c51177003d51e6103a0527f07f8c3c3b1285dcba6a185f08eeed9498df70bfa7a69af3ffa8d3fc24152cd686103c0527f23cceedea3653120adf7889d4ff94a427450e8bba3deede2443c752388775fda6103e05260206101006103008160086107cf195a01fa61010051169056fea26469706673582212204c3e2d09fbcd5a62d16cc8925e5a20f09b553a3d5934cbbfc34c475d653e54dc64736f6c634300081c0033",
  "linkReferences": {},
  "deployedLinkReferences": {}
}