{
  "_format": "hh-sol-artifact-1",
  "contractName": "NovaDecider",
  "sourceName": "contracts/OnchainVerifier.sol",
  "abi": [
    {
      "inputs": [],
      "name": "BN254_PRIME_FIELD",
      "outputs": [
        {
          "internalType": "uint256",
          "name": "",
          "type": "uint256"
        }
      ],
      "stateMutability": "view",
      "type": "function"
    },
    {
      "inputs": [],
      "name": "BN254_SCALAR_FIELD",
      "outputs": [
        {
          "internalType": "uint256",
          "name": "",
          "type": "uint256"
        }
      ],
      "stateMutability": "view",
      "type": "function"
    },
    {
      "inputs": [
        {
          "internalType": "uint256[2]",
          "name": "c",
          "type": "uint256[2]"
        },
        {
          "internalType": "uint256[2]",
          "name": "pi",
          "type": "uint256[2]"
        },
        {
          "internalType": "uint256",
          "name": "x",
          "type": "uint256"
        },
        {
          "internalType": "uint256",
          "name": "y",
          "type": "uint256"
        }
      ],
      "name": "check",
      "outputs": [
        {
          "internalType": "bool",
          "name": "result",
          "type": "bool"
        }
      ],
      "stateMutability": "view",
      "type": "function"
    },
    {
      "inputs": [
        {
          "internalType": "uint256[]",
          "name": "_coefficients",
          "type": "uint256[]"
        },
        {
          "internalType": "uint256",
          "name": "_index",
          "type": "uint256"
        }
      ],
      "name": "evalPolyAt",
      "outputs": [
        {
          "internalType": "uint256",
          "name": "",
          "type": "uint256"
        }
      ],
      "stateMutability": "pure",
      "type": "function"
    },
    {
      "inputs": [
        {
          "internalType": "uint256[3]",
          "name": "i_z0_zi",
          "type": "uint256[3]"
        },
        {
          "internalType": "uint256[4]",
          "name": "U_i_cmW_U_i_cmE",
          "type": "uint256[4]"
        },
        {
          "internalType": "uint256[2]",
          "name": "u_i_cmW",
          "type": "uint256[2]"
        },
        {
          "internalType": "uint256[3]",
          "name": "cmT_r",
          "type": "uint256[3]"
        },
        {
          "internalType": "uint256[2]",
          "name": "pA",
          "type": "uint256[2]"
        },
        {
          "internalType": "uint256[2][2]",
          "name": "pB",
          "type": "uint256[2][2]"
        },
        {
          "internalType": "uint256[2]",
          "name": "pC",
          "type": "uint256[2]"
        },
        {
          "internalType": "uint256[4]",
          "name": "challenge_W_challenge_E_kzg_evals",
          "type": "uint256[4]"
        },
        {
          "internalType": "uint256[2][2]",
          "name": "kzg_proof",
          "type": "uint256[2][2]"
        }
      ],
      "name": "verifyNovaProof",
      "outputs": [
        {
          "internalType": "bool",
          "name": "",
          "type": "bool"
        }
      ],
      "stateMutability": "view",
      "type": "function"
    },
    {
      "inputs": [
        {
          "internalType": "uint256[2]",
          "name": "_pA",
          "type": "uint256[2]"
        },
        {
          "internalType": "uint256[2][2]",
          "name": "_pB",
          "type": "uint256[2][2]"
        },
        {
          "internalType": "uint256[2]",
          "name": "_pC",
          "type": "uint256[2]"
        },
        {
          "internalType": "uint256[32]",
          "name": "_pubSignals",
          "type": "uint256[32]"
        }
      ],
      "name": "verifyProof",
      "outputs": [
        {
          "internalType": "bool",
          "name": "",
          "type": "bool"
        }
      ],
      "stateMutability": "view",
      "type": "function"
    }
  ],
  "bytecode": "0x60806040523461027057610011610275565b7f171149d656ab2678f03a81fb4a13b38cb13c584222498b9f0824377ff4ef1c6c81527f1078a9c7358344c97989a825cd493c02502c5979785ab4102b85cab8785e1652602082015260005b6002811061025e5761006d610275565b610075610275565b7f2e85a64b176a89f651b755522402780ac5224a690c62c2a3580e2b77391eb85f81527f25a630e1b1bb847ca0e32e8d5a2c62d424e4b0d67d8295d094589efba2611485602082015281526100c8610275565b7f105e2254f385a54471f0f072b96fc88fc2a55e98e8fccbdcd5da2729f42941c781527f1478cea7a3717eed37243042378ca4d61c6d69d433ecbf2967d813cb1adc02ae6020820152602082015260026000915b600283106102285761012c610275565b610134610275565b7f213df544b48e424ce1eca450ed03a5496169eddd748b653832354ca0bcf23f6281527f2959a960103c0295e1a16715e806239ff6c59e4c0743824c117de81ae7f85c9660208201528152610187610275565b7f2dc616d796b0ecac95c855ccb68ea147ba7ae912cc510afd22db4596056d688681527f1afc010c12a7d030252d49bbe091ac357b40f62e2c1ac4c1f346b20ce3c2c5c66020820152602082015260066000915b600283106101f25760405161284590816102ab8239f35b805160005b6002811061021457505060026020600192019201920191906101db565b8151848201556020909101906001016101f7565b805160005b6002811061024a575050600260206001920192019201919061011c565b81518482015560209091019060010161022d565b6001906020835193019281550161005d565b600080fd5b60408051919082016001600160401b0381118382101761029457604052565b634e487b7160e01b600052604160045260246000fdfe6080604052600436101561001257600080fd5b60003560e01c80633cc08b241461007757806346bed3d1146100725780639e78ccf71461006d578063c1eb466c14610068578063e16c8a91146100635763fc3d76fa1461005e57600080fd5b6105de565b610599565b6104f2565b61032d565b6102f2565b34610252576105003660031901126102525761009236610257565b61009b366102ab565b6100a436610264565b90366105041161025257610249926104006040526100c461010435610aa3565b6100d061012435610aa3565b6100dc61014435610aa3565b6100e861016435610aa3565b6100f461018435610aa3565b6101006101a435610aa3565b61010c6101c435610aa3565b6101186101e435610aa3565b61012461020435610aa3565b61013061022435610aa3565b61013c61024435610aa3565b61014861026435610aa3565b61015461028435610aa3565b6101606102a435610aa3565b61016c6102c435610aa3565b6101786102e435610aa3565b61018461030435610aa3565b61019061032435610aa3565b61019c61034435610aa3565b6101a861036435610aa3565b6101b461038435610aa3565b6101c06103a435610aa3565b6101cc6103c435610aa3565b6101d86103e435610aa3565b6101e461040435610aa3565b6101f061042435610aa3565b6101fc61044435610aa3565b61020861046435610aa3565b61021461048435610aa3565b6102206104a435610aa3565b61022c6104c435610aa3565b6102386104e435610aa3565b61024461050435610aa3565b611c54565b60005260206000f35b600080fd5b9060049160441161025257565b9060c4916101041161025257565b9060449160841161025257565b9060e4916101241161025257565b90610184916101c41161025257565b90610244916102841161025257565b9060449160c41161025257565b9060649160e41161025257565b906101c4916102441161025257565b90610284916103041161025257565b90610304916103841161025257565b346102525760003660031901126102525760206040517f30644e72e131a029b85045b68181585d2833e84879b9709143e1f593f00000018152f35b346102525760c03660031901126102525761034736610257565b60206103a061039861035836610272565b9361039260a4358161038961037761038160843561037c83368e6120d9565b6125c7565b61264b565b9536906120d9565b9161037c612113565b90612698565b9236906120d9565b6104346103ab61217d565b936104136103b76121bb565b916103f4610180976103d66103cb8a6104e2565b978051895260200190565b51878901528051602001516040880152805151606088015260200190565b8051602001516080870152515160a0860152805160c086015260200190565b5160e084015280516020015161010084015280515161012084015260200190565b80516020015161014083015251516101608201526104506122f2565b92839160086107cf195a01fa80156104875761048391610471600192612735565b51604051911481529081906020820190565b0390f35bfe5b634e487b7160e01b600052604160045260246000fd5b6040810190811067ffffffffffffffff8211176104bb57604052565b610489565b90601f8019910116810190811067ffffffffffffffff8211176104bb57604052565b906104f060405192836104c0565b565b346102525760403660031901126102525760043567ffffffffffffffff811161025257366023820112156102525780600401359067ffffffffffffffff82116104bb578160051b6040519261054a60208301856104c0565b8352602460208401918301019136831161025257602401905b828210610589576104836105796024358661220f565b6040519081529081906020820190565b8135815260209182019101610563565b346102525760003660031901126102525760206040516000805160206127f08339815191528152f35b9060049160641161025257565b90610124916101841161025257565b3461025257610380366003190112610252576105f9366105c2565b610602366102b8565b9061060c3661027f565b610615366105cf565b9261061f3661028d565b93610629366102c5565b916106333661029c565b9261063d366102d4565b90610647366102e3565b9387359761065860028a1015612280565b610660612307565b7f03e7c5722d93171f795ffbc5b16f516c129b53d4b2881240dbfb5465143aced181529860208a015260005b60028110610a665750506040986106b06106a58b6104e2565b9880358a5260200190565b3560208901526106e56106c86040840135809a61264b565b6106d18c6104e2565b87358152602088015b356020820152612698565b926106f08451612779565b976106ff602086015b51612779565b9960005b60ff81166004811015610789579d60ff60049f819f9e9d9c9b9a999897969594938f8f8f846107719261073b60019761075d94612370565b5161075761075161074b89612381565b60ff1690565b87612328565b52612370565b519161076b61074b85612392565b90612328565b5201169192939495969798999a9b9c9d509d50610703565b50508b979899508c8735809a8c6107a08b60400190565b35998a85519e8f93639e78ccf760e01b855260048501936107c0946123ff565b038c3091815a93602094fa908115610a23576107ed6108319260ff9e600091610a47575b509e9d9e61244f565b6108166107f9856104e2565b956108098b359b8c895260200190565b359687602082015261264b565b906106da610823866104e2565b916040810135835260600190565b9661083c8851612779565b97610849602082016106f9565b9960009e8f5b169e8f600411156108a05760ff9e9f8f918f6108958f8f946108879161087782600198612370565b5161075761075161074b896123a3565b519161076b61074b856123b4565b5201169e9d8f61084f565b508c97989950906108c99392918c8f6108bb60209160400190565b602083013597889360600190565b35946108e9868b519a8b948594639e78ccf760e01b8652600486016123ff565b0381305afa948515610a235761090e61093d9661094398600091610a28575b506124af565b6102808b01526102a08a01526102c08901526102e088015261092e612318565b50610937612318565b50612779565b92612779565b9260005b60ff811660048110156109a25760ff916109848261096760019489612370565b5161097d61097761074b866123c5565b8c612328565b5288612370565b5161099a61099461074b846123d6565b8a612328565b520116610947565b5050602086886109c68886519586948594630f3022c960e21b86526004860161250f565b0381305afa908115610a23576109ea916001916000916109f4575b5015151461257b565b5160018152602090f35b610a16915060203d602011610a1c575b610a0e81836104c0565b8101906123e7565b846109e1565b503d610a04565b612443565b610a41915060203d602011610a1c57610a0e81836104c0565b8f610908565b610a60915060203d602011610a1c57610a0e81836104c0565b386107e4565b80610a82610a7c6001939d949d9b9a969b61234f565b8d61226a565b35610a95610a8f83612362565b8d612328565b52019990999792969761068c565b7f30644e72e131a029b85045b68181585d2833e84879b9709143e1f593f00000011115610acc57565b6000805260206000f35b604051917f11010d9c6e38fa7c3cf45810cf9f531f458f567048e95539963fa9711c73917583527f018ccd0277cd1b06c9d2130b73f047c28f6ee4753a037754d3822b71fab25f4a60208401526040830190815260408360608160076107cf195a01fa15610acc57815190526020810151606083015260409160809060066107cf195a01fa15610acc57565b604051917f198fe48d9eb27296e4d46c93838ed990cfeddeace4ff225688cb36b82ec4271783527f0485afca2daab6776d99aa26b27c474e7529ca01b1ad0be331a49e6c5571447b60208401526040830190815260408360608160076107cf195a01fa15610acc57815190526020810151606083015260409160809060066107cf195a01fa15610acc57565b604051917f1f13a3fe67c7727d8a0335bc1c15fc2b764e5bd95daf0081c34cfd8dee47875f83527f229c0a86659cf518a997bbb20276ae50b93aba41373084e38bc70c4f6b45a0ce60208401526040830190815260408360608160076107cf195a01fa15610acc57815190526020810151606083015260409160809060066107cf195a01fa15610acc57565b604051917f1967416ceb3a4beb17e6ad4b4cdb175da60c26fcbb8086d1c45588be6cd6eae483527f1a22199e40346c8b01f07fa3be60cb695a950b9b3f023ad02d70a212dc4a7b4160208401526040830190815260408360608160076107cf195a01fa15610acc57815190526020810151606083015260409160809060066107cf195a01fa15610acc57565b604051917f1cd400afadce3d551aa765bfd507b4e32ad1449facdf798f29fd1329fccb135083527f15e80f197e156bfc612be47582fe9963f9d0396b4a4c545aaea48eb0d7330b8760208401526040830190815260408360608160076107cf195a01fa15610acc57815190526020810151606083015260409160809060066107cf195a01fa15610acc57565b604051917f23de5e0cf0d193985bb1f5e4eaf05a3d1411e932c6385fb906a116cb7afab8c983527f0a337e439f9058771097f19f2ab0fd3e298e38dd432ee2206d239ecdb9ab15fb60208401526040830190815260408360608160076107cf195a01fa15610acc57815190526020810151606083015260409160809060066107cf195a01fa15610acc57565b604051917f1b2c4dc7aadd5c5615cfbec2193c72eec4351f6388962a398d6318ee94684b0f83527f29b039e1766ccc319311e0a2418c8c6b61e2e7048c12fc038a969753d8b13f0560208401526040830190815260408360608160076107cf195a01fa15610acc57815190526020810151606083015260409160809060066107cf195a01fa15610acc57565b604051917f06a78a92f313fee6dfac403a8ca45110ba3c1d779469a93a74962ff0e51ab4d283527f2f43fac8c2c2dab2041d82d998c81e664872120d19664344a4db0e8fd293b99d60208401526040830190815260408360608160076107cf195a01fa15610acc57815190526020810151606083015260409160809060066107cf195a01fa15610acc57565b604051917f01cb1c4a07e2108684351408498b8259e7ae34214f54db065f7fa090ebea6aea83527f1f9785dc9f5562990187842a69793e9bf0a33ebac57224a593781a97ddafe94760208401526040830190815260408360608160076107cf195a01fa15610acc57815190526020810151606083015260409160809060066107cf195a01fa15610acc57565b604051917f04acdd3175587ad1dca2b0577dced9b765f1cce61209905fd467eb23bf3c6ebb83527f2499ba0dc99e8af0dd56ecb56b922f5478f83803c34cdcbf9fcc994df915341a60208401526040830190815260408360608160076107cf195a01fa15610acc57815190526020810151606083015260409160809060066107cf195a01fa15610acc57565b604051917f0711f2a71684b202a430e7dbf85431d15a2bb54ee16eeebd496eab3994074b1683527f14ae7c51cce8d46b87997a393ba565285227d1e639e7fa32bfdbdd377902a30860208401526040830190815260408360608160076107cf195a01fa15610acc57815190526020810151606083015260409160809060066107cf195a01fa15610acc57565b604051917f23330a0ae1259ace2f28ad040bf2e0c77504a413c2ff82638cb4b3cf647f3cda83527f27bceeb635df7332f9618d74565686ca6ec61aa24f0acdb09cff7e3a215b9bfa60208401526040830190815260408360608160076107cf195a01fa15610acc57815190526020810151606083015260409160809060066107cf195a01fa15610acc57565b604051917f20303fce6392875c09ca31b2894778446424475fec4e23b20af0cd4aaa6487fe83527f2568f820c814c94a40744b6f171fcd34cbe98b3a46299583fb4fb3634fcfb50660208401526040830190815260408360608160076107cf195a01fa15610acc57815190526020810151606083015260409160809060066107cf195a01fa15610acc57565b604051917f287947ba205e2ba1d5174b136e93848e50f104b5c802bdf0c3c62088cc22356183527f17c233346c6b4aaf4accf74881746ff097edf954aa4318e6ac89aefa4edef27560208401526040830190815260408360608160076107cf195a01fa15610acc57815190526020810151606083015260409160809060066107cf195a01fa15610acc57565b604051917f0e650541e9d2ec1d43807215375199f5a5ee2ebf4a5d3adf31fe93aae2f3796583527f15fad1251cb10082ad4e2528ea8ca77aa738ec5e86bb7b3adffa3e59c46b9e1360208401526040830190815260408360608160076107cf195a01fa15610acc57815190526020810151606083015260409160809060066107cf195a01fa15610acc57565b604051917f15590df5329bf6e99e6408770870d5ef1874c610416cd1d761b0c22cd0ee62d483527f1778b105a18c2910177a284eff8c0455b04bf1eb6610321ec03861dba6f5062b60208401526040830190815260408360608160076107cf195a01fa15610acc57815190526020810151606083015260409160809060066107cf195a01fa15610acc57565b604051917f17bf4d437010bee75009e5e1142dbeb4fd8e1bcfaa7d622083608786e0dc516e83527f24fff15b6df784700f53380202335d1b730c4f2785f3ebf9c9c04e5c5a9fe2b160208401526040830190815260408360608160076107cf195a01fa15610acc57815190526020810151606083015260409160809060066107cf195a01fa15610acc57565b604051917f08e006f7d5fe8f935d858885b8ebfaca99a13267e381f23108f134c17d78d39e83527f21892acceb9ba86650e4216ff30c077f2261c023e240d95ffb7346ac02513f8260208401526040830190815260408360608160076107cf195a01fa15610acc57815190526020810151606083015260409160809060066107cf195a01fa15610acc57565b604051917f263a958dc60569351ec7b99c5b144788bfec258cba37987e5abbbe6c34024f8383527f063f51092a1138e56509c3312ccc8601feb633646e8bc55b2c1808ffd258799d60208401526040830190815260408360608160076107cf195a01fa15610acc57815190526020810151606083015260409160809060066107cf195a01fa15610acc57565b604051917f1ce127bc75a2766c47f2aaed7e153731df98b92a0f983c912727c4a034078f7e83527f1bdab421c58a7fda6a41fb161c294b8c5ffaf7e2ba6fbc71cfc852bfeb10d86760208401526040830190815260408360608160076107cf195a01fa15610acc57815190526020810151606083015260409160809060066107cf195a01fa15610acc57565b604051917f185654525df54e91acc61c25647550698884a5f90a363d8dce3c73685837a23983527f16070596f4d1ae539bb992a236f3c9fe1febe33a7f0dabea87e6ea66cd76f47b60208401526040830190815260408360608160076107cf195a01fa15610acc57815190526020810151606083015260409160809060066107cf195a01fa15610acc57565b604051917f0170434e55af68cf14aba84d5a6201bf4459908f4272ed31ed74647595f8a5a583527f1e7ce3133949ea40a0441e3b0767e17d48a192d94752fda196bcd9cf55ba8d2460208401526040830190815260408360608160076107cf195a01fa15610acc57815190526020810151606083015260409160809060066107cf195a01fa15610acc57565b604051917e2b0e212e9f118c89478d3fdf9d77c0f9941760d4217ef45dfc2daedaf7edc483527f050090d0e9f95d287260387b80c5126a7e391a9638cc98e5ae9ffc86f3e72c1060208401526040830190815260408360608160076107cf195a01fa15610acc57815190526020810151606083015260409160809060066107cf195a01fa15610acc57565b604051917f11b9321b72aad9b82450e03336453e13d5688d3180a64139c73619b8f18cee6c83527f08d574dfa32e40352abaca79905afea14f0c25f650076b9dfb8b3b9ce670b80260208401526040830190815260408360608160076107cf195a01fa15610acc57815190526020810151606083015260409160809060066107cf195a01fa15610acc57565b604051917f2eae40c0aa87ffbb66bc10056e07c74a03d40266e0fffc1145d1a0c108bcfddf83527f1fd345fa97ba4246a0e5bdb19e7702b85f039fdfb7108bb91da02b46863378ea60208401526040830190815260408360608160076107cf195a01fa15610acc57815190526020810151606083015260409160809060066107cf195a01fa15610acc57565b604051917f07182515694d14480866446e299fe8ef8e526868062365ef6f22717bb277373483527f0c8545960481b22a260411aaf88e79fbeda4915c83486be1b7182733d41a8c9660208401526040830190815260408360608160076107cf195a01fa15610acc57815190526020810151606083015260409160809060066107cf195a01fa15610acc57565b604051917f0b4f5d9df420fdae60d9e119f9b4cc27c10ed0778706e78a33d529a28bedacef83527f14743a7006b2405669e1a1a5e67535da2da0f6ca8cf96e0b70463eaaae6c350860208401526040830190815260408360608160076107cf195a01fa15610acc57815190526020810151606083015260409160809060066107cf195a01fa15610acc57565b604051917f1cd803e77e85858819bff62686255b41df102895bc8e78e49d09557d384e3a1f83527f1e3121d260c6d9f91ff59435159f1e9db0fc35ad97cfda64194a2bc051e74a8960208401526040830190815260408360608160076107cf195a01fa15610acc57815190526020810151606083015260409160809060066107cf195a01fa15610acc57565b604051917f0488f90b11633501d63cba615b9fadff16e17e62d9ae5a63042b4ec05d85100683527f12aee098b3466c531da162e87e2354c5eafe265e00b2180968ce9ce450bd258f60208401526040830190815260408360608160076107cf195a01fa15610acc57815190526020810151606083015260409160809060066107cf195a01fa15610acc57565b604051917e4da33fa9998640d59f84629a8d0de5cf7f211bcbea72cbaffa0c92c5bb3d6283527f0f5203253ac1c168418a5708fc65f53e2efc8f599a6cb6943d8bf72318dde26460208401526040830190815260408360608160076107cf195a01fa15610acc57815190526020810151606083015260409160809060066107cf195a01fa15610acc57565b604051917f2fb25dcc3dd96e6e137261213f9a05c4d710e63e10eea32e9b06436bc4053e1d83527f0b260d90f09a1ccf7a42baa2113982af1df5d1d7290527f3720671fba819892c60208401526040830190815260408360608160076107cf195a01fa15610acc57815190526020810151606083015260409160809060066107cf195a01fa15610acc57565b604051917f0c9b526a00bdbd1e7031f3aae102dc8ddc653a153156f6426ffc7545bf88ec7e83527f048dacc60ffc2bd58b94bc051329fa03e919aa4ff1bc74cfdfd5994a3a293c1060208401526040830190815260408360608160076107cf195a01fa15610acc57815190526020810151606083015260409160809060066107cf195a01fa15610acc57565b602092916000805160206127f0833981519152846060937f0f8087d78fd3a13a9551931f3b55398f864454fe608e861546c590e110ce20206080527f26728a8140b0c67542590f90e0a88cb92e3d6213cf5453fec32e7778a785d5e860a052611cc1610104356080610ad6565b611ccf610124356080610b62565b611cdd610144356080610bee565b611ceb610164356080610c7a565b611cf9610184356080610d06565b611d076101a4356080610d92565b611d156101c4356080610e1e565b611d236101e4356080610eaa565b611d31610204356080610f36565b611d3f610224356080610fc2565b611d4d61024435608061104e565b611d5b6102643560806110da565b611d69610284356080611166565b611d776102a43560806111f2565b611d856102c435608061127e565b611d936102e435608061130a565b611da1610304356080611396565b611daf610324356080611422565b611dbd6103443560806114ae565b611dcb61036435608061153a565b611dd96103843560806115c6565b611de76103a4356080611652565b611df56103c43560806116de565b611e036103e4356080611769565b611e116104043560806117f5565b611e1f610424356080611881565b611e2d61044435608061190d565b611e3b610464356080611999565b611e49610484356080611a25565b611e576104a4356080611ab1565b611e656104c4356080611b3c565b611e736104e4356080611bc8565b803561010052013581030661012052803561014052838101356101605260408101356101805201356101a0527f2bcb07e090c509648460310ef6e09672b1f3a802f8f6afcd5b560ebc8dfed4006101c0527f1c2d0b45b0ea4b29d9ec33c5bd4ca4051d136bc9c27c417d1ce735c8865f7d8d6101e0527f170bef003071274cf9c722c4a2ec8825cd56327bdb311e929ba9c19c64bd2b93610200527f04c196246635e807257b64025d1da2f3d497f10f70ca9f9e14014d70985e1811610220527f0cd90adfe289ba215558d896ee457af9708af3c0c6133d61a0cd907e92782292610240527f196faee2853f78c04d354e9b0c2ff38f5b3e4dbc2ce3c6bc79755aca3163c44f610260526080516102805260a0516102a0527f118591cd5f93db67a738b3bd1556a7c5a116c5eddff9c7f9d7fb0d3297ed3d3d6102c0527f10226223146e0333ac07a3026a095213b10aab8a51a69112004a6243c070be536102e0527f08d524789251ea760d321556433b9df73389cc6310afdbe037237780f106234c610300527f0e50609f485f6635911ca9685614f031713af9768d2b317dfedc99569353b5fe610320528035610340520135610360527f2edd92a231b4a44dcad9e185f8c7778a31a0b32a9c97be302d7009250dcfb23e610380527f1bf9ad1a92c8d86777ca41065a4fef9225d3ae380e6055617c6c51177003d51e6103a0527f07f8c3c3b1285dcba6a185f08eeed9498df70bfa7a69af3ffa8d3fc24152cd686103c0527f23cceedea3653120adf7889d4ff94a427450e8bba3deede2443c752388775fda6103e05260206101006103008160086107cf195a01fa610100511690565b919060408051936120ea82866104c0565b8491810192831161025257905b82821061210357505050565b81358152602091820191016120f7565b60405190600080835b60028210612132575050506104f06040836104c0565b600160208192855481520193019101909161211c565b60405191906000835b60028210612167575050506104f06040836104c0565b6001602081928554815201930191019091612151565b6040519061218a8261049f565b60066000835b6002821061219d57505050565b600260206001926121ad86612148565b815201930191019091612190565b604051906121c88261049f565b60026000835b600282106121db57505050565b600260206001926121eb86612148565b8152019301910190916121ce565b634e487b7160e01b600052603260045260246000fd5b909190600090600190825b8151841015612263577f30644e72e131a029b85045b68181585d2833e84879b9709143e1f593f000000186816001938160208960051b880101518809900894099301929161221a565b9450505050565b90600381101561227b5760051b0190565b6121f9565b1561228757565b60405162461bcd60e51b815260206004820152603860248201527f466f6c64696e673a20746865206e756d626572206f6620666f6c64656420737460448201527f6570732073686f756c64206265206174206c65617374203200000000000000006064820152608490fd5b60405190602061230281846104c0565b368337565b6040519061040061230281846104c0565b60405190608061230281846104c0565b90602081101561227b5760051b0190565b634e487b7160e01b600052601160045260246000fd5b600101908160011161235d57565b612339565b600201908160021161235d57565b90600481101561227b5760051b0190565b60ff166004019060ff821161235d57565b60ff166008019060ff821161235d57565b60ff16600c019060ff821161235d57565b60ff166010019060ff821161235d57565b60ff166018019060ff821161235d57565b60ff16601c019060ff821161235d57565b90816020910312610252575180151581036102525790565b60c08101959493909290916000845b6002821061242d5750505090604083928160a095013760808201520152565b602080600192855181520193019101909161240e565b6040513d6000823e3d90fd5b1561245657565b60405162461bcd60e51b815260206004820152602b60248201527f4b5a473a20766572696679696e672070726f6f6620666f72206368616c6c656e60448201526a19d94815c819985a5b195960aa1b6064820152608490fd5b156124b657565b60405162461bcd60e51b815260206004820152602b60248201527f4b5a473a20766572696679696e672070726f6f6620666f72206368616c6c656e60448201526a19d948114819985a5b195960aa1b6064820152608490fd5b919493929094604061050084019684376000604084015b60028210612565575050509060406101009260c0830137016000905b6020821061254f57505050565b6020806001928551815201930191019091612542565b6040808281866001953701930191019091612526565b1561258257565b60405162461bcd60e51b815260206004820152601f60248201527f47726f746831363a20766572696679696e672070726f6f66206661696c6564006044820152606490fd5b60409081516125d683826104c0565b82368237508051158061263f575b61263a5760206000805160206127f083398151915291612606845194856104c0565b805184520151066000805160206127f0833981519152036000805160206127f0833981519152811161235d57602082015290565b905090565b506020810151156125e4565b919060409081519061265d83836104c0565b823683378194606091602085519261267585856104c0565b8436853780518452015160208301528482015260076107cf195a01fa1561048757565b9190916040809160808251916126ae84846104c0565b8336843760208397818651936126c486866104c0565b805185520151828401528051868401520151606082015260066107cf195a01fa801561048757156126f25750565b5162461bcd60e51b815260206004820152601760248201527f626e3235343a20706f696e7420616464206661696c65640000000000000000006044820152606490fd5b1561273c57565b60405162461bcd60e51b8152602060048201526015602482015274189b8c8d4d0e881c185a5c9a5b99c819985a5b1959605a1b6044820152606490fd5b60808060405161278982826104c0565b3690376040519061279a81836104c0565b36823760005b60ff81169060048210156127e8578060061b90613fc060c083169216820361235d5760ff926127e067ffffffffffffffff8786600196161c169186612370565b5201166127a0565b505090509056fe30644e72e131a029b85045b68181585d97816a916871ca8d3c208c16d87cfd47a2646970667358221220c21db3f4a9451905f46b8ff842a01a942de57cd22b4ed0cf81fec0077f06d09864736f6c634300081c0033",
  "linkReferences": {},
  "deployedLinkReferences": {}
}