{"contracts/NovaVerifier.sol":{"NovaDecider":{"abi":[{"inputs":[],"name":"BN254_PRIME_FIELD","outputs":[{"internalType":"uint256","name":"","type":"uint256"}],"stateMutability":"view","type":"function"},{"inputs":[],"name":"BN254_SCALAR_FIELD","outputs":[{"internalType":"uint256","name":"","type":"uint256"}],"stateMutability":"view","type":"function"},{"inputs":[{"internalType":"uint256[2]","name":"c","type":"uint256[2]"},{"internalType":"uint256[2]","name":"pi","type":"uint256[2]"},{"internalType":"uint256","name":"x","type":"uint256"},{"internalType":"uint256","name":"y","type":"uint256"}],"name":"check","outputs":[{"internalType":"bool","name":"result","type":"bool"}],"stateMutability":"view","type":"function"},{"inputs":[{"internalType":"uint256[]","name":"_coefficients","type":"uint256[]"},{"internalType":"uint256","name":"_index","type":"uint256"}],"name":"evalPolyAt","outputs":[{"internalType":"uint256","name":"","type":"uint256"}],"stateMutability":"pure","type":"function"},{"inputs":[{"internalType":"uint256[3]","name":"i_z0_zi","type":"uint256[3]"},{"internalType":"uint256[4]","name":"U_i_cmW_U_i_cmE","type":"uint256[4]"},{"internalType":"uint256[2]","name":"u_i_cmW","type":"uint256[2]"},{"internalType":"uint256[3]","name":"cmT_r","type":"uint256[3]"},{"internalType":"uint256[2]","name":"pA","type":"uint256[2]"},{"internalType":"uint256[2][2]","name":"pB","type":"uint256[2][2]"},{"internalType":"uint256[2]","name":"pC","type":"uint256[2]"},{"internalType":"uint256[4]","name":"challenge_W_challenge_E_kzg_evals","type":"uint256[4]"},{"internalType":"uint256[2][2]","name":"kzg_proof","type":"uint256[2][2]"}],"name":"verifyNovaProof","outputs":[{"internalType":"bool","name":"","type":"bool"}],"stateMutability":"view","type":"function"},{"inputs":[{"internalType":"uint256[2]","name":"_pA","type":"uint256[2]"},{"internalType":"uint256[2][2]","name":"_pB","type":"uint256[2][2]"},{"internalType":"uint256[2]","name":"_pC","type":"uint256[2]"},{"internalType":"uint256[32]","name":"_pubSignals","type":"uint256[32]"}],"name":"verifyProof","outputs":[{"internalType":"bool","name":"","type":"bool"}],"stateMutability":"view","type":"function"}],"evm":{"bytecode":{"linkReferences":{},"object":"60806040523461027057610011610275565b7f171149d656ab2678f03a81fb4a13b38cb13c584222498b9f0824377ff4ef1c6c81527f1078a9c7358344c97989a825cd493c02502c5979785ab4102b85cab8785e1652602082015260005b6002811061025e5761006d610275565b610075610275565b7f2e85a64b176a89f651b755522402780ac5224a690c62c2a3580e2b77391eb85f81527f25a630e1b1bb847ca0e32e8d5a2c62d424e4b0d67d8295d094589efba2611485602082015281526100c8610275565b7f105e2254f385a54471f0f072b96fc88fc2a55e98e8fccbdcd5da2729f42941c781527f1478cea7a3717eed37243042378ca4d61c6d69d433ecbf2967d813cb1adc02ae6020820152602082015260026000915b600283106102285761012c610275565b610134610275565b7f213df544b48e424ce1eca450ed03a5496169eddd748b653832354ca0bcf23f6281527f2959a960103c0295e1a16715e806239ff6c59e4c0743824c117de81ae7f85c9660208201528152610187610275565b7f2dc616d796b0ecac95c855ccb68ea147ba7ae912cc510afd22db4596056d688681527f1afc010c12a7d030252d49bbe091ac357b40f62e2c1ac4c1f346b20ce3c2c5c66020820152602082015260066000915b600283106101f25760405161284590816102ab8239f35b805160005b6002811061021457505060026020600192019201920191906101db565b8151848201556020909101906001016101f7565b805160005b6002811061024a575050600260206001920192019201919061011c565b81518482015560209091019060010161022d565b6001906020835193019281550161005d565b600080fd5b60408051919082016001600160401b0381118382101761029457604052565b634e487b7160e01b600052604160045260246000fdfe6080604052600436101561001257600080fd5b60003560e01c80633cc08b241461007757806346bed3d1146100725780639e78ccf71461006d578063c1eb466c14610068578063e16c8a91146100635763fc3d76fa1461005e57600080fd5b6105de565b610599565b6104f2565b61032d565b6102f2565b34610252576105003660031901126102525761009236610257565b61009b366102ab565b6100a436610264565b90366105041161025257610249926104006040526100c461010435610aa3565b6100d061012435610aa3565b6100dc61014435610aa3565b6100e861016435610aa3565b6100f461018435610aa3565b6101006101a435610aa3565b61010c6101c435610aa3565b6101186101e435610aa3565b61012461020435610aa3565b61013061022435610aa3565b61013c61024435610aa3565b61014861026435610aa3565b61015461028435610aa3565b6101606102a435610aa3565b61016c6102c435610aa3565b6101786102e435610aa3565b61018461030435610aa3565b61019061032435610aa3565b61019c61034435610aa3565b6101a861036435610aa3565b6101b461038435610aa3565b6101c06103a435610aa3565b6101cc6103c435610aa3565b6101d86103e435610aa3565b6101e461040435610aa3565b6101f061042435610aa3565b6101fc61044435610aa3565b61020861046435610aa3565b61021461048435610aa3565b6102206104a435610aa3565b61022c6104c435610aa3565b6102386104e435610aa3565b61024461050435610aa3565b611c54565b60005260206000f35b600080fd5b9060049160441161025257565b9060c4916101041161025257565b9060449160841161025257565b9060e4916101241161025257565b90610184916101c41161025257565b90610244916102841161025257565b9060449160c41161025257565b9060649160e41161025257565b906101c4916102441161025257565b90610284916103041161025257565b90610304916103841161025257565b346102525760003660031901126102525760206040517f30644e72e131a029b85045b68181585d2833e84879b9709143e1f593f00000018152f35b346102525760c03660031901126102525761034736610257565b60206103a061039861035836610272565b9361039260a4358161038961037761038160843561037c83368e6120d9565b6125c7565b61264b565b9536906120d9565b9161037c612113565b90612698565b9236906120d9565b6104346103ab61217d565b936104136103b76121bb565b916103f4610180976103d66103cb8a6104e2565b978051895260200190565b51878901528051602001516040880152805151606088015260200190565b8051602001516080870152515160a0860152805160c086015260200190565b5160e084015280516020015161010084015280515161012084015260200190565b80516020015161014083015251516101608201526104506122f2565b92839160086107cf195a01fa80156104875761048391610471600192612735565b51604051911481529081906020820190565b0390f35bfe5b634e487b7160e01b600052604160045260246000fd5b6040810190811067ffffffffffffffff8211176104bb57604052565b610489565b90601f8019910116810190811067ffffffffffffffff8211176104bb57604052565b906104f060405192836104c0565b565b346102525760403660031901126102525760043567ffffffffffffffff811161025257366023820112156102525780600401359067ffffffffffffffff82116104bb578160051b6040519261054a60208301856104c0565b8352602460208401918301019136831161025257602401905b828210610589576104836105796024358661220f565b6040519081529081906020820190565b8135815260209182019101610563565b346102525760003660031901126102525760206040516000805160206127f08339815191528152f35b9060049160641161025257565b90610124916101841161025257565b3461025257610380366003190112610252576105f9366105c2565b610602366102b8565b9061060c3661027f565b610615366105cf565b9261061f3661028d565b93610629366102c5565b916106333661029c565b9261063d366102d4565b90610647366102e3565b9387359761065860028a1015612280565b610660612307565b7f03e7c5722d93171f795ffbc5b16f516c129b53d4b2881240dbfb5465143aced181529860208a015260005b60028110610a665750506040986106b06106a58b6104e2565b9880358a5260200190565b3560208901526106e56106c86040840135809a61264b565b6106d18c6104e2565b87358152602088015b356020820152612698565b926106f08451612779565b976106ff602086015b51612779565b9960005b60ff81166004811015610789579d60ff60049f819f9e9d9c9b9a999897969594938f8f8f846107719261073b60019761075d94612370565b5161075761075161074b89612381565b60ff1690565b87612328565b52612370565b519161076b61074b85612392565b90612328565b5201169192939495969798999a9b9c9d509d50610703565b50508b979899508c8735809a8c6107a08b60400190565b35998a85519e8f93639e78ccf760e01b855260048501936107c0946123ff565b038c3091815a93602094fa908115610a23576107ed6108319260ff9e600091610a47575b509e9d9e61244f565b6108166107f9856104e2565b956108098b359b8c895260200190565b359687602082015261264b565b906106da610823866104e2565b916040810135835260600190565b9661083c8851612779565b97610849602082016106f9565b9960009e8f5b169e8f600411156108a05760ff9e9f8f918f6108958f8f946108879161087782600198612370565b5161075761075161074b896123a3565b519161076b61074b856123b4565b5201169e9d8f61084f565b508c97989950906108c99392918c8f6108bb60209160400190565b602083013597889360600190565b35946108e9868b519a8b948594639e78ccf760e01b8652600486016123ff565b0381305afa948515610a235761090e61093d9661094398600091610a28575b506124af565b6102808b01526102a08a01526102c08901526102e088015261092e612318565b50610937612318565b50612779565b92612779565b9260005b60ff811660048110156109a25760ff916109848261096760019489612370565b5161097d61097761074b866123c5565b8c612328565b5288612370565b5161099a61099461074b846123d6565b8a612328565b520116610947565b5050602086886109c68886519586948594630f3022c960e21b86526004860161250f565b0381305afa908115610a23576109ea916001916000916109f4575b5015151461257b565b5160018152602090f35b610a16915060203d602011610a1c575b610a0e81836104c0565b8101906123e7565b846109e1565b503d610a04565b612443565b610a41915060203d602011610a1c57610a0e81836104c0565b8f610908565b610a60915060203d602011610a1c57610a0e81836104c0565b386107e4565b80610a82610a7c6001939d949d9b9a969b61234f565b8d61226a565b35610a95610a8f83612362565b8d612328565b52019990999792969761068c565b7f30644e72e131a029b85045b68181585d2833e84879b9709143e1f593f00000011115610acc57565b6000805260206000f35b604051917f042f0325684e46555078bff2d7206cbff35824bdc44db8115d489f694f67834083527f1a48fa7434c2fcf572888e77a481724258dec4f143cc38a71c81d58a89deda2660208401526040830190815260408360608160076107cf195a01fa15610acc57815190526020810151606083015260409160809060066107cf195a01fa15610acc57565b604051917f2bd1c2030a8b7a8f1d881fbe9f5c12fe3fb7d271368841404cf2de935a63e60e83527f05203a63e074c9796609fd62e1b1dc53c4bd84ad24356b04dfe42784930419ad60208401526040830190815260408360608160076107cf195a01fa15610acc57815190526020810151606083015260409160809060066107cf195a01fa15610acc57565b604051917f0db9bd2774d26ed9f9ee92785d0f2da6cfe24133e5a10d022a278bd8fa38cdb483527f0f9c9e661c96bc2a2936517e1be578a365fae39c3527235c9eb4d7f75a4eb06960208401526040830190815260408360608160076107cf195a01fa15610acc57815190526020810151606083015260409160809060066107cf195a01fa15610acc57565b604051917f25349c31ffa50937a1f67459fc0e0d3440ad3d63b4f5296ca572f00712ef433a83527f26eb89983b5c75381d679815d6943850509dac64bd1286dff2994641876b357a60208401526040830190815260408360608160076107cf195a01fa15610acc57815190526020810151606083015260409160809060066107cf195a01fa15610acc57565b604051917f1f59fbca9610a1e42da20bb0971dfb47ae5f3cce9a59972acaf9b33ca3f8133383527f149342dd1e7387ad6edd68c878fa39f8447451db6ac18433bac149c290a378da60208401526040830190815260408360608160076107cf195a01fa15610acc57815190526020810151606083015260409160809060066107cf195a01fa15610acc57565b604051917f1664acde1b2fd0c725ac3f86eac77e73b280df567e623eecae617410e03eae6983527f2e3be590fd52a675abcfa2c34fb9aa61e0c3a26207eae8fce15fb21b970f5b3a60208401526040830190815260408360608160076107cf195a01fa15610acc57815190526020810151606083015260409160809060066107cf195a01fa15610acc57565b604051917f03f02bbe922b9505b78a5b26521d55bdd6c29dafe6fa7abd89de105f675a113b83527f0107fdc118e0b09a3963fa63e0b09b8a425b830822646640ef6ef332bf5e9b1760208401526040830190815260408360608160076107cf195a01fa15610acc57815190526020810151606083015260409160809060066107cf195a01fa15610acc57565b604051917f1a9d6dab9651e0dbdd288bce8aa361ff706b431afa0048836bc9b2a64904e5b383527f0d64e3986b388da1c136b2123b8d1c81efe732c3033082c4a0b481d9031c114c60208401526040830190815260408360608160076107cf195a01fa15610acc57815190526020810151606083015260409160809060066107cf195a01fa15610acc57565b604051917f192460b1236b3e98558f74973100441b8b1a7fd08434ada6b72b9618f642aca983527f15bdfdc71bc3da36f954986eaa9bc32976ddeca59c60020a54a9e35a03537cea60208401526040830190815260408360608160076107cf195a01fa15610acc57815190526020810151606083015260409160809060066107cf195a01fa15610acc57565b604051917f195fb5704e101b8643e088d375367908f9b9d6c5acc4d968c4757805ab515bc683527f291e5cbf2cdedc329b18b02c00d03082543653ccd0c9453d90d3aaa012fd8c9960208401526040830190815260408360608160076107cf195a01fa15610acc57815190526020810151606083015260409160809060066107cf195a01fa15610acc57565b604051917f12d9a3ab6dac5185b5dbd16dda3f9564b3d0cd06a41f6cb92728f4914225dc7683527f2e47ac256b76249e8bad840d54323f21c7af686f6fb3f970d9ba3f1f74b632c960208401526040830190815260408360608160076107cf195a01fa15610acc57815190526020810151606083015260409160809060066107cf195a01fa15610acc57565b604051917f2bac8037a578285185dcabaf0f049ab152250ca54e4d765602547458fb82b01183527f0d657b738a705c803b285a7aa64376fc732c555d94f5cfc2660a3f8ba009346260208401526040830190815260408360608160076107cf195a01fa15610acc57815190526020810151606083015260409160809060066107cf195a01fa15610acc57565b604051917f17a6f3496be388a096c9b0228f2a87fc35d3f7288aff31a68e54eb2d828fe04283527e120a707c40d91081a1b5f67aba3aa0bbe965794a1b72503018c18f0af6b02260208401526040830190815260408360608160076107cf195a01fa15610acc57815190526020810151606083015260409160809060066107cf195a01fa15610acc57565b604051917f0832efb36a3c15a50f9ccce322dfcf9f7eba323c18c84ae91c930b8b0ce1262583527f19d7fa5e150edbffeb758b99d2b896ba0b1605f210d32a38ee829202ecd15bac60208401526040830190815260408360608160076107cf195a01fa15610acc57815190526020810151606083015260409160809060066107cf195a01fa15610acc57565b604051917f1ee7f7af38c7b7b472ad9314f0dd9247158a1f92b91d346734e1ec53b01a598183527f190f9bd0579d151e145cd91ae9c79214245c10b72d0dd54531bb1753efbb5fa560208401526040830190815260408360608160076107cf195a01fa15610acc57815190526020810151606083015260409160809060066107cf195a01fa15610acc57565b604051917f1c6fc1a5eacaa6e867d5216dab749adb8cc0f78054b9cf600ddbaa030999897883527f2117224c3113d7a828234d0f15de062506b43fd53aaa03b2f376ac2620f2514460208401526040830190815260408360608160076107cf195a01fa15610acc57815190526020810151606083015260409160809060066107cf195a01fa15610acc57565b604051917f2fd5fa0a8c2dc62363f9fa2e40ab52a5985667de5da6fcfd569dfd302c8280bd83527f0b75d3fea3f8ba549a71cd50dbc1efd18e8a96ba487903bcd15f5e6ece6b1b9460208401526040830190815260408360608160076107cf195a01fa15610acc57815190526020810151606083015260409160809060066107cf195a01fa15610acc57565b604051917f21e35143b634eaeeb04590b3544f6c7e3fb5191adebb276850cc46b923ec5e7683527f02c85a116a08e116ce34f62b7f0ecfe9ab6b864e325eda1a5a4aa1764ebc800d60208401526040830190815260408360608160076107cf195a01fa15610acc57815190526020810151606083015260409160809060066107cf195a01fa15610acc57565b604051917f08ee907423dd1b05af1de2744d7c41ebe06cfdbd2a107346311f715fa21b31f683527f2897ca8b3345dfcef9aaf25229ede9b8d2ed84d2a9969b200cf8c92ae5c63d2c60208401526040830190815260408360608160076107cf195a01fa15610acc57815190526020810151606083015260409160809060066107cf195a01fa15610acc57565b604051917f275fccea5e06b9bb45504369702bef0fa1da46d8b2ac2faf305b164a108170a983527f2fff9a74c763884a42fd02de0ec4c54ab62f01c55455d0c89f56d8e7ddf1d7e060208401526040830190815260408360608160076107cf195a01fa15610acc57815190526020810151606083015260409160809060066107cf195a01fa15610acc57565b604051917f01183856c0042be63c09286ad17b669459dc6f6165e69ad7318785ca9cf5a20983527ee4fa10cd5a6bd2bfb9b4dce83550ba953d9629c57731d071fa850cf2fe608460208401526040830190815260408360608160076107cf195a01fa15610acc57815190526020810151606083015260409160809060066107cf195a01fa15610acc57565b604051917f170fbff46ac7a1a3d3f82cfa7083916ded52d5bb70c749ebb6f6886fd86939ec83527f1fee85e90c59f80d4032a2f3acb7de044e215b734341f5923d0492541b6daee260208401526040830190815260408360608160076107cf195a01fa15610acc57815190526020810151606083015260409160809060066107cf195a01fa15610acc57565b604051917f12399b0dba968106350c0867c6c9d5e7464b5d224eb67cb568b955bd19e7d8bb83527f077f1ffa3d06d843563caf4ac3b0d119e0ce5f0536b0df628491e4c32c65238f60208401526040830190815260408360608160076107cf195a01fa15610acc57815190526020810151606083015260409160809060066107cf195a01fa15610acc57565b604051917f0807893cdf19e1bc87fba6b53b470ddf82e1de175eefea8c8342436e012808de83527f228e7fce061679452bf7190e7a63da7f97e6ab305d9b4463ef46adffab56690760208401526040830190815260408360608160076107cf195a01fa15610acc57815190526020810151606083015260409160809060066107cf195a01fa15610acc57565b604051917f1561e5341cbe50804a311117f05f36ddaeb627b0f52c40f5c3b477d421c3ce3c83527f25c6bebe9999b95520695057d39bfcea606a4a6cafbcf106e31d4145258f113e60208401526040830190815260408360608160076107cf195a01fa15610acc57815190526020810151606083015260409160809060066107cf195a01fa15610acc57565b604051917f09626081958509887b1213bd967ce952b0967c50360fb20d4cf33b0646c1382483527f087d7715fcbf879832355ba9cdc028636692e47b02aa11cc42aa81120f18defb60208401526040830190815260408360608160076107cf195a01fa15610acc57815190526020810151606083015260409160809060066107cf195a01fa15610acc57565b604051917f175567c4ce5f760ccb8baa738ad4133ee15d7497ae8033540ffd9dbcd79ca2bb83527f1ae4606dc262d5d41eba8378f439f0fd96b08960b1396bc458d9bf5dc8d6159560208401526040830190815260408360608160076107cf195a01fa15610acc57815190526020810151606083015260409160809060066107cf195a01fa15610acc57565b604051917f09c864420f926adbaca504a1a3dcc73aa5713b310d24d6a6ac8a7019d1e978b283527f02195801c099052af9af43fb0c69bc58bd4792a55481b90c22458d14f670c10660208401526040830190815260408360608160076107cf195a01fa15610acc57815190526020810151606083015260409160809060066107cf195a01fa15610acc57565b604051917f10985c57f165eddc203061d3de3362043c2a3944c05b0915abe2b492ded8521183527f04b206a2c40b845e05e621ffbc35a5e5e0653d141aeacc26b88b699e957b4f3b60208401526040830190815260408360608160076107cf195a01fa15610acc57815190526020810151606083015260409160809060066107cf195a01fa15610acc57565b604051917f03488ce5913d7c8d7b392615bd25afd79c2e191d18c14402fd1c57c81b385b1883527f305518e8d3d1fadae66f3ea6d1b1fa71ef20756cbca3733affedd506bda7fb9660208401526040830190815260408360608160076107cf195a01fa15610acc57815190526020810151606083015260409160809060066107cf195a01fa15610acc57565b604051917f1a469db270f51ff10c5f52cbe628f33a4fe40c3e70d3341ad0177761248063c983527f19daef237b924c6bd440ab359012125e0de6ea2e5fac1422f11cad9950c896f460208401526040830190815260408360608160076107cf195a01fa15610acc57815190526020810151606083015260409160809060066107cf195a01fa15610acc57565b604051917f25d9e17414d1d5a003284d4d2d35f247610034a5e76a3ca8093d3dfda2f562d183527f0568963d9ea35b840605278a572282208e183daa5051f3cd715365cb0249a96060208401526040830190815260408360608160076107cf195a01fa15610acc57815190526020810151606083015260409160809060066107cf195a01fa15610acc57565b602092916000805160206127f0833981519152846060937f187175bae0695db90510a0e1380a3f99247a5d75ac5e813479be611cfdf6318c6080527f21782efa62094354422b0da7a898c763cb8c986284ebc9e0efc4f1fbadaccec260a052611cc1610104356080610ad6565b611ccf610124356080610b62565b611cdd610144356080610bee565b611ceb610164356080610c7a565b611cf9610184356080610d06565b611d076101a4356080610d92565b611d156101c4356080610e1e565b611d236101e4356080610eaa565b611d31610204356080610f36565b611d3f610224356080610fc2565b611d4d61024435608061104e565b611d5b6102643560806110da565b611d69610284356080611166565b611d776102a43560806111f1565b611d856102c435608061127d565b611d936102e4356080611309565b611da1610304356080611395565b611daf610324356080611421565b611dbd6103443560806114ad565b611dcb610364356080611539565b611dd96103843560806115c5565b611de76103a4356080611650565b611df56103c43560806116dc565b611e036103e4356080611768565b611e116104043560806117f4565b611e1f610424356080611880565b611e2d61044435608061190c565b611e3b610464356080611998565b611e49610484356080611a24565b611e576104a4356080611ab0565b611e656104c4356080611b3c565b611e736104e4356080611bc8565b803561010052013581030661012052803561014052838101356101605260408101356101805201356101a0527f113cbe3c9a2b8d090248ac547a0e5986316225425388f7d68723dfc7e60ab3ab6101c0527f0cab7151731cbda4eb6295aed348e9579d12426b5c863429364e115aaadfcb546101e0527f0f25a76cb8473cbe7d09a2a3b4e6e22907a9dc569c1a59a1f4fa74be6b67f078610200527f2710059ffd75a0dbe2c38ab00ef07f91f8a0e87fa223e4758311c9280725de0a610220527f22c4aa7e8478c9d0092183bb0e25ea10ae4994aa581b78e60f20ae64ce246cd4610240527f100d9e3f35195f0a3d2aeab8c7e9fdd1db43f11565b6cc1e6539f4c565b5ab40610260526080516102805260a0516102a0527f219e45b84338572e39460806f14e1248f07c97a94b26223b650d6049d325e1e76102c0527f2a39816d6d57a84e42b15222e11579453544db90ab34acacef95fb5915c22a966102e0527f0bbbb0319d6e71d44770ba707f4f7a3933d78c415743ae34f34d1c8488215201610300527f2fa77b2c66ac8a469f6f22e903ceb501072e5e00b6210d27d6d91d4839d23558610320528035610340520135610360527f1eb00b51fbc96ef7b6b3ddb183961e9a05e75e8d9dae360055f276b1d161895b610380527f0f82e4fd0f892ca3b9c6b6e6975670f2560cc516388a9f4b70015479795e53056103a0527f1402fd8730002bb3e5765db61883fce1c0c72b28a28f3303d6772835740cdfbc6103c0527f1eed01e299e1822c9f5e717b49d1907628b2e3f8b8c34408eaa70a43a930c27c6103e05260206101006103008160086107cf195a01fa610100511690565b919060408051936120ea82866104c0565b8491810192831161025257905b82821061210357505050565b81358152602091820191016120f7565b60405190600080835b60028210612132575050506104f06040836104c0565b600160208192855481520193019101909161211c565b60405191906000835b60028210612167575050506104f06040836104c0565b6001602081928554815201930191019091612151565b6040519061218a8261049f565b60066000835b6002821061219d57505050565b600260206001926121ad86612148565b815201930191019091612190565b604051906121c88261049f565b60026000835b600282106121db57505050565b600260206001926121eb86612148565b8152019301910190916121ce565b634e487b7160e01b600052603260045260246000fd5b909190600090600190825b8151841015612263577f30644e72e131a029b85045b68181585d2833e84879b9709143e1f593f000000186816001938160208960051b880101518809900894099301929161221a565b9450505050565b90600381101561227b5760051b0190565b6121f9565b1561228757565b60405162461bcd60e51b815260206004820152603860248201527f466f6c64696e673a20746865206e756d626572206f6620666f6c64656420737460448201527f6570732073686f756c64206265206174206c65617374203200000000000000006064820152608490fd5b60405190602061230281846104c0565b368337565b6040519061040061230281846104c0565b60405190608061230281846104c0565b90602081101561227b5760051b0190565b634e487b7160e01b600052601160045260246000fd5b600101908160011161235d57565b612339565b600201908160021161235d57565b90600481101561227b5760051b0190565b60ff166004019060ff821161235d57565b60ff166008019060ff821161235d57565b60ff16600c019060ff821161235d57565b60ff166010019060ff821161235d57565b60ff166018019060ff821161235d57565b60ff16601c019060ff821161235d57565b90816020910312610252575180151581036102525790565b60c08101959493909290916000845b6002821061242d5750505090604083928160a095013760808201520152565b602080600192855181520193019101909161240e565b6040513d6000823e3d90fd5b1561245657565b60405162461bcd60e51b815260206004820152602b60248201527f4b5a473a20766572696679696e672070726f6f6620666f72206368616c6c656e60448201526a19d94815c819985a5b195960aa1b6064820152608490fd5b156124b657565b60405162461bcd60e51b815260206004820152602b60248201527f4b5a473a20766572696679696e672070726f6f6620666f72206368616c6c656e60448201526a19d948114819985a5b195960aa1b6064820152608490fd5b919493929094604061050084019684376000604084015b60028210612565575050509060406101009260c0830137016000905b6020821061254f57505050565b6020806001928551815201930191019091612542565b6040808281866001953701930191019091612526565b1561258257565b60405162461bcd60e51b815260206004820152601f60248201527f47726f746831363a20766572696679696e672070726f6f66206661696c6564006044820152606490fd5b60409081516125d683826104c0565b82368237508051158061263f575b61263a5760206000805160206127f083398151915291612606845194856104c0565b805184520151066000805160206127f0833981519152036000805160206127f0833981519152811161235d57602082015290565b905090565b506020810151156125e4565b919060409081519061265d83836104c0565b823683378194606091602085519261267585856104c0565b8436853780518452015160208301528482015260076107cf195a01fa1561048757565b9190916040809160808251916126ae84846104c0565b8336843760208397818651936126c486866104c0565b805185520151828401528051868401520151606082015260066107cf195a01fa801561048757156126f25750565b5162461bcd60e51b815260206004820152601760248201527f626e3235343a20706f696e7420616464206661696c65640000000000000000006044820152606490fd5b1561273c57565b60405162461bcd60e51b8152602060048201526015602482015274189b8c8d4d0e881c185a5c9a5b99c819985a5b1959605a1b6044820152606490fd5b60808060405161278982826104c0565b3690376040519061279a81836104c0565b36823760005b60ff81169060048210156127e8578060061b90613fc060c083169216820361235d5760ff926127e067ffffffffffffffff8786600196161c169186612370565b5201166127a0565b505090509056fe30644e72e131a029b85045b68181585d97816a916871ca8d3c208c16d87cfd47a2646970667358221220d3cb7778eb93ecca1826c26feaf55c69949df3d557da29a028bce315418c697964736f6c634300081c0033","opcodes":"PUSH1 0x80 PUSH1 0x40 MSTORE CALLVALUE PUSH2 0x270 JUMPI PUSH2 0x11 PUSH2 0x275 JUMP JUMPDEST PUSH32 0x171149D656AB2678F03A81FB4A13B38CB13C584222498B9F0824377FF4EF1C6C DUP2 MSTORE PUSH32 0x1078A9C7358344C97989A825CD493C02502C5979785AB4102B85CAB8785E1652 PUSH1 0x20 DUP3 ADD MSTORE PUSH1 0x0 JUMPDEST PUSH1 0x2 DUP2 LT PUSH2 0x25E JUMPI PUSH2 0x6D PUSH2 0x275 JUMP JUMPDEST PUSH2 0x75 PUSH2 0x275 JUMP JUMPDEST PUSH32 0x2E85A64B176A89F651B755522402780AC5224A690C62C2A3580E2B77391EB85F DUP2 MSTORE PUSH32 0x25A630E1B1BB847CA0E32E8D5A2C62D424E4B0D67D8295D094589EFBA2611485 PUSH1 0x20 DUP3 ADD MSTORE DUP2 MSTORE PUSH2 0xC8 PUSH2 0x275 JUMP JUMPDEST PUSH32 0x105E2254F385A54471F0F072B96FC88FC2A55E98E8FCCBDCD5DA2729F42941C7 DUP2 MSTORE PUSH32 0x1478CEA7A3717EED37243042378CA4D61C6D69D433ECBF2967D813CB1ADC02AE PUSH1 0x20 DUP3 ADD MSTORE PUSH1 0x20 DUP3 ADD MSTORE PUSH1 0x2 PUSH1 0x0 SWAP2 JUMPDEST PUSH1 0x2 DUP4 LT PUSH2 0x228 JUMPI PUSH2 0x12C PUSH2 0x275 JUMP JUMPDEST PUSH2 0x134 PUSH2 0x275 JUMP JUMPDEST PUSH32 0x213DF544B48E424CE1ECA450ED03A5496169EDDD748B653832354CA0BCF23F62 DUP2 MSTORE PUSH32 0x2959A960103C0295E1A16715E806239FF6C59E4C0743824C117DE81AE7F85C96 PUSH1 0x20 DUP3 ADD MSTORE DUP2 MSTORE PUSH2 0x187 PUSH2 0x275 JUMP JUMPDEST PUSH32 0x2DC616D796B0ECAC95C855CCB68EA147BA7AE912CC510AFD22DB4596056D6886 DUP2 MSTORE PUSH32 0x1AFC010C12A7D030252D49BBE091AC357B40F62E2C1AC4C1F346B20CE3C2C5C6 PUSH1 0x20 DUP3 ADD MSTORE PUSH1 0x20 DUP3 ADD MSTORE PUSH1 0x6 PUSH1 0x0 SWAP2 JUMPDEST PUSH1 0x2 DUP4 LT PUSH2 0x1F2 JUMPI PUSH1 0x40 MLOAD PUSH2 0x2845 SWAP1 DUP2 PUSH2 0x2AB DUP3 CODECOPY RETURN JUMPDEST DUP1 MLOAD PUSH1 0x0 JUMPDEST PUSH1 0x2 DUP2 LT PUSH2 0x214 JUMPI POP POP PUSH1 0x2 PUSH1 0x20 PUSH1 0x1 SWAP3 ADD SWAP3 ADD SWAP3 ADD SWAP2 SWAP1 PUSH2 0x1DB JUMP JUMPDEST DUP2 MLOAD DUP5 DUP3 ADD SSTORE PUSH1 0x20 SWAP1 SWAP2 ADD SWAP1 PUSH1 0x1 ADD PUSH2 0x1F7 JUMP JUMPDEST DUP1 MLOAD PUSH1 0x0 JUMPDEST PUSH1 0x2 DUP2 LT PUSH2 0x24A JUMPI POP POP PUSH1 0x2 PUSH1 0x20 PUSH1 0x1 SWAP3 ADD SWAP3 ADD SWAP3 ADD SWAP2 SWAP1 PUSH2 0x11C JUMP JUMPDEST DUP2 MLOAD DUP5 DUP3 ADD SSTORE PUSH1 0x20 SWAP1 SWAP2 ADD SWAP1 PUSH1 0x1 ADD PUSH2 0x22D JUMP JUMPDEST PUSH1 0x1 SWAP1 PUSH1 0x20 DUP4 MLOAD SWAP4 ADD SWAP3 DUP2 SSTORE ADD PUSH2 0x5D JUMP JUMPDEST PUSH1 0x0 DUP1 REVERT JUMPDEST PUSH1 0x40 DUP1 MLOAD SWAP2 SWAP1 DUP3 ADD PUSH1 0x1 PUSH1 0x1 PUSH1 0x40 SHL SUB DUP2 GT DUP4 DUP3 LT OR PUSH2 0x294 JUMPI PUSH1 0x40 MSTORE JUMP JUMPDEST PUSH4 0x4E487B71 PUSH1 0xE0 SHL PUSH1 0x0 MSTORE PUSH1 0x41 PUSH1 0x4 MSTORE PUSH1 0x24 PUSH1 0x0 REVERT INVALID PUSH1 0x80 PUSH1 0x40 MSTORE PUSH1 0x4 CALLDATASIZE LT ISZERO PUSH2 0x12 JUMPI PUSH1 0x0 DUP1 REVERT JUMPDEST PUSH1 0x0 CALLDATALOAD PUSH1 0xE0 SHR DUP1 PUSH4 0x3CC08B24 EQ PUSH2 0x77 JUMPI DUP1 PUSH4 0x46BED3D1 EQ PUSH2 0x72 JUMPI DUP1 PUSH4 0x9E78CCF7 EQ PUSH2 0x6D JUMPI DUP1 PUSH4 0xC1EB466C EQ PUSH2 0x68 JUMPI DUP1 PUSH4 0xE16C8A91 EQ PUSH2 0x63 JUMPI PUSH4 0xFC3D76FA EQ PUSH2 0x5E JUMPI PUSH1 0x0 DUP1 REVERT JUMPDEST PUSH2 0x5DE JUMP JUMPDEST PUSH2 0x599 JUMP JUMPDEST PUSH2 0x4F2 JUMP JUMPDEST PUSH2 0x32D JUMP JUMPDEST PUSH2 0x2F2 JUMP JUMPDEST CALLVALUE PUSH2 0x252 JUMPI PUSH2 0x500 CALLDATASIZE PUSH1 0x3 NOT ADD SLT PUSH2 0x252 JUMPI PUSH2 0x92 CALLDATASIZE PUSH2 0x257 JUMP JUMPDEST PUSH2 0x9B CALLDATASIZE PUSH2 0x2AB JUMP JUMPDEST PUSH2 0xA4 CALLDATASIZE PUSH2 0x264 JUMP JUMPDEST SWAP1 CALLDATASIZE PUSH2 0x504 GT PUSH2 0x252 JUMPI PUSH2 0x249 SWAP3 PUSH2 0x400 PUSH1 0x40 MSTORE PUSH2 0xC4 PUSH2 0x104 CALLDATALOAD PUSH2 0xAA3 JUMP JUMPDEST PUSH2 0xD0 PUSH2 0x124 CALLDATALOAD PUSH2 0xAA3 JUMP JUMPDEST PUSH2 0xDC PUSH2 0x144 CALLDATALOAD PUSH2 0xAA3 JUMP JUMPDEST PUSH2 0xE8 PUSH2 0x164 CALLDATALOAD PUSH2 0xAA3 JUMP JUMPDEST PUSH2 0xF4 PUSH2 0x184 CALLDATALOAD PUSH2 0xAA3 JUMP JUMPDEST PUSH2 0x100 PUSH2 0x1A4 CALLDATALOAD PUSH2 0xAA3 JUMP JUMPDEST PUSH2 0x10C PUSH2 0x1C4 CALLDATALOAD PUSH2 0xAA3 JUMP JUMPDEST PUSH2 0x118 PUSH2 0x1E4 CALLDATALOAD PUSH2 0xAA3 JUMP JUMPDEST PUSH2 0x124 PUSH2 0x204 CALLDATALOAD PUSH2 0xAA3 JUMP JUMPDEST PUSH2 0x130 PUSH2 0x224 CALLDATALOAD PUSH2 0xAA3 JUMP JUMPDEST PUSH2 0x13C PUSH2 0x244 CALLDATALOAD PUSH2 0xAA3 JUMP JUMPDEST PUSH2 0x148 PUSH2 0x264 CALLDATALOAD PUSH2 0xAA3 JUMP JUMPDEST PUSH2 0x154 PUSH2 0x284 CALLDATALOAD PUSH2 0xAA3 JUMP JUMPDEST PUSH2 0x160 PUSH2 0x2A4 CALLDATALOAD PUSH2 0xAA3 JUMP JUMPDEST PUSH2 0x16C PUSH2 0x2C4 CALLDATALOAD PUSH2 0xAA3 JUMP JUMPDEST PUSH2 0x178 PUSH2 0x2E4 CALLDATALOAD PUSH2 0xAA3 JUMP JUMPDEST PUSH2 0x184 PUSH2 0x304 CALLDATALOAD PUSH2 0xAA3 JUMP JUMPDEST PUSH2 0x190 PUSH2 0x324 CALLDATALOAD PUSH2 0xAA3 JUMP JUMPDEST PUSH2 0x19C PUSH2 0x344 CALLDATALOAD PUSH2 0xAA3 JUMP JUMPDEST PUSH2 0x1A8 PUSH2 0x364 CALLDATALOAD PUSH2 0xAA3 JUMP JUMPDEST PUSH2 0x1B4 PUSH2 0x384 CALLDATALOAD PUSH2 0xAA3 JUMP JUMPDEST PUSH2 0x1C0 PUSH2 0x3A4 CALLDATALOAD PUSH2 0xAA3 JUMP JUMPDEST PUSH2 0x1CC PUSH2 0x3C4 CALLDATALOAD PUSH2 0xAA3 JUMP JUMPDEST PUSH2 0x1D8 PUSH2 0x3E4 CALLDATALOAD PUSH2 0xAA3 JUMP JUMPDEST PUSH2 0x1E4 PUSH2 0x404 CALLDATALOAD PUSH2 0xAA3 JUMP JUMPDEST PUSH2 0x1F0 PUSH2 0x424 CALLDATALOAD PUSH2 0xAA3 JUMP JUMPDEST PUSH2 0x1FC PUSH2 0x444 CALLDATALOAD PUSH2 0xAA3 JUMP JUMPDEST PUSH2 0x208 PUSH2 0x464 CALLDATALOAD PUSH2 0xAA3 JUMP JUMPDEST PUSH2 0x214 PUSH2 0x484 CALLDATALOAD PUSH2 0xAA3 JUMP JUMPDEST PUSH2 0x220 PUSH2 0x4A4 CALLDATALOAD PUSH2 0xAA3 JUMP JUMPDEST PUSH2 0x22C PUSH2 0x4C4 CALLDATALOAD PUSH2 0xAA3 JUMP JUMPDEST PUSH2 0x238 PUSH2 0x4E4 CALLDATALOAD PUSH2 0xAA3 JUMP JUMPDEST PUSH2 0x244 PUSH2 0x504 CALLDATALOAD PUSH2 0xAA3 JUMP JUMPDEST PUSH2 0x1C54 JUMP JUMPDEST PUSH1 0x0 MSTORE PUSH1 0x20 PUSH1 0x0 RETURN JUMPDEST PUSH1 0x0 DUP1 REVERT JUMPDEST SWAP1 PUSH1 0x4 SWAP2 PUSH1 0x44 GT PUSH2 0x252 JUMPI JUMP JUMPDEST SWAP1 PUSH1 0xC4 SWAP2 PUSH2 0x104 GT PUSH2 0x252 JUMPI JUMP JUMPDEST SWAP1 PUSH1 0x44 SWAP2 PUSH1 0x84 GT PUSH2 0x252 JUMPI JUMP JUMPDEST SWAP1 PUSH1 0xE4 SWAP2 PUSH2 0x124 GT PUSH2 0x252 JUMPI JUMP JUMPDEST SWAP1 PUSH2 0x184 SWAP2 PUSH2 0x1C4 GT PUSH2 0x252 JUMPI JUMP JUMPDEST SWAP1 PUSH2 0x244 SWAP2 PUSH2 0x284 GT PUSH2 0x252 JUMPI JUMP JUMPDEST SWAP1 PUSH1 0x44 SWAP2 PUSH1 0xC4 GT PUSH2 0x252 JUMPI JUMP JUMPDEST SWAP1 PUSH1 0x64 SWAP2 PUSH1 0xE4 GT PUSH2 0x252 JUMPI JUMP JUMPDEST SWAP1 PUSH2 0x1C4 SWAP2 PUSH2 0x244 GT PUSH2 0x252 JUMPI JUMP JUMPDEST SWAP1 PUSH2 0x284 SWAP2 PUSH2 0x304 GT PUSH2 0x252 JUMPI JUMP JUMPDEST SWAP1 PUSH2 0x304 SWAP2 PUSH2 0x384 GT PUSH2 0x252 JUMPI JUMP JUMPDEST CALLVALUE PUSH2 0x252 JUMPI PUSH1 0x0 CALLDATASIZE PUSH1 0x3 NOT ADD SLT PUSH2 0x252 JUMPI PUSH1 0x20 PUSH1 0x40 MLOAD PUSH32 0x30644E72E131A029B85045B68181585D2833E84879B9709143E1F593F0000001 DUP2 MSTORE RETURN JUMPDEST CALLVALUE PUSH2 0x252 JUMPI PUSH1 0xC0 CALLDATASIZE PUSH1 0x3 NOT ADD SLT PUSH2 0x252 JUMPI PUSH2 0x347 CALLDATASIZE PUSH2 0x257 JUMP JUMPDEST PUSH1 0x20 PUSH2 0x3A0 PUSH2 0x398 PUSH2 0x358 CALLDATASIZE PUSH2 0x272 JUMP JUMPDEST SWAP4 PUSH2 0x392 PUSH1 0xA4 CALLDATALOAD DUP2 PUSH2 0x389 PUSH2 0x377 PUSH2 0x381 PUSH1 0x84 CALLDATALOAD PUSH2 0x37C DUP4 CALLDATASIZE DUP15 PUSH2 0x20D9 JUMP JUMPDEST PUSH2 0x25C7 JUMP JUMPDEST PUSH2 0x264B JUMP JUMPDEST SWAP6 CALLDATASIZE SWAP1 PUSH2 0x20D9 JUMP JUMPDEST SWAP2 PUSH2 0x37C PUSH2 0x2113 JUMP JUMPDEST SWAP1 PUSH2 0x2698 JUMP JUMPDEST SWAP3 CALLDATASIZE SWAP1 PUSH2 0x20D9 JUMP JUMPDEST PUSH2 0x434 PUSH2 0x3AB PUSH2 0x217D JUMP JUMPDEST SWAP4 PUSH2 0x413 PUSH2 0x3B7 PUSH2 0x21BB JUMP JUMPDEST SWAP2 PUSH2 0x3F4 PUSH2 0x180 SWAP8 PUSH2 0x3D6 PUSH2 0x3CB DUP11 PUSH2 0x4E2 JUMP JUMPDEST SWAP8 DUP1 MLOAD DUP10 MSTORE PUSH1 0x20 ADD SWAP1 JUMP JUMPDEST MLOAD DUP8 DUP10 ADD MSTORE DUP1 MLOAD PUSH1 0x20 ADD MLOAD PUSH1 0x40 DUP9 ADD MSTORE DUP1 MLOAD MLOAD PUSH1 0x60 DUP9 ADD MSTORE PUSH1 0x20 ADD SWAP1 JUMP JUMPDEST DUP1 MLOAD PUSH1 0x20 ADD MLOAD PUSH1 0x80 DUP8 ADD MSTORE MLOAD MLOAD PUSH1 0xA0 DUP7 ADD MSTORE DUP1 MLOAD PUSH1 0xC0 DUP7 ADD MSTORE PUSH1 0x20 ADD SWAP1 JUMP JUMPDEST MLOAD PUSH1 0xE0 DUP5 ADD MSTORE DUP1 MLOAD PUSH1 0x20 ADD MLOAD PUSH2 0x100 DUP5 ADD MSTORE DUP1 MLOAD MLOAD PUSH2 0x120 DUP5 ADD MSTORE PUSH1 0x20 ADD SWAP1 JUMP JUMPDEST DUP1 MLOAD PUSH1 0x20 ADD MLOAD PUSH2 0x140 DUP4 ADD MSTORE MLOAD MLOAD PUSH2 0x160 DUP3 ADD MSTORE PUSH2 0x450 PUSH2 0x22F2 JUMP JUMPDEST SWAP3 DUP4 SWAP2 PUSH1 0x8 PUSH2 0x7CF NOT GAS ADD STATICCALL DUP1 ISZERO PUSH2 0x487 JUMPI PUSH2 0x483 SWAP2 PUSH2 0x471 PUSH1 0x1 SWAP3 PUSH2 0x2735 JUMP JUMPDEST MLOAD PUSH1 0x40 MLOAD SWAP2 EQ DUP2 MSTORE SWAP1 DUP2 SWAP1 PUSH1 0x20 DUP3 ADD SWAP1 JUMP JUMPDEST SUB SWAP1 RETURN JUMPDEST INVALID JUMPDEST PUSH4 0x4E487B71 PUSH1 0xE0 SHL PUSH1 0x0 MSTORE PUSH1 0x41 PUSH1 0x4 MSTORE PUSH1 0x24 PUSH1 0x0 REVERT JUMPDEST PUSH1 0x40 DUP2 ADD SWAP1 DUP2 LT PUSH8 0xFFFFFFFFFFFFFFFF DUP3 GT OR PUSH2 0x4BB JUMPI PUSH1 0x40 MSTORE JUMP JUMPDEST PUSH2 0x489 JUMP JUMPDEST SWAP1 PUSH1 0x1F DUP1 NOT SWAP2 ADD AND DUP2 ADD SWAP1 DUP2 LT PUSH8 0xFFFFFFFFFFFFFFFF DUP3 GT OR PUSH2 0x4BB JUMPI PUSH1 0x40 MSTORE JUMP JUMPDEST SWAP1 PUSH2 0x4F0 PUSH1 0x40 MLOAD SWAP3 DUP4 PUSH2 0x4C0 JUMP JUMPDEST JUMP JUMPDEST CALLVALUE PUSH2 0x252 JUMPI PUSH1 0x40 CALLDATASIZE PUSH1 0x3 NOT ADD SLT PUSH2 0x252 JUMPI PUSH1 0x4 CALLDATALOAD PUSH8 0xFFFFFFFFFFFFFFFF DUP2 GT PUSH2 0x252 JUMPI CALLDATASIZE PUSH1 0x23 DUP3 ADD SLT ISZERO PUSH2 0x252 JUMPI DUP1 PUSH1 0x4 ADD CALLDATALOAD SWAP1 PUSH8 0xFFFFFFFFFFFFFFFF DUP3 GT PUSH2 0x4BB JUMPI DUP2 PUSH1 0x5 SHL PUSH1 0x40 MLOAD SWAP3 PUSH2 0x54A PUSH1 0x20 DUP4 ADD DUP6 PUSH2 0x4C0 JUMP JUMPDEST DUP4 MSTORE PUSH1 0x24 PUSH1 0x20 DUP5 ADD SWAP2 DUP4 ADD ADD SWAP2 CALLDATASIZE DUP4 GT PUSH2 0x252 JUMPI PUSH1 0x24 ADD SWAP1 JUMPDEST DUP3 DUP3 LT PUSH2 0x589 JUMPI PUSH2 0x483 PUSH2 0x579 PUSH1 0x24 CALLDATALOAD DUP7 PUSH2 0x220F JUMP JUMPDEST PUSH1 0x40 MLOAD SWAP1 DUP2 MSTORE SWAP1 DUP2 SWAP1 PUSH1 0x20 DUP3 ADD SWAP1 JUMP JUMPDEST DUP2 CALLDATALOAD DUP2 MSTORE PUSH1 0x20 SWAP2 DUP3 ADD SWAP2 ADD PUSH2 0x563 JUMP JUMPDEST CALLVALUE PUSH2 0x252 JUMPI PUSH1 0x0 CALLDATASIZE PUSH1 0x3 NOT ADD SLT PUSH2 0x252 JUMPI PUSH1 0x20 PUSH1 0x40 MLOAD PUSH1 0x0 DUP1 MLOAD PUSH1 0x20 PUSH2 0x27F0 DUP4 CODECOPY DUP2 MLOAD SWAP2 MSTORE DUP2 MSTORE RETURN JUMPDEST SWAP1 PUSH1 0x4 SWAP2 PUSH1 0x64 GT PUSH2 0x252 JUMPI JUMP JUMPDEST SWAP1 PUSH2 0x124 SWAP2 PUSH2 0x184 GT PUSH2 0x252 JUMPI JUMP JUMPDEST CALLVALUE PUSH2 0x252 JUMPI PUSH2 0x380 CALLDATASIZE PUSH1 0x3 NOT ADD SLT PUSH2 0x252 JUMPI PUSH2 0x5F9 CALLDATASIZE PUSH2 0x5C2 JUMP JUMPDEST PUSH2 0x602 CALLDATASIZE PUSH2 0x2B8 JUMP JUMPDEST SWAP1 PUSH2 0x60C CALLDATASIZE PUSH2 0x27F JUMP JUMPDEST PUSH2 0x615 CALLDATASIZE PUSH2 0x5CF JUMP JUMPDEST SWAP3 PUSH2 0x61F CALLDATASIZE PUSH2 0x28D JUMP JUMPDEST SWAP4 PUSH2 0x629 CALLDATASIZE PUSH2 0x2C5 JUMP JUMPDEST SWAP2 PUSH2 0x633 CALLDATASIZE PUSH2 0x29C JUMP JUMPDEST SWAP3 PUSH2 0x63D CALLDATASIZE PUSH2 0x2D4 JUMP JUMPDEST SWAP1 PUSH2 0x647 CALLDATASIZE PUSH2 0x2E3 JUMP JUMPDEST SWAP4 DUP8 CALLDATALOAD SWAP8 PUSH2 0x658 PUSH1 0x2 DUP11 LT ISZERO PUSH2 0x2280 JUMP JUMPDEST PUSH2 0x660 PUSH2 0x2307 JUMP JUMPDEST PUSH32 0x3E7C5722D93171F795FFBC5B16F516C129B53D4B2881240DBFB5465143ACED1 DUP2 MSTORE SWAP9 PUSH1 0x20 DUP11 ADD MSTORE PUSH1 0x0 JUMPDEST PUSH1 0x2 DUP2 LT PUSH2 0xA66 JUMPI POP POP PUSH1 0x40 SWAP9 PUSH2 0x6B0 PUSH2 0x6A5 DUP12 PUSH2 0x4E2 JUMP JUMPDEST SWAP9 DUP1 CALLDATALOAD DUP11 MSTORE PUSH1 0x20 ADD SWAP1 JUMP JUMPDEST CALLDATALOAD PUSH1 0x20 DUP10 ADD MSTORE PUSH2 0x6E5 PUSH2 0x6C8 PUSH1 0x40 DUP5 ADD CALLDATALOAD DUP1 SWAP11 PUSH2 0x264B JUMP JUMPDEST PUSH2 0x6D1 DUP13 PUSH2 0x4E2 JUMP JUMPDEST DUP8 CALLDATALOAD DUP2 MSTORE PUSH1 0x20 DUP9 ADD JUMPDEST CALLDATALOAD PUSH1 0x20 DUP3 ADD MSTORE PUSH2 0x2698 JUMP JUMPDEST SWAP3 PUSH2 0x6F0 DUP5 MLOAD PUSH2 0x2779 JUMP JUMPDEST SWAP8 PUSH2 0x6FF PUSH1 0x20 DUP7 ADD JUMPDEST MLOAD PUSH2 0x2779 JUMP JUMPDEST SWAP10 PUSH1 0x0 JUMPDEST PUSH1 0xFF DUP2 AND PUSH1 0x4 DUP2 LT ISZERO PUSH2 0x789 JUMPI SWAP14 PUSH1 0xFF PUSH1 0x4 SWAP16 DUP2 SWAP16 SWAP15 SWAP14 SWAP13 SWAP12 SWAP11 SWAP10 SWAP9 SWAP8 SWAP7 SWAP6 SWAP5 SWAP4 DUP16 DUP16 DUP16 DUP5 PUSH2 0x771 SWAP3 PUSH2 0x73B PUSH1 0x1 SWAP8 PUSH2 0x75D SWAP5 PUSH2 0x2370 JUMP JUMPDEST MLOAD PUSH2 0x757 PUSH2 0x751 PUSH2 0x74B DUP10 PUSH2 0x2381 JUMP JUMPDEST PUSH1 0xFF AND SWAP1 JUMP JUMPDEST DUP8 PUSH2 0x2328 JUMP JUMPDEST MSTORE PUSH2 0x2370 JUMP JUMPDEST MLOAD SWAP2 PUSH2 0x76B PUSH2 0x74B DUP6 PUSH2 0x2392 JUMP JUMPDEST SWAP1 PUSH2 0x2328 JUMP JUMPDEST MSTORE ADD AND SWAP2 SWAP3 SWAP4 SWAP5 SWAP6 SWAP7 SWAP8 SWAP9 SWAP10 SWAP11 SWAP12 SWAP13 SWAP14 POP SWAP14 POP PUSH2 0x703 JUMP JUMPDEST POP POP DUP12 SWAP8 SWAP9 SWAP10 POP DUP13 DUP8 CALLDATALOAD DUP1 SWAP11 DUP13 PUSH2 0x7A0 DUP12 PUSH1 0x40 ADD SWAP1 JUMP JUMPDEST CALLDATALOAD SWAP10 DUP11 DUP6 MLOAD SWAP15 DUP16 SWAP4 PUSH4 0x9E78CCF7 PUSH1 0xE0 SHL DUP6 MSTORE PUSH1 0x4 DUP6 ADD SWAP4 PUSH2 0x7C0 SWAP5 PUSH2 0x23FF JUMP JUMPDEST SUB DUP13 ADDRESS SWAP2 DUP2 GAS SWAP4 PUSH1 0x20 SWAP5 STATICCALL SWAP1 DUP2 ISZERO PUSH2 0xA23 JUMPI PUSH2 0x7ED PUSH2 0x831 SWAP3 PUSH1 0xFF SWAP15 PUSH1 0x0 SWAP2 PUSH2 0xA47 JUMPI JUMPDEST POP SWAP15 SWAP14 SWAP15 PUSH2 0x244F JUMP JUMPDEST PUSH2 0x816 PUSH2 0x7F9 DUP6 PUSH2 0x4E2 JUMP JUMPDEST SWAP6 PUSH2 0x809 DUP12 CALLDATALOAD SWAP12 DUP13 DUP10 MSTORE PUSH1 0x20 ADD SWAP1 JUMP JUMPDEST CALLDATALOAD SWAP7 DUP8 PUSH1 0x20 DUP3 ADD MSTORE PUSH2 0x264B JUMP JUMPDEST SWAP1 PUSH2 0x6DA PUSH2 0x823 DUP7 PUSH2 0x4E2 JUMP JUMPDEST SWAP2 PUSH1 0x40 DUP2 ADD CALLDATALOAD DUP4 MSTORE PUSH1 0x60 ADD SWAP1 JUMP JUMPDEST SWAP7 PUSH2 0x83C DUP9 MLOAD PUSH2 0x2779 JUMP JUMPDEST SWAP8 PUSH2 0x849 PUSH1 0x20 DUP3 ADD PUSH2 0x6F9 JUMP JUMPDEST SWAP10 PUSH1 0x0 SWAP15 DUP16 JUMPDEST AND SWAP15 DUP16 PUSH1 0x4 GT ISZERO PUSH2 0x8A0 JUMPI PUSH1 0xFF SWAP15 SWAP16 DUP16 SWAP2 DUP16 PUSH2 0x895 DUP16 DUP16 SWAP5 PUSH2 0x887 SWAP2 PUSH2 0x877 DUP3 PUSH1 0x1 SWAP9 PUSH2 0x2370 JUMP JUMPDEST MLOAD PUSH2 0x757 PUSH2 0x751 PUSH2 0x74B DUP10 PUSH2 0x23A3 JUMP JUMPDEST MLOAD SWAP2 PUSH2 0x76B PUSH2 0x74B DUP6 PUSH2 0x23B4 JUMP JUMPDEST MSTORE ADD AND SWAP15 SWAP14 DUP16 PUSH2 0x84F JUMP JUMPDEST POP DUP13 SWAP8 SWAP9 SWAP10 POP SWAP1 PUSH2 0x8C9 SWAP4 SWAP3 SWAP2 DUP13 DUP16 PUSH2 0x8BB PUSH1 0x20 SWAP2 PUSH1 0x40 ADD SWAP1 JUMP JUMPDEST PUSH1 0x20 DUP4 ADD CALLDATALOAD SWAP8 DUP9 SWAP4 PUSH1 0x60 ADD SWAP1 JUMP JUMPDEST CALLDATALOAD SWAP5 PUSH2 0x8E9 DUP7 DUP12 MLOAD SWAP11 DUP12 SWAP5 DUP6 SWAP5 PUSH4 0x9E78CCF7 PUSH1 0xE0 SHL DUP7 MSTORE PUSH1 0x4 DUP7 ADD PUSH2 0x23FF JUMP JUMPDEST SUB DUP2 ADDRESS GAS STATICCALL SWAP5 DUP6 ISZERO PUSH2 0xA23 JUMPI PUSH2 0x90E PUSH2 0x93D SWAP7 PUSH2 0x943 SWAP9 PUSH1 0x0 SWAP2 PUSH2 0xA28 JUMPI JUMPDEST POP PUSH2 0x24AF JUMP JUMPDEST PUSH2 0x280 DUP12 ADD MSTORE PUSH2 0x2A0 DUP11 ADD MSTORE PUSH2 0x2C0 DUP10 ADD MSTORE PUSH2 0x2E0 DUP9 ADD MSTORE PUSH2 0x92E PUSH2 0x2318 JUMP JUMPDEST POP PUSH2 0x937 PUSH2 0x2318 JUMP JUMPDEST POP PUSH2 0x2779 JUMP JUMPDEST SWAP3 PUSH2 0x2779 JUMP JUMPDEST SWAP3 PUSH1 0x0 JUMPDEST PUSH1 0xFF DUP2 AND PUSH1 0x4 DUP2 LT ISZERO PUSH2 0x9A2 JUMPI PUSH1 0xFF SWAP2 PUSH2 0x984 DUP3 PUSH2 0x967 PUSH1 0x1 SWAP5 DUP10 PUSH2 0x2370 JUMP JUMPDEST MLOAD PUSH2 0x97D PUSH2 0x977 PUSH2 0x74B DUP7 PUSH2 0x23C5 JUMP JUMPDEST DUP13 PUSH2 0x2328 JUMP JUMPDEST MSTORE DUP9 PUSH2 0x2370 JUMP JUMPDEST MLOAD PUSH2 0x99A PUSH2 0x994 PUSH2 0x74B DUP5 PUSH2 0x23D6 JUMP JUMPDEST DUP11 PUSH2 0x2328 JUMP JUMPDEST MSTORE ADD AND PUSH2 0x947 JUMP JUMPDEST POP POP PUSH1 0x20 DUP7 DUP9 PUSH2 0x9C6 DUP9 DUP7 MLOAD SWAP6 DUP7 SWAP5 DUP6 SWAP5 PUSH4 0xF3022C9 PUSH1 0xE2 SHL DUP7 MSTORE PUSH1 0x4 DUP7 ADD PUSH2 0x250F JUMP JUMPDEST SUB DUP2 ADDRESS GAS STATICCALL SWAP1 DUP2 ISZERO PUSH2 0xA23 JUMPI PUSH2 0x9EA SWAP2 PUSH1 0x1 SWAP2 PUSH1 0x0 SWAP2 PUSH2 0x9F4 JUMPI JUMPDEST POP ISZERO ISZERO EQ PUSH2 0x257B JUMP JUMPDEST MLOAD PUSH1 0x1 DUP2 MSTORE PUSH1 0x20 SWAP1 RETURN JUMPDEST PUSH2 0xA16 SWAP2 POP PUSH1 0x20 RETURNDATASIZE PUSH1 0x20 GT PUSH2 0xA1C JUMPI JUMPDEST PUSH2 0xA0E DUP2 DUP4 PUSH2 0x4C0 JUMP JUMPDEST DUP2 ADD SWAP1 PUSH2 0x23E7 JUMP JUMPDEST DUP5 PUSH2 0x9E1 JUMP JUMPDEST POP RETURNDATASIZE PUSH2 0xA04 JUMP JUMPDEST PUSH2 0x2443 JUMP JUMPDEST PUSH2 0xA41 SWAP2 POP PUSH1 0x20 RETURNDATASIZE PUSH1 0x20 GT PUSH2 0xA1C JUMPI PUSH2 0xA0E DUP2 DUP4 PUSH2 0x4C0 JUMP JUMPDEST DUP16 PUSH2 0x908 JUMP JUMPDEST PUSH2 0xA60 SWAP2 POP PUSH1 0x20 RETURNDATASIZE PUSH1 0x20 GT PUSH2 0xA1C JUMPI PUSH2 0xA0E DUP2 DUP4 PUSH2 0x4C0 JUMP JUMPDEST CODESIZE PUSH2 0x7E4 JUMP JUMPDEST DUP1 PUSH2 0xA82 PUSH2 0xA7C PUSH1 0x1 SWAP4 SWAP14 SWAP5 SWAP14 SWAP12 SWAP11 SWAP7 SWAP12 PUSH2 0x234F JUMP JUMPDEST DUP14 PUSH2 0x226A JUMP JUMPDEST CALLDATALOAD PUSH2 0xA95 PUSH2 0xA8F DUP4 PUSH2 0x2362 JUMP JUMPDEST DUP14 PUSH2 0x2328 JUMP JUMPDEST MSTORE ADD SWAP10 SWAP1 SWAP10 SWAP8 SWAP3 SWAP7 SWAP8 PUSH2 0x68C JUMP JUMPDEST PUSH32 0x30644E72E131A029B85045B68181585D2833E84879B9709143E1F593F0000001 GT ISZERO PUSH2 0xACC JUMPI JUMP JUMPDEST PUSH1 0x0 DUP1 MSTORE PUSH1 0x20 PUSH1 0x0 RETURN JUMPDEST PUSH1 0x40 MLOAD SWAP2 PUSH32 0x42F0325684E46555078BFF2D7206CBFF35824BDC44DB8115D489F694F678340 DUP4 MSTORE PUSH32 0x1A48FA7434C2FCF572888E77A481724258DEC4F143CC38A71C81D58A89DEDA26 PUSH1 0x20 DUP5 ADD MSTORE PUSH1 0x40 DUP4 ADD SWAP1 DUP2 MSTORE PUSH1 0x40 DUP4 PUSH1 0x60 DUP2 PUSH1 0x7 PUSH2 0x7CF NOT GAS ADD STATICCALL ISZERO PUSH2 0xACC JUMPI DUP2 MLOAD SWAP1 MSTORE PUSH1 0x20 DUP2 ADD MLOAD PUSH1 0x60 DUP4 ADD MSTORE PUSH1 0x40 SWAP2 PUSH1 0x80 SWAP1 PUSH1 0x6 PUSH2 0x7CF NOT GAS ADD STATICCALL ISZERO PUSH2 0xACC JUMPI JUMP JUMPDEST PUSH1 0x40 MLOAD SWAP2 PUSH32 0x2BD1C2030A8B7A8F1D881FBE9F5C12FE3FB7D271368841404CF2DE935A63E60E DUP4 MSTORE PUSH32 0x5203A63E074C9796609FD62E1B1DC53C4BD84AD24356B04DFE42784930419AD PUSH1 0x20 DUP5 ADD MSTORE PUSH1 0x40 DUP4 ADD SWAP1 DUP2 MSTORE PUSH1 0x40 DUP4 PUSH1 0x60 DUP2 PUSH1 0x7 PUSH2 0x7CF NOT GAS ADD STATICCALL ISZERO PUSH2 0xACC JUMPI DUP2 MLOAD SWAP1 MSTORE PUSH1 0x20 DUP2 ADD MLOAD PUSH1 0x60 DUP4 ADD MSTORE PUSH1 0x40 SWAP2 PUSH1 0x80 SWAP1 PUSH1 0x6 PUSH2 0x7CF NOT GAS ADD STATICCALL ISZERO PUSH2 0xACC JUMPI JUMP JUMPDEST PUSH1 0x40 MLOAD SWAP2 PUSH32 0xDB9BD2774D26ED9F9EE92785D0F2DA6CFE24133E5A10D022A278BD8FA38CDB4 DUP4 MSTORE PUSH32 0xF9C9E661C96BC2A2936517E1BE578A365FAE39C3527235C9EB4D7F75A4EB069 PUSH1 0x20 DUP5 ADD MSTORE PUSH1 0x40 DUP4 ADD SWAP1 DUP2 MSTORE PUSH1 0x40 DUP4 PUSH1 0x60 DUP2 PUSH1 0x7 PUSH2 0x7CF NOT GAS ADD STATICCALL ISZERO PUSH2 0xACC JUMPI DUP2 MLOAD SWAP1 MSTORE PUSH1 0x20 DUP2 ADD MLOAD PUSH1 0x60 DUP4 ADD MSTORE PUSH1 0x40 SWAP2 PUSH1 0x80 SWAP1 PUSH1 0x6 PUSH2 0x7CF NOT GAS ADD STATICCALL ISZERO PUSH2 0xACC JUMPI JUMP JUMPDEST PUSH1 0x40 MLOAD SWAP2 PUSH32 0x25349C31FFA50937A1F67459FC0E0D3440AD3D63B4F5296CA572F00712EF433A DUP4 MSTORE PUSH32 0x26EB89983B5C75381D679815D6943850509DAC64BD1286DFF2994641876B357A PUSH1 0x20 DUP5 ADD MSTORE PUSH1 0x40 DUP4 ADD SWAP1 DUP2 MSTORE PUSH1 0x40 DUP4 PUSH1 0x60 DUP2 PUSH1 0x7 PUSH2 0x7CF NOT GAS ADD STATICCALL ISZERO PUSH2 0xACC JUMPI DUP2 MLOAD SWAP1 MSTORE PUSH1 0x20 DUP2 ADD MLOAD PUSH1 0x60 DUP4 ADD MSTORE PUSH1 0x40 SWAP2 PUSH1 0x80 SWAP1 PUSH1 0x6 PUSH2 0x7CF NOT GAS ADD STATICCALL ISZERO PUSH2 0xACC JUMPI JUMP JUMPDEST PUSH1 0x40 MLOAD SWAP2 PUSH32 0x1F59FBCA9610A1E42DA20BB0971DFB47AE5F3CCE9A59972ACAF9B33CA3F81333 DUP4 MSTORE PUSH32 0x149342DD1E7387AD6EDD68C878FA39F8447451DB6AC18433BAC149C290A378DA PUSH1 0x20 DUP5 ADD MSTORE PUSH1 0x40 DUP4 ADD SWAP1 DUP2 MSTORE PUSH1 0x40 DUP4 PUSH1 0x60 DUP2 PUSH1 0x7 PUSH2 0x7CF NOT GAS ADD STATICCALL ISZERO PUSH2 0xACC JUMPI DUP2 MLOAD SWAP1 MSTORE PUSH1 0x20 DUP2 ADD MLOAD PUSH1 0x60 DUP4 ADD MSTORE PUSH1 0x40 SWAP2 PUSH1 0x80 SWAP1 PUSH1 0x6 PUSH2 0x7CF NOT GAS ADD STATICCALL ISZERO PUSH2 0xACC JUMPI JUMP JUMPDEST PUSH1 0x40 MLOAD SWAP2 PUSH32 0x1664ACDE1B2FD0C725AC3F86EAC77E73B280DF567E623EECAE617410E03EAE69 DUP4 MSTORE PUSH32 0x2E3BE590FD52A675ABCFA2C34FB9AA61E0C3A26207EAE8FCE15FB21B970F5B3A PUSH1 0x20 DUP5 ADD MSTORE PUSH1 0x40 DUP4 ADD SWAP1 DUP2 MSTORE PUSH1 0x40 DUP4 PUSH1 0x60 DUP2 PUSH1 0x7 PUSH2 0x7CF NOT GAS ADD STATICCALL ISZERO PUSH2 0xACC JUMPI DUP2 MLOAD SWAP1 MSTORE PUSH1 0x20 DUP2 ADD MLOAD PUSH1 0x60 DUP4 ADD MSTORE PUSH1 0x40 SWAP2 PUSH1 0x80 SWAP1 PUSH1 0x6 PUSH2 0x7CF NOT GAS ADD STATICCALL ISZERO PUSH2 0xACC JUMPI JUMP JUMPDEST PUSH1 0x40 MLOAD SWAP2 PUSH32 0x3F02BBE922B9505B78A5B26521D55BDD6C29DAFE6FA7ABD89DE105F675A113B DUP4 MSTORE PUSH32 0x107FDC118E0B09A3963FA63E0B09B8A425B830822646640EF6EF332BF5E9B17 PUSH1 0x20 DUP5 ADD MSTORE PUSH1 0x40 DUP4 ADD SWAP1 DUP2 MSTORE PUSH1 0x40 DUP4 PUSH1 0x60 DUP2 PUSH1 0x7 PUSH2 0x7CF NOT GAS ADD STATICCALL ISZERO PUSH2 0xACC JUMPI DUP2 MLOAD SWAP1 MSTORE PUSH1 0x20 DUP2 ADD MLOAD PUSH1 0x60 DUP4 ADD MSTORE PUSH1 0x40 SWAP2 PUSH1 0x80 SWAP1 PUSH1 0x6 PUSH2 0x7CF NOT GAS ADD STATICCALL ISZERO PUSH2 0xACC JUMPI JUMP JUMPDEST PUSH1 0x40 MLOAD SWAP2 PUSH32 0x1A9D6DAB9651E0DBDD288BCE8AA361FF706B431AFA0048836BC9B2A64904E5B3 DUP4 MSTORE PUSH32 0xD64E3986B388DA1C136B2123B8D1C81EFE732C3033082C4A0B481D9031C114C PUSH1 0x20 DUP5 ADD MSTORE PUSH1 0x40 DUP4 ADD SWAP1 DUP2 MSTORE PUSH1 0x40 DUP4 PUSH1 0x60 DUP2 PUSH1 0x7 PUSH2 0x7CF NOT GAS ADD STATICCALL ISZERO PUSH2 0xACC JUMPI DUP2 MLOAD SWAP1 MSTORE PUSH1 0x20 DUP2 ADD MLOAD PUSH1 0x60 DUP4 ADD MSTORE PUSH1 0x40 SWAP2 PUSH1 0x80 SWAP1 PUSH1 0x6 PUSH2 0x7CF NOT GAS ADD STATICCALL ISZERO PUSH2 0xACC JUMPI JUMP JUMPDEST PUSH1 0x40 MLOAD SWAP2 PUSH32 0x192460B1236B3E98558F74973100441B8B1A7FD08434ADA6B72B9618F642ACA9 DUP4 MSTORE PUSH32 0x15BDFDC71BC3DA36F954986EAA9BC32976DDECA59C60020A54A9E35A03537CEA PUSH1 0x20 DUP5 ADD MSTORE PUSH1 0x40 DUP4 ADD SWAP1 DUP2 MSTORE PUSH1 0x40 DUP4 PUSH1 0x60 DUP2 PUSH1 0x7 PUSH2 0x7CF NOT GAS ADD STATICCALL ISZERO PUSH2 0xACC JUMPI DUP2 MLOAD SWAP1 MSTORE PUSH1 0x20 DUP2 ADD MLOAD PUSH1 0x60 DUP4 ADD MSTORE PUSH1 0x40 SWAP2 PUSH1 0x80 SWAP1 PUSH1 0x6 PUSH2 0x7CF NOT GAS ADD STATICCALL ISZERO PUSH2 0xACC JUMPI JUMP JUMPDEST PUSH1 0x40 MLOAD SWAP2 PUSH32 0x195FB5704E101B8643E088D375367908F9B9D6C5ACC4D968C4757805AB515BC6 DUP4 MSTORE PUSH32 0x291E5CBF2CDEDC329B18B02C00D03082543653CCD0C9453D90D3AAA012FD8C99 PUSH1 0x20 DUP5 ADD MSTORE PUSH1 0x40 DUP4 ADD SWAP1 DUP2 MSTORE PUSH1 0x40 DUP4 PUSH1 0x60 DUP2 PUSH1 0x7 PUSH2 0x7CF NOT GAS ADD STATICCALL ISZERO PUSH2 0xACC JUMPI DUP2 MLOAD SWAP1 MSTORE PUSH1 0x20 DUP2 ADD MLOAD PUSH1 0x60 DUP4 ADD MSTORE PUSH1 0x40 SWAP2 PUSH1 0x80 SWAP1 PUSH1 0x6 PUSH2 0x7CF NOT GAS ADD STATICCALL ISZERO PUSH2 0xACC JUMPI JUMP JUMPDEST PUSH1 0x40 MLOAD SWAP2 PUSH32 0x12D9A3AB6DAC5185B5DBD16DDA3F9564B3D0CD06A41F6CB92728F4914225DC76 DUP4 MSTORE PUSH32 0x2E47AC256B76249E8BAD840D54323F21C7AF686F6FB3F970D9BA3F1F74B632C9 PUSH1 0x20 DUP5 ADD MSTORE PUSH1 0x40 DUP4 ADD SWAP1 DUP2 MSTORE PUSH1 0x40 DUP4 PUSH1 0x60 DUP2 PUSH1 0x7 PUSH2 0x7CF NOT GAS ADD STATICCALL ISZERO PUSH2 0xACC JUMPI DUP2 MLOAD SWAP1 MSTORE PUSH1 0x20 DUP2 ADD MLOAD PUSH1 0x60 DUP4 ADD MSTORE PUSH1 0x40 SWAP2 PUSH1 0x80 SWAP1 PUSH1 0x6 PUSH2 0x7CF NOT GAS ADD STATICCALL ISZERO PUSH2 0xACC JUMPI JUMP JUMPDEST PUSH1 0x40 MLOAD SWAP2 PUSH32 0x2BAC8037A578285185DCABAF0F049AB152250CA54E4D765602547458FB82B011 DUP4 MSTORE PUSH32 0xD657B738A705C803B285A7AA64376FC732C555D94F5CFC2660A3F8BA0093462 PUSH1 0x20 DUP5 ADD MSTORE PUSH1 0x40 DUP4 ADD SWAP1 DUP2 MSTORE PUSH1 0x40 DUP4 PUSH1 0x60 DUP2 PUSH1 0x7 PUSH2 0x7CF NOT GAS ADD STATICCALL ISZERO PUSH2 0xACC JUMPI DUP2 MLOAD SWAP1 MSTORE PUSH1 0x20 DUP2 ADD MLOAD PUSH1 0x60 DUP4 ADD MSTORE PUSH1 0x40 SWAP2 PUSH1 0x80 SWAP1 PUSH1 0x6 PUSH2 0x7CF NOT GAS ADD STATICCALL ISZERO PUSH2 0xACC JUMPI JUMP JUMPDEST PUSH1 0x40 MLOAD SWAP2 PUSH32 0x17A6F3496BE388A096C9B0228F2A87FC35D3F7288AFF31A68E54EB2D828FE042 DUP4 MSTORE PUSH31 0x120A707C40D91081A1B5F67ABA3AA0BBE965794A1B72503018C18F0AF6B022 PUSH1 0x20 DUP5 ADD MSTORE PUSH1 0x40 DUP4 ADD SWAP1 DUP2 MSTORE PUSH1 0x40 DUP4 PUSH1 0x60 DUP2 PUSH1 0x7 PUSH2 0x7CF NOT GAS ADD STATICCALL ISZERO PUSH2 0xACC JUMPI DUP2 MLOAD SWAP1 MSTORE PUSH1 0x20 DUP2 ADD MLOAD PUSH1 0x60 DUP4 ADD MSTORE PUSH1 0x40 SWAP2 PUSH1 0x80 SWAP1 PUSH1 0x6 PUSH2 0x7CF NOT GAS ADD STATICCALL ISZERO PUSH2 0xACC JUMPI JUMP JUMPDEST PUSH1 0x40 MLOAD SWAP2 PUSH32 0x832EFB36A3C15A50F9CCCE322DFCF9F7EBA323C18C84AE91C930B8B0CE12625 DUP4 MSTORE PUSH32 0x19D7FA5E150EDBFFEB758B99D2B896BA0B1605F210D32A38EE829202ECD15BAC PUSH1 0x20 DUP5 ADD MSTORE PUSH1 0x40 DUP4 ADD SWAP1 DUP2 MSTORE PUSH1 0x40 DUP4 PUSH1 0x60 DUP2 PUSH1 0x7 PUSH2 0x7CF NOT GAS ADD STATICCALL ISZERO PUSH2 0xACC JUMPI DUP2 MLOAD SWAP1 MSTORE PUSH1 0x20 DUP2 ADD MLOAD PUSH1 0x60 DUP4 ADD MSTORE PUSH1 0x40 SWAP2 PUSH1 0x80 SWAP1 PUSH1 0x6 PUSH2 0x7CF NOT GAS ADD STATICCALL ISZERO PUSH2 0xACC JUMPI JUMP JUMPDEST PUSH1 0x40 MLOAD SWAP2 PUSH32 0x1EE7F7AF38C7B7B472AD9314F0DD9247158A1F92B91D346734E1EC53B01A5981 DUP4 MSTORE PUSH32 0x190F9BD0579D151E145CD91AE9C79214245C10B72D0DD54531BB1753EFBB5FA5 PUSH1 0x20 DUP5 ADD MSTORE PUSH1 0x40 DUP4 ADD SWAP1 DUP2 MSTORE PUSH1 0x40 DUP4 PUSH1 0x60 DUP2 PUSH1 0x7 PUSH2 0x7CF NOT GAS ADD STATICCALL ISZERO PUSH2 0xACC JUMPI DUP2 MLOAD SWAP1 MSTORE PUSH1 0x20 DUP2 ADD MLOAD PUSH1 0x60 DUP4 ADD MSTORE PUSH1 0x40 SWAP2 PUSH1 0x80 SWAP1 PUSH1 0x6 PUSH2 0x7CF NOT GAS ADD STATICCALL ISZERO PUSH2 0xACC JUMPI JUMP JUMPDEST PUSH1 0x40 MLOAD SWAP2 PUSH32 0x1C6FC1A5EACAA6E867D5216DAB749ADB8CC0F78054B9CF600DDBAA0309998978 DUP4 MSTORE PUSH32 0x2117224C3113D7A828234D0F15DE062506B43FD53AAA03B2F376AC2620F25144 PUSH1 0x20 DUP5 ADD MSTORE PUSH1 0x40 DUP4 ADD SWAP1 DUP2 MSTORE PUSH1 0x40 DUP4 PUSH1 0x60 DUP2 PUSH1 0x7 PUSH2 0x7CF NOT GAS ADD STATICCALL ISZERO PUSH2 0xACC JUMPI DUP2 MLOAD SWAP1 MSTORE PUSH1 0x20 DUP2 ADD MLOAD PUSH1 0x60 DUP4 ADD MSTORE PUSH1 0x40 SWAP2 PUSH1 0x80 SWAP1 PUSH1 0x6 PUSH2 0x7CF NOT GAS ADD STATICCALL ISZERO PUSH2 0xACC JUMPI JUMP JUMPDEST PUSH1 0x40 MLOAD SWAP2 PUSH32 0x2FD5FA0A8C2DC62363F9FA2E40AB52A5985667DE5DA6FCFD569DFD302C8280BD DUP4 MSTORE PUSH32 0xB75D3FEA3F8BA549A71CD50DBC1EFD18E8A96BA487903BCD15F5E6ECE6B1B94 PUSH1 0x20 DUP5 ADD MSTORE PUSH1 0x40 DUP4 ADD SWAP1 DUP2 MSTORE PUSH1 0x40 DUP4 PUSH1 0x60 DUP2 PUSH1 0x7 PUSH2 0x7CF NOT GAS ADD STATICCALL ISZERO PUSH2 0xACC JUMPI DUP2 MLOAD SWAP1 MSTORE PUSH1 0x20 DUP2 ADD MLOAD PUSH1 0x60 DUP4 ADD MSTORE PUSH1 0x40 SWAP2 PUSH1 0x80 SWAP1 PUSH1 0x6 PUSH2 0x7CF NOT GAS ADD STATICCALL ISZERO PUSH2 0xACC JUMPI JUMP JUMPDEST PUSH1 0x40 MLOAD SWAP2 PUSH32 0x21E35143B634EAEEB04590B3544F6C7E3FB5191ADEBB276850CC46B923EC5E76 DUP4 MSTORE PUSH32 0x2C85A116A08E116CE34F62B7F0ECFE9AB6B864E325EDA1A5A4AA1764EBC800D PUSH1 0x20 DUP5 ADD MSTORE PUSH1 0x40 DUP4 ADD SWAP1 DUP2 MSTORE PUSH1 0x40 DUP4 PUSH1 0x60 DUP2 PUSH1 0x7 PUSH2 0x7CF NOT GAS ADD STATICCALL ISZERO PUSH2 0xACC JUMPI DUP2 MLOAD SWAP1 MSTORE PUSH1 0x20 DUP2 ADD MLOAD PUSH1 0x60 DUP4 ADD MSTORE PUSH1 0x40 SWAP2 PUSH1 0x80 SWAP1 PUSH1 0x6 PUSH2 0x7CF NOT GAS ADD STATICCALL ISZERO PUSH2 0xACC JUMPI JUMP JUMPDEST PUSH1 0x40 MLOAD SWAP2 PUSH32 0x8EE907423DD1B05AF1DE2744D7C41EBE06CFDBD2A107346311F715FA21B31F6 DUP4 MSTORE PUSH32 0x2897CA8B3345DFCEF9AAF25229EDE9B8D2ED84D2A9969B200CF8C92AE5C63D2C PUSH1 0x20 DUP5 ADD MSTORE PUSH1 0x40 DUP4 ADD SWAP1 DUP2 MSTORE PUSH1 0x40 DUP4 PUSH1 0x60 DUP2 PUSH1 0x7 PUSH2 0x7CF NOT GAS ADD STATICCALL ISZERO PUSH2 0xACC JUMPI DUP2 MLOAD SWAP1 MSTORE PUSH1 0x20 DUP2 ADD MLOAD PUSH1 0x60 DUP4 ADD MSTORE PUSH1 0x40 SWAP2 PUSH1 0x80 SWAP1 PUSH1 0x6 PUSH2 0x7CF NOT GAS ADD STATICCALL ISZERO PUSH2 0xACC JUMPI JUMP JUMPDEST PUSH1 0x40 MLOAD SWAP2 PUSH32 0x275FCCEA5E06B9BB45504369702BEF0FA1DA46D8B2AC2FAF305B164A108170A9 DUP4 MSTORE PUSH32 0x2FFF9A74C763884A42FD02DE0EC4C54AB62F01C55455D0C89F56D8E7DDF1D7E0 PUSH1 0x20 DUP5 ADD MSTORE PUSH1 0x40 DUP4 ADD SWAP1 DUP2 MSTORE PUSH1 0x40 DUP4 PUSH1 0x60 DUP2 PUSH1 0x7 PUSH2 0x7CF NOT GAS ADD STATICCALL ISZERO PUSH2 0xACC JUMPI DUP2 MLOAD SWAP1 MSTORE PUSH1 0x20 DUP2 ADD MLOAD PUSH1 0x60 DUP4 ADD MSTORE PUSH1 0x40 SWAP2 PUSH1 0x80 SWAP1 PUSH1 0x6 PUSH2 0x7CF NOT GAS ADD STATICCALL ISZERO PUSH2 0xACC JUMPI JUMP JUMPDEST PUSH1 0x40 MLOAD SWAP2 PUSH32 0x1183856C0042BE63C09286AD17B669459DC6F6165E69AD7318785CA9CF5A209 DUP4 MSTORE PUSH31 0xE4FA10CD5A6BD2BFB9B4DCE83550BA953D9629C57731D071FA850CF2FE6084 PUSH1 0x20 DUP5 ADD MSTORE PUSH1 0x40 DUP4 ADD SWAP1 DUP2 MSTORE PUSH1 0x40 DUP4 PUSH1 0x60 DUP2 PUSH1 0x7 PUSH2 0x7CF NOT GAS ADD STATICCALL ISZERO PUSH2 0xACC JUMPI DUP2 MLOAD SWAP1 MSTORE PUSH1 0x20 DUP2 ADD MLOAD PUSH1 0x60 DUP4 ADD MSTORE PUSH1 0x40 SWAP2 PUSH1 0x80 SWAP1 PUSH1 0x6 PUSH2 0x7CF NOT GAS ADD STATICCALL ISZERO PUSH2 0xACC JUMPI JUMP JUMPDEST PUSH1 0x40 MLOAD SWAP2 PUSH32 0x170FBFF46AC7A1A3D3F82CFA7083916DED52D5BB70C749EBB6F6886FD86939EC DUP4 MSTORE PUSH32 0x1FEE85E90C59F80D4032A2F3ACB7DE044E215B734341F5923D0492541B6DAEE2 PUSH1 0x20 DUP5 ADD MSTORE PUSH1 0x40 DUP4 ADD SWAP1 DUP2 MSTORE PUSH1 0x40 DUP4 PUSH1 0x60 DUP2 PUSH1 0x7 PUSH2 0x7CF NOT GAS ADD STATICCALL ISZERO PUSH2 0xACC JUMPI DUP2 MLOAD SWAP1 MSTORE PUSH1 0x20 DUP2 ADD MLOAD PUSH1 0x60 DUP4 ADD MSTORE PUSH1 0x40 SWAP2 PUSH1 0x80 SWAP1 PUSH1 0x6 PUSH2 0x7CF NOT GAS ADD STATICCALL ISZERO PUSH2 0xACC JUMPI JUMP JUMPDEST PUSH1 0x40 MLOAD SWAP2 PUSH32 0x12399B0DBA968106350C0867C6C9D5E7464B5D224EB67CB568B955BD19E7D8BB DUP4 MSTORE PUSH32 0x77F1FFA3D06D843563CAF4AC3B0D119E0CE5F0536B0DF628491E4C32C65238F PUSH1 0x20 DUP5 ADD MSTORE PUSH1 0x40 DUP4 ADD SWAP1 DUP2 MSTORE PUSH1 0x40 DUP4 PUSH1 0x60 DUP2 PUSH1 0x7 PUSH2 0x7CF NOT GAS ADD STATICCALL ISZERO PUSH2 0xACC JUMPI DUP2 MLOAD SWAP1 MSTORE PUSH1 0x20 DUP2 ADD MLOAD PUSH1 0x60 DUP4 ADD MSTORE PUSH1 0x40 SWAP2 PUSH1 0x80 SWAP1 PUSH1 0x6 PUSH2 0x7CF NOT GAS ADD STATICCALL ISZERO PUSH2 0xACC JUMPI JUMP JUMPDEST PUSH1 0x40 MLOAD SWAP2 PUSH32 0x807893CDF19E1BC87FBA6B53B470DDF82E1DE175EEFEA8C8342436E012808DE DUP4 MSTORE PUSH32 0x228E7FCE061679452BF7190E7A63DA7F97E6AB305D9B4463EF46ADFFAB566907 PUSH1 0x20 DUP5 ADD MSTORE PUSH1 0x40 DUP4 ADD SWAP1 DUP2 MSTORE PUSH1 0x40 DUP4 PUSH1 0x60 DUP2 PUSH1 0x7 PUSH2 0x7CF NOT GAS ADD STATICCALL ISZERO PUSH2 0xACC JUMPI DUP2 MLOAD SWAP1 MSTORE PUSH1 0x20 DUP2 ADD MLOAD PUSH1 0x60 DUP4 ADD MSTORE PUSH1 0x40 SWAP2 PUSH1 0x80 SWAP1 PUSH1 0x6 PUSH2 0x7CF NOT GAS ADD STATICCALL ISZERO PUSH2 0xACC JUMPI JUMP JUMPDEST PUSH1 0x40 MLOAD SWAP2 PUSH32 0x1561E5341CBE50804A311117F05F36DDAEB627B0F52C40F5C3B477D421C3CE3C DUP4 MSTORE PUSH32 0x25C6BEBE9999B95520695057D39BFCEA606A4A6CAFBCF106E31D4145258F113E PUSH1 0x20 DUP5 ADD MSTORE PUSH1 0x40 DUP4 ADD SWAP1 DUP2 MSTORE PUSH1 0x40 DUP4 PUSH1 0x60 DUP2 PUSH1 0x7 PUSH2 0x7CF NOT GAS ADD STATICCALL ISZERO PUSH2 0xACC JUMPI DUP2 MLOAD SWAP1 MSTORE PUSH1 0x20 DUP2 ADD MLOAD PUSH1 0x60 DUP4 ADD MSTORE PUSH1 0x40 SWAP2 PUSH1 0x80 SWAP1 PUSH1 0x6 PUSH2 0x7CF NOT GAS ADD STATICCALL ISZERO PUSH2 0xACC JUMPI JUMP JUMPDEST PUSH1 0x40 MLOAD SWAP2 PUSH32 0x9626081958509887B1213BD967CE952B0967C50360FB20D4CF33B0646C13824 DUP4 MSTORE PUSH32 0x87D7715FCBF879832355BA9CDC028636692E47B02AA11CC42AA81120F18DEFB PUSH1 0x20 DUP5 ADD MSTORE PUSH1 0x40 DUP4 ADD SWAP1 DUP2 MSTORE PUSH1 0x40 DUP4 PUSH1 0x60 DUP2 PUSH1 0x7 PUSH2 0x7CF NOT GAS ADD STATICCALL ISZERO PUSH2 0xACC JUMPI DUP2 MLOAD SWAP1 MSTORE PUSH1 0x20 DUP2 ADD MLOAD PUSH1 0x60 DUP4 ADD MSTORE PUSH1 0x40 SWAP2 PUSH1 0x80 SWAP1 PUSH1 0x6 PUSH2 0x7CF NOT GAS ADD STATICCALL ISZERO PUSH2 0xACC JUMPI JUMP JUMPDEST PUSH1 0x40 MLOAD SWAP2 PUSH32 0x175567C4CE5F760CCB8BAA738AD4133EE15D7497AE8033540FFD9DBCD79CA2BB DUP4 MSTORE PUSH32 0x1AE4606DC262D5D41EBA8378F439F0FD96B08960B1396BC458D9BF5DC8D61595 PUSH1 0x20 DUP5 ADD MSTORE PUSH1 0x40 DUP4 ADD SWAP1 DUP2 MSTORE PUSH1 0x40 DUP4 PUSH1 0x60 DUP2 PUSH1 0x7 PUSH2 0x7CF NOT GAS ADD STATICCALL ISZERO PUSH2 0xACC JUMPI DUP2 MLOAD SWAP1 MSTORE PUSH1 0x20 DUP2 ADD MLOAD PUSH1 0x60 DUP4 ADD MSTORE PUSH1 0x40 SWAP2 PUSH1 0x80 SWAP1 PUSH1 0x6 PUSH2 0x7CF NOT GAS ADD STATICCALL ISZERO PUSH2 0xACC JUMPI JUMP JUMPDEST PUSH1 0x40 MLOAD SWAP2 PUSH32 0x9C864420F926ADBACA504A1A3DCC73AA5713B310D24D6A6AC8A7019D1E978B2 DUP4 MSTORE PUSH32 0x2195801C099052AF9AF43FB0C69BC58BD4792A55481B90C22458D14F670C106 PUSH1 0x20 DUP5 ADD MSTORE PUSH1 0x40 DUP4 ADD SWAP1 DUP2 MSTORE PUSH1 0x40 DUP4 PUSH1 0x60 DUP2 PUSH1 0x7 PUSH2 0x7CF NOT GAS ADD STATICCALL ISZERO PUSH2 0xACC JUMPI DUP2 MLOAD SWAP1 MSTORE PUSH1 0x20 DUP2 ADD MLOAD PUSH1 0x60 DUP4 ADD MSTORE PUSH1 0x40 SWAP2 PUSH1 0x80 SWAP1 PUSH1 0x6 PUSH2 0x7CF NOT GAS ADD STATICCALL ISZERO PUSH2 0xACC JUMPI JUMP JUMPDEST PUSH1 0x40 MLOAD SWAP2 PUSH32 0x10985C57F165EDDC203061D3DE3362043C2A3944C05B0915ABE2B492DED85211 DUP4 MSTORE PUSH32 0x4B206A2C40B845E05E621FFBC35A5E5E0653D141AEACC26B88B699E957B4F3B PUSH1 0x20 DUP5 ADD MSTORE PUSH1 0x40 DUP4 ADD SWAP1 DUP2 MSTORE PUSH1 0x40 DUP4 PUSH1 0x60 DUP2 PUSH1 0x7 PUSH2 0x7CF NOT GAS ADD STATICCALL ISZERO PUSH2 0xACC JUMPI DUP2 MLOAD SWAP1 MSTORE PUSH1 0x20 DUP2 ADD MLOAD PUSH1 0x60 DUP4 ADD MSTORE PUSH1 0x40 SWAP2 PUSH1 0x80 SWAP1 PUSH1 0x6 PUSH2 0x7CF NOT GAS ADD STATICCALL ISZERO PUSH2 0xACC JUMPI JUMP JUMPDEST PUSH1 0x40 MLOAD SWAP2 PUSH32 0x3488CE5913D7C8D7B392615BD25AFD79C2E191D18C14402FD1C57C81B385B18 DUP4 MSTORE PUSH32 0x305518E8D3D1FADAE66F3EA6D1B1FA71EF20756CBCA3733AFFEDD506BDA7FB96 PUSH1 0x20 DUP5 ADD MSTORE PUSH1 0x40 DUP4 ADD SWAP1 DUP2 MSTORE PUSH1 0x40 DUP4 PUSH1 0x60 DUP2 PUSH1 0x7 PUSH2 0x7CF NOT GAS ADD STATICCALL ISZERO PUSH2 0xACC JUMPI DUP2 MLOAD SWAP1 MSTORE PUSH1 0x20 DUP2 ADD MLOAD PUSH1 0x60 DUP4 ADD MSTORE PUSH1 0x40 SWAP2 PUSH1 0x80 SWAP1 PUSH1 0x6 PUSH2 0x7CF NOT GAS ADD STATICCALL ISZERO PUSH2 0xACC JUMPI JUMP JUMPDEST PUSH1 0x40 MLOAD SWAP2 PUSH32 0x1A469DB270F51FF10C5F52CBE628F33A4FE40C3E70D3341AD0177761248063C9 DUP4 MSTORE PUSH32 0x19DAEF237B924C6BD440AB359012125E0DE6EA2E5FAC1422F11CAD9950C896F4 PUSH1 0x20 DUP5 ADD MSTORE PUSH1 0x40 DUP4 ADD SWAP1 DUP2 MSTORE PUSH1 0x40 DUP4 PUSH1 0x60 DUP2 PUSH1 0x7 PUSH2 0x7CF NOT GAS ADD STATICCALL ISZERO PUSH2 0xACC JUMPI DUP2 MLOAD SWAP1 MSTORE PUSH1 0x20 DUP2 ADD MLOAD PUSH1 0x60 DUP4 ADD MSTORE PUSH1 0x40 SWAP2 PUSH1 0x80 SWAP1 PUSH1 0x6 PUSH2 0x7CF NOT GAS ADD STATICCALL ISZERO PUSH2 0xACC JUMPI JUMP JUMPDEST PUSH1 0x40 MLOAD SWAP2 PUSH32 0x25D9E17414D1D5A003284D4D2D35F247610034A5E76A3CA8093D3DFDA2F562D1 DUP4 MSTORE PUSH32 0x568963D9EA35B840605278A572282208E183DAA5051F3CD715365CB0249A960 PUSH1 0x20 DUP5 ADD MSTORE PUSH1 0x40 DUP4 ADD SWAP1 DUP2 MSTORE PUSH1 0x40 DUP4 PUSH1 0x60 DUP2 PUSH1 0x7 PUSH2 0x7CF NOT GAS ADD STATICCALL ISZERO PUSH2 0xACC JUMPI DUP2 MLOAD SWAP1 MSTORE PUSH1 0x20 DUP2 ADD MLOAD PUSH1 0x60 DUP4 ADD MSTORE PUSH1 0x40 SWAP2 PUSH1 0x80 SWAP1 PUSH1 0x6 PUSH2 0x7CF NOT GAS ADD STATICCALL ISZERO PUSH2 0xACC JUMPI JUMP JUMPDEST PUSH1 0x20 SWAP3 SWAP2 PUSH1 0x0 DUP1 MLOAD PUSH1 0x20 PUSH2 0x27F0 DUP4 CODECOPY DUP2 MLOAD SWAP2 MSTORE DUP5 PUSH1 0x60 SWAP4 PUSH32 0x187175BAE0695DB90510A0E1380A3F99247A5D75AC5E813479BE611CFDF6318C PUSH1 0x80 MSTORE PUSH32 0x21782EFA62094354422B0DA7A898C763CB8C986284EBC9E0EFC4F1FBADACCEC2 PUSH1 0xA0 MSTORE PUSH2 0x1CC1 PUSH2 0x104 CALLDATALOAD PUSH1 0x80 PUSH2 0xAD6 JUMP JUMPDEST PUSH2 0x1CCF PUSH2 0x124 CALLDATALOAD PUSH1 0x80 PUSH2 0xB62 JUMP JUMPDEST PUSH2 0x1CDD PUSH2 0x144 CALLDATALOAD PUSH1 0x80 PUSH2 0xBEE JUMP JUMPDEST PUSH2 0x1CEB PUSH2 0x164 CALLDATALOAD PUSH1 0x80 PUSH2 0xC7A JUMP JUMPDEST PUSH2 0x1CF9 PUSH2 0x184 CALLDATALOAD PUSH1 0x80 PUSH2 0xD06 JUMP JUMPDEST PUSH2 0x1D07 PUSH2 0x1A4 CALLDATALOAD PUSH1 0x80 PUSH2 0xD92 JUMP JUMPDEST PUSH2 0x1D15 PUSH2 0x1C4 CALLDATALOAD PUSH1 0x80 PUSH2 0xE1E JUMP JUMPDEST PUSH2 0x1D23 PUSH2 0x1E4 CALLDATALOAD PUSH1 0x80 PUSH2 0xEAA JUMP JUMPDEST PUSH2 0x1D31 PUSH2 0x204 CALLDATALOAD PUSH1 0x80 PUSH2 0xF36 JUMP JUMPDEST PUSH2 0x1D3F PUSH2 0x224 CALLDATALOAD PUSH1 0x80 PUSH2 0xFC2 JUMP JUMPDEST PUSH2 0x1D4D PUSH2 0x244 CALLDATALOAD PUSH1 0x80 PUSH2 0x104E JUMP JUMPDEST PUSH2 0x1D5B PUSH2 0x264 CALLDATALOAD PUSH1 0x80 PUSH2 0x10DA JUMP JUMPDEST PUSH2 0x1D69 PUSH2 0x284 CALLDATALOAD PUSH1 0x80 PUSH2 0x1166 JUMP JUMPDEST PUSH2 0x1D77 PUSH2 0x2A4 CALLDATALOAD PUSH1 0x80 PUSH2 0x11F1 JUMP JUMPDEST PUSH2 0x1D85 PUSH2 0x2C4 CALLDATALOAD PUSH1 0x80 PUSH2 0x127D JUMP JUMPDEST PUSH2 0x1D93 PUSH2 0x2E4 CALLDATALOAD PUSH1 0x80 PUSH2 0x1309 JUMP JUMPDEST PUSH2 0x1DA1 PUSH2 0x304 CALLDATALOAD PUSH1 0x80 PUSH2 0x1395 JUMP JUMPDEST PUSH2 0x1DAF PUSH2 0x324 CALLDATALOAD PUSH1 0x80 PUSH2 0x1421 JUMP JUMPDEST PUSH2 0x1DBD PUSH2 0x344 CALLDATALOAD PUSH1 0x80 PUSH2 0x14AD JUMP JUMPDEST PUSH2 0x1DCB PUSH2 0x364 CALLDATALOAD PUSH1 0x80 PUSH2 0x1539 JUMP JUMPDEST PUSH2 0x1DD9 PUSH2 0x384 CALLDATALOAD PUSH1 0x80 PUSH2 0x15C5 JUMP JUMPDEST PUSH2 0x1DE7 PUSH2 0x3A4 CALLDATALOAD PUSH1 0x80 PUSH2 0x1650 JUMP JUMPDEST PUSH2 0x1DF5 PUSH2 0x3C4 CALLDATALOAD PUSH1 0x80 PUSH2 0x16DC JUMP JUMPDEST PUSH2 0x1E03 PUSH2 0x3E4 CALLDATALOAD PUSH1 0x80 PUSH2 0x1768 JUMP JUMPDEST PUSH2 0x1E11 PUSH2 0x404 CALLDATALOAD PUSH1 0x80 PUSH2 0x17F4 JUMP JUMPDEST PUSH2 0x1E1F PUSH2 0x424 CALLDATALOAD PUSH1 0x80 PUSH2 0x1880 JUMP JUMPDEST PUSH2 0x1E2D PUSH2 0x444 CALLDATALOAD PUSH1 0x80 PUSH2 0x190C JUMP JUMPDEST PUSH2 0x1E3B PUSH2 0x464 CALLDATALOAD PUSH1 0x80 PUSH2 0x1998 JUMP JUMPDEST PUSH2 0x1E49 PUSH2 0x484 CALLDATALOAD PUSH1 0x80 PUSH2 0x1A24 JUMP JUMPDEST PUSH2 0x1E57 PUSH2 0x4A4 CALLDATALOAD PUSH1 0x80 PUSH2 0x1AB0 JUMP JUMPDEST PUSH2 0x1E65 PUSH2 0x4C4 CALLDATALOAD PUSH1 0x80 PUSH2 0x1B3C JUMP JUMPDEST PUSH2 0x1E73 PUSH2 0x4E4 CALLDATALOAD PUSH1 0x80 PUSH2 0x1BC8 JUMP JUMPDEST DUP1 CALLDATALOAD PUSH2 0x100 MSTORE ADD CALLDATALOAD DUP2 SUB MOD PUSH2 0x120 MSTORE DUP1 CALLDATALOAD PUSH2 0x140 MSTORE DUP4 DUP2 ADD CALLDATALOAD PUSH2 0x160 MSTORE PUSH1 0x40 DUP2 ADD CALLDATALOAD PUSH2 0x180 MSTORE ADD CALLDATALOAD PUSH2 0x1A0 MSTORE PUSH32 0x113CBE3C9A2B8D090248AC547A0E5986316225425388F7D68723DFC7E60AB3AB PUSH2 0x1C0 MSTORE PUSH32 0xCAB7151731CBDA4EB6295AED348E9579D12426B5C863429364E115AAADFCB54 PUSH2 0x1E0 MSTORE PUSH32 0xF25A76CB8473CBE7D09A2A3B4E6E22907A9DC569C1A59A1F4FA74BE6B67F078 PUSH2 0x200 MSTORE PUSH32 0x2710059FFD75A0DBE2C38AB00EF07F91F8A0E87FA223E4758311C9280725DE0A PUSH2 0x220 MSTORE PUSH32 0x22C4AA7E8478C9D0092183BB0E25EA10AE4994AA581B78E60F20AE64CE246CD4 PUSH2 0x240 MSTORE PUSH32 0x100D9E3F35195F0A3D2AEAB8C7E9FDD1DB43F11565B6CC1E6539F4C565B5AB40 PUSH2 0x260 MSTORE PUSH1 0x80 MLOAD PUSH2 0x280 MSTORE PUSH1 0xA0 MLOAD PUSH2 0x2A0 MSTORE PUSH32 0x219E45B84338572E39460806F14E1248F07C97A94B26223B650D6049D325E1E7 PUSH2 0x2C0 MSTORE PUSH32 0x2A39816D6D57A84E42B15222E11579453544DB90AB34ACACEF95FB5915C22A96 PUSH2 0x2E0 MSTORE PUSH32 0xBBBB0319D6E71D44770BA707F4F7A3933D78C415743AE34F34D1C8488215201 PUSH2 0x300 MSTORE PUSH32 0x2FA77B2C66AC8A469F6F22E903CEB501072E5E00B6210D27D6D91D4839D23558 PUSH2 0x320 MSTORE DUP1 CALLDATALOAD PUSH2 0x340 MSTORE ADD CALLDATALOAD PUSH2 0x360 MSTORE PUSH32 0x1EB00B51FBC96EF7B6B3DDB183961E9A05E75E8D9DAE360055F276B1D161895B PUSH2 0x380 MSTORE PUSH32 0xF82E4FD0F892CA3B9C6B6E6975670F2560CC516388A9F4B70015479795E5305 PUSH2 0x3A0 MSTORE PUSH32 0x1402FD8730002BB3E5765DB61883FCE1C0C72B28A28F3303D6772835740CDFBC PUSH2 0x3C0 MSTORE PUSH32 0x1EED01E299E1822C9F5E717B49D1907628B2E3F8B8C34408EAA70A43A930C27C PUSH2 0x3E0 MSTORE PUSH1 0x20 PUSH2 0x100 PUSH2 0x300 DUP2 PUSH1 0x8 PUSH2 0x7CF NOT GAS ADD STATICCALL PUSH2 0x100 MLOAD AND SWAP1 JUMP JUMPDEST SWAP2 SWAP1 PUSH1 0x40 DUP1 MLOAD SWAP4 PUSH2 0x20EA DUP3 DUP7 PUSH2 0x4C0 JUMP JUMPDEST DUP5 SWAP2 DUP2 ADD SWAP3 DUP4 GT PUSH2 0x252 JUMPI SWAP1 JUMPDEST DUP3 DUP3 LT PUSH2 0x2103 JUMPI POP POP POP JUMP JUMPDEST DUP2 CALLDATALOAD DUP2 MSTORE PUSH1 0x20 SWAP2 DUP3 ADD SWAP2 ADD PUSH2 0x20F7 JUMP JUMPDEST PUSH1 0x40 MLOAD SWAP1 PUSH1 0x0 DUP1 DUP4 JUMPDEST PUSH1 0x2 DUP3 LT PUSH2 0x2132 JUMPI POP POP POP PUSH2 0x4F0 PUSH1 0x40 DUP4 PUSH2 0x4C0 JUMP JUMPDEST PUSH1 0x1 PUSH1 0x20 DUP2 SWAP3 DUP6 SLOAD DUP2 MSTORE ADD SWAP4 ADD SWAP2 ADD SWAP1 SWAP2 PUSH2 0x211C JUMP JUMPDEST PUSH1 0x40 MLOAD SWAP2 SWAP1 PUSH1 0x0 DUP4 JUMPDEST PUSH1 0x2 DUP3 LT PUSH2 0x2167 JUMPI POP POP POP PUSH2 0x4F0 PUSH1 0x40 DUP4 PUSH2 0x4C0 JUMP JUMPDEST PUSH1 0x1 PUSH1 0x20 DUP2 SWAP3 DUP6 SLOAD DUP2 MSTORE ADD SWAP4 ADD SWAP2 ADD SWAP1 SWAP2 PUSH2 0x2151 JUMP JUMPDEST PUSH1 0x40 MLOAD SWAP1 PUSH2 0x218A DUP3 PUSH2 0x49F JUMP JUMPDEST PUSH1 0x6 PUSH1 0x0 DUP4 JUMPDEST PUSH1 0x2 DUP3 LT PUSH2 0x219D JUMPI POP POP POP JUMP JUMPDEST PUSH1 0x2 PUSH1 0x20 PUSH1 0x1 SWAP3 PUSH2 0x21AD DUP7 PUSH2 0x2148 JUMP JUMPDEST DUP2 MSTORE ADD SWAP4 ADD SWAP2 ADD SWAP1 SWAP2 PUSH2 0x2190 JUMP JUMPDEST PUSH1 0x40 MLOAD SWAP1 PUSH2 0x21C8 DUP3 PUSH2 0x49F JUMP JUMPDEST PUSH1 0x2 PUSH1 0x0 DUP4 JUMPDEST PUSH1 0x2 DUP3 LT PUSH2 0x21DB JUMPI POP POP POP JUMP JUMPDEST PUSH1 0x2 PUSH1 0x20 PUSH1 0x1 SWAP3 PUSH2 0x21EB DUP7 PUSH2 0x2148 JUMP JUMPDEST DUP2 MSTORE ADD SWAP4 ADD SWAP2 ADD SWAP1 SWAP2 PUSH2 0x21CE JUMP JUMPDEST PUSH4 0x4E487B71 PUSH1 0xE0 SHL PUSH1 0x0 MSTORE PUSH1 0x32 PUSH1 0x4 MSTORE PUSH1 0x24 PUSH1 0x0 REVERT JUMPDEST SWAP1 SWAP2 SWAP1 PUSH1 0x0 SWAP1 PUSH1 0x1 SWAP1 DUP3 JUMPDEST DUP2 MLOAD DUP5 LT ISZERO PUSH2 0x2263 JUMPI PUSH32 0x30644E72E131A029B85045B68181585D2833E84879B9709143E1F593F0000001 DUP7 DUP2 PUSH1 0x1 SWAP4 DUP2 PUSH1 0x20 DUP10 PUSH1 0x5 SHL DUP9 ADD ADD MLOAD DUP9 MULMOD SWAP1 ADDMOD SWAP5 MULMOD SWAP4 ADD SWAP3 SWAP2 PUSH2 0x221A JUMP JUMPDEST SWAP5 POP POP POP POP JUMP JUMPDEST SWAP1 PUSH1 0x3 DUP2 LT ISZERO PUSH2 0x227B JUMPI PUSH1 0x5 SHL ADD SWAP1 JUMP JUMPDEST PUSH2 0x21F9 JUMP JUMPDEST ISZERO PUSH2 0x2287 JUMPI JUMP JUMPDEST PUSH1 0x40 MLOAD PUSH3 0x461BCD PUSH1 0xE5 SHL DUP2 MSTORE PUSH1 0x20 PUSH1 0x4 DUP3 ADD MSTORE PUSH1 0x38 PUSH1 0x24 DUP3 ADD MSTORE PUSH32 0x466F6C64696E673A20746865206E756D626572206F6620666F6C646564207374 PUSH1 0x44 DUP3 ADD MSTORE PUSH32 0x6570732073686F756C64206265206174206C6561737420320000000000000000 PUSH1 0x64 DUP3 ADD MSTORE PUSH1 0x84 SWAP1 REVERT JUMPDEST PUSH1 0x40 MLOAD SWAP1 PUSH1 0x20 PUSH2 0x2302 DUP2 DUP5 PUSH2 0x4C0 JUMP JUMPDEST CALLDATASIZE DUP4 CALLDATACOPY JUMP JUMPDEST PUSH1 0x40 MLOAD SWAP1 PUSH2 0x400 PUSH2 0x2302 DUP2 DUP5 PUSH2 0x4C0 JUMP JUMPDEST PUSH1 0x40 MLOAD SWAP1 PUSH1 0x80 PUSH2 0x2302 DUP2 DUP5 PUSH2 0x4C0 JUMP JUMPDEST SWAP1 PUSH1 0x20 DUP2 LT ISZERO PUSH2 0x227B JUMPI PUSH1 0x5 SHL ADD SWAP1 JUMP JUMPDEST PUSH4 0x4E487B71 PUSH1 0xE0 SHL PUSH1 0x0 MSTORE PUSH1 0x11 PUSH1 0x4 MSTORE PUSH1 0x24 PUSH1 0x0 REVERT JUMPDEST PUSH1 0x1 ADD SWAP1 DUP2 PUSH1 0x1 GT PUSH2 0x235D JUMPI JUMP JUMPDEST PUSH2 0x2339 JUMP JUMPDEST PUSH1 0x2 ADD SWAP1 DUP2 PUSH1 0x2 GT PUSH2 0x235D JUMPI JUMP JUMPDEST SWAP1 PUSH1 0x4 DUP2 LT ISZERO PUSH2 0x227B JUMPI PUSH1 0x5 SHL ADD SWAP1 JUMP JUMPDEST PUSH1 0xFF AND PUSH1 0x4 ADD SWAP1 PUSH1 0xFF DUP3 GT PUSH2 0x235D JUMPI JUMP JUMPDEST PUSH1 0xFF AND PUSH1 0x8 ADD SWAP1 PUSH1 0xFF DUP3 GT PUSH2 0x235D JUMPI JUMP JUMPDEST PUSH1 0xFF AND PUSH1 0xC ADD SWAP1 PUSH1 0xFF DUP3 GT PUSH2 0x235D JUMPI JUMP JUMPDEST PUSH1 0xFF AND PUSH1 0x10 ADD SWAP1 PUSH1 0xFF DUP3 GT PUSH2 0x235D JUMPI JUMP JUMPDEST PUSH1 0xFF AND PUSH1 0x18 ADD SWAP1 PUSH1 0xFF DUP3 GT PUSH2 0x235D JUMPI JUMP JUMPDEST PUSH1 0xFF AND PUSH1 0x1C ADD SWAP1 PUSH1 0xFF DUP3 GT PUSH2 0x235D JUMPI JUMP JUMPDEST SWAP1 DUP2 PUSH1 0x20 SWAP2 SUB SLT PUSH2 0x252 JUMPI MLOAD DUP1 ISZERO ISZERO DUP2 SUB PUSH2 0x252 JUMPI SWAP1 JUMP JUMPDEST PUSH1 0xC0 DUP2 ADD SWAP6 SWAP5 SWAP4 SWAP1 SWAP3 SWAP1 SWAP2 PUSH1 0x0 DUP5 JUMPDEST PUSH1 0x2 DUP3 LT PUSH2 0x242D JUMPI POP POP POP SWAP1 PUSH1 0x40 DUP4 SWAP3 DUP2 PUSH1 0xA0 SWAP6 ADD CALLDATACOPY PUSH1 0x80 DUP3 ADD MSTORE ADD MSTORE JUMP JUMPDEST PUSH1 0x20 DUP1 PUSH1 0x1 SWAP3 DUP6 MLOAD DUP2 MSTORE ADD SWAP4 ADD SWAP2 ADD SWAP1 SWAP2 PUSH2 0x240E JUMP JUMPDEST PUSH1 0x40 MLOAD RETURNDATASIZE PUSH1 0x0 DUP3 RETURNDATACOPY RETURNDATASIZE SWAP1 REVERT JUMPDEST ISZERO PUSH2 0x2456 JUMPI JUMP JUMPDEST PUSH1 0x40 MLOAD PUSH3 0x461BCD PUSH1 0xE5 SHL DUP2 MSTORE PUSH1 0x20 PUSH1 0x4 DUP3 ADD MSTORE PUSH1 0x2B PUSH1 0x24 DUP3 ADD MSTORE PUSH32 0x4B5A473A20766572696679696E672070726F6F6620666F72206368616C6C656E PUSH1 0x44 DUP3 ADD MSTORE PUSH11 0x19D94815C819985A5B1959 PUSH1 0xAA SHL PUSH1 0x64 DUP3 ADD MSTORE PUSH1 0x84 SWAP1 REVERT JUMPDEST ISZERO PUSH2 0x24B6 JUMPI JUMP JUMPDEST PUSH1 0x40 MLOAD PUSH3 0x461BCD PUSH1 0xE5 SHL DUP2 MSTORE PUSH1 0x20 PUSH1 0x4 DUP3 ADD MSTORE PUSH1 0x2B PUSH1 0x24 DUP3 ADD MSTORE PUSH32 0x4B5A473A20766572696679696E672070726F6F6620666F72206368616C6C656E PUSH1 0x44 DUP3 ADD MSTORE PUSH11 0x19D948114819985A5B1959 PUSH1 0xAA SHL PUSH1 0x64 DUP3 ADD MSTORE PUSH1 0x84 SWAP1 REVERT JUMPDEST SWAP2 SWAP5 SWAP4 SWAP3 SWAP1 SWAP5 PUSH1 0x40 PUSH2 0x500 DUP5 ADD SWAP7 DUP5 CALLDATACOPY PUSH1 0x0 PUSH1 0x40 DUP5 ADD JUMPDEST PUSH1 0x2 DUP3 LT PUSH2 0x2565 JUMPI POP POP POP SWAP1 PUSH1 0x40 PUSH2 0x100 SWAP3 PUSH1 0xC0 DUP4 ADD CALLDATACOPY ADD PUSH1 0x0 SWAP1 JUMPDEST PUSH1 0x20 DUP3 LT PUSH2 0x254F JUMPI POP POP POP JUMP JUMPDEST PUSH1 0x20 DUP1 PUSH1 0x1 SWAP3 DUP6 MLOAD DUP2 MSTORE ADD SWAP4 ADD SWAP2 ADD SWAP1 SWAP2 PUSH2 0x2542 JUMP JUMPDEST PUSH1 0x40 DUP1 DUP3 DUP2 DUP7 PUSH1 0x1 SWAP6 CALLDATACOPY ADD SWAP4 ADD SWAP2 ADD SWAP1 SWAP2 PUSH2 0x2526 JUMP JUMPDEST ISZERO PUSH2 0x2582 JUMPI JUMP JUMPDEST PUSH1 0x40 MLOAD PUSH3 0x461BCD PUSH1 0xE5 SHL DUP2 MSTORE PUSH1 0x20 PUSH1 0x4 DUP3 ADD MSTORE PUSH1 0x1F PUSH1 0x24 DUP3 ADD MSTORE PUSH32 0x47726F746831363A20766572696679696E672070726F6F66206661696C656400 PUSH1 0x44 DUP3 ADD MSTORE PUSH1 0x64 SWAP1 REVERT JUMPDEST PUSH1 0x40 SWAP1 DUP2 MLOAD PUSH2 0x25D6 DUP4 DUP3 PUSH2 0x4C0 JUMP JUMPDEST DUP3 CALLDATASIZE DUP3 CALLDATACOPY POP DUP1 MLOAD ISZERO DUP1 PUSH2 0x263F JUMPI JUMPDEST PUSH2 0x263A JUMPI PUSH1 0x20 PUSH1 0x0 DUP1 MLOAD PUSH1 0x20 PUSH2 0x27F0 DUP4 CODECOPY DUP2 MLOAD SWAP2 MSTORE SWAP2 PUSH2 0x2606 DUP5 MLOAD SWAP5 DUP6 PUSH2 0x4C0 JUMP JUMPDEST DUP1 MLOAD DUP5 MSTORE ADD MLOAD MOD PUSH1 0x0 DUP1 MLOAD PUSH1 0x20 PUSH2 0x27F0 DUP4 CODECOPY DUP2 MLOAD SWAP2 MSTORE SUB PUSH1 0x0 DUP1 MLOAD PUSH1 0x20 PUSH2 0x27F0 DUP4 CODECOPY DUP2 MLOAD SWAP2 MSTORE DUP2 GT PUSH2 0x235D JUMPI PUSH1 0x20 DUP3 ADD MSTORE SWAP1 JUMP JUMPDEST SWAP1 POP SWAP1 JUMP JUMPDEST POP PUSH1 0x20 DUP2 ADD MLOAD ISZERO PUSH2 0x25E4 JUMP JUMPDEST SWAP2 SWAP1 PUSH1 0x40 SWAP1 DUP2 MLOAD SWAP1 PUSH2 0x265D DUP4 DUP4 PUSH2 0x4C0 JUMP JUMPDEST DUP3 CALLDATASIZE DUP4 CALLDATACOPY DUP2 SWAP5 PUSH1 0x60 SWAP2 PUSH1 0x20 DUP6 MLOAD SWAP3 PUSH2 0x2675 DUP6 DUP6 PUSH2 0x4C0 JUMP JUMPDEST DUP5 CALLDATASIZE DUP6 CALLDATACOPY DUP1 MLOAD DUP5 MSTORE ADD MLOAD PUSH1 0x20 DUP4 ADD MSTORE DUP5 DUP3 ADD MSTORE PUSH1 0x7 PUSH2 0x7CF NOT GAS ADD STATICCALL ISZERO PUSH2 0x487 JUMPI JUMP JUMPDEST SWAP2 SWAP1 SWAP2 PUSH1 0x40 DUP1 SWAP2 PUSH1 0x80 DUP3 MLOAD SWAP2 PUSH2 0x26AE DUP5 DUP5 PUSH2 0x4C0 JUMP JUMPDEST DUP4 CALLDATASIZE DUP5 CALLDATACOPY PUSH1 0x20 DUP4 SWAP8 DUP2 DUP7 MLOAD SWAP4 PUSH2 0x26C4 DUP7 DUP7 PUSH2 0x4C0 JUMP JUMPDEST DUP1 MLOAD DUP6 MSTORE ADD MLOAD DUP3 DUP5 ADD MSTORE DUP1 MLOAD DUP7 DUP5 ADD MSTORE ADD MLOAD PUSH1 0x60 DUP3 ADD MSTORE PUSH1 0x6 PUSH2 0x7CF NOT GAS ADD STATICCALL DUP1 ISZERO PUSH2 0x487 JUMPI ISZERO PUSH2 0x26F2 JUMPI POP JUMP JUMPDEST MLOAD PUSH3 0x461BCD PUSH1 0xE5 SHL DUP2 MSTORE PUSH1 0x20 PUSH1 0x4 DUP3 ADD MSTORE PUSH1 0x17 PUSH1 0x24 DUP3 ADD MSTORE PUSH32 0x626E3235343A20706F696E7420616464206661696C6564000000000000000000 PUSH1 0x44 DUP3 ADD MSTORE PUSH1 0x64 SWAP1 REVERT JUMPDEST ISZERO PUSH2 0x273C JUMPI JUMP JUMPDEST PUSH1 0x40 MLOAD PUSH3 0x461BCD PUSH1 0xE5 SHL DUP2 MSTORE PUSH1 0x20 PUSH1 0x4 DUP3 ADD MSTORE PUSH1 0x15 PUSH1 0x24 DUP3 ADD MSTORE PUSH21 0x189B8C8D4D0E881C185A5C9A5B99C819985A5B1959 PUSH1 0x5A SHL PUSH1 0x44 DUP3 ADD MSTORE PUSH1 0x64 SWAP1 REVERT JUMPDEST PUSH1 0x80 DUP1 PUSH1 0x40 MLOAD PUSH2 0x2789 DUP3 DUP3 PUSH2 0x4C0 JUMP JUMPDEST CALLDATASIZE SWAP1 CALLDATACOPY PUSH1 0x40 MLOAD SWAP1 PUSH2 0x279A DUP2 DUP4 PUSH2 0x4C0 JUMP JUMPDEST CALLDATASIZE DUP3 CALLDATACOPY PUSH1 0x0 JUMPDEST PUSH1 0xFF DUP2 AND SWAP1 PUSH1 0x4 DUP3 LT ISZERO PUSH2 0x27E8 JUMPI DUP1 PUSH1 0x6 SHL SWAP1 PUSH2 0x3FC0 PUSH1 0xC0 DUP4 AND SWAP3 AND DUP3 SUB PUSH2 0x235D JUMPI PUSH1 0xFF SWAP3 PUSH2 0x27E0 PUSH8 0xFFFFFFFFFFFFFFFF DUP8 DUP7 PUSH1 0x1 SWAP7 AND SHR AND SWAP2 DUP7 PUSH2 0x2370 JUMP JUMPDEST MSTORE ADD AND PUSH2 0x27A0 JUMP JUMPDEST POP POP SWAP1 POP SWAP1 JUMP INVALID ADDRESS PUSH5 0x4E72E131A0 0x29 0xB8 POP GASLIMIT 0xB6 DUP2 DUP2 PC TSTORE SWAP8 DUP2 PUSH11 0x916871CA8D3C208C16D87C REVERT SELFBALANCE LOG2 PUSH5 0x6970667358 0x22 SLT KECCAK256 0xD3 0xCB PUSH24 0x78EB93ECCA1826C26FEAF55C69949DF3D557DA29A028BCE3 ISZERO COINBASE DUP13 PUSH10 0x7964736F6C634300081C STOP CALLER "},"methodIdentifiers":{"BN254_PRIME_FIELD()":"e16c8a91","BN254_SCALAR_FIELD()":"46bed3d1","check(uint256[2],uint256[2],uint256,uint256)":"9e78ccf7","evalPolyAt(uint256[],uint256)":"c1eb466c","verifyNovaProof(uint256[3],uint256[4],uint256[2],uint256[3],uint256[2],uint256[2][2],uint256[2],uint256[4],uint256[2][2])":"fc3d76fa","verifyProof(uint256[2],uint256[2][2],uint256[2],uint256[32])":"3cc08b24"}}}}}