{"contracts/DemoNovaNetIoTex.sol":{"IoTeXRewardDistributor":{"abi":[{"inputs":[{"internalType":"address","name":"_novaDecider","type":"address"},{"internalType":"address","name":"_ioIDRegistry","type":"address"},{"internalType":"address","name":"_ioID","type":"address"}],"stateMutability":"nonpayable","type":"constructor"},{"anonymous":false,"inputs":[{"indexed":true,"internalType":"address","name":"recipient","type":"address"},{"indexed":false,"internalType":"uint256","name":"amount","type":"uint256"}],"name":"RewardSent","type":"event"},{"anonymous":false,"inputs":[],"name":"VerificationFailed","type":"event"},{"inputs":[],"name":"getContractBalance","outputs":[{"internalType":"uint256","name":"","type":"uint256"}],"stateMutability":"view","type":"function"},{"inputs":[],"name":"ioID","outputs":[{"internalType":"contract IIoID","name":"","type":"address"}],"stateMutability":"view","type":"function"},{"inputs":[],"name":"ioIDRegistry","outputs":[{"internalType":"contract IIoIDRegistry","name":"","type":"address"}],"stateMutability":"view","type":"function"},{"inputs":[],"name":"novaDecider","outputs":[{"internalType":"contract INovaDecider","name":"","type":"address"}],"stateMutability":"view","type":"function"},{"inputs":[],"name":"owner","outputs":[{"internalType":"address","name":"","type":"address"}],"stateMutability":"view","type":"function"},{"inputs":[{"internalType":"uint256[3]","name":"i_z0_zi","type":"uint256[3]"},{"internalType":"uint256[4]","name":"U_i_cmW_U_i_cmE","type":"uint256[4]"},{"internalType":"uint256[2]","name":"u_i_cmW","type":"uint256[2]"},{"internalType":"uint256[3]","name":"cmT_r","type":"uint256[3]"},{"internalType":"uint256[2]","name":"pA","type":"uint256[2]"},{"internalType":"uint256[2][2]","name":"pB","type":"uint256[2][2]"},{"internalType":"uint256[2]","name":"pC","type":"uint256[2]"},{"internalType":"uint256[4]","name":"challenge_W_challenge_E_kzg_evals","type":"uint256[4]"},{"internalType":"uint256[2][2]","name":"kzg_proof","type":"uint256[2][2]"},{"internalType":"bytes32","name":"hash","type":"bytes32"},{"internalType":"uint8","name":"v","type":"uint8"},{"internalType":"bytes32","name":"r","type":"bytes32"},{"internalType":"bytes32","name":"s","type":"bytes32"}],"name":"verifyAndReward","outputs":[],"stateMutability":"payable","type":"function"},{"stateMutability":"payable","type":"receive"}],"evm":{"bytecode":{"linkReferences":{},"object":"60803460ae57601f61069b38819003918201601f19168301916001600160401b0383118484101760b35780849260609460405283398101031260ae5760428160c9565b906057604060516020840160c9565b920160c9565b600080546001600160a01b031990811633179091556001805482166001600160a01b03958616179055600280548216938516939093179092556003805490921692169190911790556040516105be90816100dd8239f35b600080fd5b634e487b7160e01b600052604160045260246000fd5b51906001600160a01b038216820360ae5756fe608080604052600436101561001d575b50361561001b57600080fd5b005b60003560e01c9081636f9fb98a146105375750806373853c1f1461050e5780637afc1dbd146100ec5780638da5cb5b146100c357806395cc70861461009a5763c3b3135e1461006c573861000f565b34610095576000366003190112610095576003546040516001600160a01b039091168152602090f35b600080fd5b34610095576000366003190112610095576002546040516001600160a01b039091168152602090f35b34610095576000366003190112610095576000546040516001600160a01b039091168152602090f35b6104003660031901126100955736606411610095573660e41161009557366101241161009557366101841161009557366101c411610095573661024411610095573661028411610095573661030411610095573661038411610095576103a43560ff811680910361009557670de0b6b3a764000034106104c957600154604051637e1ebb7d60e11b8152906001600160a01b031660606004808401376080606480840137604060e4808401376060610124808401376040610184808401376101c460008382015b600282106104b3575050506040610244808401376080610284808401378161030460008183015b6002821061049957505050610384816020935afa90811561031b5760009161045e575b5015610419576000608060209260405190610384358252848201526103c43560408201526103e435606082015282805260015afa1561031b576000516001600160a01b031680156103e057600254604051634965c7e160e01b81526004810192909252602090829060249082906001600160a01b03165afa90811561031b576000916103ae575b506003546040516331a9108f60e11b81526004810192909252602090829060249082906001600160a01b03165afa90811561031b57600091610365575b506001600160a01b03168015610327576000808080670de0b6b3a76400008582f11561031b577f6177f4110771217c72937d51f3a73915f2c714a6b98507e17eea7a186136a24a6020604051670de0b6b3a76400008152a2005b6040513d6000823e3d90fd5b60405162461bcd60e51b815260206004820152601660248201527511195d9a58d9481bdddb995c881b9bdd08199bdd5b9960521b6044820152606490fd5b6020813d6020116103a6575b8161037e60209383610550565b810103126103a25751906001600160a01b038216820361039f5750816102c1565b80fd5b5080fd5b3d9150610371565b90506020813d6020116103d8575b816103c960209383610550565b81010312610095575181610284565b3d91506103bc565b60405162461bcd60e51b8152602060048201526011602482015270496e76616c6964207369676e617475726560781b6044820152606490fd5b60405162461bcd60e51b815260206004820152601f60248201527f4e6f76614465636964657220766572696669636174696f6e206661696c6564006044820152606490fd5b6020813d602011610491575b8161047760209383610550565b810103126103a2575190811515820361039f5750826101fd565b3d915061046a565b8293506040818160019495819437019301910184926101da565b60408082818660019537019301910190916101b3565b60405162461bcd60e51b815260206004820152601a60248201527f496e73756666696369656e742072657761726420616d6f756e740000000000006044820152606490fd5b34610095576000366003190112610095576001546040516001600160a01b039091168152602090f35b3461009557600036600319011261009557602090478152f35b90601f8019910116810190811067ffffffffffffffff82111761057257604052565b634e487b7160e01b600052604160045260246000fdfea264697066735822122039e68bef631c2f047e71b1ee8839b0f86b5f6847f7f84dd93d087e18920ed1f164736f6c634300081c0033","opcodes":"PUSH1 0x80 CALLVALUE PUSH1 0xAE JUMPI PUSH1 0x1F PUSH2 0x69B CODESIZE DUP2 SWAP1 SUB SWAP2 DUP3 ADD PUSH1 0x1F NOT AND DUP4 ADD SWAP2 PUSH1 0x1 PUSH1 0x1 PUSH1 0x40 SHL SUB DUP4 GT DUP5 DUP5 LT OR PUSH1 0xB3 JUMPI DUP1 DUP5 SWAP3 PUSH1 0x60 SWAP5 PUSH1 0x40 MSTORE DUP4 CODECOPY DUP2 ADD SUB SLT PUSH1 0xAE JUMPI PUSH1 0x42 DUP2 PUSH1 0xC9 JUMP JUMPDEST SWAP1 PUSH1 0x57 PUSH1 0x40 PUSH1 0x51 PUSH1 0x20 DUP5 ADD PUSH1 0xC9 JUMP JUMPDEST SWAP3 ADD PUSH1 0xC9 JUMP JUMPDEST PUSH1 0x0 DUP1 SLOAD PUSH1 0x1 PUSH1 0x1 PUSH1 0xA0 SHL SUB NOT SWAP1 DUP2 AND CALLER OR SWAP1 SWAP2 SSTORE PUSH1 0x1 DUP1 SLOAD DUP3 AND PUSH1 0x1 PUSH1 0x1 PUSH1 0xA0 SHL SUB SWAP6 DUP7 AND OR SWAP1 SSTORE PUSH1 0x2 DUP1 SLOAD DUP3 AND SWAP4 DUP6 AND SWAP4 SWAP1 SWAP4 OR SWAP1 SWAP3 SSTORE PUSH1 0x3 DUP1 SLOAD SWAP1 SWAP3 AND SWAP3 AND SWAP2 SWAP1 SWAP2 OR SWAP1 SSTORE PUSH1 0x40 MLOAD PUSH2 0x5BE SWAP1 DUP2 PUSH2 0xDD DUP3 CODECOPY RETURN JUMPDEST PUSH1 0x0 DUP1 REVERT JUMPDEST PUSH4 0x4E487B71 PUSH1 0xE0 SHL PUSH1 0x0 MSTORE PUSH1 0x41 PUSH1 0x4 MSTORE PUSH1 0x24 PUSH1 0x0 REVERT JUMPDEST MLOAD SWAP1 PUSH1 0x1 PUSH1 0x1 PUSH1 0xA0 SHL SUB DUP3 AND DUP3 SUB PUSH1 0xAE JUMPI JUMP INVALID PUSH1 0x80 DUP1 PUSH1 0x40 MSTORE PUSH1 0x4 CALLDATASIZE LT ISZERO PUSH2 0x1D JUMPI JUMPDEST POP CALLDATASIZE ISZERO PUSH2 0x1B JUMPI PUSH1 0x0 DUP1 REVERT JUMPDEST STOP JUMPDEST PUSH1 0x0 CALLDATALOAD PUSH1 0xE0 SHR SWAP1 DUP2 PUSH4 0x6F9FB98A EQ PUSH2 0x537 JUMPI POP DUP1 PUSH4 0x73853C1F EQ PUSH2 0x50E JUMPI DUP1 PUSH4 0x7AFC1DBD EQ PUSH2 0xEC JUMPI DUP1 PUSH4 0x8DA5CB5B EQ PUSH2 0xC3 JUMPI DUP1 PUSH4 0x95CC7086 EQ PUSH2 0x9A JUMPI PUSH4 0xC3B3135E EQ PUSH2 0x6C JUMPI CODESIZE PUSH2 0xF JUMP JUMPDEST CALLVALUE PUSH2 0x95 JUMPI PUSH1 0x0 CALLDATASIZE PUSH1 0x3 NOT ADD SLT PUSH2 0x95 JUMPI PUSH1 0x3 SLOAD PUSH1 0x40 MLOAD PUSH1 0x1 PUSH1 0x1 PUSH1 0xA0 SHL SUB SWAP1 SWAP2 AND DUP2 MSTORE PUSH1 0x20 SWAP1 RETURN JUMPDEST PUSH1 0x0 DUP1 REVERT JUMPDEST CALLVALUE PUSH2 0x95 JUMPI PUSH1 0x0 CALLDATASIZE PUSH1 0x3 NOT ADD SLT PUSH2 0x95 JUMPI PUSH1 0x2 SLOAD PUSH1 0x40 MLOAD PUSH1 0x1 PUSH1 0x1 PUSH1 0xA0 SHL SUB SWAP1 SWAP2 AND DUP2 MSTORE PUSH1 0x20 SWAP1 RETURN JUMPDEST CALLVALUE PUSH2 0x95 JUMPI PUSH1 0x0 CALLDATASIZE PUSH1 0x3 NOT ADD SLT PUSH2 0x95 JUMPI PUSH1 0x0 SLOAD PUSH1 0x40 MLOAD PUSH1 0x1 PUSH1 0x1 PUSH1 0xA0 SHL SUB SWAP1 SWAP2 AND DUP2 MSTORE PUSH1 0x20 SWAP1 RETURN JUMPDEST PUSH2 0x400 CALLDATASIZE PUSH1 0x3 NOT ADD SLT PUSH2 0x95 JUMPI CALLDATASIZE PUSH1 0x64 GT PUSH2 0x95 JUMPI CALLDATASIZE PUSH1 0xE4 GT PUSH2 0x95 JUMPI CALLDATASIZE PUSH2 0x124 GT PUSH2 0x95 JUMPI CALLDATASIZE PUSH2 0x184 GT PUSH2 0x95 JUMPI CALLDATASIZE PUSH2 0x1C4 GT PUSH2 0x95 JUMPI CALLDATASIZE PUSH2 0x244 GT PUSH2 0x95 JUMPI CALLDATASIZE PUSH2 0x284 GT PUSH2 0x95 JUMPI CALLDATASIZE PUSH2 0x304 GT PUSH2 0x95 JUMPI CALLDATASIZE PUSH2 0x384 GT PUSH2 0x95 JUMPI PUSH2 0x3A4 CALLDATALOAD PUSH1 0xFF DUP2 AND DUP1 SWAP2 SUB PUSH2 0x95 JUMPI PUSH8 0xDE0B6B3A7640000 CALLVALUE LT PUSH2 0x4C9 JUMPI PUSH1 0x1 SLOAD PUSH1 0x40 MLOAD PUSH4 0x7E1EBB7D PUSH1 0xE1 SHL DUP2 MSTORE SWAP1 PUSH1 0x1 PUSH1 0x1 PUSH1 0xA0 SHL SUB AND PUSH1 0x60 PUSH1 0x4 DUP1 DUP5 ADD CALLDATACOPY PUSH1 0x80 PUSH1 0x64 DUP1 DUP5 ADD CALLDATACOPY PUSH1 0x40 PUSH1 0xE4 DUP1 DUP5 ADD CALLDATACOPY PUSH1 0x60 PUSH2 0x124 DUP1 DUP5 ADD CALLDATACOPY PUSH1 0x40 PUSH2 0x184 DUP1 DUP5 ADD CALLDATACOPY PUSH2 0x1C4 PUSH1 0x0 DUP4 DUP3 ADD JUMPDEST PUSH1 0x2 DUP3 LT PUSH2 0x4B3 JUMPI POP POP POP PUSH1 0x40 PUSH2 0x244 DUP1 DUP5 ADD CALLDATACOPY PUSH1 0x80 PUSH2 0x284 DUP1 DUP5 ADD CALLDATACOPY DUP2 PUSH2 0x304 PUSH1 0x0 DUP2 DUP4 ADD JUMPDEST PUSH1 0x2 DUP3 LT PUSH2 0x499 JUMPI POP POP POP PUSH2 0x384 DUP2 PUSH1 0x20 SWAP4 GAS STATICCALL SWAP1 DUP2 ISZERO PUSH2 0x31B JUMPI PUSH1 0x0 SWAP2 PUSH2 0x45E JUMPI JUMPDEST POP ISZERO PUSH2 0x419 JUMPI PUSH1 0x0 PUSH1 0x80 PUSH1 0x20 SWAP3 PUSH1 0x40 MLOAD SWAP1 PUSH2 0x384 CALLDATALOAD DUP3 MSTORE DUP5 DUP3 ADD MSTORE PUSH2 0x3C4 CALLDATALOAD PUSH1 0x40 DUP3 ADD MSTORE PUSH2 0x3E4 CALLDATALOAD PUSH1 0x60 DUP3 ADD MSTORE DUP3 DUP1 MSTORE PUSH1 0x1 GAS STATICCALL ISZERO PUSH2 0x31B JUMPI PUSH1 0x0 MLOAD PUSH1 0x1 PUSH1 0x1 PUSH1 0xA0 SHL SUB AND DUP1 ISZERO PUSH2 0x3E0 JUMPI PUSH1 0x2 SLOAD PUSH1 0x40 MLOAD PUSH4 0x4965C7E1 PUSH1 0xE0 SHL DUP2 MSTORE PUSH1 0x4 DUP2 ADD SWAP3 SWAP1 SWAP3 MSTORE PUSH1 0x20 SWAP1 DUP3 SWAP1 PUSH1 0x24 SWAP1 DUP3 SWAP1 PUSH1 0x1 PUSH1 0x1 PUSH1 0xA0 SHL SUB AND GAS STATICCALL SWAP1 DUP2 ISZERO PUSH2 0x31B JUMPI PUSH1 0x0 SWAP2 PUSH2 0x3AE JUMPI JUMPDEST POP PUSH1 0x3 SLOAD PUSH1 0x40 MLOAD PUSH4 0x31A9108F PUSH1 0xE1 SHL DUP2 MSTORE PUSH1 0x4 DUP2 ADD SWAP3 SWAP1 SWAP3 MSTORE PUSH1 0x20 SWAP1 DUP3 SWAP1 PUSH1 0x24 SWAP1 DUP3 SWAP1 PUSH1 0x1 PUSH1 0x1 PUSH1 0xA0 SHL SUB AND GAS STATICCALL SWAP1 DUP2 ISZERO PUSH2 0x31B JUMPI PUSH1 0x0 SWAP2 PUSH2 0x365 JUMPI JUMPDEST POP PUSH1 0x1 PUSH1 0x1 PUSH1 0xA0 SHL SUB AND DUP1 ISZERO PUSH2 0x327 JUMPI PUSH1 0x0 DUP1 DUP1 DUP1 PUSH8 0xDE0B6B3A7640000 DUP6 DUP3 CALL ISZERO PUSH2 0x31B JUMPI PUSH32 0x6177F4110771217C72937D51F3A73915F2C714A6B98507E17EEA7A186136A24A PUSH1 0x20 PUSH1 0x40 MLOAD PUSH8 0xDE0B6B3A7640000 DUP2 MSTORE LOG2 STOP JUMPDEST PUSH1 0x40 MLOAD RETURNDATASIZE PUSH1 0x0 DUP3 RETURNDATACOPY RETURNDATASIZE SWAP1 REVERT JUMPDEST PUSH1 0x40 MLOAD PUSH3 0x461BCD PUSH1 0xE5 SHL DUP2 MSTORE PUSH1 0x20 PUSH1 0x4 DUP3 ADD MSTORE PUSH1 0x16 PUSH1 0x24 DUP3 ADD MSTORE PUSH22 0x11195D9A58D9481BDDDB995C881B9BDD08199BDD5B99 PUSH1 0x52 SHL PUSH1 0x44 DUP3 ADD MSTORE PUSH1 0x64 SWAP1 REVERT JUMPDEST PUSH1 0x20 DUP2 RETURNDATASIZE PUSH1 0x20 GT PUSH2 0x3A6 JUMPI JUMPDEST DUP2 PUSH2 0x37E PUSH1 0x20 SWAP4 DUP4 PUSH2 0x550 JUMP JUMPDEST DUP2 ADD SUB SLT PUSH2 0x3A2 JUMPI MLOAD SWAP1 PUSH1 0x1 PUSH1 0x1 PUSH1 0xA0 SHL SUB DUP3 AND DUP3 SUB PUSH2 0x39F JUMPI POP DUP2 PUSH2 0x2C1 JUMP JUMPDEST DUP1 REVERT JUMPDEST POP DUP1 REVERT JUMPDEST RETURNDATASIZE SWAP2 POP PUSH2 0x371 JUMP JUMPDEST SWAP1 POP PUSH1 0x20 DUP2 RETURNDATASIZE PUSH1 0x20 GT PUSH2 0x3D8 JUMPI JUMPDEST DUP2 PUSH2 0x3C9 PUSH1 0x20 SWAP4 DUP4 PUSH2 0x550 JUMP JUMPDEST DUP2 ADD SUB SLT PUSH2 0x95 JUMPI MLOAD DUP2 PUSH2 0x284 JUMP JUMPDEST RETURNDATASIZE SWAP2 POP PUSH2 0x3BC JUMP JUMPDEST PUSH1 0x40 MLOAD PUSH3 0x461BCD PUSH1 0xE5 SHL DUP2 MSTORE PUSH1 0x20 PUSH1 0x4 DUP3 ADD MSTORE PUSH1 0x11 PUSH1 0x24 DUP3 ADD MSTORE PUSH17 0x496E76616C6964207369676E6174757265 PUSH1 0x78 SHL PUSH1 0x44 DUP3 ADD MSTORE PUSH1 0x64 SWAP1 REVERT JUMPDEST PUSH1 0x40 MLOAD PUSH3 0x461BCD PUSH1 0xE5 SHL DUP2 MSTORE PUSH1 0x20 PUSH1 0x4 DUP3 ADD MSTORE PUSH1 0x1F PUSH1 0x24 DUP3 ADD MSTORE PUSH32 0x4E6F76614465636964657220766572696669636174696F6E206661696C656400 PUSH1 0x44 DUP3 ADD MSTORE PUSH1 0x64 SWAP1 REVERT JUMPDEST PUSH1 0x20 DUP2 RETURNDATASIZE PUSH1 0x20 GT PUSH2 0x491 JUMPI JUMPDEST DUP2 PUSH2 0x477 PUSH1 0x20 SWAP4 DUP4 PUSH2 0x550 JUMP JUMPDEST DUP2 ADD SUB SLT PUSH2 0x3A2 JUMPI MLOAD SWAP1 DUP2 ISZERO ISZERO DUP3 SUB PUSH2 0x39F JUMPI POP DUP3 PUSH2 0x1FD JUMP JUMPDEST RETURNDATASIZE SWAP2 POP PUSH2 0x46A JUMP JUMPDEST DUP3 SWAP4 POP PUSH1 0x40 DUP2 DUP2 PUSH1 0x1 SWAP5 SWAP6 DUP2 SWAP5 CALLDATACOPY ADD SWAP4 ADD SWAP2 ADD DUP5 SWAP3 PUSH2 0x1DA JUMP JUMPDEST PUSH1 0x40 DUP1 DUP3 DUP2 DUP7 PUSH1 0x1 SWAP6 CALLDATACOPY ADD SWAP4 ADD SWAP2 ADD SWAP1 SWAP2 PUSH2 0x1B3 JUMP JUMPDEST PUSH1 0x40 MLOAD PUSH3 0x461BCD PUSH1 0xE5 SHL DUP2 MSTORE PUSH1 0x20 PUSH1 0x4 DUP3 ADD MSTORE PUSH1 0x1A PUSH1 0x24 DUP3 ADD MSTORE PUSH32 0x496E73756666696369656E742072657761726420616D6F756E74000000000000 PUSH1 0x44 DUP3 ADD MSTORE PUSH1 0x64 SWAP1 REVERT JUMPDEST CALLVALUE PUSH2 0x95 JUMPI PUSH1 0x0 CALLDATASIZE PUSH1 0x3 NOT ADD SLT PUSH2 0x95 JUMPI PUSH1 0x1 SLOAD PUSH1 0x40 MLOAD PUSH1 0x1 PUSH1 0x1 PUSH1 0xA0 SHL SUB SWAP1 SWAP2 AND DUP2 MSTORE PUSH1 0x20 SWAP1 RETURN JUMPDEST CALLVALUE PUSH2 0x95 JUMPI PUSH1 0x0 CALLDATASIZE PUSH1 0x3 NOT ADD SLT PUSH2 0x95 JUMPI PUSH1 0x20 SWAP1 SELFBALANCE DUP2 MSTORE RETURN JUMPDEST SWAP1 PUSH1 0x1F DUP1 NOT SWAP2 ADD AND DUP2 ADD SWAP1 DUP2 LT PUSH8 0xFFFFFFFFFFFFFFFF DUP3 GT OR PUSH2 0x572 JUMPI PUSH1 0x40 MSTORE JUMP JUMPDEST PUSH4 0x4E487B71 PUSH1 0xE0 SHL PUSH1 0x0 MSTORE PUSH1 0x41 PUSH1 0x4 MSTORE PUSH1 0x24 PUSH1 0x0 REVERT INVALID LOG2 PUSH5 0x6970667358 0x22 SLT KECCAK256 CODECOPY 0xE6 DUP12 0xEF PUSH4 0x1C2F047E PUSH18 0xB1EE8839B0F86B5F6847F7F84DD93D087E18 SWAP3 0xE 0xD1 CALL PUSH5 0x736F6C6343 STOP ADDMOD SHR STOP CALLER "},"methodIdentifiers":{"getContractBalance()":"6f9fb98a","ioID()":"c3b3135e","ioIDRegistry()":"95cc7086","novaDecider()":"73853c1f","owner()":"8da5cb5b","verifyAndReward(uint256[3],uint256[4],uint256[2],uint256[3],uint256[2],uint256[2][2],uint256[2],uint256[4],uint256[2][2],bytes32,uint8,bytes32,bytes32)":"7afc1dbd"}}}}}