{"contracts/NovaVerifier.sol":{"KZG10Verifier":{"abi":[{"inputs":[],"name":"BN254_PRIME_FIELD","outputs":[{"internalType":"uint256","name":"","type":"uint256"}],"stateMutability":"view","type":"function"},{"inputs":[],"name":"BN254_SCALAR_FIELD","outputs":[{"internalType":"uint256","name":"","type":"uint256"}],"stateMutability":"view","type":"function"},{"inputs":[{"internalType":"uint256[2]","name":"c","type":"uint256[2]"},{"internalType":"uint256[2]","name":"pi","type":"uint256[2]"},{"internalType":"uint256","name":"x","type":"uint256"},{"internalType":"uint256","name":"y","type":"uint256"}],"name":"check","outputs":[{"internalType":"bool","name":"result","type":"bool"}],"stateMutability":"view","type":"function"},{"inputs":[{"internalType":"uint256[]","name":"_coefficients","type":"uint256[]"},{"internalType":"uint256","name":"_index","type":"uint256"}],"name":"evalPolyAt","outputs":[{"internalType":"uint256","name":"","type":"uint256"}],"stateMutability":"pure","type":"function"}],"evm":{"bytecode":{"linkReferences":{},"object":"60806040523461027057610011610275565b7f171149d656ab2678f03a81fb4a13b38cb13c584222498b9f0824377ff4ef1c6c81527f1078a9c7358344c97989a825cd493c02502c5979785ab4102b85cab8785e1652602082015260005b6002811061025e5761006d610275565b610075610275565b7f2e85a64b176a89f651b755522402780ac5224a690c62c2a3580e2b77391eb85f81527f25a630e1b1bb847ca0e32e8d5a2c62d424e4b0d67d8295d094589efba2611485602082015281526100c8610275565b7f105e2254f385a54471f0f072b96fc88fc2a55e98e8fccbdcd5da2729f42941c781527f1478cea7a3717eed37243042378ca4d61c6d69d433ecbf2967d813cb1adc02ae6020820152602082015260026000915b600283106102285761012c610275565b610134610275565b7f213df544b48e424ce1eca450ed03a5496169eddd748b653832354ca0bcf23f6281527f2959a960103c0295e1a16715e806239ff6c59e4c0743824c117de81ae7f85c9660208201528152610187610275565b7f2dc616d796b0ecac95c855ccb68ea147ba7ae912cc510afd22db4596056d688681527f1afc010c12a7d030252d49bbe091ac357b40f62e2c1ac4c1f346b20ce3c2c5c66020820152602082015260066000915b600283106101f25760405161073a90816102ab8239f35b805160005b6002811061021457505060026020600192019201920191906101db565b8151848201556020909101906001016101f7565b805160005b6002811061024a575050600260206001920192019201919061011c565b81518482015560209091019060010161022d565b6001906020835193019281550161005d565b600080fd5b60408051919082016001600160401b0381118382101761029457604052565b634e487b7160e01b600052604160045260246000fdfe6080604052600436101561001257600080fd5b60003560e01c806346bed3d1146101b35780639e78ccf714610052578063c1eb466c1461004d5763e16c8a911461004857600080fd5b610318565b610271565b346101ae5760c03660031901126101ae5761006c366101ee565b60206100c56100bd61007d366101fb565b936100b760a435816100ae61009c6100a66084356100a183368e610341565b6104d1565b61056b565b953690610341565b916100a161037b565b90610603565b923690610341565b6101596100d06103e5565b936101386100dc610423565b91610119610180976100fb6100f08a610261565b978051895260200190565b51878901528051602001516040880152805151606088015260200190565b8051602001516080870152515160a0860152805160c086015260200190565b5160e084015280516020015161010084015280515161012084015260200190565b80516020015161014083015251516101608201526101756104bc565b92839160086107cf195a01fa80156101ac576101a8916101966001926106a0565b51604051911481529081906020820190565b0390f35bfe5b600080fd5b346101ae5760003660031901126101ae577f30644e72e131a029b85045b68181585d2833e84879b9709143e1f593f000000160805260206080f35b906004916044116101ae57565b906044916084116101ae57565b634e487b7160e01b600052604160045260246000fd5b6040810190811067ffffffffffffffff82111761023a57604052565b610208565b90601f8019910116810190811067ffffffffffffffff82111761023a57604052565b9061026f604051928361023f565b565b346101ae5760403660031901126101ae5760043567ffffffffffffffff81116101ae57366023820112156101ae5780600401359067ffffffffffffffff821161023a578160051b604051926102c9602083018561023f565b835260246020840191830101913683116101ae57602401905b828210610308576101a86102f860243586610461565b6040519081529081906020820190565b81358152602091820191016102e2565b346101ae5760003660031901126101ae5760206040516000805160206106e58339815191528152f35b91906040805193610352828661023f565b849181019283116101ae57905b82821061036b57505050565b813581526020918201910161035f565b60405190600080835b6002821061039a5750505061026f60408361023f565b6001602081928554815201930191019091610384565b60405191906000835b600282106103cf5750505061026f60408361023f565b60016020819285548152019301910190916103b9565b604051906103f28261021e565b60066000835b6002821061040557505050565b60026020600192610415866103b0565b8152019301910190916103f8565b604051906104308261021e565b60026000835b6002821061044357505050565b60026020600192610453866103b0565b815201930191019091610436565b909190600090600190825b81518410156104b5577f30644e72e131a029b85045b68181585d2833e84879b9709143e1f593f000000186816001938160208960051b880101518809900894099301929161046c565b9450505050565b6040519060206104cc818461023f565b368337565b60409081516104e0838261023f565b82368237508051158061055f575b61055a5760206000805160206106e5833981519152916105108451948561023f565b805184520151066000805160206106e5833981519152036000805160206106e5833981519152811161054457602082015290565b634e487b7160e01b600052601160045260246000fd5b905090565b506020810151156104ee565b91906040809181519061057e838361023f565b8236833781956060916020855192610596858561023f565b8436853780518452015160208301528482015260076107cf195a01fa80156101ac57156105c05750565b5162461bcd60e51b815260206004820152601860248201527f626e3235343a207363616c6172206d756c206661696c656400000000000000006044820152606490fd5b919091604080916080825191610619848461023f565b83368437602083978186519361062f868661023f565b805185520151828401528051868401520151606082015260066107cf195a01fa80156101ac571561065d5750565b5162461bcd60e51b815260206004820152601760248201527f626e3235343a20706f696e7420616464206661696c65640000000000000000006044820152606490fd5b156106a757565b60405162461bcd60e51b8152602060048201526015602482015274189b8c8d4d0e881c185a5c9a5b99c819985a5b1959605a1b6044820152606490fdfe30644e72e131a029b85045b68181585d97816a916871ca8d3c208c16d87cfd47a26469706673582212201e657cb58e33d7cb436a2583d87a9af305bb90b008da16b833f2630abdc9a7f164736f6c634300081c0033","opcodes":"PUSH1 0x80 PUSH1 0x40 MSTORE CALLVALUE PUSH2 0x270 JUMPI PUSH2 0x11 PUSH2 0x275 JUMP JUMPDEST PUSH32 0x171149D656AB2678F03A81FB4A13B38CB13C584222498B9F0824377FF4EF1C6C DUP2 MSTORE PUSH32 0x1078A9C7358344C97989A825CD493C02502C5979785AB4102B85CAB8785E1652 PUSH1 0x20 DUP3 ADD MSTORE PUSH1 0x0 JUMPDEST PUSH1 0x2 DUP2 LT PUSH2 0x25E JUMPI PUSH2 0x6D PUSH2 0x275 JUMP JUMPDEST PUSH2 0x75 PUSH2 0x275 JUMP JUMPDEST PUSH32 0x2E85A64B176A89F651B755522402780AC5224A690C62C2A3580E2B77391EB85F DUP2 MSTORE PUSH32 0x25A630E1B1BB847CA0E32E8D5A2C62D424E4B0D67D8295D094589EFBA2611485 PUSH1 0x20 DUP3 ADD MSTORE DUP2 MSTORE PUSH2 0xC8 PUSH2 0x275 JUMP JUMPDEST PUSH32 0x105E2254F385A54471F0F072B96FC88FC2A55E98E8FCCBDCD5DA2729F42941C7 DUP2 MSTORE PUSH32 0x1478CEA7A3717EED37243042378CA4D61C6D69D433ECBF2967D813CB1ADC02AE PUSH1 0x20 DUP3 ADD MSTORE PUSH1 0x20 DUP3 ADD MSTORE PUSH1 0x2 PUSH1 0x0 SWAP2 JUMPDEST PUSH1 0x2 DUP4 LT PUSH2 0x228 JUMPI PUSH2 0x12C PUSH2 0x275 JUMP JUMPDEST PUSH2 0x134 PUSH2 0x275 JUMP JUMPDEST PUSH32 0x213DF544B48E424CE1ECA450ED03A5496169EDDD748B653832354CA0BCF23F62 DUP2 MSTORE PUSH32 0x2959A960103C0295E1A16715E806239FF6C59E4C0743824C117DE81AE7F85C96 PUSH1 0x20 DUP3 ADD MSTORE DUP2 MSTORE PUSH2 0x187 PUSH2 0x275 JUMP JUMPDEST PUSH32 0x2DC616D796B0ECAC95C855CCB68EA147BA7AE912CC510AFD22DB4596056D6886 DUP2 MSTORE PUSH32 0x1AFC010C12A7D030252D49BBE091AC357B40F62E2C1AC4C1F346B20CE3C2C5C6 PUSH1 0x20 DUP3 ADD MSTORE PUSH1 0x20 DUP3 ADD MSTORE PUSH1 0x6 PUSH1 0x0 SWAP2 JUMPDEST PUSH1 0x2 DUP4 LT PUSH2 0x1F2 JUMPI PUSH1 0x40 MLOAD PUSH2 0x73A SWAP1 DUP2 PUSH2 0x2AB DUP3 CODECOPY RETURN JUMPDEST DUP1 MLOAD PUSH1 0x0 JUMPDEST PUSH1 0x2 DUP2 LT PUSH2 0x214 JUMPI POP POP PUSH1 0x2 PUSH1 0x20 PUSH1 0x1 SWAP3 ADD SWAP3 ADD SWAP3 ADD SWAP2 SWAP1 PUSH2 0x1DB JUMP JUMPDEST DUP2 MLOAD DUP5 DUP3 ADD SSTORE PUSH1 0x20 SWAP1 SWAP2 ADD SWAP1 PUSH1 0x1 ADD PUSH2 0x1F7 JUMP JUMPDEST DUP1 MLOAD PUSH1 0x0 JUMPDEST PUSH1 0x2 DUP2 LT PUSH2 0x24A JUMPI POP POP PUSH1 0x2 PUSH1 0x20 PUSH1 0x1 SWAP3 ADD SWAP3 ADD SWAP3 ADD SWAP2 SWAP1 PUSH2 0x11C JUMP JUMPDEST DUP2 MLOAD DUP5 DUP3 ADD SSTORE PUSH1 0x20 SWAP1 SWAP2 ADD SWAP1 PUSH1 0x1 ADD PUSH2 0x22D JUMP JUMPDEST PUSH1 0x1 SWAP1 PUSH1 0x20 DUP4 MLOAD SWAP4 ADD SWAP3 DUP2 SSTORE ADD PUSH2 0x5D JUMP JUMPDEST PUSH1 0x0 DUP1 REVERT JUMPDEST PUSH1 0x40 DUP1 MLOAD SWAP2 SWAP1 DUP3 ADD PUSH1 0x1 PUSH1 0x1 PUSH1 0x40 SHL SUB DUP2 GT DUP4 DUP3 LT OR PUSH2 0x294 JUMPI PUSH1 0x40 MSTORE JUMP JUMPDEST PUSH4 0x4E487B71 PUSH1 0xE0 SHL PUSH1 0x0 MSTORE PUSH1 0x41 PUSH1 0x4 MSTORE PUSH1 0x24 PUSH1 0x0 REVERT INVALID PUSH1 0x80 PUSH1 0x40 MSTORE PUSH1 0x4 CALLDATASIZE LT ISZERO PUSH2 0x12 JUMPI PUSH1 0x0 DUP1 REVERT JUMPDEST PUSH1 0x0 CALLDATALOAD PUSH1 0xE0 SHR DUP1 PUSH4 0x46BED3D1 EQ PUSH2 0x1B3 JUMPI DUP1 PUSH4 0x9E78CCF7 EQ PUSH2 0x52 JUMPI DUP1 PUSH4 0xC1EB466C EQ PUSH2 0x4D JUMPI PUSH4 0xE16C8A91 EQ PUSH2 0x48 JUMPI PUSH1 0x0 DUP1 REVERT JUMPDEST PUSH2 0x318 JUMP JUMPDEST PUSH2 0x271 JUMP JUMPDEST CALLVALUE PUSH2 0x1AE JUMPI PUSH1 0xC0 CALLDATASIZE PUSH1 0x3 NOT ADD SLT PUSH2 0x1AE JUMPI PUSH2 0x6C CALLDATASIZE PUSH2 0x1EE JUMP JUMPDEST PUSH1 0x20 PUSH2 0xC5 PUSH2 0xBD PUSH2 0x7D CALLDATASIZE PUSH2 0x1FB JUMP JUMPDEST SWAP4 PUSH2 0xB7 PUSH1 0xA4 CALLDATALOAD DUP2 PUSH2 0xAE PUSH2 0x9C PUSH2 0xA6 PUSH1 0x84 CALLDATALOAD PUSH2 0xA1 DUP4 CALLDATASIZE DUP15 PUSH2 0x341 JUMP JUMPDEST PUSH2 0x4D1 JUMP JUMPDEST PUSH2 0x56B JUMP JUMPDEST SWAP6 CALLDATASIZE SWAP1 PUSH2 0x341 JUMP JUMPDEST SWAP2 PUSH2 0xA1 PUSH2 0x37B JUMP JUMPDEST SWAP1 PUSH2 0x603 JUMP JUMPDEST SWAP3 CALLDATASIZE SWAP1 PUSH2 0x341 JUMP JUMPDEST PUSH2 0x159 PUSH2 0xD0 PUSH2 0x3E5 JUMP JUMPDEST SWAP4 PUSH2 0x138 PUSH2 0xDC PUSH2 0x423 JUMP JUMPDEST SWAP2 PUSH2 0x119 PUSH2 0x180 SWAP8 PUSH2 0xFB PUSH2 0xF0 DUP11 PUSH2 0x261 JUMP JUMPDEST SWAP8 DUP1 MLOAD DUP10 MSTORE PUSH1 0x20 ADD SWAP1 JUMP JUMPDEST MLOAD DUP8 DUP10 ADD MSTORE DUP1 MLOAD PUSH1 0x20 ADD MLOAD PUSH1 0x40 DUP9 ADD MSTORE DUP1 MLOAD MLOAD PUSH1 0x60 DUP9 ADD MSTORE PUSH1 0x20 ADD SWAP1 JUMP JUMPDEST DUP1 MLOAD PUSH1 0x20 ADD MLOAD PUSH1 0x80 DUP8 ADD MSTORE MLOAD MLOAD PUSH1 0xA0 DUP7 ADD MSTORE DUP1 MLOAD PUSH1 0xC0 DUP7 ADD MSTORE PUSH1 0x20 ADD SWAP1 JUMP JUMPDEST MLOAD PUSH1 0xE0 DUP5 ADD MSTORE DUP1 MLOAD PUSH1 0x20 ADD MLOAD PUSH2 0x100 DUP5 ADD MSTORE DUP1 MLOAD MLOAD PUSH2 0x120 DUP5 ADD MSTORE PUSH1 0x20 ADD SWAP1 JUMP JUMPDEST DUP1 MLOAD PUSH1 0x20 ADD MLOAD PUSH2 0x140 DUP4 ADD MSTORE MLOAD MLOAD PUSH2 0x160 DUP3 ADD MSTORE PUSH2 0x175 PUSH2 0x4BC JUMP JUMPDEST SWAP3 DUP4 SWAP2 PUSH1 0x8 PUSH2 0x7CF NOT GAS ADD STATICCALL DUP1 ISZERO PUSH2 0x1AC JUMPI PUSH2 0x1A8 SWAP2 PUSH2 0x196 PUSH1 0x1 SWAP3 PUSH2 0x6A0 JUMP JUMPDEST MLOAD PUSH1 0x40 MLOAD SWAP2 EQ DUP2 MSTORE SWAP1 DUP2 SWAP1 PUSH1 0x20 DUP3 ADD SWAP1 JUMP JUMPDEST SUB SWAP1 RETURN JUMPDEST INVALID JUMPDEST PUSH1 0x0 DUP1 REVERT JUMPDEST CALLVALUE PUSH2 0x1AE JUMPI PUSH1 0x0 CALLDATASIZE PUSH1 0x3 NOT ADD SLT PUSH2 0x1AE JUMPI PUSH32 0x30644E72E131A029B85045B68181585D2833E84879B9709143E1F593F0000001 PUSH1 0x80 MSTORE PUSH1 0x20 PUSH1 0x80 RETURN JUMPDEST SWAP1 PUSH1 0x4 SWAP2 PUSH1 0x44 GT PUSH2 0x1AE JUMPI JUMP JUMPDEST SWAP1 PUSH1 0x44 SWAP2 PUSH1 0x84 GT PUSH2 0x1AE JUMPI JUMP JUMPDEST PUSH4 0x4E487B71 PUSH1 0xE0 SHL PUSH1 0x0 MSTORE PUSH1 0x41 PUSH1 0x4 MSTORE PUSH1 0x24 PUSH1 0x0 REVERT JUMPDEST PUSH1 0x40 DUP2 ADD SWAP1 DUP2 LT PUSH8 0xFFFFFFFFFFFFFFFF DUP3 GT OR PUSH2 0x23A JUMPI PUSH1 0x40 MSTORE JUMP JUMPDEST PUSH2 0x208 JUMP JUMPDEST SWAP1 PUSH1 0x1F DUP1 NOT SWAP2 ADD AND DUP2 ADD SWAP1 DUP2 LT PUSH8 0xFFFFFFFFFFFFFFFF DUP3 GT OR PUSH2 0x23A JUMPI PUSH1 0x40 MSTORE JUMP JUMPDEST SWAP1 PUSH2 0x26F PUSH1 0x40 MLOAD SWAP3 DUP4 PUSH2 0x23F JUMP JUMPDEST JUMP JUMPDEST CALLVALUE PUSH2 0x1AE JUMPI PUSH1 0x40 CALLDATASIZE PUSH1 0x3 NOT ADD SLT PUSH2 0x1AE JUMPI PUSH1 0x4 CALLDATALOAD PUSH8 0xFFFFFFFFFFFFFFFF DUP2 GT PUSH2 0x1AE JUMPI CALLDATASIZE PUSH1 0x23 DUP3 ADD SLT ISZERO PUSH2 0x1AE JUMPI DUP1 PUSH1 0x4 ADD CALLDATALOAD SWAP1 PUSH8 0xFFFFFFFFFFFFFFFF DUP3 GT PUSH2 0x23A JUMPI DUP2 PUSH1 0x5 SHL PUSH1 0x40 MLOAD SWAP3 PUSH2 0x2C9 PUSH1 0x20 DUP4 ADD DUP6 PUSH2 0x23F JUMP JUMPDEST DUP4 MSTORE PUSH1 0x24 PUSH1 0x20 DUP5 ADD SWAP2 DUP4 ADD ADD SWAP2 CALLDATASIZE DUP4 GT PUSH2 0x1AE JUMPI PUSH1 0x24 ADD SWAP1 JUMPDEST DUP3 DUP3 LT PUSH2 0x308 JUMPI PUSH2 0x1A8 PUSH2 0x2F8 PUSH1 0x24 CALLDATALOAD DUP7 PUSH2 0x461 JUMP JUMPDEST PUSH1 0x40 MLOAD SWAP1 DUP2 MSTORE SWAP1 DUP2 SWAP1 PUSH1 0x20 DUP3 ADD SWAP1 JUMP JUMPDEST DUP2 CALLDATALOAD DUP2 MSTORE PUSH1 0x20 SWAP2 DUP3 ADD SWAP2 ADD PUSH2 0x2E2 JUMP JUMPDEST CALLVALUE PUSH2 0x1AE JUMPI PUSH1 0x0 CALLDATASIZE PUSH1 0x3 NOT ADD SLT PUSH2 0x1AE JUMPI PUSH1 0x20 PUSH1 0x40 MLOAD PUSH1 0x0 DUP1 MLOAD PUSH1 0x20 PUSH2 0x6E5 DUP4 CODECOPY DUP2 MLOAD SWAP2 MSTORE DUP2 MSTORE RETURN JUMPDEST SWAP2 SWAP1 PUSH1 0x40 DUP1 MLOAD SWAP4 PUSH2 0x352 DUP3 DUP7 PUSH2 0x23F JUMP JUMPDEST DUP5 SWAP2 DUP2 ADD SWAP3 DUP4 GT PUSH2 0x1AE JUMPI SWAP1 JUMPDEST DUP3 DUP3 LT PUSH2 0x36B JUMPI POP POP POP JUMP JUMPDEST DUP2 CALLDATALOAD DUP2 MSTORE PUSH1 0x20 SWAP2 DUP3 ADD SWAP2 ADD PUSH2 0x35F JUMP JUMPDEST PUSH1 0x40 MLOAD SWAP1 PUSH1 0x0 DUP1 DUP4 JUMPDEST PUSH1 0x2 DUP3 LT PUSH2 0x39A JUMPI POP POP POP PUSH2 0x26F PUSH1 0x40 DUP4 PUSH2 0x23F JUMP JUMPDEST PUSH1 0x1 PUSH1 0x20 DUP2 SWAP3 DUP6 SLOAD DUP2 MSTORE ADD SWAP4 ADD SWAP2 ADD SWAP1 SWAP2 PUSH2 0x384 JUMP JUMPDEST PUSH1 0x40 MLOAD SWAP2 SWAP1 PUSH1 0x0 DUP4 JUMPDEST PUSH1 0x2 DUP3 LT PUSH2 0x3CF JUMPI POP POP POP PUSH2 0x26F PUSH1 0x40 DUP4 PUSH2 0x23F JUMP JUMPDEST PUSH1 0x1 PUSH1 0x20 DUP2 SWAP3 DUP6 SLOAD DUP2 MSTORE ADD SWAP4 ADD SWAP2 ADD SWAP1 SWAP2 PUSH2 0x3B9 JUMP JUMPDEST PUSH1 0x40 MLOAD SWAP1 PUSH2 0x3F2 DUP3 PUSH2 0x21E JUMP JUMPDEST PUSH1 0x6 PUSH1 0x0 DUP4 JUMPDEST PUSH1 0x2 DUP3 LT PUSH2 0x405 JUMPI POP POP POP JUMP JUMPDEST PUSH1 0x2 PUSH1 0x20 PUSH1 0x1 SWAP3 PUSH2 0x415 DUP7 PUSH2 0x3B0 JUMP JUMPDEST DUP2 MSTORE ADD SWAP4 ADD SWAP2 ADD SWAP1 SWAP2 PUSH2 0x3F8 JUMP JUMPDEST PUSH1 0x40 MLOAD SWAP1 PUSH2 0x430 DUP3 PUSH2 0x21E JUMP JUMPDEST PUSH1 0x2 PUSH1 0x0 DUP4 JUMPDEST PUSH1 0x2 DUP3 LT PUSH2 0x443 JUMPI POP POP POP JUMP JUMPDEST PUSH1 0x2 PUSH1 0x20 PUSH1 0x1 SWAP3 PUSH2 0x453 DUP7 PUSH2 0x3B0 JUMP JUMPDEST DUP2 MSTORE ADD SWAP4 ADD SWAP2 ADD SWAP1 SWAP2 PUSH2 0x436 JUMP JUMPDEST SWAP1 SWAP2 SWAP1 PUSH1 0x0 SWAP1 PUSH1 0x1 SWAP1 DUP3 JUMPDEST DUP2 MLOAD DUP5 LT ISZERO PUSH2 0x4B5 JUMPI PUSH32 0x30644E72E131A029B85045B68181585D2833E84879B9709143E1F593F0000001 DUP7 DUP2 PUSH1 0x1 SWAP4 DUP2 PUSH1 0x20 DUP10 PUSH1 0x5 SHL DUP9 ADD ADD MLOAD DUP9 MULMOD SWAP1 ADDMOD SWAP5 MULMOD SWAP4 ADD SWAP3 SWAP2 PUSH2 0x46C JUMP JUMPDEST SWAP5 POP POP POP POP JUMP JUMPDEST PUSH1 0x40 MLOAD SWAP1 PUSH1 0x20 PUSH2 0x4CC DUP2 DUP5 PUSH2 0x23F JUMP JUMPDEST CALLDATASIZE DUP4 CALLDATACOPY JUMP JUMPDEST PUSH1 0x40 SWAP1 DUP2 MLOAD PUSH2 0x4E0 DUP4 DUP3 PUSH2 0x23F JUMP JUMPDEST DUP3 CALLDATASIZE DUP3 CALLDATACOPY POP DUP1 MLOAD ISZERO DUP1 PUSH2 0x55F JUMPI JUMPDEST PUSH2 0x55A JUMPI PUSH1 0x20 PUSH1 0x0 DUP1 MLOAD PUSH1 0x20 PUSH2 0x6E5 DUP4 CODECOPY DUP2 MLOAD SWAP2 MSTORE SWAP2 PUSH2 0x510 DUP5 MLOAD SWAP5 DUP6 PUSH2 0x23F JUMP JUMPDEST DUP1 MLOAD DUP5 MSTORE ADD MLOAD MOD PUSH1 0x0 DUP1 MLOAD PUSH1 0x20 PUSH2 0x6E5 DUP4 CODECOPY DUP2 MLOAD SWAP2 MSTORE SUB PUSH1 0x0 DUP1 MLOAD PUSH1 0x20 PUSH2 0x6E5 DUP4 CODECOPY DUP2 MLOAD SWAP2 MSTORE DUP2 GT PUSH2 0x544 JUMPI PUSH1 0x20 DUP3 ADD MSTORE SWAP1 JUMP JUMPDEST PUSH4 0x4E487B71 PUSH1 0xE0 SHL PUSH1 0x0 MSTORE PUSH1 0x11 PUSH1 0x4 MSTORE PUSH1 0x24 PUSH1 0x0 REVERT JUMPDEST SWAP1 POP SWAP1 JUMP JUMPDEST POP PUSH1 0x20 DUP2 ADD MLOAD ISZERO PUSH2 0x4EE JUMP JUMPDEST SWAP2 SWAP1 PUSH1 0x40 DUP1 SWAP2 DUP2 MLOAD SWAP1 PUSH2 0x57E DUP4 DUP4 PUSH2 0x23F JUMP JUMPDEST DUP3 CALLDATASIZE DUP4 CALLDATACOPY DUP2 SWAP6 PUSH1 0x60 SWAP2 PUSH1 0x20 DUP6 MLOAD SWAP3 PUSH2 0x596 DUP6 DUP6 PUSH2 0x23F JUMP JUMPDEST DUP5 CALLDATASIZE DUP6 CALLDATACOPY DUP1 MLOAD DUP5 MSTORE ADD MLOAD PUSH1 0x20 DUP4 ADD MSTORE DUP5 DUP3 ADD MSTORE PUSH1 0x7 PUSH2 0x7CF NOT GAS ADD STATICCALL DUP1 ISZERO PUSH2 0x1AC JUMPI ISZERO PUSH2 0x5C0 JUMPI POP JUMP JUMPDEST MLOAD PUSH3 0x461BCD PUSH1 0xE5 SHL DUP2 MSTORE PUSH1 0x20 PUSH1 0x4 DUP3 ADD MSTORE PUSH1 0x18 PUSH1 0x24 DUP3 ADD MSTORE PUSH32 0x626E3235343A207363616C6172206D756C206661696C65640000000000000000 PUSH1 0x44 DUP3 ADD MSTORE PUSH1 0x64 SWAP1 REVERT JUMPDEST SWAP2 SWAP1 SWAP2 PUSH1 0x40 DUP1 SWAP2 PUSH1 0x80 DUP3 MLOAD SWAP2 PUSH2 0x619 DUP5 DUP5 PUSH2 0x23F JUMP JUMPDEST DUP4 CALLDATASIZE DUP5 CALLDATACOPY PUSH1 0x20 DUP4 SWAP8 DUP2 DUP7 MLOAD SWAP4 PUSH2 0x62F DUP7 DUP7 PUSH2 0x23F JUMP JUMPDEST DUP1 MLOAD DUP6 MSTORE ADD MLOAD DUP3 DUP5 ADD MSTORE DUP1 MLOAD DUP7 DUP5 ADD MSTORE ADD MLOAD PUSH1 0x60 DUP3 ADD MSTORE PUSH1 0x6 PUSH2 0x7CF NOT GAS ADD STATICCALL DUP1 ISZERO PUSH2 0x1AC JUMPI ISZERO PUSH2 0x65D JUMPI POP JUMP JUMPDEST MLOAD PUSH3 0x461BCD PUSH1 0xE5 SHL DUP2 MSTORE PUSH1 0x20 PUSH1 0x4 DUP3 ADD MSTORE PUSH1 0x17 PUSH1 0x24 DUP3 ADD MSTORE PUSH32 0x626E3235343A20706F696E7420616464206661696C6564000000000000000000 PUSH1 0x44 DUP3 ADD MSTORE PUSH1 0x64 SWAP1 REVERT JUMPDEST ISZERO PUSH2 0x6A7 JUMPI JUMP JUMPDEST PUSH1 0x40 MLOAD PUSH3 0x461BCD PUSH1 0xE5 SHL DUP2 MSTORE PUSH1 0x20 PUSH1 0x4 DUP3 ADD MSTORE PUSH1 0x15 PUSH1 0x24 DUP3 ADD MSTORE PUSH21 0x189B8C8D4D0E881C185A5C9A5B99C819985A5B1959 PUSH1 0x5A SHL PUSH1 0x44 DUP3 ADD MSTORE PUSH1 0x64 SWAP1 REVERT INVALID ADDRESS PUSH5 0x4E72E131A0 0x29 0xB8 POP GASLIMIT 0xB6 DUP2 DUP2 PC TSTORE SWAP8 DUP2 PUSH11 0x916871CA8D3C208C16D87C REVERT SELFBALANCE LOG2 PUSH5 0x6970667358 0x22 SLT KECCAK256 0x1E PUSH6 0x7CB58E33D7CB NUMBER PUSH11 0x2583D87A9AF305BB90B008 0xDA AND 0xB8 CALLER CALLCODE PUSH4 0xABDC9A7 CALL PUSH5 0x736F6C6343 STOP ADDMOD SHR STOP CALLER "},"methodIdentifiers":{"BN254_PRIME_FIELD()":"e16c8a91","BN254_SCALAR_FIELD()":"46bed3d1","check(uint256[2],uint256[2],uint256,uint256)":"9e78ccf7","evalPolyAt(uint256[],uint256)":"c1eb466c"}}}}}