{"contracts/NovaVerifier.sol":{"Groth16Verifier":{"abi":[{"inputs":[{"internalType":"uint256[2]","name":"_pA","type":"uint256[2]"},{"internalType":"uint256[2][2]","name":"_pB","type":"uint256[2][2]"},{"internalType":"uint256[2]","name":"_pC","type":"uint256[2]"},{"internalType":"uint256[32]","name":"_pubSignals","type":"uint256[32]"}],"name":"verifyProof","outputs":[{"internalType":"bool","name":"","type":"bool"}],"stateMutability":"view","type":"function"}],"evm":{"bytecode":{"linkReferences":{},"object":"6080806040523460155761189a908161001b8239f35b600080fdfe6080604052600436101561001257600080fd5b60003560e01c633cc08b241461002757600080fd5b34610200576105003660031901126102005761004236610205565b3660c4116102005761005336610212565b3661050411610200576101f79161040060405261007261010435610220565b61007e61012435610220565b61008a61014435610220565b61009661016435610220565b6100a261018435610220565b6100ae6101a435610220565b6100ba6101c435610220565b6100c66101e435610220565b6100d261020435610220565b6100de61022435610220565b6100ea61024435610220565b6100f661026435610220565b61010261028435610220565b61010e6102a435610220565b61011a6102c435610220565b6101266102e435610220565b61013261030435610220565b61013e61032435610220565b61014a61034435610220565b61015661036435610220565b61016261038435610220565b61016e6103a435610220565b61017a6103c435610220565b6101866103e435610220565b61019261040435610220565b61019e61042435610220565b6101aa61044435610220565b6101b661046435610220565b6101c261048435610220565b6101ce6104a435610220565b6101da6104c435610220565b6101e66104e435610220565b6101f261050435610220565b6113d1565b60005260206000f35b600080fd5b9060049160441161020057565b9060c4916101041161020057565b7f30644e72e131a029b85045b68181585d2833e84879b9709143e1f593f0000001111561024957565b6000805260206000f35b604051917f042f0325684e46555078bff2d7206cbff35824bdc44db8115d489f694f67834083527f1a48fa7434c2fcf572888e77a481724258dec4f143cc38a71c81d58a89deda2660208401526040830190815260408360608160076107cf195a01fa1561024957815190526020810151606083015260409160809060066107cf195a01fa1561024957565b604051917f2bd1c2030a8b7a8f1d881fbe9f5c12fe3fb7d271368841404cf2de935a63e60e83527f05203a63e074c9796609fd62e1b1dc53c4bd84ad24356b04dfe42784930419ad60208401526040830190815260408360608160076107cf195a01fa1561024957815190526020810151606083015260409160809060066107cf195a01fa1561024957565b604051917f0db9bd2774d26ed9f9ee92785d0f2da6cfe24133e5a10d022a278bd8fa38cdb483527f0f9c9e661c96bc2a2936517e1be578a365fae39c3527235c9eb4d7f75a4eb06960208401526040830190815260408360608160076107cf195a01fa1561024957815190526020810151606083015260409160809060066107cf195a01fa1561024957565b604051917f25349c31ffa50937a1f67459fc0e0d3440ad3d63b4f5296ca572f00712ef433a83527f26eb89983b5c75381d679815d6943850509dac64bd1286dff2994641876b357a60208401526040830190815260408360608160076107cf195a01fa1561024957815190526020810151606083015260409160809060066107cf195a01fa1561024957565b604051917f1f59fbca9610a1e42da20bb0971dfb47ae5f3cce9a59972acaf9b33ca3f8133383527f149342dd1e7387ad6edd68c878fa39f8447451db6ac18433bac149c290a378da60208401526040830190815260408360608160076107cf195a01fa1561024957815190526020810151606083015260409160809060066107cf195a01fa1561024957565b604051917f1664acde1b2fd0c725ac3f86eac77e73b280df567e623eecae617410e03eae6983527f2e3be590fd52a675abcfa2c34fb9aa61e0c3a26207eae8fce15fb21b970f5b3a60208401526040830190815260408360608160076107cf195a01fa1561024957815190526020810151606083015260409160809060066107cf195a01fa1561024957565b604051917f03f02bbe922b9505b78a5b26521d55bdd6c29dafe6fa7abd89de105f675a113b83527f0107fdc118e0b09a3963fa63e0b09b8a425b830822646640ef6ef332bf5e9b1760208401526040830190815260408360608160076107cf195a01fa1561024957815190526020810151606083015260409160809060066107cf195a01fa1561024957565b604051917f1a9d6dab9651e0dbdd288bce8aa361ff706b431afa0048836bc9b2a64904e5b383527f0d64e3986b388da1c136b2123b8d1c81efe732c3033082c4a0b481d9031c114c60208401526040830190815260408360608160076107cf195a01fa1561024957815190526020810151606083015260409160809060066107cf195a01fa1561024957565b604051917f192460b1236b3e98558f74973100441b8b1a7fd08434ada6b72b9618f642aca983527f15bdfdc71bc3da36f954986eaa9bc32976ddeca59c60020a54a9e35a03537cea60208401526040830190815260408360608160076107cf195a01fa1561024957815190526020810151606083015260409160809060066107cf195a01fa1561024957565b604051917f195fb5704e101b8643e088d375367908f9b9d6c5acc4d968c4757805ab515bc683527f291e5cbf2cdedc329b18b02c00d03082543653ccd0c9453d90d3aaa012fd8c9960208401526040830190815260408360608160076107cf195a01fa1561024957815190526020810151606083015260409160809060066107cf195a01fa1561024957565b604051917f12d9a3ab6dac5185b5dbd16dda3f9564b3d0cd06a41f6cb92728f4914225dc7683527f2e47ac256b76249e8bad840d54323f21c7af686f6fb3f970d9ba3f1f74b632c960208401526040830190815260408360608160076107cf195a01fa1561024957815190526020810151606083015260409160809060066107cf195a01fa1561024957565b604051917f2bac8037a578285185dcabaf0f049ab152250ca54e4d765602547458fb82b01183527f0d657b738a705c803b285a7aa64376fc732c555d94f5cfc2660a3f8ba009346260208401526040830190815260408360608160076107cf195a01fa1561024957815190526020810151606083015260409160809060066107cf195a01fa1561024957565b604051917f17a6f3496be388a096c9b0228f2a87fc35d3f7288aff31a68e54eb2d828fe04283527e120a707c40d91081a1b5f67aba3aa0bbe965794a1b72503018c18f0af6b02260208401526040830190815260408360608160076107cf195a01fa1561024957815190526020810151606083015260409160809060066107cf195a01fa1561024957565b604051917f0832efb36a3c15a50f9ccce322dfcf9f7eba323c18c84ae91c930b8b0ce1262583527f19d7fa5e150edbffeb758b99d2b896ba0b1605f210d32a38ee829202ecd15bac60208401526040830190815260408360608160076107cf195a01fa1561024957815190526020810151606083015260409160809060066107cf195a01fa1561024957565b604051917f1ee7f7af38c7b7b472ad9314f0dd9247158a1f92b91d346734e1ec53b01a598183527f190f9bd0579d151e145cd91ae9c79214245c10b72d0dd54531bb1753efbb5fa560208401526040830190815260408360608160076107cf195a01fa1561024957815190526020810151606083015260409160809060066107cf195a01fa1561024957565b604051917f1c6fc1a5eacaa6e867d5216dab749adb8cc0f78054b9cf600ddbaa030999897883527f2117224c3113d7a828234d0f15de062506b43fd53aaa03b2f376ac2620f2514460208401526040830190815260408360608160076107cf195a01fa1561024957815190526020810151606083015260409160809060066107cf195a01fa1561024957565b604051917f2fd5fa0a8c2dc62363f9fa2e40ab52a5985667de5da6fcfd569dfd302c8280bd83527f0b75d3fea3f8ba549a71cd50dbc1efd18e8a96ba487903bcd15f5e6ece6b1b9460208401526040830190815260408360608160076107cf195a01fa1561024957815190526020810151606083015260409160809060066107cf195a01fa1561024957565b604051917f21e35143b634eaeeb04590b3544f6c7e3fb5191adebb276850cc46b923ec5e7683527f02c85a116a08e116ce34f62b7f0ecfe9ab6b864e325eda1a5a4aa1764ebc800d60208401526040830190815260408360608160076107cf195a01fa1561024957815190526020810151606083015260409160809060066107cf195a01fa1561024957565b604051917f08ee907423dd1b05af1de2744d7c41ebe06cfdbd2a107346311f715fa21b31f683527f2897ca8b3345dfcef9aaf25229ede9b8d2ed84d2a9969b200cf8c92ae5c63d2c60208401526040830190815260408360608160076107cf195a01fa1561024957815190526020810151606083015260409160809060066107cf195a01fa1561024957565b604051917f275fccea5e06b9bb45504369702bef0fa1da46d8b2ac2faf305b164a108170a983527f2fff9a74c763884a42fd02de0ec4c54ab62f01c55455d0c89f56d8e7ddf1d7e060208401526040830190815260408360608160076107cf195a01fa1561024957815190526020810151606083015260409160809060066107cf195a01fa1561024957565b604051917f01183856c0042be63c09286ad17b669459dc6f6165e69ad7318785ca9cf5a20983527ee4fa10cd5a6bd2bfb9b4dce83550ba953d9629c57731d071fa850cf2fe608460208401526040830190815260408360608160076107cf195a01fa1561024957815190526020810151606083015260409160809060066107cf195a01fa1561024957565b604051917f170fbff46ac7a1a3d3f82cfa7083916ded52d5bb70c749ebb6f6886fd86939ec83527f1fee85e90c59f80d4032a2f3acb7de044e215b734341f5923d0492541b6daee260208401526040830190815260408360608160076107cf195a01fa1561024957815190526020810151606083015260409160809060066107cf195a01fa1561024957565b604051917f12399b0dba968106350c0867c6c9d5e7464b5d224eb67cb568b955bd19e7d8bb83527f077f1ffa3d06d843563caf4ac3b0d119e0ce5f0536b0df628491e4c32c65238f60208401526040830190815260408360608160076107cf195a01fa1561024957815190526020810151606083015260409160809060066107cf195a01fa1561024957565b604051917f0807893cdf19e1bc87fba6b53b470ddf82e1de175eefea8c8342436e012808de83527f228e7fce061679452bf7190e7a63da7f97e6ab305d9b4463ef46adffab56690760208401526040830190815260408360608160076107cf195a01fa1561024957815190526020810151606083015260409160809060066107cf195a01fa1561024957565b604051917f1561e5341cbe50804a311117f05f36ddaeb627b0f52c40f5c3b477d421c3ce3c83527f25c6bebe9999b95520695057d39bfcea606a4a6cafbcf106e31d4145258f113e60208401526040830190815260408360608160076107cf195a01fa1561024957815190526020810151606083015260409160809060066107cf195a01fa1561024957565b604051917f09626081958509887b1213bd967ce952b0967c50360fb20d4cf33b0646c1382483527f087d7715fcbf879832355ba9cdc028636692e47b02aa11cc42aa81120f18defb60208401526040830190815260408360608160076107cf195a01fa1561024957815190526020810151606083015260409160809060066107cf195a01fa1561024957565b604051917f175567c4ce5f760ccb8baa738ad4133ee15d7497ae8033540ffd9dbcd79ca2bb83527f1ae4606dc262d5d41eba8378f439f0fd96b08960b1396bc458d9bf5dc8d6159560208401526040830190815260408360608160076107cf195a01fa1561024957815190526020810151606083015260409160809060066107cf195a01fa1561024957565b604051917f09c864420f926adbaca504a1a3dcc73aa5713b310d24d6a6ac8a7019d1e978b283527f02195801c099052af9af43fb0c69bc58bd4792a55481b90c22458d14f670c10660208401526040830190815260408360608160076107cf195a01fa1561024957815190526020810151606083015260409160809060066107cf195a01fa1561024957565b604051917f10985c57f165eddc203061d3de3362043c2a3944c05b0915abe2b492ded8521183527f04b206a2c40b845e05e621ffbc35a5e5e0653d141aeacc26b88b699e957b4f3b60208401526040830190815260408360608160076107cf195a01fa1561024957815190526020810151606083015260409160809060066107cf195a01fa1561024957565b604051917f03488ce5913d7c8d7b392615bd25afd79c2e191d18c14402fd1c57c81b385b1883527f305518e8d3d1fadae66f3ea6d1b1fa71ef20756cbca3733affedd506bda7fb9660208401526040830190815260408360608160076107cf195a01fa1561024957815190526020810151606083015260409160809060066107cf195a01fa1561024957565b604051917f1a469db270f51ff10c5f52cbe628f33a4fe40c3e70d3341ad0177761248063c983527f19daef237b924c6bd440ab359012125e0de6ea2e5fac1422f11cad9950c896f460208401526040830190815260408360608160076107cf195a01fa1561024957815190526020810151606083015260409160809060066107cf195a01fa1561024957565b604051917f25d9e17414d1d5a003284d4d2d35f247610034a5e76a3ca8093d3dfda2f562d183527f0568963d9ea35b840605278a572282208e183daa5051f3cd715365cb0249a96060208401526040830190815260408360608160076107cf195a01fa1561024957815190526020810151606083015260409160809060066107cf195a01fa1561024957565b907f30644e72e131a029b85045b68181585d97816a916871ca8d3c208c16d87cfd47602080937f187175bae0695db90510a0e1380a3f99247a5d75ac5e813479be611cfdf6318c6080527f21782efa62094354422b0da7a898c763cb8c986284ebc9e0efc4f1fbadaccec260a05261144d610104356080610253565b61145b6101243560806102df565b61146961014435608061036b565b6114776101643560806103f7565b611485610184356080610483565b6114936101a435608061050f565b6114a16101c435608061059b565b6114af6101e4356080610627565b6114bd6102043560806106b3565b6114cb61022435608061073f565b6114d96102443560806107cb565b6114e7610264356080610857565b6114f56102843560806108e3565b6115036102a435608061096e565b6115116102c43560806109fa565b61151f6102e4356080610a86565b61152d610304356080610b12565b61153b610324356080610b9e565b611549610344356080610c2a565b611557610364356080610cb6565b611565610384356080610d42565b6115736103a4356080610dcd565b6115816103c4356080610e59565b61158f6103e4356080610ee5565b61159d610404356080610f71565b6115ab610424356080610ffd565b6115b9610444356080611089565b6115c7610464356080611115565b6115d56104843560806111a1565b6115e36104a435608061122d565b6115f16104c43560806112b9565b6115ff6104e4356080611345565b80356101005201358103066101205260443561014052606435610160526084356101805260a4356101a0527f113cbe3c9a2b8d090248ac547a0e5986316225425388f7d68723dfc7e60ab3ab6101c0527f0cab7151731cbda4eb6295aed348e9579d12426b5c863429364e115aaadfcb546101e0527f0f25a76cb8473cbe7d09a2a3b4e6e22907a9dc569c1a59a1f4fa74be6b67f078610200527f2710059ffd75a0dbe2c38ab00ef07f91f8a0e87fa223e4758311c9280725de0a610220527f22c4aa7e8478c9d0092183bb0e25ea10ae4994aa581b78e60f20ae64ce246cd4610240527f100d9e3f35195f0a3d2aeab8c7e9fdd1db43f11565b6cc1e6539f4c565b5ab40610260526080516102805260a0516102a0527f219e45b84338572e39460806f14e1248f07c97a94b26223b650d6049d325e1e76102c0527f2a39816d6d57a84e42b15222e11579453544db90ab34acacef95fb5915c22a966102e0527f0bbbb0319d6e71d44770ba707f4f7a3933d78c415743ae34f34d1c8488215201610300527f2fa77b2c66ac8a469f6f22e903ceb501072e5e00b6210d27d6d91d4839d23558610320528035610340520135610360527f1eb00b51fbc96ef7b6b3ddb183961e9a05e75e8d9dae360055f276b1d161895b610380527f0f82e4fd0f892ca3b9c6b6e6975670f2560cc516388a9f4b70015479795e53056103a0527f1402fd8730002bb3e5765db61883fce1c0c72b28a28f3303d6772835740cdfbc6103c0527f1eed01e299e1822c9f5e717b49d1907628b2e3f8b8c34408eaa70a43a930c27c6103e05260206101006103008160086107cf195a01fa61010051169056fea2646970667358221220c40b7fb714bacab7a6ae2f338587a8d50be924eef5adf3a8bf3fe1954276b12e64736f6c634300081c0033","opcodes":"PUSH1 0x80 DUP1 PUSH1 0x40 MSTORE CALLVALUE PUSH1 0x15 JUMPI PUSH2 0x189A SWAP1 DUP2 PUSH2 0x1B DUP3 CODECOPY RETURN JUMPDEST PUSH1 0x0 DUP1 REVERT INVALID PUSH1 0x80 PUSH1 0x40 MSTORE PUSH1 0x4 CALLDATASIZE LT ISZERO PUSH2 0x12 JUMPI PUSH1 0x0 DUP1 REVERT JUMPDEST PUSH1 0x0 CALLDATALOAD PUSH1 0xE0 SHR PUSH4 0x3CC08B24 EQ PUSH2 0x27 JUMPI PUSH1 0x0 DUP1 REVERT JUMPDEST CALLVALUE PUSH2 0x200 JUMPI PUSH2 0x500 CALLDATASIZE PUSH1 0x3 NOT ADD SLT PUSH2 0x200 JUMPI PUSH2 0x42 CALLDATASIZE PUSH2 0x205 JUMP JUMPDEST CALLDATASIZE PUSH1 0xC4 GT PUSH2 0x200 JUMPI PUSH2 0x53 CALLDATASIZE PUSH2 0x212 JUMP JUMPDEST CALLDATASIZE PUSH2 0x504 GT PUSH2 0x200 JUMPI PUSH2 0x1F7 SWAP2 PUSH2 0x400 PUSH1 0x40 MSTORE PUSH2 0x72 PUSH2 0x104 CALLDATALOAD PUSH2 0x220 JUMP JUMPDEST PUSH2 0x7E PUSH2 0x124 CALLDATALOAD PUSH2 0x220 JUMP JUMPDEST PUSH2 0x8A PUSH2 0x144 CALLDATALOAD PUSH2 0x220 JUMP JUMPDEST PUSH2 0x96 PUSH2 0x164 CALLDATALOAD PUSH2 0x220 JUMP JUMPDEST PUSH2 0xA2 PUSH2 0x184 CALLDATALOAD PUSH2 0x220 JUMP JUMPDEST PUSH2 0xAE PUSH2 0x1A4 CALLDATALOAD PUSH2 0x220 JUMP JUMPDEST PUSH2 0xBA PUSH2 0x1C4 CALLDATALOAD PUSH2 0x220 JUMP JUMPDEST PUSH2 0xC6 PUSH2 0x1E4 CALLDATALOAD PUSH2 0x220 JUMP JUMPDEST PUSH2 0xD2 PUSH2 0x204 CALLDATALOAD PUSH2 0x220 JUMP JUMPDEST PUSH2 0xDE PUSH2 0x224 CALLDATALOAD PUSH2 0x220 JUMP JUMPDEST PUSH2 0xEA PUSH2 0x244 CALLDATALOAD PUSH2 0x220 JUMP JUMPDEST PUSH2 0xF6 PUSH2 0x264 CALLDATALOAD PUSH2 0x220 JUMP JUMPDEST PUSH2 0x102 PUSH2 0x284 CALLDATALOAD PUSH2 0x220 JUMP JUMPDEST PUSH2 0x10E PUSH2 0x2A4 CALLDATALOAD PUSH2 0x220 JUMP JUMPDEST PUSH2 0x11A PUSH2 0x2C4 CALLDATALOAD PUSH2 0x220 JUMP JUMPDEST PUSH2 0x126 PUSH2 0x2E4 CALLDATALOAD PUSH2 0x220 JUMP JUMPDEST PUSH2 0x132 PUSH2 0x304 CALLDATALOAD PUSH2 0x220 JUMP JUMPDEST PUSH2 0x13E PUSH2 0x324 CALLDATALOAD PUSH2 0x220 JUMP JUMPDEST PUSH2 0x14A PUSH2 0x344 CALLDATALOAD PUSH2 0x220 JUMP JUMPDEST PUSH2 0x156 PUSH2 0x364 CALLDATALOAD PUSH2 0x220 JUMP JUMPDEST PUSH2 0x162 PUSH2 0x384 CALLDATALOAD PUSH2 0x220 JUMP JUMPDEST PUSH2 0x16E PUSH2 0x3A4 CALLDATALOAD PUSH2 0x220 JUMP JUMPDEST PUSH2 0x17A PUSH2 0x3C4 CALLDATALOAD PUSH2 0x220 JUMP JUMPDEST PUSH2 0x186 PUSH2 0x3E4 CALLDATALOAD PUSH2 0x220 JUMP JUMPDEST PUSH2 0x192 PUSH2 0x404 CALLDATALOAD PUSH2 0x220 JUMP JUMPDEST PUSH2 0x19E PUSH2 0x424 CALLDATALOAD PUSH2 0x220 JUMP JUMPDEST PUSH2 0x1AA PUSH2 0x444 CALLDATALOAD PUSH2 0x220 JUMP JUMPDEST PUSH2 0x1B6 PUSH2 0x464 CALLDATALOAD PUSH2 0x220 JUMP JUMPDEST PUSH2 0x1C2 PUSH2 0x484 CALLDATALOAD PUSH2 0x220 JUMP JUMPDEST PUSH2 0x1CE PUSH2 0x4A4 CALLDATALOAD PUSH2 0x220 JUMP JUMPDEST PUSH2 0x1DA PUSH2 0x4C4 CALLDATALOAD PUSH2 0x220 JUMP JUMPDEST PUSH2 0x1E6 PUSH2 0x4E4 CALLDATALOAD PUSH2 0x220 JUMP JUMPDEST PUSH2 0x1F2 PUSH2 0x504 CALLDATALOAD PUSH2 0x220 JUMP JUMPDEST PUSH2 0x13D1 JUMP JUMPDEST PUSH1 0x0 MSTORE PUSH1 0x20 PUSH1 0x0 RETURN JUMPDEST PUSH1 0x0 DUP1 REVERT JUMPDEST SWAP1 PUSH1 0x4 SWAP2 PUSH1 0x44 GT PUSH2 0x200 JUMPI JUMP JUMPDEST SWAP1 PUSH1 0xC4 SWAP2 PUSH2 0x104 GT PUSH2 0x200 JUMPI JUMP JUMPDEST PUSH32 0x30644E72E131A029B85045B68181585D2833E84879B9709143E1F593F0000001 GT ISZERO PUSH2 0x249 JUMPI JUMP JUMPDEST PUSH1 0x0 DUP1 MSTORE PUSH1 0x20 PUSH1 0x0 RETURN JUMPDEST PUSH1 0x40 MLOAD SWAP2 PUSH32 0x42F0325684E46555078BFF2D7206CBFF35824BDC44DB8115D489F694F678340 DUP4 MSTORE PUSH32 0x1A48FA7434C2FCF572888E77A481724258DEC4F143CC38A71C81D58A89DEDA26 PUSH1 0x20 DUP5 ADD MSTORE PUSH1 0x40 DUP4 ADD SWAP1 DUP2 MSTORE PUSH1 0x40 DUP4 PUSH1 0x60 DUP2 PUSH1 0x7 PUSH2 0x7CF NOT GAS ADD STATICCALL ISZERO PUSH2 0x249 JUMPI DUP2 MLOAD SWAP1 MSTORE PUSH1 0x20 DUP2 ADD MLOAD PUSH1 0x60 DUP4 ADD MSTORE PUSH1 0x40 SWAP2 PUSH1 0x80 SWAP1 PUSH1 0x6 PUSH2 0x7CF NOT GAS ADD STATICCALL ISZERO PUSH2 0x249 JUMPI JUMP JUMPDEST PUSH1 0x40 MLOAD SWAP2 PUSH32 0x2BD1C2030A8B7A8F1D881FBE9F5C12FE3FB7D271368841404CF2DE935A63E60E DUP4 MSTORE PUSH32 0x5203A63E074C9796609FD62E1B1DC53C4BD84AD24356B04DFE42784930419AD PUSH1 0x20 DUP5 ADD MSTORE PUSH1 0x40 DUP4 ADD SWAP1 DUP2 MSTORE PUSH1 0x40 DUP4 PUSH1 0x60 DUP2 PUSH1 0x7 PUSH2 0x7CF NOT GAS ADD STATICCALL ISZERO PUSH2 0x249 JUMPI DUP2 MLOAD SWAP1 MSTORE PUSH1 0x20 DUP2 ADD MLOAD PUSH1 0x60 DUP4 ADD MSTORE PUSH1 0x40 SWAP2 PUSH1 0x80 SWAP1 PUSH1 0x6 PUSH2 0x7CF NOT GAS ADD STATICCALL ISZERO PUSH2 0x249 JUMPI JUMP JUMPDEST PUSH1 0x40 MLOAD SWAP2 PUSH32 0xDB9BD2774D26ED9F9EE92785D0F2DA6CFE24133E5A10D022A278BD8FA38CDB4 DUP4 MSTORE PUSH32 0xF9C9E661C96BC2A2936517E1BE578A365FAE39C3527235C9EB4D7F75A4EB069 PUSH1 0x20 DUP5 ADD MSTORE PUSH1 0x40 DUP4 ADD SWAP1 DUP2 MSTORE PUSH1 0x40 DUP4 PUSH1 0x60 DUP2 PUSH1 0x7 PUSH2 0x7CF NOT GAS ADD STATICCALL ISZERO PUSH2 0x249 JUMPI DUP2 MLOAD SWAP1 MSTORE PUSH1 0x20 DUP2 ADD MLOAD PUSH1 0x60 DUP4 ADD MSTORE PUSH1 0x40 SWAP2 PUSH1 0x80 SWAP1 PUSH1 0x6 PUSH2 0x7CF NOT GAS ADD STATICCALL ISZERO PUSH2 0x249 JUMPI JUMP JUMPDEST PUSH1 0x40 MLOAD SWAP2 PUSH32 0x25349C31FFA50937A1F67459FC0E0D3440AD3D63B4F5296CA572F00712EF433A DUP4 MSTORE PUSH32 0x26EB89983B5C75381D679815D6943850509DAC64BD1286DFF2994641876B357A PUSH1 0x20 DUP5 ADD MSTORE PUSH1 0x40 DUP4 ADD SWAP1 DUP2 MSTORE PUSH1 0x40 DUP4 PUSH1 0x60 DUP2 PUSH1 0x7 PUSH2 0x7CF NOT GAS ADD STATICCALL ISZERO PUSH2 0x249 JUMPI DUP2 MLOAD SWAP1 MSTORE PUSH1 0x20 DUP2 ADD MLOAD PUSH1 0x60 DUP4 ADD MSTORE PUSH1 0x40 SWAP2 PUSH1 0x80 SWAP1 PUSH1 0x6 PUSH2 0x7CF NOT GAS ADD STATICCALL ISZERO PUSH2 0x249 JUMPI JUMP JUMPDEST PUSH1 0x40 MLOAD SWAP2 PUSH32 0x1F59FBCA9610A1E42DA20BB0971DFB47AE5F3CCE9A59972ACAF9B33CA3F81333 DUP4 MSTORE PUSH32 0x149342DD1E7387AD6EDD68C878FA39F8447451DB6AC18433BAC149C290A378DA PUSH1 0x20 DUP5 ADD MSTORE PUSH1 0x40 DUP4 ADD SWAP1 DUP2 MSTORE PUSH1 0x40 DUP4 PUSH1 0x60 DUP2 PUSH1 0x7 PUSH2 0x7CF NOT GAS ADD STATICCALL ISZERO PUSH2 0x249 JUMPI DUP2 MLOAD SWAP1 MSTORE PUSH1 0x20 DUP2 ADD MLOAD PUSH1 0x60 DUP4 ADD MSTORE PUSH1 0x40 SWAP2 PUSH1 0x80 SWAP1 PUSH1 0x6 PUSH2 0x7CF NOT GAS ADD STATICCALL ISZERO PUSH2 0x249 JUMPI JUMP JUMPDEST PUSH1 0x40 MLOAD SWAP2 PUSH32 0x1664ACDE1B2FD0C725AC3F86EAC77E73B280DF567E623EECAE617410E03EAE69 DUP4 MSTORE PUSH32 0x2E3BE590FD52A675ABCFA2C34FB9AA61E0C3A26207EAE8FCE15FB21B970F5B3A PUSH1 0x20 DUP5 ADD MSTORE PUSH1 0x40 DUP4 ADD SWAP1 DUP2 MSTORE PUSH1 0x40 DUP4 PUSH1 0x60 DUP2 PUSH1 0x7 PUSH2 0x7CF NOT GAS ADD STATICCALL ISZERO PUSH2 0x249 JUMPI DUP2 MLOAD SWAP1 MSTORE PUSH1 0x20 DUP2 ADD MLOAD PUSH1 0x60 DUP4 ADD MSTORE PUSH1 0x40 SWAP2 PUSH1 0x80 SWAP1 PUSH1 0x6 PUSH2 0x7CF NOT GAS ADD STATICCALL ISZERO PUSH2 0x249 JUMPI JUMP JUMPDEST PUSH1 0x40 MLOAD SWAP2 PUSH32 0x3F02BBE922B9505B78A5B26521D55BDD6C29DAFE6FA7ABD89DE105F675A113B DUP4 MSTORE PUSH32 0x107FDC118E0B09A3963FA63E0B09B8A425B830822646640EF6EF332BF5E9B17 PUSH1 0x20 DUP5 ADD MSTORE PUSH1 0x40 DUP4 ADD SWAP1 DUP2 MSTORE PUSH1 0x40 DUP4 PUSH1 0x60 DUP2 PUSH1 0x7 PUSH2 0x7CF NOT GAS ADD STATICCALL ISZERO PUSH2 0x249 JUMPI DUP2 MLOAD SWAP1 MSTORE PUSH1 0x20 DUP2 ADD MLOAD PUSH1 0x60 DUP4 ADD MSTORE PUSH1 0x40 SWAP2 PUSH1 0x80 SWAP1 PUSH1 0x6 PUSH2 0x7CF NOT GAS ADD STATICCALL ISZERO PUSH2 0x249 JUMPI JUMP JUMPDEST PUSH1 0x40 MLOAD SWAP2 PUSH32 0x1A9D6DAB9651E0DBDD288BCE8AA361FF706B431AFA0048836BC9B2A64904E5B3 DUP4 MSTORE PUSH32 0xD64E3986B388DA1C136B2123B8D1C81EFE732C3033082C4A0B481D9031C114C PUSH1 0x20 DUP5 ADD MSTORE PUSH1 0x40 DUP4 ADD SWAP1 DUP2 MSTORE PUSH1 0x40 DUP4 PUSH1 0x60 DUP2 PUSH1 0x7 PUSH2 0x7CF NOT GAS ADD STATICCALL ISZERO PUSH2 0x249 JUMPI DUP2 MLOAD SWAP1 MSTORE PUSH1 0x20 DUP2 ADD MLOAD PUSH1 0x60 DUP4 ADD MSTORE PUSH1 0x40 SWAP2 PUSH1 0x80 SWAP1 PUSH1 0x6 PUSH2 0x7CF NOT GAS ADD STATICCALL ISZERO PUSH2 0x249 JUMPI JUMP JUMPDEST PUSH1 0x40 MLOAD SWAP2 PUSH32 0x192460B1236B3E98558F74973100441B8B1A7FD08434ADA6B72B9618F642ACA9 DUP4 MSTORE PUSH32 0x15BDFDC71BC3DA36F954986EAA9BC32976DDECA59C60020A54A9E35A03537CEA PUSH1 0x20 DUP5 ADD MSTORE PUSH1 0x40 DUP4 ADD SWAP1 DUP2 MSTORE PUSH1 0x40 DUP4 PUSH1 0x60 DUP2 PUSH1 0x7 PUSH2 0x7CF NOT GAS ADD STATICCALL ISZERO PUSH2 0x249 JUMPI DUP2 MLOAD SWAP1 MSTORE PUSH1 0x20 DUP2 ADD MLOAD PUSH1 0x60 DUP4 ADD MSTORE PUSH1 0x40 SWAP2 PUSH1 0x80 SWAP1 PUSH1 0x6 PUSH2 0x7CF NOT GAS ADD STATICCALL ISZERO PUSH2 0x249 JUMPI JUMP JUMPDEST PUSH1 0x40 MLOAD SWAP2 PUSH32 0x195FB5704E101B8643E088D375367908F9B9D6C5ACC4D968C4757805AB515BC6 DUP4 MSTORE PUSH32 0x291E5CBF2CDEDC329B18B02C00D03082543653CCD0C9453D90D3AAA012FD8C99 PUSH1 0x20 DUP5 ADD MSTORE PUSH1 0x40 DUP4 ADD SWAP1 DUP2 MSTORE PUSH1 0x40 DUP4 PUSH1 0x60 DUP2 PUSH1 0x7 PUSH2 0x7CF NOT GAS ADD STATICCALL ISZERO PUSH2 0x249 JUMPI DUP2 MLOAD SWAP1 MSTORE PUSH1 0x20 DUP2 ADD MLOAD PUSH1 0x60 DUP4 ADD MSTORE PUSH1 0x40 SWAP2 PUSH1 0x80 SWAP1 PUSH1 0x6 PUSH2 0x7CF NOT GAS ADD STATICCALL ISZERO PUSH2 0x249 JUMPI JUMP JUMPDEST PUSH1 0x40 MLOAD SWAP2 PUSH32 0x12D9A3AB6DAC5185B5DBD16DDA3F9564B3D0CD06A41F6CB92728F4914225DC76 DUP4 MSTORE PUSH32 0x2E47AC256B76249E8BAD840D54323F21C7AF686F6FB3F970D9BA3F1F74B632C9 PUSH1 0x20 DUP5 ADD MSTORE PUSH1 0x40 DUP4 ADD SWAP1 DUP2 MSTORE PUSH1 0x40 DUP4 PUSH1 0x60 DUP2 PUSH1 0x7 PUSH2 0x7CF NOT GAS ADD STATICCALL ISZERO PUSH2 0x249 JUMPI DUP2 MLOAD SWAP1 MSTORE PUSH1 0x20 DUP2 ADD MLOAD PUSH1 0x60 DUP4 ADD MSTORE PUSH1 0x40 SWAP2 PUSH1 0x80 SWAP1 PUSH1 0x6 PUSH2 0x7CF NOT GAS ADD STATICCALL ISZERO PUSH2 0x249 JUMPI JUMP JUMPDEST PUSH1 0x40 MLOAD SWAP2 PUSH32 0x2BAC8037A578285185DCABAF0F049AB152250CA54E4D765602547458FB82B011 DUP4 MSTORE PUSH32 0xD657B738A705C803B285A7AA64376FC732C555D94F5CFC2660A3F8BA0093462 PUSH1 0x20 DUP5 ADD MSTORE PUSH1 0x40 DUP4 ADD SWAP1 DUP2 MSTORE PUSH1 0x40 DUP4 PUSH1 0x60 DUP2 PUSH1 0x7 PUSH2 0x7CF NOT GAS ADD STATICCALL ISZERO PUSH2 0x249 JUMPI DUP2 MLOAD SWAP1 MSTORE PUSH1 0x20 DUP2 ADD MLOAD PUSH1 0x60 DUP4 ADD MSTORE PUSH1 0x40 SWAP2 PUSH1 0x80 SWAP1 PUSH1 0x6 PUSH2 0x7CF NOT GAS ADD STATICCALL ISZERO PUSH2 0x249 JUMPI JUMP JUMPDEST PUSH1 0x40 MLOAD SWAP2 PUSH32 0x17A6F3496BE388A096C9B0228F2A87FC35D3F7288AFF31A68E54EB2D828FE042 DUP4 MSTORE PUSH31 0x120A707C40D91081A1B5F67ABA3AA0BBE965794A1B72503018C18F0AF6B022 PUSH1 0x20 DUP5 ADD MSTORE PUSH1 0x40 DUP4 ADD SWAP1 DUP2 MSTORE PUSH1 0x40 DUP4 PUSH1 0x60 DUP2 PUSH1 0x7 PUSH2 0x7CF NOT GAS ADD STATICCALL ISZERO PUSH2 0x249 JUMPI DUP2 MLOAD SWAP1 MSTORE PUSH1 0x20 DUP2 ADD MLOAD PUSH1 0x60 DUP4 ADD MSTORE PUSH1 0x40 SWAP2 PUSH1 0x80 SWAP1 PUSH1 0x6 PUSH2 0x7CF NOT GAS ADD STATICCALL ISZERO PUSH2 0x249 JUMPI JUMP JUMPDEST PUSH1 0x40 MLOAD SWAP2 PUSH32 0x832EFB36A3C15A50F9CCCE322DFCF9F7EBA323C18C84AE91C930B8B0CE12625 DUP4 MSTORE PUSH32 0x19D7FA5E150EDBFFEB758B99D2B896BA0B1605F210D32A38EE829202ECD15BAC PUSH1 0x20 DUP5 ADD MSTORE PUSH1 0x40 DUP4 ADD SWAP1 DUP2 MSTORE PUSH1 0x40 DUP4 PUSH1 0x60 DUP2 PUSH1 0x7 PUSH2 0x7CF NOT GAS ADD STATICCALL ISZERO PUSH2 0x249 JUMPI DUP2 MLOAD SWAP1 MSTORE PUSH1 0x20 DUP2 ADD MLOAD PUSH1 0x60 DUP4 ADD MSTORE PUSH1 0x40 SWAP2 PUSH1 0x80 SWAP1 PUSH1 0x6 PUSH2 0x7CF NOT GAS ADD STATICCALL ISZERO PUSH2 0x249 JUMPI JUMP JUMPDEST PUSH1 0x40 MLOAD SWAP2 PUSH32 0x1EE7F7AF38C7B7B472AD9314F0DD9247158A1F92B91D346734E1EC53B01A5981 DUP4 MSTORE PUSH32 0x190F9BD0579D151E145CD91AE9C79214245C10B72D0DD54531BB1753EFBB5FA5 PUSH1 0x20 DUP5 ADD MSTORE PUSH1 0x40 DUP4 ADD SWAP1 DUP2 MSTORE PUSH1 0x40 DUP4 PUSH1 0x60 DUP2 PUSH1 0x7 PUSH2 0x7CF NOT GAS ADD STATICCALL ISZERO PUSH2 0x249 JUMPI DUP2 MLOAD SWAP1 MSTORE PUSH1 0x20 DUP2 ADD MLOAD PUSH1 0x60 DUP4 ADD MSTORE PUSH1 0x40 SWAP2 PUSH1 0x80 SWAP1 PUSH1 0x6 PUSH2 0x7CF NOT GAS ADD STATICCALL ISZERO PUSH2 0x249 JUMPI JUMP JUMPDEST PUSH1 0x40 MLOAD SWAP2 PUSH32 0x1C6FC1A5EACAA6E867D5216DAB749ADB8CC0F78054B9CF600DDBAA0309998978 DUP4 MSTORE PUSH32 0x2117224C3113D7A828234D0F15DE062506B43FD53AAA03B2F376AC2620F25144 PUSH1 0x20 DUP5 ADD MSTORE PUSH1 0x40 DUP4 ADD SWAP1 DUP2 MSTORE PUSH1 0x40 DUP4 PUSH1 0x60 DUP2 PUSH1 0x7 PUSH2 0x7CF NOT GAS ADD STATICCALL ISZERO PUSH2 0x249 JUMPI DUP2 MLOAD SWAP1 MSTORE PUSH1 0x20 DUP2 ADD MLOAD PUSH1 0x60 DUP4 ADD MSTORE PUSH1 0x40 SWAP2 PUSH1 0x80 SWAP1 PUSH1 0x6 PUSH2 0x7CF NOT GAS ADD STATICCALL ISZERO PUSH2 0x249 JUMPI JUMP JUMPDEST PUSH1 0x40 MLOAD SWAP2 PUSH32 0x2FD5FA0A8C2DC62363F9FA2E40AB52A5985667DE5DA6FCFD569DFD302C8280BD DUP4 MSTORE PUSH32 0xB75D3FEA3F8BA549A71CD50DBC1EFD18E8A96BA487903BCD15F5E6ECE6B1B94 PUSH1 0x20 DUP5 ADD MSTORE PUSH1 0x40 DUP4 ADD SWAP1 DUP2 MSTORE PUSH1 0x40 DUP4 PUSH1 0x60 DUP2 PUSH1 0x7 PUSH2 0x7CF NOT GAS ADD STATICCALL ISZERO PUSH2 0x249 JUMPI DUP2 MLOAD SWAP1 MSTORE PUSH1 0x20 DUP2 ADD MLOAD PUSH1 0x60 DUP4 ADD MSTORE PUSH1 0x40 SWAP2 PUSH1 0x80 SWAP1 PUSH1 0x6 PUSH2 0x7CF NOT GAS ADD STATICCALL ISZERO PUSH2 0x249 JUMPI JUMP JUMPDEST PUSH1 0x40 MLOAD SWAP2 PUSH32 0x21E35143B634EAEEB04590B3544F6C7E3FB5191ADEBB276850CC46B923EC5E76 DUP4 MSTORE PUSH32 0x2C85A116A08E116CE34F62B7F0ECFE9AB6B864E325EDA1A5A4AA1764EBC800D PUSH1 0x20 DUP5 ADD MSTORE PUSH1 0x40 DUP4 ADD SWAP1 DUP2 MSTORE PUSH1 0x40 DUP4 PUSH1 0x60 DUP2 PUSH1 0x7 PUSH2 0x7CF NOT GAS ADD STATICCALL ISZERO PUSH2 0x249 JUMPI DUP2 MLOAD SWAP1 MSTORE PUSH1 0x20 DUP2 ADD MLOAD PUSH1 0x60 DUP4 ADD MSTORE PUSH1 0x40 SWAP2 PUSH1 0x80 SWAP1 PUSH1 0x6 PUSH2 0x7CF NOT GAS ADD STATICCALL ISZERO PUSH2 0x249 JUMPI JUMP JUMPDEST PUSH1 0x40 MLOAD SWAP2 PUSH32 0x8EE907423DD1B05AF1DE2744D7C41EBE06CFDBD2A107346311F715FA21B31F6 DUP4 MSTORE PUSH32 0x2897CA8B3345DFCEF9AAF25229EDE9B8D2ED84D2A9969B200CF8C92AE5C63D2C PUSH1 0x20 DUP5 ADD MSTORE PUSH1 0x40 DUP4 ADD SWAP1 DUP2 MSTORE PUSH1 0x40 DUP4 PUSH1 0x60 DUP2 PUSH1 0x7 PUSH2 0x7CF NOT GAS ADD STATICCALL ISZERO PUSH2 0x249 JUMPI DUP2 MLOAD SWAP1 MSTORE PUSH1 0x20 DUP2 ADD MLOAD PUSH1 0x60 DUP4 ADD MSTORE PUSH1 0x40 SWAP2 PUSH1 0x80 SWAP1 PUSH1 0x6 PUSH2 0x7CF NOT GAS ADD STATICCALL ISZERO PUSH2 0x249 JUMPI JUMP JUMPDEST PUSH1 0x40 MLOAD SWAP2 PUSH32 0x275FCCEA5E06B9BB45504369702BEF0FA1DA46D8B2AC2FAF305B164A108170A9 DUP4 MSTORE PUSH32 0x2FFF9A74C763884A42FD02DE0EC4C54AB62F01C55455D0C89F56D8E7DDF1D7E0 PUSH1 0x20 DUP5 ADD MSTORE PUSH1 0x40 DUP4 ADD SWAP1 DUP2 MSTORE PUSH1 0x40 DUP4 PUSH1 0x60 DUP2 PUSH1 0x7 PUSH2 0x7CF NOT GAS ADD STATICCALL ISZERO PUSH2 0x249 JUMPI DUP2 MLOAD SWAP1 MSTORE PUSH1 0x20 DUP2 ADD MLOAD PUSH1 0x60 DUP4 ADD MSTORE PUSH1 0x40 SWAP2 PUSH1 0x80 SWAP1 PUSH1 0x6 PUSH2 0x7CF NOT GAS ADD STATICCALL ISZERO PUSH2 0x249 JUMPI JUMP JUMPDEST PUSH1 0x40 MLOAD SWAP2 PUSH32 0x1183856C0042BE63C09286AD17B669459DC6F6165E69AD7318785CA9CF5A209 DUP4 MSTORE PUSH31 0xE4FA10CD5A6BD2BFB9B4DCE83550BA953D9629C57731D071FA850CF2FE6084 PUSH1 0x20 DUP5 ADD MSTORE PUSH1 0x40 DUP4 ADD SWAP1 DUP2 MSTORE PUSH1 0x40 DUP4 PUSH1 0x60 DUP2 PUSH1 0x7 PUSH2 0x7CF NOT GAS ADD STATICCALL ISZERO PUSH2 0x249 JUMPI DUP2 MLOAD SWAP1 MSTORE PUSH1 0x20 DUP2 ADD MLOAD PUSH1 0x60 DUP4 ADD MSTORE PUSH1 0x40 SWAP2 PUSH1 0x80 SWAP1 PUSH1 0x6 PUSH2 0x7CF NOT GAS ADD STATICCALL ISZERO PUSH2 0x249 JUMPI JUMP JUMPDEST PUSH1 0x40 MLOAD SWAP2 PUSH32 0x170FBFF46AC7A1A3D3F82CFA7083916DED52D5BB70C749EBB6F6886FD86939EC DUP4 MSTORE PUSH32 0x1FEE85E90C59F80D4032A2F3ACB7DE044E215B734341F5923D0492541B6DAEE2 PUSH1 0x20 DUP5 ADD MSTORE PUSH1 0x40 DUP4 ADD SWAP1 DUP2 MSTORE PUSH1 0x40 DUP4 PUSH1 0x60 DUP2 PUSH1 0x7 PUSH2 0x7CF NOT GAS ADD STATICCALL ISZERO PUSH2 0x249 JUMPI DUP2 MLOAD SWAP1 MSTORE PUSH1 0x20 DUP2 ADD MLOAD PUSH1 0x60 DUP4 ADD MSTORE PUSH1 0x40 SWAP2 PUSH1 0x80 SWAP1 PUSH1 0x6 PUSH2 0x7CF NOT GAS ADD STATICCALL ISZERO PUSH2 0x249 JUMPI JUMP JUMPDEST PUSH1 0x40 MLOAD SWAP2 PUSH32 0x12399B0DBA968106350C0867C6C9D5E7464B5D224EB67CB568B955BD19E7D8BB DUP4 MSTORE PUSH32 0x77F1FFA3D06D843563CAF4AC3B0D119E0CE5F0536B0DF628491E4C32C65238F PUSH1 0x20 DUP5 ADD MSTORE PUSH1 0x40 DUP4 ADD SWAP1 DUP2 MSTORE PUSH1 0x40 DUP4 PUSH1 0x60 DUP2 PUSH1 0x7 PUSH2 0x7CF NOT GAS ADD STATICCALL ISZERO PUSH2 0x249 JUMPI DUP2 MLOAD SWAP1 MSTORE PUSH1 0x20 DUP2 ADD MLOAD PUSH1 0x60 DUP4 ADD MSTORE PUSH1 0x40 SWAP2 PUSH1 0x80 SWAP1 PUSH1 0x6 PUSH2 0x7CF NOT GAS ADD STATICCALL ISZERO PUSH2 0x249 JUMPI JUMP JUMPDEST PUSH1 0x40 MLOAD SWAP2 PUSH32 0x807893CDF19E1BC87FBA6B53B470DDF82E1DE175EEFEA8C8342436E012808DE DUP4 MSTORE PUSH32 0x228E7FCE061679452BF7190E7A63DA7F97E6AB305D9B4463EF46ADFFAB566907 PUSH1 0x20 DUP5 ADD MSTORE PUSH1 0x40 DUP4 ADD SWAP1 DUP2 MSTORE PUSH1 0x40 DUP4 PUSH1 0x60 DUP2 PUSH1 0x7 PUSH2 0x7CF NOT GAS ADD STATICCALL ISZERO PUSH2 0x249 JUMPI DUP2 MLOAD SWAP1 MSTORE PUSH1 0x20 DUP2 ADD MLOAD PUSH1 0x60 DUP4 ADD MSTORE PUSH1 0x40 SWAP2 PUSH1 0x80 SWAP1 PUSH1 0x6 PUSH2 0x7CF NOT GAS ADD STATICCALL ISZERO PUSH2 0x249 JUMPI JUMP JUMPDEST PUSH1 0x40 MLOAD SWAP2 PUSH32 0x1561E5341CBE50804A311117F05F36DDAEB627B0F52C40F5C3B477D421C3CE3C DUP4 MSTORE PUSH32 0x25C6BEBE9999B95520695057D39BFCEA606A4A6CAFBCF106E31D4145258F113E PUSH1 0x20 DUP5 ADD MSTORE PUSH1 0x40 DUP4 ADD SWAP1 DUP2 MSTORE PUSH1 0x40 DUP4 PUSH1 0x60 DUP2 PUSH1 0x7 PUSH2 0x7CF NOT GAS ADD STATICCALL ISZERO PUSH2 0x249 JUMPI DUP2 MLOAD SWAP1 MSTORE PUSH1 0x20 DUP2 ADD MLOAD PUSH1 0x60 DUP4 ADD MSTORE PUSH1 0x40 SWAP2 PUSH1 0x80 SWAP1 PUSH1 0x6 PUSH2 0x7CF NOT GAS ADD STATICCALL ISZERO PUSH2 0x249 JUMPI JUMP JUMPDEST PUSH1 0x40 MLOAD SWAP2 PUSH32 0x9626081958509887B1213BD967CE952B0967C50360FB20D4CF33B0646C13824 DUP4 MSTORE PUSH32 0x87D7715FCBF879832355BA9CDC028636692E47B02AA11CC42AA81120F18DEFB PUSH1 0x20 DUP5 ADD MSTORE PUSH1 0x40 DUP4 ADD SWAP1 DUP2 MSTORE PUSH1 0x40 DUP4 PUSH1 0x60 DUP2 PUSH1 0x7 PUSH2 0x7CF NOT GAS ADD STATICCALL ISZERO PUSH2 0x249 JUMPI DUP2 MLOAD SWAP1 MSTORE PUSH1 0x20 DUP2 ADD MLOAD PUSH1 0x60 DUP4 ADD MSTORE PUSH1 0x40 SWAP2 PUSH1 0x80 SWAP1 PUSH1 0x6 PUSH2 0x7CF NOT GAS ADD STATICCALL ISZERO PUSH2 0x249 JUMPI JUMP JUMPDEST PUSH1 0x40 MLOAD SWAP2 PUSH32 0x175567C4CE5F760CCB8BAA738AD4133EE15D7497AE8033540FFD9DBCD79CA2BB DUP4 MSTORE PUSH32 0x1AE4606DC262D5D41EBA8378F439F0FD96B08960B1396BC458D9BF5DC8D61595 PUSH1 0x20 DUP5 ADD MSTORE PUSH1 0x40 DUP4 ADD SWAP1 DUP2 MSTORE PUSH1 0x40 DUP4 PUSH1 0x60 DUP2 PUSH1 0x7 PUSH2 0x7CF NOT GAS ADD STATICCALL ISZERO PUSH2 0x249 JUMPI DUP2 MLOAD SWAP1 MSTORE PUSH1 0x20 DUP2 ADD MLOAD PUSH1 0x60 DUP4 ADD MSTORE PUSH1 0x40 SWAP2 PUSH1 0x80 SWAP1 PUSH1 0x6 PUSH2 0x7CF NOT GAS ADD STATICCALL ISZERO PUSH2 0x249 JUMPI JUMP JUMPDEST PUSH1 0x40 MLOAD SWAP2 PUSH32 0x9C864420F926ADBACA504A1A3DCC73AA5713B310D24D6A6AC8A7019D1E978B2 DUP4 MSTORE PUSH32 0x2195801C099052AF9AF43FB0C69BC58BD4792A55481B90C22458D14F670C106 PUSH1 0x20 DUP5 ADD MSTORE PUSH1 0x40 DUP4 ADD SWAP1 DUP2 MSTORE PUSH1 0x40 DUP4 PUSH1 0x60 DUP2 PUSH1 0x7 PUSH2 0x7CF NOT GAS ADD STATICCALL ISZERO PUSH2 0x249 JUMPI DUP2 MLOAD SWAP1 MSTORE PUSH1 0x20 DUP2 ADD MLOAD PUSH1 0x60 DUP4 ADD MSTORE PUSH1 0x40 SWAP2 PUSH1 0x80 SWAP1 PUSH1 0x6 PUSH2 0x7CF NOT GAS ADD STATICCALL ISZERO PUSH2 0x249 JUMPI JUMP JUMPDEST PUSH1 0x40 MLOAD SWAP2 PUSH32 0x10985C57F165EDDC203061D3DE3362043C2A3944C05B0915ABE2B492DED85211 DUP4 MSTORE PUSH32 0x4B206A2C40B845E05E621FFBC35A5E5E0653D141AEACC26B88B699E957B4F3B PUSH1 0x20 DUP5 ADD MSTORE PUSH1 0x40 DUP4 ADD SWAP1 DUP2 MSTORE PUSH1 0x40 DUP4 PUSH1 0x60 DUP2 PUSH1 0x7 PUSH2 0x7CF NOT GAS ADD STATICCALL ISZERO PUSH2 0x249 JUMPI DUP2 MLOAD SWAP1 MSTORE PUSH1 0x20 DUP2 ADD MLOAD PUSH1 0x60 DUP4 ADD MSTORE PUSH1 0x40 SWAP2 PUSH1 0x80 SWAP1 PUSH1 0x6 PUSH2 0x7CF NOT GAS ADD STATICCALL ISZERO PUSH2 0x249 JUMPI JUMP JUMPDEST PUSH1 0x40 MLOAD SWAP2 PUSH32 0x3488CE5913D7C8D7B392615BD25AFD79C2E191D18C14402FD1C57C81B385B18 DUP4 MSTORE PUSH32 0x305518E8D3D1FADAE66F3EA6D1B1FA71EF20756CBCA3733AFFEDD506BDA7FB96 PUSH1 0x20 DUP5 ADD MSTORE PUSH1 0x40 DUP4 ADD SWAP1 DUP2 MSTORE PUSH1 0x40 DUP4 PUSH1 0x60 DUP2 PUSH1 0x7 PUSH2 0x7CF NOT GAS ADD STATICCALL ISZERO PUSH2 0x249 JUMPI DUP2 MLOAD SWAP1 MSTORE PUSH1 0x20 DUP2 ADD MLOAD PUSH1 0x60 DUP4 ADD MSTORE PUSH1 0x40 SWAP2 PUSH1 0x80 SWAP1 PUSH1 0x6 PUSH2 0x7CF NOT GAS ADD STATICCALL ISZERO PUSH2 0x249 JUMPI JUMP JUMPDEST PUSH1 0x40 MLOAD SWAP2 PUSH32 0x1A469DB270F51FF10C5F52CBE628F33A4FE40C3E70D3341AD0177761248063C9 DUP4 MSTORE PUSH32 0x19DAEF237B924C6BD440AB359012125E0DE6EA2E5FAC1422F11CAD9950C896F4 PUSH1 0x20 DUP5 ADD MSTORE PUSH1 0x40 DUP4 ADD SWAP1 DUP2 MSTORE PUSH1 0x40 DUP4 PUSH1 0x60 DUP2 PUSH1 0x7 PUSH2 0x7CF NOT GAS ADD STATICCALL ISZERO PUSH2 0x249 JUMPI DUP2 MLOAD SWAP1 MSTORE PUSH1 0x20 DUP2 ADD MLOAD PUSH1 0x60 DUP4 ADD MSTORE PUSH1 0x40 SWAP2 PUSH1 0x80 SWAP1 PUSH1 0x6 PUSH2 0x7CF NOT GAS ADD STATICCALL ISZERO PUSH2 0x249 JUMPI JUMP JUMPDEST PUSH1 0x40 MLOAD SWAP2 PUSH32 0x25D9E17414D1D5A003284D4D2D35F247610034A5E76A3CA8093D3DFDA2F562D1 DUP4 MSTORE PUSH32 0x568963D9EA35B840605278A572282208E183DAA5051F3CD715365CB0249A960 PUSH1 0x20 DUP5 ADD MSTORE PUSH1 0x40 DUP4 ADD SWAP1 DUP2 MSTORE PUSH1 0x40 DUP4 PUSH1 0x60 DUP2 PUSH1 0x7 PUSH2 0x7CF NOT GAS ADD STATICCALL ISZERO PUSH2 0x249 JUMPI DUP2 MLOAD SWAP1 MSTORE PUSH1 0x20 DUP2 ADD MLOAD PUSH1 0x60 DUP4 ADD MSTORE PUSH1 0x40 SWAP2 PUSH1 0x80 SWAP1 PUSH1 0x6 PUSH2 0x7CF NOT GAS ADD STATICCALL ISZERO PUSH2 0x249 JUMPI JUMP JUMPDEST SWAP1 PUSH32 0x30644E72E131A029B85045B68181585D97816A916871CA8D3C208C16D87CFD47 PUSH1 0x20 DUP1 SWAP4 PUSH32 0x187175BAE0695DB90510A0E1380A3F99247A5D75AC5E813479BE611CFDF6318C PUSH1 0x80 MSTORE PUSH32 0x21782EFA62094354422B0DA7A898C763CB8C986284EBC9E0EFC4F1FBADACCEC2 PUSH1 0xA0 MSTORE PUSH2 0x144D PUSH2 0x104 CALLDATALOAD PUSH1 0x80 PUSH2 0x253 JUMP JUMPDEST PUSH2 0x145B PUSH2 0x124 CALLDATALOAD PUSH1 0x80 PUSH2 0x2DF JUMP JUMPDEST PUSH2 0x1469 PUSH2 0x144 CALLDATALOAD PUSH1 0x80 PUSH2 0x36B JUMP JUMPDEST PUSH2 0x1477 PUSH2 0x164 CALLDATALOAD PUSH1 0x80 PUSH2 0x3F7 JUMP JUMPDEST PUSH2 0x1485 PUSH2 0x184 CALLDATALOAD PUSH1 0x80 PUSH2 0x483 JUMP JUMPDEST PUSH2 0x1493 PUSH2 0x1A4 CALLDATALOAD PUSH1 0x80 PUSH2 0x50F JUMP JUMPDEST PUSH2 0x14A1 PUSH2 0x1C4 CALLDATALOAD PUSH1 0x80 PUSH2 0x59B JUMP JUMPDEST PUSH2 0x14AF PUSH2 0x1E4 CALLDATALOAD PUSH1 0x80 PUSH2 0x627 JUMP JUMPDEST PUSH2 0x14BD PUSH2 0x204 CALLDATALOAD PUSH1 0x80 PUSH2 0x6B3 JUMP JUMPDEST PUSH2 0x14CB PUSH2 0x224 CALLDATALOAD PUSH1 0x80 PUSH2 0x73F JUMP JUMPDEST PUSH2 0x14D9 PUSH2 0x244 CALLDATALOAD PUSH1 0x80 PUSH2 0x7CB JUMP JUMPDEST PUSH2 0x14E7 PUSH2 0x264 CALLDATALOAD PUSH1 0x80 PUSH2 0x857 JUMP JUMPDEST PUSH2 0x14F5 PUSH2 0x284 CALLDATALOAD PUSH1 0x80 PUSH2 0x8E3 JUMP JUMPDEST PUSH2 0x1503 PUSH2 0x2A4 CALLDATALOAD PUSH1 0x80 PUSH2 0x96E JUMP JUMPDEST PUSH2 0x1511 PUSH2 0x2C4 CALLDATALOAD PUSH1 0x80 PUSH2 0x9FA JUMP JUMPDEST PUSH2 0x151F PUSH2 0x2E4 CALLDATALOAD PUSH1 0x80 PUSH2 0xA86 JUMP JUMPDEST PUSH2 0x152D PUSH2 0x304 CALLDATALOAD PUSH1 0x80 PUSH2 0xB12 JUMP JUMPDEST PUSH2 0x153B PUSH2 0x324 CALLDATALOAD PUSH1 0x80 PUSH2 0xB9E JUMP JUMPDEST PUSH2 0x1549 PUSH2 0x344 CALLDATALOAD PUSH1 0x80 PUSH2 0xC2A JUMP JUMPDEST PUSH2 0x1557 PUSH2 0x364 CALLDATALOAD PUSH1 0x80 PUSH2 0xCB6 JUMP JUMPDEST PUSH2 0x1565 PUSH2 0x384 CALLDATALOAD PUSH1 0x80 PUSH2 0xD42 JUMP JUMPDEST PUSH2 0x1573 PUSH2 0x3A4 CALLDATALOAD PUSH1 0x80 PUSH2 0xDCD JUMP JUMPDEST PUSH2 0x1581 PUSH2 0x3C4 CALLDATALOAD PUSH1 0x80 PUSH2 0xE59 JUMP JUMPDEST PUSH2 0x158F PUSH2 0x3E4 CALLDATALOAD PUSH1 0x80 PUSH2 0xEE5 JUMP JUMPDEST PUSH2 0x159D PUSH2 0x404 CALLDATALOAD PUSH1 0x80 PUSH2 0xF71 JUMP JUMPDEST PUSH2 0x15AB PUSH2 0x424 CALLDATALOAD PUSH1 0x80 PUSH2 0xFFD JUMP JUMPDEST PUSH2 0x15B9 PUSH2 0x444 CALLDATALOAD PUSH1 0x80 PUSH2 0x1089 JUMP JUMPDEST PUSH2 0x15C7 PUSH2 0x464 CALLDATALOAD PUSH1 0x80 PUSH2 0x1115 JUMP JUMPDEST PUSH2 0x15D5 PUSH2 0x484 CALLDATALOAD PUSH1 0x80 PUSH2 0x11A1 JUMP JUMPDEST PUSH2 0x15E3 PUSH2 0x4A4 CALLDATALOAD PUSH1 0x80 PUSH2 0x122D JUMP JUMPDEST PUSH2 0x15F1 PUSH2 0x4C4 CALLDATALOAD PUSH1 0x80 PUSH2 0x12B9 JUMP JUMPDEST PUSH2 0x15FF PUSH2 0x4E4 CALLDATALOAD PUSH1 0x80 PUSH2 0x1345 JUMP JUMPDEST DUP1 CALLDATALOAD PUSH2 0x100 MSTORE ADD CALLDATALOAD DUP2 SUB MOD PUSH2 0x120 MSTORE PUSH1 0x44 CALLDATALOAD PUSH2 0x140 MSTORE PUSH1 0x64 CALLDATALOAD PUSH2 0x160 MSTORE PUSH1 0x84 CALLDATALOAD PUSH2 0x180 MSTORE PUSH1 0xA4 CALLDATALOAD PUSH2 0x1A0 MSTORE PUSH32 0x113CBE3C9A2B8D090248AC547A0E5986316225425388F7D68723DFC7E60AB3AB PUSH2 0x1C0 MSTORE PUSH32 0xCAB7151731CBDA4EB6295AED348E9579D12426B5C863429364E115AAADFCB54 PUSH2 0x1E0 MSTORE PUSH32 0xF25A76CB8473CBE7D09A2A3B4E6E22907A9DC569C1A59A1F4FA74BE6B67F078 PUSH2 0x200 MSTORE PUSH32 0x2710059FFD75A0DBE2C38AB00EF07F91F8A0E87FA223E4758311C9280725DE0A PUSH2 0x220 MSTORE PUSH32 0x22C4AA7E8478C9D0092183BB0E25EA10AE4994AA581B78E60F20AE64CE246CD4 PUSH2 0x240 MSTORE PUSH32 0x100D9E3F35195F0A3D2AEAB8C7E9FDD1DB43F11565B6CC1E6539F4C565B5AB40 PUSH2 0x260 MSTORE PUSH1 0x80 MLOAD PUSH2 0x280 MSTORE PUSH1 0xA0 MLOAD PUSH2 0x2A0 MSTORE PUSH32 0x219E45B84338572E39460806F14E1248F07C97A94B26223B650D6049D325E1E7 PUSH2 0x2C0 MSTORE PUSH32 0x2A39816D6D57A84E42B15222E11579453544DB90AB34ACACEF95FB5915C22A96 PUSH2 0x2E0 MSTORE PUSH32 0xBBBB0319D6E71D44770BA707F4F7A3933D78C415743AE34F34D1C8488215201 PUSH2 0x300 MSTORE PUSH32 0x2FA77B2C66AC8A469F6F22E903CEB501072E5E00B6210D27D6D91D4839D23558 PUSH2 0x320 MSTORE DUP1 CALLDATALOAD PUSH2 0x340 MSTORE ADD CALLDATALOAD PUSH2 0x360 MSTORE PUSH32 0x1EB00B51FBC96EF7B6B3DDB183961E9A05E75E8D9DAE360055F276B1D161895B PUSH2 0x380 MSTORE PUSH32 0xF82E4FD0F892CA3B9C6B6E6975670F2560CC516388A9F4B70015479795E5305 PUSH2 0x3A0 MSTORE PUSH32 0x1402FD8730002BB3E5765DB61883FCE1C0C72B28A28F3303D6772835740CDFBC PUSH2 0x3C0 MSTORE PUSH32 0x1EED01E299E1822C9F5E717B49D1907628B2E3F8B8C34408EAA70A43A930C27C PUSH2 0x3E0 MSTORE PUSH1 0x20 PUSH2 0x100 PUSH2 0x300 DUP2 PUSH1 0x8 PUSH2 0x7CF NOT GAS ADD STATICCALL PUSH2 0x100 MLOAD AND SWAP1 JUMP INVALID LOG2 PUSH5 0x6970667358 0x22 SLT KECCAK256 0xC4 SIGNEXTEND PUSH32 0xB714BACAB7A6AE2F338587A8D50BE924EEF5ADF3A8BF3FE1954276B12E64736F PUSH13 0x634300081C0033000000000000 "},"methodIdentifiers":{"verifyProof(uint256[2],uint256[2][2],uint256[2],uint256[32])":"3cc08b24"}}}}}