{"contracts/NovaVerifier.sol":{"NovaDecider":{"abi":[{"inputs":[],"name":"BN254_PRIME_FIELD","outputs":[{"internalType":"uint256","name":"","type":"uint256"}],"stateMutability":"view","type":"function"},{"inputs":[],"name":"BN254_SCALAR_FIELD","outputs":[{"internalType":"uint256","name":"","type":"uint256"}],"stateMutability":"view","type":"function"},{"inputs":[{"internalType":"uint256[2]","name":"c","type":"uint256[2]"},{"internalType":"uint256[2]","name":"pi","type":"uint256[2]"},{"internalType":"uint256","name":"x","type":"uint256"},{"internalType":"uint256","name":"y","type":"uint256"}],"name":"check","outputs":[{"internalType":"bool","name":"result","type":"bool"}],"stateMutability":"view","type":"function"},{"inputs":[{"internalType":"uint256[]","name":"_coefficients","type":"uint256[]"},{"internalType":"uint256","name":"_index","type":"uint256"}],"name":"evalPolyAt","outputs":[{"internalType":"uint256","name":"","type":"uint256"}],"stateMutability":"pure","type":"function"},{"inputs":[{"internalType":"uint256[3]","name":"i_z0_zi","type":"uint256[3]"},{"internalType":"uint256[4]","name":"U_i_cmW_U_i_cmE","type":"uint256[4]"},{"internalType":"uint256[2]","name":"u_i_cmW","type":"uint256[2]"},{"internalType":"uint256[3]","name":"cmT_r","type":"uint256[3]"},{"internalType":"uint256[2]","name":"pA","type":"uint256[2]"},{"internalType":"uint256[2][2]","name":"pB","type":"uint256[2][2]"},{"internalType":"uint256[2]","name":"pC","type":"uint256[2]"},{"internalType":"uint256[4]","name":"challenge_W_challenge_E_kzg_evals","type":"uint256[4]"},{"internalType":"uint256[2][2]","name":"kzg_proof","type":"uint256[2][2]"}],"name":"verifyNovaProof","outputs":[{"internalType":"bool","name":"","type":"bool"}],"stateMutability":"view","type":"function"},{"inputs":[{"internalType":"uint256[2]","name":"_pA","type":"uint256[2]"},{"internalType":"uint256[2][2]","name":"_pB","type":"uint256[2][2]"},{"internalType":"uint256[2]","name":"_pC","type":"uint256[2]"},{"internalType":"uint256[32]","name":"_pubSignals","type":"uint256[32]"}],"name":"verifyProof","outputs":[{"internalType":"bool","name":"","type":"bool"}],"stateMutability":"view","type":"function"}],"evm":{"bytecode":{"linkReferences":{},"object":"60806040523461027057610011610275565b7f171149d656ab2678f03a81fb4a13b38cb13c584222498b9f0824377ff4ef1c6c81527f1078a9c7358344c97989a825cd493c02502c5979785ab4102b85cab8785e1652602082015260005b6002811061025e5761006d610275565b610075610275565b7f2e85a64b176a89f651b755522402780ac5224a690c62c2a3580e2b77391eb85f81527f25a630e1b1bb847ca0e32e8d5a2c62d424e4b0d67d8295d094589efba2611485602082015281526100c8610275565b7f105e2254f385a54471f0f072b96fc88fc2a55e98e8fccbdcd5da2729f42941c781527f1478cea7a3717eed37243042378ca4d61c6d69d433ecbf2967d813cb1adc02ae6020820152602082015260026000915b600283106102285761012c610275565b610134610275565b7f213df544b48e424ce1eca450ed03a5496169eddd748b653832354ca0bcf23f6281527f2959a960103c0295e1a16715e806239ff6c59e4c0743824c117de81ae7f85c9660208201528152610187610275565b7f2dc616d796b0ecac95c855ccb68ea147ba7ae912cc510afd22db4596056d688681527f1afc010c12a7d030252d49bbe091ac357b40f62e2c1ac4c1f346b20ce3c2c5c66020820152602082015260066000915b600283106101f25760405161284590816102ab8239f35b805160005b6002811061021457505060026020600192019201920191906101db565b8151848201556020909101906001016101f7565b805160005b6002811061024a575050600260206001920192019201919061011c565b81518482015560209091019060010161022d565b6001906020835193019281550161005d565b600080fd5b60408051919082016001600160401b0381118382101761029457604052565b634e487b7160e01b600052604160045260246000fdfe6080604052600436101561001257600080fd5b60003560e01c80633cc08b241461007757806346bed3d1146100725780639e78ccf71461006d578063c1eb466c14610068578063e16c8a91146100635763fc3d76fa1461005e57600080fd5b6105de565b610599565b6104f2565b61032d565b6102f2565b34610252576105003660031901126102525761009236610257565b61009b366102ab565b6100a436610264565b90366105041161025257610249926104006040526100c461010435610aa3565b6100d061012435610aa3565b6100dc61014435610aa3565b6100e861016435610aa3565b6100f461018435610aa3565b6101006101a435610aa3565b61010c6101c435610aa3565b6101186101e435610aa3565b61012461020435610aa3565b61013061022435610aa3565b61013c61024435610aa3565b61014861026435610aa3565b61015461028435610aa3565b6101606102a435610aa3565b61016c6102c435610aa3565b6101786102e435610aa3565b61018461030435610aa3565b61019061032435610aa3565b61019c61034435610aa3565b6101a861036435610aa3565b6101b461038435610aa3565b6101c06103a435610aa3565b6101cc6103c435610aa3565b6101d86103e435610aa3565b6101e461040435610aa3565b6101f061042435610aa3565b6101fc61044435610aa3565b61020861046435610aa3565b61021461048435610aa3565b6102206104a435610aa3565b61022c6104c435610aa3565b6102386104e435610aa3565b61024461050435610aa3565b611c54565b60005260206000f35b600080fd5b9060049160441161025257565b9060c4916101041161025257565b9060449160841161025257565b9060e4916101241161025257565b90610184916101c41161025257565b90610244916102841161025257565b9060449160c41161025257565b9060649160e41161025257565b906101c4916102441161025257565b90610284916103041161025257565b90610304916103841161025257565b346102525760003660031901126102525760206040517f30644e72e131a029b85045b68181585d2833e84879b9709143e1f593f00000018152f35b346102525760c03660031901126102525761034736610257565b60206103a061039861035836610272565b9361039260a4358161038961037761038160843561037c83368e6120d9565b6125c7565b61264b565b9536906120d9565b9161037c612113565b90612698565b9236906120d9565b6104346103ab61217d565b936104136103b76121bb565b916103f4610180976103d66103cb8a6104e2565b978051895260200190565b51878901528051602001516040880152805151606088015260200190565b8051602001516080870152515160a0860152805160c086015260200190565b5160e084015280516020015161010084015280515161012084015260200190565b80516020015161014083015251516101608201526104506122f2565b92839160086107cf195a01fa80156104875761048391610471600192612735565b51604051911481529081906020820190565b0390f35bfe5b634e487b7160e01b600052604160045260246000fd5b6040810190811067ffffffffffffffff8211176104bb57604052565b610489565b90601f8019910116810190811067ffffffffffffffff8211176104bb57604052565b906104f060405192836104c0565b565b346102525760403660031901126102525760043567ffffffffffffffff811161025257366023820112156102525780600401359067ffffffffffffffff82116104bb578160051b6040519261054a60208301856104c0565b8352602460208401918301019136831161025257602401905b828210610589576104836105796024358661220f565b6040519081529081906020820190565b8135815260209182019101610563565b346102525760003660031901126102525760206040516000805160206127f08339815191528152f35b9060049160641161025257565b90610124916101841161025257565b3461025257610380366003190112610252576105f9366105c2565b610602366102b8565b9061060c3661027f565b610615366105cf565b9261061f3661028d565b93610629366102c5565b916106333661029c565b9261063d366102d4565b90610647366102e3565b9387359761065860028a1015612280565b610660612307565b7f03e7c5722d93171f795ffbc5b16f516c129b53d4b2881240dbfb5465143aced181529860208a015260005b60028110610a665750506040986106b06106a58b6104e2565b9880358a5260200190565b3560208901526106e56106c86040840135809a61264b565b6106d18c6104e2565b87358152602088015b356020820152612698565b926106f08451612779565b976106ff602086015b51612779565b9960005b60ff81166004811015610789579d60ff60049f819f9e9d9c9b9a999897969594938f8f8f846107719261073b60019761075d94612370565b5161075761075161074b89612381565b60ff1690565b87612328565b52612370565b519161076b61074b85612392565b90612328565b5201169192939495969798999a9b9c9d509d50610703565b50508b979899508c8735809a8c6107a08b60400190565b35998a85519e8f93639e78ccf760e01b855260048501936107c0946123ff565b038c3091815a93602094fa908115610a23576107ed6108319260ff9e600091610a47575b509e9d9e61244f565b6108166107f9856104e2565b956108098b359b8c895260200190565b359687602082015261264b565b906106da610823866104e2565b916040810135835260600190565b9661083c8851612779565b97610849602082016106f9565b9960009e8f5b169e8f600411156108a05760ff9e9f8f918f6108958f8f946108879161087782600198612370565b5161075761075161074b896123a3565b519161076b61074b856123b4565b5201169e9d8f61084f565b508c97989950906108c99392918c8f6108bb60209160400190565b602083013597889360600190565b35946108e9868b519a8b948594639e78ccf760e01b8652600486016123ff565b0381305afa948515610a235761090e61093d9661094398600091610a28575b506124af565b6102808b01526102a08a01526102c08901526102e088015261092e612318565b50610937612318565b50612779565b92612779565b9260005b60ff811660048110156109a25760ff916109848261096760019489612370565b5161097d61097761074b866123c5565b8c612328565b5288612370565b5161099a61099461074b846123d6565b8a612328565b520116610947565b5050602086886109c68886519586948594630f3022c960e21b86526004860161250f565b0381305afa908115610a23576109ea916001916000916109f4575b5015151461257b565b5160018152602090f35b610a16915060203d602011610a1c575b610a0e81836104c0565b8101906123e7565b846109e1565b503d610a04565b612443565b610a41915060203d602011610a1c57610a0e81836104c0565b8f610908565b610a60915060203d602011610a1c57610a0e81836104c0565b386107e4565b80610a82610a7c6001939d949d9b9a969b61234f565b8d61226a565b35610a95610a8f83612362565b8d612328565b52019990999792969761068c565b7f30644e72e131a029b85045b68181585d2833e84879b9709143e1f593f00000011115610acc57565b6000805260206000f35b604051917f11010d9c6e38fa7c3cf45810cf9f531f458f567048e95539963fa9711c73917583527f018ccd0277cd1b06c9d2130b73f047c28f6ee4753a037754d3822b71fab25f4a60208401526040830190815260408360608160076107cf195a01fa15610acc57815190526020810151606083015260409160809060066107cf195a01fa15610acc57565b604051917f198fe48d9eb27296e4d46c93838ed990cfeddeace4ff225688cb36b82ec4271783527f0485afca2daab6776d99aa26b27c474e7529ca01b1ad0be331a49e6c5571447b60208401526040830190815260408360608160076107cf195a01fa15610acc57815190526020810151606083015260409160809060066107cf195a01fa15610acc57565b604051917f1f13a3fe67c7727d8a0335bc1c15fc2b764e5bd95daf0081c34cfd8dee47875f83527f229c0a86659cf518a997bbb20276ae50b93aba41373084e38bc70c4f6b45a0ce60208401526040830190815260408360608160076107cf195a01fa15610acc57815190526020810151606083015260409160809060066107cf195a01fa15610acc57565b604051917f1967416ceb3a4beb17e6ad4b4cdb175da60c26fcbb8086d1c45588be6cd6eae483527f1a22199e40346c8b01f07fa3be60cb695a950b9b3f023ad02d70a212dc4a7b4160208401526040830190815260408360608160076107cf195a01fa15610acc57815190526020810151606083015260409160809060066107cf195a01fa15610acc57565b604051917f1cd400afadce3d551aa765bfd507b4e32ad1449facdf798f29fd1329fccb135083527f15e80f197e156bfc612be47582fe9963f9d0396b4a4c545aaea48eb0d7330b8760208401526040830190815260408360608160076107cf195a01fa15610acc57815190526020810151606083015260409160809060066107cf195a01fa15610acc57565b604051917f23de5e0cf0d193985bb1f5e4eaf05a3d1411e932c6385fb906a116cb7afab8c983527f0a337e439f9058771097f19f2ab0fd3e298e38dd432ee2206d239ecdb9ab15fb60208401526040830190815260408360608160076107cf195a01fa15610acc57815190526020810151606083015260409160809060066107cf195a01fa15610acc57565b604051917f1b2c4dc7aadd5c5615cfbec2193c72eec4351f6388962a398d6318ee94684b0f83527f29b039e1766ccc319311e0a2418c8c6b61e2e7048c12fc038a969753d8b13f0560208401526040830190815260408360608160076107cf195a01fa15610acc57815190526020810151606083015260409160809060066107cf195a01fa15610acc57565b604051917f06a78a92f313fee6dfac403a8ca45110ba3c1d779469a93a74962ff0e51ab4d283527f2f43fac8c2c2dab2041d82d998c81e664872120d19664344a4db0e8fd293b99d60208401526040830190815260408360608160076107cf195a01fa15610acc57815190526020810151606083015260409160809060066107cf195a01fa15610acc57565b604051917f01cb1c4a07e2108684351408498b8259e7ae34214f54db065f7fa090ebea6aea83527f1f9785dc9f5562990187842a69793e9bf0a33ebac57224a593781a97ddafe94760208401526040830190815260408360608160076107cf195a01fa15610acc57815190526020810151606083015260409160809060066107cf195a01fa15610acc57565b604051917f04acdd3175587ad1dca2b0577dced9b765f1cce61209905fd467eb23bf3c6ebb83527f2499ba0dc99e8af0dd56ecb56b922f5478f83803c34cdcbf9fcc994df915341a60208401526040830190815260408360608160076107cf195a01fa15610acc57815190526020810151606083015260409160809060066107cf195a01fa15610acc57565b604051917f0711f2a71684b202a430e7dbf85431d15a2bb54ee16eeebd496eab3994074b1683527f14ae7c51cce8d46b87997a393ba565285227d1e639e7fa32bfdbdd377902a30860208401526040830190815260408360608160076107cf195a01fa15610acc57815190526020810151606083015260409160809060066107cf195a01fa15610acc57565b604051917f23330a0ae1259ace2f28ad040bf2e0c77504a413c2ff82638cb4b3cf647f3cda83527f27bceeb635df7332f9618d74565686ca6ec61aa24f0acdb09cff7e3a215b9bfa60208401526040830190815260408360608160076107cf195a01fa15610acc57815190526020810151606083015260409160809060066107cf195a01fa15610acc57565b604051917f20303fce6392875c09ca31b2894778446424475fec4e23b20af0cd4aaa6487fe83527f2568f820c814c94a40744b6f171fcd34cbe98b3a46299583fb4fb3634fcfb50660208401526040830190815260408360608160076107cf195a01fa15610acc57815190526020810151606083015260409160809060066107cf195a01fa15610acc57565b604051917f287947ba205e2ba1d5174b136e93848e50f104b5c802bdf0c3c62088cc22356183527f17c233346c6b4aaf4accf74881746ff097edf954aa4318e6ac89aefa4edef27560208401526040830190815260408360608160076107cf195a01fa15610acc57815190526020810151606083015260409160809060066107cf195a01fa15610acc57565b604051917f0e650541e9d2ec1d43807215375199f5a5ee2ebf4a5d3adf31fe93aae2f3796583527f15fad1251cb10082ad4e2528ea8ca77aa738ec5e86bb7b3adffa3e59c46b9e1360208401526040830190815260408360608160076107cf195a01fa15610acc57815190526020810151606083015260409160809060066107cf195a01fa15610acc57565b604051917f15590df5329bf6e99e6408770870d5ef1874c610416cd1d761b0c22cd0ee62d483527f1778b105a18c2910177a284eff8c0455b04bf1eb6610321ec03861dba6f5062b60208401526040830190815260408360608160076107cf195a01fa15610acc57815190526020810151606083015260409160809060066107cf195a01fa15610acc57565b604051917f17bf4d437010bee75009e5e1142dbeb4fd8e1bcfaa7d622083608786e0dc516e83527f24fff15b6df784700f53380202335d1b730c4f2785f3ebf9c9c04e5c5a9fe2b160208401526040830190815260408360608160076107cf195a01fa15610acc57815190526020810151606083015260409160809060066107cf195a01fa15610acc57565b604051917f08e006f7d5fe8f935d858885b8ebfaca99a13267e381f23108f134c17d78d39e83527f21892acceb9ba86650e4216ff30c077f2261c023e240d95ffb7346ac02513f8260208401526040830190815260408360608160076107cf195a01fa15610acc57815190526020810151606083015260409160809060066107cf195a01fa15610acc57565b604051917f263a958dc60569351ec7b99c5b144788bfec258cba37987e5abbbe6c34024f8383527f063f51092a1138e56509c3312ccc8601feb633646e8bc55b2c1808ffd258799d60208401526040830190815260408360608160076107cf195a01fa15610acc57815190526020810151606083015260409160809060066107cf195a01fa15610acc57565b604051917f1ce127bc75a2766c47f2aaed7e153731df98b92a0f983c912727c4a034078f7e83527f1bdab421c58a7fda6a41fb161c294b8c5ffaf7e2ba6fbc71cfc852bfeb10d86760208401526040830190815260408360608160076107cf195a01fa15610acc57815190526020810151606083015260409160809060066107cf195a01fa15610acc57565b604051917f185654525df54e91acc61c25647550698884a5f90a363d8dce3c73685837a23983527f16070596f4d1ae539bb992a236f3c9fe1febe33a7f0dabea87e6ea66cd76f47b60208401526040830190815260408360608160076107cf195a01fa15610acc57815190526020810151606083015260409160809060066107cf195a01fa15610acc57565b604051917f0170434e55af68cf14aba84d5a6201bf4459908f4272ed31ed74647595f8a5a583527f1e7ce3133949ea40a0441e3b0767e17d48a192d94752fda196bcd9cf55ba8d2460208401526040830190815260408360608160076107cf195a01fa15610acc57815190526020810151606083015260409160809060066107cf195a01fa15610acc57565b604051917e2b0e212e9f118c89478d3fdf9d77c0f9941760d4217ef45dfc2daedaf7edc483527f050090d0e9f95d287260387b80c5126a7e391a9638cc98e5ae9ffc86f3e72c1060208401526040830190815260408360608160076107cf195a01fa15610acc57815190526020810151606083015260409160809060066107cf195a01fa15610acc57565b604051917f11b9321b72aad9b82450e03336453e13d5688d3180a64139c73619b8f18cee6c83527f08d574dfa32e40352abaca79905afea14f0c25f650076b9dfb8b3b9ce670b80260208401526040830190815260408360608160076107cf195a01fa15610acc57815190526020810151606083015260409160809060066107cf195a01fa15610acc57565b604051917f2eae40c0aa87ffbb66bc10056e07c74a03d40266e0fffc1145d1a0c108bcfddf83527f1fd345fa97ba4246a0e5bdb19e7702b85f039fdfb7108bb91da02b46863378ea60208401526040830190815260408360608160076107cf195a01fa15610acc57815190526020810151606083015260409160809060066107cf195a01fa15610acc57565b604051917f07182515694d14480866446e299fe8ef8e526868062365ef6f22717bb277373483527f0c8545960481b22a260411aaf88e79fbeda4915c83486be1b7182733d41a8c9660208401526040830190815260408360608160076107cf195a01fa15610acc57815190526020810151606083015260409160809060066107cf195a01fa15610acc57565b604051917f0b4f5d9df420fdae60d9e119f9b4cc27c10ed0778706e78a33d529a28bedacef83527f14743a7006b2405669e1a1a5e67535da2da0f6ca8cf96e0b70463eaaae6c350860208401526040830190815260408360608160076107cf195a01fa15610acc57815190526020810151606083015260409160809060066107cf195a01fa15610acc57565b604051917f1cd803e77e85858819bff62686255b41df102895bc8e78e49d09557d384e3a1f83527f1e3121d260c6d9f91ff59435159f1e9db0fc35ad97cfda64194a2bc051e74a8960208401526040830190815260408360608160076107cf195a01fa15610acc57815190526020810151606083015260409160809060066107cf195a01fa15610acc57565b604051917f0488f90b11633501d63cba615b9fadff16e17e62d9ae5a63042b4ec05d85100683527f12aee098b3466c531da162e87e2354c5eafe265e00b2180968ce9ce450bd258f60208401526040830190815260408360608160076107cf195a01fa15610acc57815190526020810151606083015260409160809060066107cf195a01fa15610acc57565b604051917e4da33fa9998640d59f84629a8d0de5cf7f211bcbea72cbaffa0c92c5bb3d6283527f0f5203253ac1c168418a5708fc65f53e2efc8f599a6cb6943d8bf72318dde26460208401526040830190815260408360608160076107cf195a01fa15610acc57815190526020810151606083015260409160809060066107cf195a01fa15610acc57565b604051917f2fb25dcc3dd96e6e137261213f9a05c4d710e63e10eea32e9b06436bc4053e1d83527f0b260d90f09a1ccf7a42baa2113982af1df5d1d7290527f3720671fba819892c60208401526040830190815260408360608160076107cf195a01fa15610acc57815190526020810151606083015260409160809060066107cf195a01fa15610acc57565b604051917f0c9b526a00bdbd1e7031f3aae102dc8ddc653a153156f6426ffc7545bf88ec7e83527f048dacc60ffc2bd58b94bc051329fa03e919aa4ff1bc74cfdfd5994a3a293c1060208401526040830190815260408360608160076107cf195a01fa15610acc57815190526020810151606083015260409160809060066107cf195a01fa15610acc57565b602092916000805160206127f0833981519152846060937f0f8087d78fd3a13a9551931f3b55398f864454fe608e861546c590e110ce20206080527f26728a8140b0c67542590f90e0a88cb92e3d6213cf5453fec32e7778a785d5e860a052611cc1610104356080610ad6565b611ccf610124356080610b62565b611cdd610144356080610bee565b611ceb610164356080610c7a565b611cf9610184356080610d06565b611d076101a4356080610d92565b611d156101c4356080610e1e565b611d236101e4356080610eaa565b611d31610204356080610f36565b611d3f610224356080610fc2565b611d4d61024435608061104e565b611d5b6102643560806110da565b611d69610284356080611166565b611d776102a43560806111f2565b611d856102c435608061127e565b611d936102e435608061130a565b611da1610304356080611396565b611daf610324356080611422565b611dbd6103443560806114ae565b611dcb61036435608061153a565b611dd96103843560806115c6565b611de76103a4356080611652565b611df56103c43560806116de565b611e036103e4356080611769565b611e116104043560806117f5565b611e1f610424356080611881565b611e2d61044435608061190d565b611e3b610464356080611999565b611e49610484356080611a25565b611e576104a4356080611ab1565b611e656104c4356080611b3c565b611e736104e4356080611bc8565b803561010052013581030661012052803561014052838101356101605260408101356101805201356101a0527f2bcb07e090c509648460310ef6e09672b1f3a802f8f6afcd5b560ebc8dfed4006101c0527f1c2d0b45b0ea4b29d9ec33c5bd4ca4051d136bc9c27c417d1ce735c8865f7d8d6101e0527f170bef003071274cf9c722c4a2ec8825cd56327bdb311e929ba9c19c64bd2b93610200527f04c196246635e807257b64025d1da2f3d497f10f70ca9f9e14014d70985e1811610220527f0cd90adfe289ba215558d896ee457af9708af3c0c6133d61a0cd907e92782292610240527f196faee2853f78c04d354e9b0c2ff38f5b3e4dbc2ce3c6bc79755aca3163c44f610260526080516102805260a0516102a0527f118591cd5f93db67a738b3bd1556a7c5a116c5eddff9c7f9d7fb0d3297ed3d3d6102c0527f10226223146e0333ac07a3026a095213b10aab8a51a69112004a6243c070be536102e0527f08d524789251ea760d321556433b9df73389cc6310afdbe037237780f106234c610300527f0e50609f485f6635911ca9685614f031713af9768d2b317dfedc99569353b5fe610320528035610340520135610360527f2edd92a231b4a44dcad9e185f8c7778a31a0b32a9c97be302d7009250dcfb23e610380527f1bf9ad1a92c8d86777ca41065a4fef9225d3ae380e6055617c6c51177003d51e6103a0527f07f8c3c3b1285dcba6a185f08eeed9498df70bfa7a69af3ffa8d3fc24152cd686103c0527f23cceedea3653120adf7889d4ff94a427450e8bba3deede2443c752388775fda6103e05260206101006103008160086107cf195a01fa610100511690565b919060408051936120ea82866104c0565b8491810192831161025257905b82821061210357505050565b81358152602091820191016120f7565b60405190600080835b60028210612132575050506104f06040836104c0565b600160208192855481520193019101909161211c565b60405191906000835b60028210612167575050506104f06040836104c0565b6001602081928554815201930191019091612151565b6040519061218a8261049f565b60066000835b6002821061219d57505050565b600260206001926121ad86612148565b815201930191019091612190565b604051906121c88261049f565b60026000835b600282106121db57505050565b600260206001926121eb86612148565b8152019301910190916121ce565b634e487b7160e01b600052603260045260246000fd5b909190600090600190825b8151841015612263577f30644e72e131a029b85045b68181585d2833e84879b9709143e1f593f000000186816001938160208960051b880101518809900894099301929161221a565b9450505050565b90600381101561227b5760051b0190565b6121f9565b1561228757565b60405162461bcd60e51b815260206004820152603860248201527f466f6c64696e673a20746865206e756d626572206f6620666f6c64656420737460448201527f6570732073686f756c64206265206174206c65617374203200000000000000006064820152608490fd5b60405190602061230281846104c0565b368337565b6040519061040061230281846104c0565b60405190608061230281846104c0565b90602081101561227b5760051b0190565b634e487b7160e01b600052601160045260246000fd5b600101908160011161235d57565b612339565b600201908160021161235d57565b90600481101561227b5760051b0190565b60ff166004019060ff821161235d57565b60ff166008019060ff821161235d57565b60ff16600c019060ff821161235d57565b60ff166010019060ff821161235d57565b60ff166018019060ff821161235d57565b60ff16601c019060ff821161235d57565b90816020910312610252575180151581036102525790565b60c08101959493909290916000845b6002821061242d5750505090604083928160a095013760808201520152565b602080600192855181520193019101909161240e565b6040513d6000823e3d90fd5b1561245657565b60405162461bcd60e51b815260206004820152602b60248201527f4b5a473a20766572696679696e672070726f6f6620666f72206368616c6c656e60448201526a19d94815c819985a5b195960aa1b6064820152608490fd5b156124b657565b60405162461bcd60e51b815260206004820152602b60248201527f4b5a473a20766572696679696e672070726f6f6620666f72206368616c6c656e60448201526a19d948114819985a5b195960aa1b6064820152608490fd5b919493929094604061050084019684376000604084015b60028210612565575050509060406101009260c0830137016000905b6020821061254f57505050565b6020806001928551815201930191019091612542565b6040808281866001953701930191019091612526565b1561258257565b60405162461bcd60e51b815260206004820152601f60248201527f47726f746831363a20766572696679696e672070726f6f66206661696c6564006044820152606490fd5b60409081516125d683826104c0565b82368237508051158061263f575b61263a5760206000805160206127f083398151915291612606845194856104c0565b805184520151066000805160206127f0833981519152036000805160206127f0833981519152811161235d57602082015290565b905090565b506020810151156125e4565b919060409081519061265d83836104c0565b823683378194606091602085519261267585856104c0565b8436853780518452015160208301528482015260076107cf195a01fa1561048757565b9190916040809160808251916126ae84846104c0565b8336843760208397818651936126c486866104c0565b805185520151828401528051868401520151606082015260066107cf195a01fa801561048757156126f25750565b5162461bcd60e51b815260206004820152601760248201527f626e3235343a20706f696e7420616464206661696c65640000000000000000006044820152606490fd5b1561273c57565b60405162461bcd60e51b8152602060048201526015602482015274189b8c8d4d0e881c185a5c9a5b99c819985a5b1959605a1b6044820152606490fd5b60808060405161278982826104c0565b3690376040519061279a81836104c0565b36823760005b60ff81169060048210156127e8578060061b90613fc060c083169216820361235d5760ff926127e067ffffffffffffffff8786600196161c169186612370565b5201166127a0565b505090509056fe30644e72e131a029b85045b68181585d97816a916871ca8d3c208c16d87cfd47a26469706673582212205dbf738ee6cc5a3ef90967942e1df67c2b96591c3d1084aeb50451b784cd262164736f6c634300081c0033","opcodes":"PUSH1 0x80 PUSH1 0x40 MSTORE CALLVALUE PUSH2 0x270 JUMPI PUSH2 0x11 PUSH2 0x275 JUMP JUMPDEST PUSH32 0x171149D656AB2678F03A81FB4A13B38CB13C584222498B9F0824377FF4EF1C6C DUP2 MSTORE PUSH32 0x1078A9C7358344C97989A825CD493C02502C5979785AB4102B85CAB8785E1652 PUSH1 0x20 DUP3 ADD MSTORE PUSH1 0x0 JUMPDEST PUSH1 0x2 DUP2 LT PUSH2 0x25E JUMPI PUSH2 0x6D PUSH2 0x275 JUMP JUMPDEST PUSH2 0x75 PUSH2 0x275 JUMP JUMPDEST PUSH32 0x2E85A64B176A89F651B755522402780AC5224A690C62C2A3580E2B77391EB85F DUP2 MSTORE PUSH32 0x25A630E1B1BB847CA0E32E8D5A2C62D424E4B0D67D8295D094589EFBA2611485 PUSH1 0x20 DUP3 ADD MSTORE DUP2 MSTORE PUSH2 0xC8 PUSH2 0x275 JUMP JUMPDEST PUSH32 0x105E2254F385A54471F0F072B96FC88FC2A55E98E8FCCBDCD5DA2729F42941C7 DUP2 MSTORE PUSH32 0x1478CEA7A3717EED37243042378CA4D61C6D69D433ECBF2967D813CB1ADC02AE PUSH1 0x20 DUP3 ADD MSTORE PUSH1 0x20 DUP3 ADD MSTORE PUSH1 0x2 PUSH1 0x0 SWAP2 JUMPDEST PUSH1 0x2 DUP4 LT PUSH2 0x228 JUMPI PUSH2 0x12C PUSH2 0x275 JUMP JUMPDEST PUSH2 0x134 PUSH2 0x275 JUMP JUMPDEST PUSH32 0x213DF544B48E424CE1ECA450ED03A5496169EDDD748B653832354CA0BCF23F62 DUP2 MSTORE PUSH32 0x2959A960103C0295E1A16715E806239FF6C59E4C0743824C117DE81AE7F85C96 PUSH1 0x20 DUP3 ADD MSTORE DUP2 MSTORE PUSH2 0x187 PUSH2 0x275 JUMP JUMPDEST PUSH32 0x2DC616D796B0ECAC95C855CCB68EA147BA7AE912CC510AFD22DB4596056D6886 DUP2 MSTORE PUSH32 0x1AFC010C12A7D030252D49BBE091AC357B40F62E2C1AC4C1F346B20CE3C2C5C6 PUSH1 0x20 DUP3 ADD MSTORE PUSH1 0x20 DUP3 ADD MSTORE PUSH1 0x6 PUSH1 0x0 SWAP2 JUMPDEST PUSH1 0x2 DUP4 LT PUSH2 0x1F2 JUMPI PUSH1 0x40 MLOAD PUSH2 0x2845 SWAP1 DUP2 PUSH2 0x2AB DUP3 CODECOPY RETURN JUMPDEST DUP1 MLOAD PUSH1 0x0 JUMPDEST PUSH1 0x2 DUP2 LT PUSH2 0x214 JUMPI POP POP PUSH1 0x2 PUSH1 0x20 PUSH1 0x1 SWAP3 ADD SWAP3 ADD SWAP3 ADD SWAP2 SWAP1 PUSH2 0x1DB JUMP JUMPDEST DUP2 MLOAD DUP5 DUP3 ADD SSTORE PUSH1 0x20 SWAP1 SWAP2 ADD SWAP1 PUSH1 0x1 ADD PUSH2 0x1F7 JUMP JUMPDEST DUP1 MLOAD PUSH1 0x0 JUMPDEST PUSH1 0x2 DUP2 LT PUSH2 0x24A JUMPI POP POP PUSH1 0x2 PUSH1 0x20 PUSH1 0x1 SWAP3 ADD SWAP3 ADD SWAP3 ADD SWAP2 SWAP1 PUSH2 0x11C JUMP JUMPDEST DUP2 MLOAD DUP5 DUP3 ADD SSTORE PUSH1 0x20 SWAP1 SWAP2 ADD SWAP1 PUSH1 0x1 ADD PUSH2 0x22D JUMP JUMPDEST PUSH1 0x1 SWAP1 PUSH1 0x20 DUP4 MLOAD SWAP4 ADD SWAP3 DUP2 SSTORE ADD PUSH2 0x5D JUMP JUMPDEST PUSH1 0x0 DUP1 REVERT JUMPDEST PUSH1 0x40 DUP1 MLOAD SWAP2 SWAP1 DUP3 ADD PUSH1 0x1 PUSH1 0x1 PUSH1 0x40 SHL SUB DUP2 GT DUP4 DUP3 LT OR PUSH2 0x294 JUMPI PUSH1 0x40 MSTORE JUMP JUMPDEST PUSH4 0x4E487B71 PUSH1 0xE0 SHL PUSH1 0x0 MSTORE PUSH1 0x41 PUSH1 0x4 MSTORE PUSH1 0x24 PUSH1 0x0 REVERT INVALID PUSH1 0x80 PUSH1 0x40 MSTORE PUSH1 0x4 CALLDATASIZE LT ISZERO PUSH2 0x12 JUMPI PUSH1 0x0 DUP1 REVERT JUMPDEST PUSH1 0x0 CALLDATALOAD PUSH1 0xE0 SHR DUP1 PUSH4 0x3CC08B24 EQ PUSH2 0x77 JUMPI DUP1 PUSH4 0x46BED3D1 EQ PUSH2 0x72 JUMPI DUP1 PUSH4 0x9E78CCF7 EQ PUSH2 0x6D JUMPI DUP1 PUSH4 0xC1EB466C EQ PUSH2 0x68 JUMPI DUP1 PUSH4 0xE16C8A91 EQ PUSH2 0x63 JUMPI PUSH4 0xFC3D76FA EQ PUSH2 0x5E JUMPI PUSH1 0x0 DUP1 REVERT JUMPDEST PUSH2 0x5DE JUMP JUMPDEST PUSH2 0x599 JUMP JUMPDEST PUSH2 0x4F2 JUMP JUMPDEST PUSH2 0x32D JUMP JUMPDEST PUSH2 0x2F2 JUMP JUMPDEST CALLVALUE PUSH2 0x252 JUMPI PUSH2 0x500 CALLDATASIZE PUSH1 0x3 NOT ADD SLT PUSH2 0x252 JUMPI PUSH2 0x92 CALLDATASIZE PUSH2 0x257 JUMP JUMPDEST PUSH2 0x9B CALLDATASIZE PUSH2 0x2AB JUMP JUMPDEST PUSH2 0xA4 CALLDATASIZE PUSH2 0x264 JUMP JUMPDEST SWAP1 CALLDATASIZE PUSH2 0x504 GT PUSH2 0x252 JUMPI PUSH2 0x249 SWAP3 PUSH2 0x400 PUSH1 0x40 MSTORE PUSH2 0xC4 PUSH2 0x104 CALLDATALOAD PUSH2 0xAA3 JUMP JUMPDEST PUSH2 0xD0 PUSH2 0x124 CALLDATALOAD PUSH2 0xAA3 JUMP JUMPDEST PUSH2 0xDC PUSH2 0x144 CALLDATALOAD PUSH2 0xAA3 JUMP JUMPDEST PUSH2 0xE8 PUSH2 0x164 CALLDATALOAD PUSH2 0xAA3 JUMP JUMPDEST PUSH2 0xF4 PUSH2 0x184 CALLDATALOAD PUSH2 0xAA3 JUMP JUMPDEST PUSH2 0x100 PUSH2 0x1A4 CALLDATALOAD PUSH2 0xAA3 JUMP JUMPDEST PUSH2 0x10C PUSH2 0x1C4 CALLDATALOAD PUSH2 0xAA3 JUMP JUMPDEST PUSH2 0x118 PUSH2 0x1E4 CALLDATALOAD PUSH2 0xAA3 JUMP JUMPDEST PUSH2 0x124 PUSH2 0x204 CALLDATALOAD PUSH2 0xAA3 JUMP JUMPDEST PUSH2 0x130 PUSH2 0x224 CALLDATALOAD PUSH2 0xAA3 JUMP JUMPDEST PUSH2 0x13C PUSH2 0x244 CALLDATALOAD PUSH2 0xAA3 JUMP JUMPDEST PUSH2 0x148 PUSH2 0x264 CALLDATALOAD PUSH2 0xAA3 JUMP JUMPDEST PUSH2 0x154 PUSH2 0x284 CALLDATALOAD PUSH2 0xAA3 JUMP JUMPDEST PUSH2 0x160 PUSH2 0x2A4 CALLDATALOAD PUSH2 0xAA3 JUMP JUMPDEST PUSH2 0x16C PUSH2 0x2C4 CALLDATALOAD PUSH2 0xAA3 JUMP JUMPDEST PUSH2 0x178 PUSH2 0x2E4 CALLDATALOAD PUSH2 0xAA3 JUMP JUMPDEST PUSH2 0x184 PUSH2 0x304 CALLDATALOAD PUSH2 0xAA3 JUMP JUMPDEST PUSH2 0x190 PUSH2 0x324 CALLDATALOAD PUSH2 0xAA3 JUMP JUMPDEST PUSH2 0x19C PUSH2 0x344 CALLDATALOAD PUSH2 0xAA3 JUMP JUMPDEST PUSH2 0x1A8 PUSH2 0x364 CALLDATALOAD PUSH2 0xAA3 JUMP JUMPDEST PUSH2 0x1B4 PUSH2 0x384 CALLDATALOAD PUSH2 0xAA3 JUMP JUMPDEST PUSH2 0x1C0 PUSH2 0x3A4 CALLDATALOAD PUSH2 0xAA3 JUMP JUMPDEST PUSH2 0x1CC PUSH2 0x3C4 CALLDATALOAD PUSH2 0xAA3 JUMP JUMPDEST PUSH2 0x1D8 PUSH2 0x3E4 CALLDATALOAD PUSH2 0xAA3 JUMP JUMPDEST PUSH2 0x1E4 PUSH2 0x404 CALLDATALOAD PUSH2 0xAA3 JUMP JUMPDEST PUSH2 0x1F0 PUSH2 0x424 CALLDATALOAD PUSH2 0xAA3 JUMP JUMPDEST PUSH2 0x1FC PUSH2 0x444 CALLDATALOAD PUSH2 0xAA3 JUMP JUMPDEST PUSH2 0x208 PUSH2 0x464 CALLDATALOAD PUSH2 0xAA3 JUMP JUMPDEST PUSH2 0x214 PUSH2 0x484 CALLDATALOAD PUSH2 0xAA3 JUMP JUMPDEST PUSH2 0x220 PUSH2 0x4A4 CALLDATALOAD PUSH2 0xAA3 JUMP JUMPDEST PUSH2 0x22C PUSH2 0x4C4 CALLDATALOAD PUSH2 0xAA3 JUMP JUMPDEST PUSH2 0x238 PUSH2 0x4E4 CALLDATALOAD PUSH2 0xAA3 JUMP JUMPDEST PUSH2 0x244 PUSH2 0x504 CALLDATALOAD PUSH2 0xAA3 JUMP JUMPDEST PUSH2 0x1C54 JUMP JUMPDEST PUSH1 0x0 MSTORE PUSH1 0x20 PUSH1 0x0 RETURN JUMPDEST PUSH1 0x0 DUP1 REVERT JUMPDEST SWAP1 PUSH1 0x4 SWAP2 PUSH1 0x44 GT PUSH2 0x252 JUMPI JUMP JUMPDEST SWAP1 PUSH1 0xC4 SWAP2 PUSH2 0x104 GT PUSH2 0x252 JUMPI JUMP JUMPDEST SWAP1 PUSH1 0x44 SWAP2 PUSH1 0x84 GT PUSH2 0x252 JUMPI JUMP JUMPDEST SWAP1 PUSH1 0xE4 SWAP2 PUSH2 0x124 GT PUSH2 0x252 JUMPI JUMP JUMPDEST SWAP1 PUSH2 0x184 SWAP2 PUSH2 0x1C4 GT PUSH2 0x252 JUMPI JUMP JUMPDEST SWAP1 PUSH2 0x244 SWAP2 PUSH2 0x284 GT PUSH2 0x252 JUMPI JUMP JUMPDEST SWAP1 PUSH1 0x44 SWAP2 PUSH1 0xC4 GT PUSH2 0x252 JUMPI JUMP JUMPDEST SWAP1 PUSH1 0x64 SWAP2 PUSH1 0xE4 GT PUSH2 0x252 JUMPI JUMP JUMPDEST SWAP1 PUSH2 0x1C4 SWAP2 PUSH2 0x244 GT PUSH2 0x252 JUMPI JUMP JUMPDEST SWAP1 PUSH2 0x284 SWAP2 PUSH2 0x304 GT PUSH2 0x252 JUMPI JUMP JUMPDEST SWAP1 PUSH2 0x304 SWAP2 PUSH2 0x384 GT PUSH2 0x252 JUMPI JUMP JUMPDEST CALLVALUE PUSH2 0x252 JUMPI PUSH1 0x0 CALLDATASIZE PUSH1 0x3 NOT ADD SLT PUSH2 0x252 JUMPI PUSH1 0x20 PUSH1 0x40 MLOAD PUSH32 0x30644E72E131A029B85045B68181585D2833E84879B9709143E1F593F0000001 DUP2 MSTORE RETURN JUMPDEST CALLVALUE PUSH2 0x252 JUMPI PUSH1 0xC0 CALLDATASIZE PUSH1 0x3 NOT ADD SLT PUSH2 0x252 JUMPI PUSH2 0x347 CALLDATASIZE PUSH2 0x257 JUMP JUMPDEST PUSH1 0x20 PUSH2 0x3A0 PUSH2 0x398 PUSH2 0x358 CALLDATASIZE PUSH2 0x272 JUMP JUMPDEST SWAP4 PUSH2 0x392 PUSH1 0xA4 CALLDATALOAD DUP2 PUSH2 0x389 PUSH2 0x377 PUSH2 0x381 PUSH1 0x84 CALLDATALOAD PUSH2 0x37C DUP4 CALLDATASIZE DUP15 PUSH2 0x20D9 JUMP JUMPDEST PUSH2 0x25C7 JUMP JUMPDEST PUSH2 0x264B JUMP JUMPDEST SWAP6 CALLDATASIZE SWAP1 PUSH2 0x20D9 JUMP JUMPDEST SWAP2 PUSH2 0x37C PUSH2 0x2113 JUMP JUMPDEST SWAP1 PUSH2 0x2698 JUMP JUMPDEST SWAP3 CALLDATASIZE SWAP1 PUSH2 0x20D9 JUMP JUMPDEST PUSH2 0x434 PUSH2 0x3AB PUSH2 0x217D JUMP JUMPDEST SWAP4 PUSH2 0x413 PUSH2 0x3B7 PUSH2 0x21BB JUMP JUMPDEST SWAP2 PUSH2 0x3F4 PUSH2 0x180 SWAP8 PUSH2 0x3D6 PUSH2 0x3CB DUP11 PUSH2 0x4E2 JUMP JUMPDEST SWAP8 DUP1 MLOAD DUP10 MSTORE PUSH1 0x20 ADD SWAP1 JUMP JUMPDEST MLOAD DUP8 DUP10 ADD MSTORE DUP1 MLOAD PUSH1 0x20 ADD MLOAD PUSH1 0x40 DUP9 ADD MSTORE DUP1 MLOAD MLOAD PUSH1 0x60 DUP9 ADD MSTORE PUSH1 0x20 ADD SWAP1 JUMP JUMPDEST DUP1 MLOAD PUSH1 0x20 ADD MLOAD PUSH1 0x80 DUP8 ADD MSTORE MLOAD MLOAD PUSH1 0xA0 DUP7 ADD MSTORE DUP1 MLOAD PUSH1 0xC0 DUP7 ADD MSTORE PUSH1 0x20 ADD SWAP1 JUMP JUMPDEST MLOAD PUSH1 0xE0 DUP5 ADD MSTORE DUP1 MLOAD PUSH1 0x20 ADD MLOAD PUSH2 0x100 DUP5 ADD MSTORE DUP1 MLOAD MLOAD PUSH2 0x120 DUP5 ADD MSTORE PUSH1 0x20 ADD SWAP1 JUMP JUMPDEST DUP1 MLOAD PUSH1 0x20 ADD MLOAD PUSH2 0x140 DUP4 ADD MSTORE MLOAD MLOAD PUSH2 0x160 DUP3 ADD MSTORE PUSH2 0x450 PUSH2 0x22F2 JUMP JUMPDEST SWAP3 DUP4 SWAP2 PUSH1 0x8 PUSH2 0x7CF NOT GAS ADD STATICCALL DUP1 ISZERO PUSH2 0x487 JUMPI PUSH2 0x483 SWAP2 PUSH2 0x471 PUSH1 0x1 SWAP3 PUSH2 0x2735 JUMP JUMPDEST MLOAD PUSH1 0x40 MLOAD SWAP2 EQ DUP2 MSTORE SWAP1 DUP2 SWAP1 PUSH1 0x20 DUP3 ADD SWAP1 JUMP JUMPDEST SUB SWAP1 RETURN JUMPDEST INVALID JUMPDEST PUSH4 0x4E487B71 PUSH1 0xE0 SHL PUSH1 0x0 MSTORE PUSH1 0x41 PUSH1 0x4 MSTORE PUSH1 0x24 PUSH1 0x0 REVERT JUMPDEST PUSH1 0x40 DUP2 ADD SWAP1 DUP2 LT PUSH8 0xFFFFFFFFFFFFFFFF DUP3 GT OR PUSH2 0x4BB JUMPI PUSH1 0x40 MSTORE JUMP JUMPDEST PUSH2 0x489 JUMP JUMPDEST SWAP1 PUSH1 0x1F DUP1 NOT SWAP2 ADD AND DUP2 ADD SWAP1 DUP2 LT PUSH8 0xFFFFFFFFFFFFFFFF DUP3 GT OR PUSH2 0x4BB JUMPI PUSH1 0x40 MSTORE JUMP JUMPDEST SWAP1 PUSH2 0x4F0 PUSH1 0x40 MLOAD SWAP3 DUP4 PUSH2 0x4C0 JUMP JUMPDEST JUMP JUMPDEST CALLVALUE PUSH2 0x252 JUMPI PUSH1 0x40 CALLDATASIZE PUSH1 0x3 NOT ADD SLT PUSH2 0x252 JUMPI PUSH1 0x4 CALLDATALOAD PUSH8 0xFFFFFFFFFFFFFFFF DUP2 GT PUSH2 0x252 JUMPI CALLDATASIZE PUSH1 0x23 DUP3 ADD SLT ISZERO PUSH2 0x252 JUMPI DUP1 PUSH1 0x4 ADD CALLDATALOAD SWAP1 PUSH8 0xFFFFFFFFFFFFFFFF DUP3 GT PUSH2 0x4BB JUMPI DUP2 PUSH1 0x5 SHL PUSH1 0x40 MLOAD SWAP3 PUSH2 0x54A PUSH1 0x20 DUP4 ADD DUP6 PUSH2 0x4C0 JUMP JUMPDEST DUP4 MSTORE PUSH1 0x24 PUSH1 0x20 DUP5 ADD SWAP2 DUP4 ADD ADD SWAP2 CALLDATASIZE DUP4 GT PUSH2 0x252 JUMPI PUSH1 0x24 ADD SWAP1 JUMPDEST DUP3 DUP3 LT PUSH2 0x589 JUMPI PUSH2 0x483 PUSH2 0x579 PUSH1 0x24 CALLDATALOAD DUP7 PUSH2 0x220F JUMP JUMPDEST PUSH1 0x40 MLOAD SWAP1 DUP2 MSTORE SWAP1 DUP2 SWAP1 PUSH1 0x20 DUP3 ADD SWAP1 JUMP JUMPDEST DUP2 CALLDATALOAD DUP2 MSTORE PUSH1 0x20 SWAP2 DUP3 ADD SWAP2 ADD PUSH2 0x563 JUMP JUMPDEST CALLVALUE PUSH2 0x252 JUMPI PUSH1 0x0 CALLDATASIZE PUSH1 0x3 NOT ADD SLT PUSH2 0x252 JUMPI PUSH1 0x20 PUSH1 0x40 MLOAD PUSH1 0x0 DUP1 MLOAD PUSH1 0x20 PUSH2 0x27F0 DUP4 CODECOPY DUP2 MLOAD SWAP2 MSTORE DUP2 MSTORE RETURN JUMPDEST SWAP1 PUSH1 0x4 SWAP2 PUSH1 0x64 GT PUSH2 0x252 JUMPI JUMP JUMPDEST SWAP1 PUSH2 0x124 SWAP2 PUSH2 0x184 GT PUSH2 0x252 JUMPI JUMP JUMPDEST CALLVALUE PUSH2 0x252 JUMPI PUSH2 0x380 CALLDATASIZE PUSH1 0x3 NOT ADD SLT PUSH2 0x252 JUMPI PUSH2 0x5F9 CALLDATASIZE PUSH2 0x5C2 JUMP JUMPDEST PUSH2 0x602 CALLDATASIZE PUSH2 0x2B8 JUMP JUMPDEST SWAP1 PUSH2 0x60C CALLDATASIZE PUSH2 0x27F JUMP JUMPDEST PUSH2 0x615 CALLDATASIZE PUSH2 0x5CF JUMP JUMPDEST SWAP3 PUSH2 0x61F CALLDATASIZE PUSH2 0x28D JUMP JUMPDEST SWAP4 PUSH2 0x629 CALLDATASIZE PUSH2 0x2C5 JUMP JUMPDEST SWAP2 PUSH2 0x633 CALLDATASIZE PUSH2 0x29C JUMP JUMPDEST SWAP3 PUSH2 0x63D CALLDATASIZE PUSH2 0x2D4 JUMP JUMPDEST SWAP1 PUSH2 0x647 CALLDATASIZE PUSH2 0x2E3 JUMP JUMPDEST SWAP4 DUP8 CALLDATALOAD SWAP8 PUSH2 0x658 PUSH1 0x2 DUP11 LT ISZERO PUSH2 0x2280 JUMP JUMPDEST PUSH2 0x660 PUSH2 0x2307 JUMP JUMPDEST PUSH32 0x3E7C5722D93171F795FFBC5B16F516C129B53D4B2881240DBFB5465143ACED1 DUP2 MSTORE SWAP9 PUSH1 0x20 DUP11 ADD MSTORE PUSH1 0x0 JUMPDEST PUSH1 0x2 DUP2 LT PUSH2 0xA66 JUMPI POP POP PUSH1 0x40 SWAP9 PUSH2 0x6B0 PUSH2 0x6A5 DUP12 PUSH2 0x4E2 JUMP JUMPDEST SWAP9 DUP1 CALLDATALOAD DUP11 MSTORE PUSH1 0x20 ADD SWAP1 JUMP JUMPDEST CALLDATALOAD PUSH1 0x20 DUP10 ADD MSTORE PUSH2 0x6E5 PUSH2 0x6C8 PUSH1 0x40 DUP5 ADD CALLDATALOAD DUP1 SWAP11 PUSH2 0x264B JUMP JUMPDEST PUSH2 0x6D1 DUP13 PUSH2 0x4E2 JUMP JUMPDEST DUP8 CALLDATALOAD DUP2 MSTORE PUSH1 0x20 DUP9 ADD JUMPDEST CALLDATALOAD PUSH1 0x20 DUP3 ADD MSTORE PUSH2 0x2698 JUMP JUMPDEST SWAP3 PUSH2 0x6F0 DUP5 MLOAD PUSH2 0x2779 JUMP JUMPDEST SWAP8 PUSH2 0x6FF PUSH1 0x20 DUP7 ADD JUMPDEST MLOAD PUSH2 0x2779 JUMP JUMPDEST SWAP10 PUSH1 0x0 JUMPDEST PUSH1 0xFF DUP2 AND PUSH1 0x4 DUP2 LT ISZERO PUSH2 0x789 JUMPI SWAP14 PUSH1 0xFF PUSH1 0x4 SWAP16 DUP2 SWAP16 SWAP15 SWAP14 SWAP13 SWAP12 SWAP11 SWAP10 SWAP9 SWAP8 SWAP7 SWAP6 SWAP5 SWAP4 DUP16 DUP16 DUP16 DUP5 PUSH2 0x771 SWAP3 PUSH2 0x73B PUSH1 0x1 SWAP8 PUSH2 0x75D SWAP5 PUSH2 0x2370 JUMP JUMPDEST MLOAD PUSH2 0x757 PUSH2 0x751 PUSH2 0x74B DUP10 PUSH2 0x2381 JUMP JUMPDEST PUSH1 0xFF AND SWAP1 JUMP JUMPDEST DUP8 PUSH2 0x2328 JUMP JUMPDEST MSTORE PUSH2 0x2370 JUMP JUMPDEST MLOAD SWAP2 PUSH2 0x76B PUSH2 0x74B DUP6 PUSH2 0x2392 JUMP JUMPDEST SWAP1 PUSH2 0x2328 JUMP JUMPDEST MSTORE ADD AND SWAP2 SWAP3 SWAP4 SWAP5 SWAP6 SWAP7 SWAP8 SWAP9 SWAP10 SWAP11 SWAP12 SWAP13 SWAP14 POP SWAP14 POP PUSH2 0x703 JUMP JUMPDEST POP POP DUP12 SWAP8 SWAP9 SWAP10 POP DUP13 DUP8 CALLDATALOAD DUP1 SWAP11 DUP13 PUSH2 0x7A0 DUP12 PUSH1 0x40 ADD SWAP1 JUMP JUMPDEST CALLDATALOAD SWAP10 DUP11 DUP6 MLOAD SWAP15 DUP16 SWAP4 PUSH4 0x9E78CCF7 PUSH1 0xE0 SHL DUP6 MSTORE PUSH1 0x4 DUP6 ADD SWAP4 PUSH2 0x7C0 SWAP5 PUSH2 0x23FF JUMP JUMPDEST SUB DUP13 ADDRESS SWAP2 DUP2 GAS SWAP4 PUSH1 0x20 SWAP5 STATICCALL SWAP1 DUP2 ISZERO PUSH2 0xA23 JUMPI PUSH2 0x7ED PUSH2 0x831 SWAP3 PUSH1 0xFF SWAP15 PUSH1 0x0 SWAP2 PUSH2 0xA47 JUMPI JUMPDEST POP SWAP15 SWAP14 SWAP15 PUSH2 0x244F JUMP JUMPDEST PUSH2 0x816 PUSH2 0x7F9 DUP6 PUSH2 0x4E2 JUMP JUMPDEST SWAP6 PUSH2 0x809 DUP12 CALLDATALOAD SWAP12 DUP13 DUP10 MSTORE PUSH1 0x20 ADD SWAP1 JUMP JUMPDEST CALLDATALOAD SWAP7 DUP8 PUSH1 0x20 DUP3 ADD MSTORE PUSH2 0x264B JUMP JUMPDEST SWAP1 PUSH2 0x6DA PUSH2 0x823 DUP7 PUSH2 0x4E2 JUMP JUMPDEST SWAP2 PUSH1 0x40 DUP2 ADD CALLDATALOAD DUP4 MSTORE PUSH1 0x60 ADD SWAP1 JUMP JUMPDEST SWAP7 PUSH2 0x83C DUP9 MLOAD PUSH2 0x2779 JUMP JUMPDEST SWAP8 PUSH2 0x849 PUSH1 0x20 DUP3 ADD PUSH2 0x6F9 JUMP JUMPDEST SWAP10 PUSH1 0x0 SWAP15 DUP16 JUMPDEST AND SWAP15 DUP16 PUSH1 0x4 GT ISZERO PUSH2 0x8A0 JUMPI PUSH1 0xFF SWAP15 SWAP16 DUP16 SWAP2 DUP16 PUSH2 0x895 DUP16 DUP16 SWAP5 PUSH2 0x887 SWAP2 PUSH2 0x877 DUP3 PUSH1 0x1 SWAP9 PUSH2 0x2370 JUMP JUMPDEST MLOAD PUSH2 0x757 PUSH2 0x751 PUSH2 0x74B DUP10 PUSH2 0x23A3 JUMP JUMPDEST MLOAD SWAP2 PUSH2 0x76B PUSH2 0x74B DUP6 PUSH2 0x23B4 JUMP JUMPDEST MSTORE ADD AND SWAP15 SWAP14 DUP16 PUSH2 0x84F JUMP JUMPDEST POP DUP13 SWAP8 SWAP9 SWAP10 POP SWAP1 PUSH2 0x8C9 SWAP4 SWAP3 SWAP2 DUP13 DUP16 PUSH2 0x8BB PUSH1 0x20 SWAP2 PUSH1 0x40 ADD SWAP1 JUMP JUMPDEST PUSH1 0x20 DUP4 ADD CALLDATALOAD SWAP8 DUP9 SWAP4 PUSH1 0x60 ADD SWAP1 JUMP JUMPDEST CALLDATALOAD SWAP5 PUSH2 0x8E9 DUP7 DUP12 MLOAD SWAP11 DUP12 SWAP5 DUP6 SWAP5 PUSH4 0x9E78CCF7 PUSH1 0xE0 SHL DUP7 MSTORE PUSH1 0x4 DUP7 ADD PUSH2 0x23FF JUMP JUMPDEST SUB DUP2 ADDRESS GAS STATICCALL SWAP5 DUP6 ISZERO PUSH2 0xA23 JUMPI PUSH2 0x90E PUSH2 0x93D SWAP7 PUSH2 0x943 SWAP9 PUSH1 0x0 SWAP2 PUSH2 0xA28 JUMPI JUMPDEST POP PUSH2 0x24AF JUMP JUMPDEST PUSH2 0x280 DUP12 ADD MSTORE PUSH2 0x2A0 DUP11 ADD MSTORE PUSH2 0x2C0 DUP10 ADD MSTORE PUSH2 0x2E0 DUP9 ADD MSTORE PUSH2 0x92E PUSH2 0x2318 JUMP JUMPDEST POP PUSH2 0x937 PUSH2 0x2318 JUMP JUMPDEST POP PUSH2 0x2779 JUMP JUMPDEST SWAP3 PUSH2 0x2779 JUMP JUMPDEST SWAP3 PUSH1 0x0 JUMPDEST PUSH1 0xFF DUP2 AND PUSH1 0x4 DUP2 LT ISZERO PUSH2 0x9A2 JUMPI PUSH1 0xFF SWAP2 PUSH2 0x984 DUP3 PUSH2 0x967 PUSH1 0x1 SWAP5 DUP10 PUSH2 0x2370 JUMP JUMPDEST MLOAD PUSH2 0x97D PUSH2 0x977 PUSH2 0x74B DUP7 PUSH2 0x23C5 JUMP JUMPDEST DUP13 PUSH2 0x2328 JUMP JUMPDEST MSTORE DUP9 PUSH2 0x2370 JUMP JUMPDEST MLOAD PUSH2 0x99A PUSH2 0x994 PUSH2 0x74B DUP5 PUSH2 0x23D6 JUMP JUMPDEST DUP11 PUSH2 0x2328 JUMP JUMPDEST MSTORE ADD AND PUSH2 0x947 JUMP JUMPDEST POP POP PUSH1 0x20 DUP7 DUP9 PUSH2 0x9C6 DUP9 DUP7 MLOAD SWAP6 DUP7 SWAP5 DUP6 SWAP5 PUSH4 0xF3022C9 PUSH1 0xE2 SHL DUP7 MSTORE PUSH1 0x4 DUP7 ADD PUSH2 0x250F JUMP JUMPDEST SUB DUP2 ADDRESS GAS STATICCALL SWAP1 DUP2 ISZERO PUSH2 0xA23 JUMPI PUSH2 0x9EA SWAP2 PUSH1 0x1 SWAP2 PUSH1 0x0 SWAP2 PUSH2 0x9F4 JUMPI JUMPDEST POP ISZERO ISZERO EQ PUSH2 0x257B JUMP JUMPDEST MLOAD PUSH1 0x1 DUP2 MSTORE PUSH1 0x20 SWAP1 RETURN JUMPDEST PUSH2 0xA16 SWAP2 POP PUSH1 0x20 RETURNDATASIZE PUSH1 0x20 GT PUSH2 0xA1C JUMPI JUMPDEST PUSH2 0xA0E DUP2 DUP4 PUSH2 0x4C0 JUMP JUMPDEST DUP2 ADD SWAP1 PUSH2 0x23E7 JUMP JUMPDEST DUP5 PUSH2 0x9E1 JUMP JUMPDEST POP RETURNDATASIZE PUSH2 0xA04 JUMP JUMPDEST PUSH2 0x2443 JUMP JUMPDEST PUSH2 0xA41 SWAP2 POP PUSH1 0x20 RETURNDATASIZE PUSH1 0x20 GT PUSH2 0xA1C JUMPI PUSH2 0xA0E DUP2 DUP4 PUSH2 0x4C0 JUMP JUMPDEST DUP16 PUSH2 0x908 JUMP JUMPDEST PUSH2 0xA60 SWAP2 POP PUSH1 0x20 RETURNDATASIZE PUSH1 0x20 GT PUSH2 0xA1C JUMPI PUSH2 0xA0E DUP2 DUP4 PUSH2 0x4C0 JUMP JUMPDEST CODESIZE PUSH2 0x7E4 JUMP JUMPDEST DUP1 PUSH2 0xA82 PUSH2 0xA7C PUSH1 0x1 SWAP4 SWAP14 SWAP5 SWAP14 SWAP12 SWAP11 SWAP7 SWAP12 PUSH2 0x234F JUMP JUMPDEST DUP14 PUSH2 0x226A JUMP JUMPDEST CALLDATALOAD PUSH2 0xA95 PUSH2 0xA8F DUP4 PUSH2 0x2362 JUMP JUMPDEST DUP14 PUSH2 0x2328 JUMP JUMPDEST MSTORE ADD SWAP10 SWAP1 SWAP10 SWAP8 SWAP3 SWAP7 SWAP8 PUSH2 0x68C JUMP JUMPDEST PUSH32 0x30644E72E131A029B85045B68181585D2833E84879B9709143E1F593F0000001 GT ISZERO PUSH2 0xACC JUMPI JUMP JUMPDEST PUSH1 0x0 DUP1 MSTORE PUSH1 0x20 PUSH1 0x0 RETURN JUMPDEST PUSH1 0x40 MLOAD SWAP2 PUSH32 0x11010D9C6E38FA7C3CF45810CF9F531F458F567048E95539963FA9711C739175 DUP4 MSTORE PUSH32 0x18CCD0277CD1B06C9D2130B73F047C28F6EE4753A037754D3822B71FAB25F4A PUSH1 0x20 DUP5 ADD MSTORE PUSH1 0x40 DUP4 ADD SWAP1 DUP2 MSTORE PUSH1 0x40 DUP4 PUSH1 0x60 DUP2 PUSH1 0x7 PUSH2 0x7CF NOT GAS ADD STATICCALL ISZERO PUSH2 0xACC JUMPI DUP2 MLOAD SWAP1 MSTORE PUSH1 0x20 DUP2 ADD MLOAD PUSH1 0x60 DUP4 ADD MSTORE PUSH1 0x40 SWAP2 PUSH1 0x80 SWAP1 PUSH1 0x6 PUSH2 0x7CF NOT GAS ADD STATICCALL ISZERO PUSH2 0xACC JUMPI JUMP JUMPDEST PUSH1 0x40 MLOAD SWAP2 PUSH32 0x198FE48D9EB27296E4D46C93838ED990CFEDDEACE4FF225688CB36B82EC42717 DUP4 MSTORE PUSH32 0x485AFCA2DAAB6776D99AA26B27C474E7529CA01B1AD0BE331A49E6C5571447B PUSH1 0x20 DUP5 ADD MSTORE PUSH1 0x40 DUP4 ADD SWAP1 DUP2 MSTORE PUSH1 0x40 DUP4 PUSH1 0x60 DUP2 PUSH1 0x7 PUSH2 0x7CF NOT GAS ADD STATICCALL ISZERO PUSH2 0xACC JUMPI DUP2 MLOAD SWAP1 MSTORE PUSH1 0x20 DUP2 ADD MLOAD PUSH1 0x60 DUP4 ADD MSTORE PUSH1 0x40 SWAP2 PUSH1 0x80 SWAP1 PUSH1 0x6 PUSH2 0x7CF NOT GAS ADD STATICCALL ISZERO PUSH2 0xACC JUMPI JUMP JUMPDEST PUSH1 0x40 MLOAD SWAP2 PUSH32 0x1F13A3FE67C7727D8A0335BC1C15FC2B764E5BD95DAF0081C34CFD8DEE47875F DUP4 MSTORE PUSH32 0x229C0A86659CF518A997BBB20276AE50B93ABA41373084E38BC70C4F6B45A0CE PUSH1 0x20 DUP5 ADD MSTORE PUSH1 0x40 DUP4 ADD SWAP1 DUP2 MSTORE PUSH1 0x40 DUP4 PUSH1 0x60 DUP2 PUSH1 0x7 PUSH2 0x7CF NOT GAS ADD STATICCALL ISZERO PUSH2 0xACC JUMPI DUP2 MLOAD SWAP1 MSTORE PUSH1 0x20 DUP2 ADD MLOAD PUSH1 0x60 DUP4 ADD MSTORE PUSH1 0x40 SWAP2 PUSH1 0x80 SWAP1 PUSH1 0x6 PUSH2 0x7CF NOT GAS ADD STATICCALL ISZERO PUSH2 0xACC JUMPI JUMP JUMPDEST PUSH1 0x40 MLOAD SWAP2 PUSH32 0x1967416CEB3A4BEB17E6AD4B4CDB175DA60C26FCBB8086D1C45588BE6CD6EAE4 DUP4 MSTORE PUSH32 0x1A22199E40346C8B01F07FA3BE60CB695A950B9B3F023AD02D70A212DC4A7B41 PUSH1 0x20 DUP5 ADD MSTORE PUSH1 0x40 DUP4 ADD SWAP1 DUP2 MSTORE PUSH1 0x40 DUP4 PUSH1 0x60 DUP2 PUSH1 0x7 PUSH2 0x7CF NOT GAS ADD STATICCALL ISZERO PUSH2 0xACC JUMPI DUP2 MLOAD SWAP1 MSTORE PUSH1 0x20 DUP2 ADD MLOAD PUSH1 0x60 DUP4 ADD MSTORE PUSH1 0x40 SWAP2 PUSH1 0x80 SWAP1 PUSH1 0x6 PUSH2 0x7CF NOT GAS ADD STATICCALL ISZERO PUSH2 0xACC JUMPI JUMP JUMPDEST PUSH1 0x40 MLOAD SWAP2 PUSH32 0x1CD400AFADCE3D551AA765BFD507B4E32AD1449FACDF798F29FD1329FCCB1350 DUP4 MSTORE PUSH32 0x15E80F197E156BFC612BE47582FE9963F9D0396B4A4C545AAEA48EB0D7330B87 PUSH1 0x20 DUP5 ADD MSTORE PUSH1 0x40 DUP4 ADD SWAP1 DUP2 MSTORE PUSH1 0x40 DUP4 PUSH1 0x60 DUP2 PUSH1 0x7 PUSH2 0x7CF NOT GAS ADD STATICCALL ISZERO PUSH2 0xACC JUMPI DUP2 MLOAD SWAP1 MSTORE PUSH1 0x20 DUP2 ADD MLOAD PUSH1 0x60 DUP4 ADD MSTORE PUSH1 0x40 SWAP2 PUSH1 0x80 SWAP1 PUSH1 0x6 PUSH2 0x7CF NOT GAS ADD STATICCALL ISZERO PUSH2 0xACC JUMPI JUMP JUMPDEST PUSH1 0x40 MLOAD SWAP2 PUSH32 0x23DE5E0CF0D193985BB1F5E4EAF05A3D1411E932C6385FB906A116CB7AFAB8C9 DUP4 MSTORE PUSH32 0xA337E439F9058771097F19F2AB0FD3E298E38DD432EE2206D239ECDB9AB15FB PUSH1 0x20 DUP5 ADD MSTORE PUSH1 0x40 DUP4 ADD SWAP1 DUP2 MSTORE PUSH1 0x40 DUP4 PUSH1 0x60 DUP2 PUSH1 0x7 PUSH2 0x7CF NOT GAS ADD STATICCALL ISZERO PUSH2 0xACC JUMPI DUP2 MLOAD SWAP1 MSTORE PUSH1 0x20 DUP2 ADD MLOAD PUSH1 0x60 DUP4 ADD MSTORE PUSH1 0x40 SWAP2 PUSH1 0x80 SWAP1 PUSH1 0x6 PUSH2 0x7CF NOT GAS ADD STATICCALL ISZERO PUSH2 0xACC JUMPI JUMP JUMPDEST PUSH1 0x40 MLOAD SWAP2 PUSH32 0x1B2C4DC7AADD5C5615CFBEC2193C72EEC4351F6388962A398D6318EE94684B0F DUP4 MSTORE PUSH32 0x29B039E1766CCC319311E0A2418C8C6B61E2E7048C12FC038A969753D8B13F05 PUSH1 0x20 DUP5 ADD MSTORE PUSH1 0x40 DUP4 ADD SWAP1 DUP2 MSTORE PUSH1 0x40 DUP4 PUSH1 0x60 DUP2 PUSH1 0x7 PUSH2 0x7CF NOT GAS ADD STATICCALL ISZERO PUSH2 0xACC JUMPI DUP2 MLOAD SWAP1 MSTORE PUSH1 0x20 DUP2 ADD MLOAD PUSH1 0x60 DUP4 ADD MSTORE PUSH1 0x40 SWAP2 PUSH1 0x80 SWAP1 PUSH1 0x6 PUSH2 0x7CF NOT GAS ADD STATICCALL ISZERO PUSH2 0xACC JUMPI JUMP JUMPDEST PUSH1 0x40 MLOAD SWAP2 PUSH32 0x6A78A92F313FEE6DFAC403A8CA45110BA3C1D779469A93A74962FF0E51AB4D2 DUP4 MSTORE PUSH32 0x2F43FAC8C2C2DAB2041D82D998C81E664872120D19664344A4DB0E8FD293B99D PUSH1 0x20 DUP5 ADD MSTORE PUSH1 0x40 DUP4 ADD SWAP1 DUP2 MSTORE PUSH1 0x40 DUP4 PUSH1 0x60 DUP2 PUSH1 0x7 PUSH2 0x7CF NOT GAS ADD STATICCALL ISZERO PUSH2 0xACC JUMPI DUP2 MLOAD SWAP1 MSTORE PUSH1 0x20 DUP2 ADD MLOAD PUSH1 0x60 DUP4 ADD MSTORE PUSH1 0x40 SWAP2 PUSH1 0x80 SWAP1 PUSH1 0x6 PUSH2 0x7CF NOT GAS ADD STATICCALL ISZERO PUSH2 0xACC JUMPI JUMP JUMPDEST PUSH1 0x40 MLOAD SWAP2 PUSH32 0x1CB1C4A07E2108684351408498B8259E7AE34214F54DB065F7FA090EBEA6AEA DUP4 MSTORE PUSH32 0x1F9785DC9F5562990187842A69793E9BF0A33EBAC57224A593781A97DDAFE947 PUSH1 0x20 DUP5 ADD MSTORE PUSH1 0x40 DUP4 ADD SWAP1 DUP2 MSTORE PUSH1 0x40 DUP4 PUSH1 0x60 DUP2 PUSH1 0x7 PUSH2 0x7CF NOT GAS ADD STATICCALL ISZERO PUSH2 0xACC JUMPI DUP2 MLOAD SWAP1 MSTORE PUSH1 0x20 DUP2 ADD MLOAD PUSH1 0x60 DUP4 ADD MSTORE PUSH1 0x40 SWAP2 PUSH1 0x80 SWAP1 PUSH1 0x6 PUSH2 0x7CF NOT GAS ADD STATICCALL ISZERO PUSH2 0xACC JUMPI JUMP JUMPDEST PUSH1 0x40 MLOAD SWAP2 PUSH32 0x4ACDD3175587AD1DCA2B0577DCED9B765F1CCE61209905FD467EB23BF3C6EBB DUP4 MSTORE PUSH32 0x2499BA0DC99E8AF0DD56ECB56B922F5478F83803C34CDCBF9FCC994DF915341A PUSH1 0x20 DUP5 ADD MSTORE PUSH1 0x40 DUP4 ADD SWAP1 DUP2 MSTORE PUSH1 0x40 DUP4 PUSH1 0x60 DUP2 PUSH1 0x7 PUSH2 0x7CF NOT GAS ADD STATICCALL ISZERO PUSH2 0xACC JUMPI DUP2 MLOAD SWAP1 MSTORE PUSH1 0x20 DUP2 ADD MLOAD PUSH1 0x60 DUP4 ADD MSTORE PUSH1 0x40 SWAP2 PUSH1 0x80 SWAP1 PUSH1 0x6 PUSH2 0x7CF NOT GAS ADD STATICCALL ISZERO PUSH2 0xACC JUMPI JUMP JUMPDEST PUSH1 0x40 MLOAD SWAP2 PUSH32 0x711F2A71684B202A430E7DBF85431D15A2BB54EE16EEEBD496EAB3994074B16 DUP4 MSTORE PUSH32 0x14AE7C51CCE8D46B87997A393BA565285227D1E639E7FA32BFDBDD377902A308 PUSH1 0x20 DUP5 ADD MSTORE PUSH1 0x40 DUP4 ADD SWAP1 DUP2 MSTORE PUSH1 0x40 DUP4 PUSH1 0x60 DUP2 PUSH1 0x7 PUSH2 0x7CF NOT GAS ADD STATICCALL ISZERO PUSH2 0xACC JUMPI DUP2 MLOAD SWAP1 MSTORE PUSH1 0x20 DUP2 ADD MLOAD PUSH1 0x60 DUP4 ADD MSTORE PUSH1 0x40 SWAP2 PUSH1 0x80 SWAP1 PUSH1 0x6 PUSH2 0x7CF NOT GAS ADD STATICCALL ISZERO PUSH2 0xACC JUMPI JUMP JUMPDEST PUSH1 0x40 MLOAD SWAP2 PUSH32 0x23330A0AE1259ACE2F28AD040BF2E0C77504A413C2FF82638CB4B3CF647F3CDA DUP4 MSTORE PUSH32 0x27BCEEB635DF7332F9618D74565686CA6EC61AA24F0ACDB09CFF7E3A215B9BFA PUSH1 0x20 DUP5 ADD MSTORE PUSH1 0x40 DUP4 ADD SWAP1 DUP2 MSTORE PUSH1 0x40 DUP4 PUSH1 0x60 DUP2 PUSH1 0x7 PUSH2 0x7CF NOT GAS ADD STATICCALL ISZERO PUSH2 0xACC JUMPI DUP2 MLOAD SWAP1 MSTORE PUSH1 0x20 DUP2 ADD MLOAD PUSH1 0x60 DUP4 ADD MSTORE PUSH1 0x40 SWAP2 PUSH1 0x80 SWAP1 PUSH1 0x6 PUSH2 0x7CF NOT GAS ADD STATICCALL ISZERO PUSH2 0xACC JUMPI JUMP JUMPDEST PUSH1 0x40 MLOAD SWAP2 PUSH32 0x20303FCE6392875C09CA31B2894778446424475FEC4E23B20AF0CD4AAA6487FE DUP4 MSTORE PUSH32 0x2568F820C814C94A40744B6F171FCD34CBE98B3A46299583FB4FB3634FCFB506 PUSH1 0x20 DUP5 ADD MSTORE PUSH1 0x40 DUP4 ADD SWAP1 DUP2 MSTORE PUSH1 0x40 DUP4 PUSH1 0x60 DUP2 PUSH1 0x7 PUSH2 0x7CF NOT GAS ADD STATICCALL ISZERO PUSH2 0xACC JUMPI DUP2 MLOAD SWAP1 MSTORE PUSH1 0x20 DUP2 ADD MLOAD PUSH1 0x60 DUP4 ADD MSTORE PUSH1 0x40 SWAP2 PUSH1 0x80 SWAP1 PUSH1 0x6 PUSH2 0x7CF NOT GAS ADD STATICCALL ISZERO PUSH2 0xACC JUMPI JUMP JUMPDEST PUSH1 0x40 MLOAD SWAP2 PUSH32 0x287947BA205E2BA1D5174B136E93848E50F104B5C802BDF0C3C62088CC223561 DUP4 MSTORE PUSH32 0x17C233346C6B4AAF4ACCF74881746FF097EDF954AA4318E6AC89AEFA4EDEF275 PUSH1 0x20 DUP5 ADD MSTORE PUSH1 0x40 DUP4 ADD SWAP1 DUP2 MSTORE PUSH1 0x40 DUP4 PUSH1 0x60 DUP2 PUSH1 0x7 PUSH2 0x7CF NOT GAS ADD STATICCALL ISZERO PUSH2 0xACC JUMPI DUP2 MLOAD SWAP1 MSTORE PUSH1 0x20 DUP2 ADD MLOAD PUSH1 0x60 DUP4 ADD MSTORE PUSH1 0x40 SWAP2 PUSH1 0x80 SWAP1 PUSH1 0x6 PUSH2 0x7CF NOT GAS ADD STATICCALL ISZERO PUSH2 0xACC JUMPI JUMP JUMPDEST PUSH1 0x40 MLOAD SWAP2 PUSH32 0xE650541E9D2EC1D43807215375199F5A5EE2EBF4A5D3ADF31FE93AAE2F37965 DUP4 MSTORE PUSH32 0x15FAD1251CB10082AD4E2528EA8CA77AA738EC5E86BB7B3ADFFA3E59C46B9E13 PUSH1 0x20 DUP5 ADD MSTORE PUSH1 0x40 DUP4 ADD SWAP1 DUP2 MSTORE PUSH1 0x40 DUP4 PUSH1 0x60 DUP2 PUSH1 0x7 PUSH2 0x7CF NOT GAS ADD STATICCALL ISZERO PUSH2 0xACC JUMPI DUP2 MLOAD SWAP1 MSTORE PUSH1 0x20 DUP2 ADD MLOAD PUSH1 0x60 DUP4 ADD MSTORE PUSH1 0x40 SWAP2 PUSH1 0x80 SWAP1 PUSH1 0x6 PUSH2 0x7CF NOT GAS ADD STATICCALL ISZERO PUSH2 0xACC JUMPI JUMP JUMPDEST PUSH1 0x40 MLOAD SWAP2 PUSH32 0x15590DF5329BF6E99E6408770870D5EF1874C610416CD1D761B0C22CD0EE62D4 DUP4 MSTORE PUSH32 0x1778B105A18C2910177A284EFF8C0455B04BF1EB6610321EC03861DBA6F5062B PUSH1 0x20 DUP5 ADD MSTORE PUSH1 0x40 DUP4 ADD SWAP1 DUP2 MSTORE PUSH1 0x40 DUP4 PUSH1 0x60 DUP2 PUSH1 0x7 PUSH2 0x7CF NOT GAS ADD STATICCALL ISZERO PUSH2 0xACC JUMPI DUP2 MLOAD SWAP1 MSTORE PUSH1 0x20 DUP2 ADD MLOAD PUSH1 0x60 DUP4 ADD MSTORE PUSH1 0x40 SWAP2 PUSH1 0x80 SWAP1 PUSH1 0x6 PUSH2 0x7CF NOT GAS ADD STATICCALL ISZERO PUSH2 0xACC JUMPI JUMP JUMPDEST PUSH1 0x40 MLOAD SWAP2 PUSH32 0x17BF4D437010BEE75009E5E1142DBEB4FD8E1BCFAA7D622083608786E0DC516E DUP4 MSTORE PUSH32 0x24FFF15B6DF784700F53380202335D1B730C4F2785F3EBF9C9C04E5C5A9FE2B1 PUSH1 0x20 DUP5 ADD MSTORE PUSH1 0x40 DUP4 ADD SWAP1 DUP2 MSTORE PUSH1 0x40 DUP4 PUSH1 0x60 DUP2 PUSH1 0x7 PUSH2 0x7CF NOT GAS ADD STATICCALL ISZERO PUSH2 0xACC JUMPI DUP2 MLOAD SWAP1 MSTORE PUSH1 0x20 DUP2 ADD MLOAD PUSH1 0x60 DUP4 ADD MSTORE PUSH1 0x40 SWAP2 PUSH1 0x80 SWAP1 PUSH1 0x6 PUSH2 0x7CF NOT GAS ADD STATICCALL ISZERO PUSH2 0xACC JUMPI JUMP JUMPDEST PUSH1 0x40 MLOAD SWAP2 PUSH32 0x8E006F7D5FE8F935D858885B8EBFACA99A13267E381F23108F134C17D78D39E DUP4 MSTORE PUSH32 0x21892ACCEB9BA86650E4216FF30C077F2261C023E240D95FFB7346AC02513F82 PUSH1 0x20 DUP5 ADD MSTORE PUSH1 0x40 DUP4 ADD SWAP1 DUP2 MSTORE PUSH1 0x40 DUP4 PUSH1 0x60 DUP2 PUSH1 0x7 PUSH2 0x7CF NOT GAS ADD STATICCALL ISZERO PUSH2 0xACC JUMPI DUP2 MLOAD SWAP1 MSTORE PUSH1 0x20 DUP2 ADD MLOAD PUSH1 0x60 DUP4 ADD MSTORE PUSH1 0x40 SWAP2 PUSH1 0x80 SWAP1 PUSH1 0x6 PUSH2 0x7CF NOT GAS ADD STATICCALL ISZERO PUSH2 0xACC JUMPI JUMP JUMPDEST PUSH1 0x40 MLOAD SWAP2 PUSH32 0x263A958DC60569351EC7B99C5B144788BFEC258CBA37987E5ABBBE6C34024F83 DUP4 MSTORE PUSH32 0x63F51092A1138E56509C3312CCC8601FEB633646E8BC55B2C1808FFD258799D PUSH1 0x20 DUP5 ADD MSTORE PUSH1 0x40 DUP4 ADD SWAP1 DUP2 MSTORE PUSH1 0x40 DUP4 PUSH1 0x60 DUP2 PUSH1 0x7 PUSH2 0x7CF NOT GAS ADD STATICCALL ISZERO PUSH2 0xACC JUMPI DUP2 MLOAD SWAP1 MSTORE PUSH1 0x20 DUP2 ADD MLOAD PUSH1 0x60 DUP4 ADD MSTORE PUSH1 0x40 SWAP2 PUSH1 0x80 SWAP1 PUSH1 0x6 PUSH2 0x7CF NOT GAS ADD STATICCALL ISZERO PUSH2 0xACC JUMPI JUMP JUMPDEST PUSH1 0x40 MLOAD SWAP2 PUSH32 0x1CE127BC75A2766C47F2AAED7E153731DF98B92A0F983C912727C4A034078F7E DUP4 MSTORE PUSH32 0x1BDAB421C58A7FDA6A41FB161C294B8C5FFAF7E2BA6FBC71CFC852BFEB10D867 PUSH1 0x20 DUP5 ADD MSTORE PUSH1 0x40 DUP4 ADD SWAP1 DUP2 MSTORE PUSH1 0x40 DUP4 PUSH1 0x60 DUP2 PUSH1 0x7 PUSH2 0x7CF NOT GAS ADD STATICCALL ISZERO PUSH2 0xACC JUMPI DUP2 MLOAD SWAP1 MSTORE PUSH1 0x20 DUP2 ADD MLOAD PUSH1 0x60 DUP4 ADD MSTORE PUSH1 0x40 SWAP2 PUSH1 0x80 SWAP1 PUSH1 0x6 PUSH2 0x7CF NOT GAS ADD STATICCALL ISZERO PUSH2 0xACC JUMPI JUMP JUMPDEST PUSH1 0x40 MLOAD SWAP2 PUSH32 0x185654525DF54E91ACC61C25647550698884A5F90A363D8DCE3C73685837A239 DUP4 MSTORE PUSH32 0x16070596F4D1AE539BB992A236F3C9FE1FEBE33A7F0DABEA87E6EA66CD76F47B PUSH1 0x20 DUP5 ADD MSTORE PUSH1 0x40 DUP4 ADD SWAP1 DUP2 MSTORE PUSH1 0x40 DUP4 PUSH1 0x60 DUP2 PUSH1 0x7 PUSH2 0x7CF NOT GAS ADD STATICCALL ISZERO PUSH2 0xACC JUMPI DUP2 MLOAD SWAP1 MSTORE PUSH1 0x20 DUP2 ADD MLOAD PUSH1 0x60 DUP4 ADD MSTORE PUSH1 0x40 SWAP2 PUSH1 0x80 SWAP1 PUSH1 0x6 PUSH2 0x7CF NOT GAS ADD STATICCALL ISZERO PUSH2 0xACC JUMPI JUMP JUMPDEST PUSH1 0x40 MLOAD SWAP2 PUSH32 0x170434E55AF68CF14ABA84D5A6201BF4459908F4272ED31ED74647595F8A5A5 DUP4 MSTORE PUSH32 0x1E7CE3133949EA40A0441E3B0767E17D48A192D94752FDA196BCD9CF55BA8D24 PUSH1 0x20 DUP5 ADD MSTORE PUSH1 0x40 DUP4 ADD SWAP1 DUP2 MSTORE PUSH1 0x40 DUP4 PUSH1 0x60 DUP2 PUSH1 0x7 PUSH2 0x7CF NOT GAS ADD STATICCALL ISZERO PUSH2 0xACC JUMPI DUP2 MLOAD SWAP1 MSTORE PUSH1 0x20 DUP2 ADD MLOAD PUSH1 0x60 DUP4 ADD MSTORE PUSH1 0x40 SWAP2 PUSH1 0x80 SWAP1 PUSH1 0x6 PUSH2 0x7CF NOT GAS ADD STATICCALL ISZERO PUSH2 0xACC JUMPI JUMP JUMPDEST PUSH1 0x40 MLOAD SWAP2 PUSH31 0x2B0E212E9F118C89478D3FDF9D77C0F9941760D4217EF45DFC2DAEDAF7EDC4 DUP4 MSTORE PUSH32 0x50090D0E9F95D287260387B80C5126A7E391A9638CC98E5AE9FFC86F3E72C10 PUSH1 0x20 DUP5 ADD MSTORE PUSH1 0x40 DUP4 ADD SWAP1 DUP2 MSTORE PUSH1 0x40 DUP4 PUSH1 0x60 DUP2 PUSH1 0x7 PUSH2 0x7CF NOT GAS ADD STATICCALL ISZERO PUSH2 0xACC JUMPI DUP2 MLOAD SWAP1 MSTORE PUSH1 0x20 DUP2 ADD MLOAD PUSH1 0x60 DUP4 ADD MSTORE PUSH1 0x40 SWAP2 PUSH1 0x80 SWAP1 PUSH1 0x6 PUSH2 0x7CF NOT GAS ADD STATICCALL ISZERO PUSH2 0xACC JUMPI JUMP JUMPDEST PUSH1 0x40 MLOAD SWAP2 PUSH32 0x11B9321B72AAD9B82450E03336453E13D5688D3180A64139C73619B8F18CEE6C DUP4 MSTORE PUSH32 0x8D574DFA32E40352ABACA79905AFEA14F0C25F650076B9DFB8B3B9CE670B802 PUSH1 0x20 DUP5 ADD MSTORE PUSH1 0x40 DUP4 ADD SWAP1 DUP2 MSTORE PUSH1 0x40 DUP4 PUSH1 0x60 DUP2 PUSH1 0x7 PUSH2 0x7CF NOT GAS ADD STATICCALL ISZERO PUSH2 0xACC JUMPI DUP2 MLOAD SWAP1 MSTORE PUSH1 0x20 DUP2 ADD MLOAD PUSH1 0x60 DUP4 ADD MSTORE PUSH1 0x40 SWAP2 PUSH1 0x80 SWAP1 PUSH1 0x6 PUSH2 0x7CF NOT GAS ADD STATICCALL ISZERO PUSH2 0xACC JUMPI JUMP JUMPDEST PUSH1 0x40 MLOAD SWAP2 PUSH32 0x2EAE40C0AA87FFBB66BC10056E07C74A03D40266E0FFFC1145D1A0C108BCFDDF DUP4 MSTORE PUSH32 0x1FD345FA97BA4246A0E5BDB19E7702B85F039FDFB7108BB91DA02B46863378EA PUSH1 0x20 DUP5 ADD MSTORE PUSH1 0x40 DUP4 ADD SWAP1 DUP2 MSTORE PUSH1 0x40 DUP4 PUSH1 0x60 DUP2 PUSH1 0x7 PUSH2 0x7CF NOT GAS ADD STATICCALL ISZERO PUSH2 0xACC JUMPI DUP2 MLOAD SWAP1 MSTORE PUSH1 0x20 DUP2 ADD MLOAD PUSH1 0x60 DUP4 ADD MSTORE PUSH1 0x40 SWAP2 PUSH1 0x80 SWAP1 PUSH1 0x6 PUSH2 0x7CF NOT GAS ADD STATICCALL ISZERO PUSH2 0xACC JUMPI JUMP JUMPDEST PUSH1 0x40 MLOAD SWAP2 PUSH32 0x7182515694D14480866446E299FE8EF8E526868062365EF6F22717BB2773734 DUP4 MSTORE PUSH32 0xC8545960481B22A260411AAF88E79FBEDA4915C83486BE1B7182733D41A8C96 PUSH1 0x20 DUP5 ADD MSTORE PUSH1 0x40 DUP4 ADD SWAP1 DUP2 MSTORE PUSH1 0x40 DUP4 PUSH1 0x60 DUP2 PUSH1 0x7 PUSH2 0x7CF NOT GAS ADD STATICCALL ISZERO PUSH2 0xACC JUMPI DUP2 MLOAD SWAP1 MSTORE PUSH1 0x20 DUP2 ADD MLOAD PUSH1 0x60 DUP4 ADD MSTORE PUSH1 0x40 SWAP2 PUSH1 0x80 SWAP1 PUSH1 0x6 PUSH2 0x7CF NOT GAS ADD STATICCALL ISZERO PUSH2 0xACC JUMPI JUMP JUMPDEST PUSH1 0x40 MLOAD SWAP2 PUSH32 0xB4F5D9DF420FDAE60D9E119F9B4CC27C10ED0778706E78A33D529A28BEDACEF DUP4 MSTORE PUSH32 0x14743A7006B2405669E1A1A5E67535DA2DA0F6CA8CF96E0B70463EAAAE6C3508 PUSH1 0x20 DUP5 ADD MSTORE PUSH1 0x40 DUP4 ADD SWAP1 DUP2 MSTORE PUSH1 0x40 DUP4 PUSH1 0x60 DUP2 PUSH1 0x7 PUSH2 0x7CF NOT GAS ADD STATICCALL ISZERO PUSH2 0xACC JUMPI DUP2 MLOAD SWAP1 MSTORE PUSH1 0x20 DUP2 ADD MLOAD PUSH1 0x60 DUP4 ADD MSTORE PUSH1 0x40 SWAP2 PUSH1 0x80 SWAP1 PUSH1 0x6 PUSH2 0x7CF NOT GAS ADD STATICCALL ISZERO PUSH2 0xACC JUMPI JUMP JUMPDEST PUSH1 0x40 MLOAD SWAP2 PUSH32 0x1CD803E77E85858819BFF62686255B41DF102895BC8E78E49D09557D384E3A1F DUP4 MSTORE PUSH32 0x1E3121D260C6D9F91FF59435159F1E9DB0FC35AD97CFDA64194A2BC051E74A89 PUSH1 0x20 DUP5 ADD MSTORE PUSH1 0x40 DUP4 ADD SWAP1 DUP2 MSTORE PUSH1 0x40 DUP4 PUSH1 0x60 DUP2 PUSH1 0x7 PUSH2 0x7CF NOT GAS ADD STATICCALL ISZERO PUSH2 0xACC JUMPI DUP2 MLOAD SWAP1 MSTORE PUSH1 0x20 DUP2 ADD MLOAD PUSH1 0x60 DUP4 ADD MSTORE PUSH1 0x40 SWAP2 PUSH1 0x80 SWAP1 PUSH1 0x6 PUSH2 0x7CF NOT GAS ADD STATICCALL ISZERO PUSH2 0xACC JUMPI JUMP JUMPDEST PUSH1 0x40 MLOAD SWAP2 PUSH32 0x488F90B11633501D63CBA615B9FADFF16E17E62D9AE5A63042B4EC05D851006 DUP4 MSTORE PUSH32 0x12AEE098B3466C531DA162E87E2354C5EAFE265E00B2180968CE9CE450BD258F PUSH1 0x20 DUP5 ADD MSTORE PUSH1 0x40 DUP4 ADD SWAP1 DUP2 MSTORE PUSH1 0x40 DUP4 PUSH1 0x60 DUP2 PUSH1 0x7 PUSH2 0x7CF NOT GAS ADD STATICCALL ISZERO PUSH2 0xACC JUMPI DUP2 MLOAD SWAP1 MSTORE PUSH1 0x20 DUP2 ADD MLOAD PUSH1 0x60 DUP4 ADD MSTORE PUSH1 0x40 SWAP2 PUSH1 0x80 SWAP1 PUSH1 0x6 PUSH2 0x7CF NOT GAS ADD STATICCALL ISZERO PUSH2 0xACC JUMPI JUMP JUMPDEST PUSH1 0x40 MLOAD SWAP2 PUSH31 0x4DA33FA9998640D59F84629A8D0DE5CF7F211BCBEA72CBAFFA0C92C5BB3D62 DUP4 MSTORE PUSH32 0xF5203253AC1C168418A5708FC65F53E2EFC8F599A6CB6943D8BF72318DDE264 PUSH1 0x20 DUP5 ADD MSTORE PUSH1 0x40 DUP4 ADD SWAP1 DUP2 MSTORE PUSH1 0x40 DUP4 PUSH1 0x60 DUP2 PUSH1 0x7 PUSH2 0x7CF NOT GAS ADD STATICCALL ISZERO PUSH2 0xACC JUMPI DUP2 MLOAD SWAP1 MSTORE PUSH1 0x20 DUP2 ADD MLOAD PUSH1 0x60 DUP4 ADD MSTORE PUSH1 0x40 SWAP2 PUSH1 0x80 SWAP1 PUSH1 0x6 PUSH2 0x7CF NOT GAS ADD STATICCALL ISZERO PUSH2 0xACC JUMPI JUMP JUMPDEST PUSH1 0x40 MLOAD SWAP2 PUSH32 0x2FB25DCC3DD96E6E137261213F9A05C4D710E63E10EEA32E9B06436BC4053E1D DUP4 MSTORE PUSH32 0xB260D90F09A1CCF7A42BAA2113982AF1DF5D1D7290527F3720671FBA819892C PUSH1 0x20 DUP5 ADD MSTORE PUSH1 0x40 DUP4 ADD SWAP1 DUP2 MSTORE PUSH1 0x40 DUP4 PUSH1 0x60 DUP2 PUSH1 0x7 PUSH2 0x7CF NOT GAS ADD STATICCALL ISZERO PUSH2 0xACC JUMPI DUP2 MLOAD SWAP1 MSTORE PUSH1 0x20 DUP2 ADD MLOAD PUSH1 0x60 DUP4 ADD MSTORE PUSH1 0x40 SWAP2 PUSH1 0x80 SWAP1 PUSH1 0x6 PUSH2 0x7CF NOT GAS ADD STATICCALL ISZERO PUSH2 0xACC JUMPI JUMP JUMPDEST PUSH1 0x40 MLOAD SWAP2 PUSH32 0xC9B526A00BDBD1E7031F3AAE102DC8DDC653A153156F6426FFC7545BF88EC7E DUP4 MSTORE PUSH32 0x48DACC60FFC2BD58B94BC051329FA03E919AA4FF1BC74CFDFD5994A3A293C10 PUSH1 0x20 DUP5 ADD MSTORE PUSH1 0x40 DUP4 ADD SWAP1 DUP2 MSTORE PUSH1 0x40 DUP4 PUSH1 0x60 DUP2 PUSH1 0x7 PUSH2 0x7CF NOT GAS ADD STATICCALL ISZERO PUSH2 0xACC JUMPI DUP2 MLOAD SWAP1 MSTORE PUSH1 0x20 DUP2 ADD MLOAD PUSH1 0x60 DUP4 ADD MSTORE PUSH1 0x40 SWAP2 PUSH1 0x80 SWAP1 PUSH1 0x6 PUSH2 0x7CF NOT GAS ADD STATICCALL ISZERO PUSH2 0xACC JUMPI JUMP JUMPDEST PUSH1 0x20 SWAP3 SWAP2 PUSH1 0x0 DUP1 MLOAD PUSH1 0x20 PUSH2 0x27F0 DUP4 CODECOPY DUP2 MLOAD SWAP2 MSTORE DUP5 PUSH1 0x60 SWAP4 PUSH32 0xF8087D78FD3A13A9551931F3B55398F864454FE608E861546C590E110CE2020 PUSH1 0x80 MSTORE PUSH32 0x26728A8140B0C67542590F90E0A88CB92E3D6213CF5453FEC32E7778A785D5E8 PUSH1 0xA0 MSTORE PUSH2 0x1CC1 PUSH2 0x104 CALLDATALOAD PUSH1 0x80 PUSH2 0xAD6 JUMP JUMPDEST PUSH2 0x1CCF PUSH2 0x124 CALLDATALOAD PUSH1 0x80 PUSH2 0xB62 JUMP JUMPDEST PUSH2 0x1CDD PUSH2 0x144 CALLDATALOAD PUSH1 0x80 PUSH2 0xBEE JUMP JUMPDEST PUSH2 0x1CEB PUSH2 0x164 CALLDATALOAD PUSH1 0x80 PUSH2 0xC7A JUMP JUMPDEST PUSH2 0x1CF9 PUSH2 0x184 CALLDATALOAD PUSH1 0x80 PUSH2 0xD06 JUMP JUMPDEST PUSH2 0x1D07 PUSH2 0x1A4 CALLDATALOAD PUSH1 0x80 PUSH2 0xD92 JUMP JUMPDEST PUSH2 0x1D15 PUSH2 0x1C4 CALLDATALOAD PUSH1 0x80 PUSH2 0xE1E JUMP JUMPDEST PUSH2 0x1D23 PUSH2 0x1E4 CALLDATALOAD PUSH1 0x80 PUSH2 0xEAA JUMP JUMPDEST PUSH2 0x1D31 PUSH2 0x204 CALLDATALOAD PUSH1 0x80 PUSH2 0xF36 JUMP JUMPDEST PUSH2 0x1D3F PUSH2 0x224 CALLDATALOAD PUSH1 0x80 PUSH2 0xFC2 JUMP JUMPDEST PUSH2 0x1D4D PUSH2 0x244 CALLDATALOAD PUSH1 0x80 PUSH2 0x104E JUMP JUMPDEST PUSH2 0x1D5B PUSH2 0x264 CALLDATALOAD PUSH1 0x80 PUSH2 0x10DA JUMP JUMPDEST PUSH2 0x1D69 PUSH2 0x284 CALLDATALOAD PUSH1 0x80 PUSH2 0x1166 JUMP JUMPDEST PUSH2 0x1D77 PUSH2 0x2A4 CALLDATALOAD PUSH1 0x80 PUSH2 0x11F2 JUMP JUMPDEST PUSH2 0x1D85 PUSH2 0x2C4 CALLDATALOAD PUSH1 0x80 PUSH2 0x127E JUMP JUMPDEST PUSH2 0x1D93 PUSH2 0x2E4 CALLDATALOAD PUSH1 0x80 PUSH2 0x130A JUMP JUMPDEST PUSH2 0x1DA1 PUSH2 0x304 CALLDATALOAD PUSH1 0x80 PUSH2 0x1396 JUMP JUMPDEST PUSH2 0x1DAF PUSH2 0x324 CALLDATALOAD PUSH1 0x80 PUSH2 0x1422 JUMP JUMPDEST PUSH2 0x1DBD PUSH2 0x344 CALLDATALOAD PUSH1 0x80 PUSH2 0x14AE JUMP JUMPDEST PUSH2 0x1DCB PUSH2 0x364 CALLDATALOAD PUSH1 0x80 PUSH2 0x153A JUMP JUMPDEST PUSH2 0x1DD9 PUSH2 0x384 CALLDATALOAD PUSH1 0x80 PUSH2 0x15C6 JUMP JUMPDEST PUSH2 0x1DE7 PUSH2 0x3A4 CALLDATALOAD PUSH1 0x80 PUSH2 0x1652 JUMP JUMPDEST PUSH2 0x1DF5 PUSH2 0x3C4 CALLDATALOAD PUSH1 0x80 PUSH2 0x16DE JUMP JUMPDEST PUSH2 0x1E03 PUSH2 0x3E4 CALLDATALOAD PUSH1 0x80 PUSH2 0x1769 JUMP JUMPDEST PUSH2 0x1E11 PUSH2 0x404 CALLDATALOAD PUSH1 0x80 PUSH2 0x17F5 JUMP JUMPDEST PUSH2 0x1E1F PUSH2 0x424 CALLDATALOAD PUSH1 0x80 PUSH2 0x1881 JUMP JUMPDEST PUSH2 0x1E2D PUSH2 0x444 CALLDATALOAD PUSH1 0x80 PUSH2 0x190D JUMP JUMPDEST PUSH2 0x1E3B PUSH2 0x464 CALLDATALOAD PUSH1 0x80 PUSH2 0x1999 JUMP JUMPDEST PUSH2 0x1E49 PUSH2 0x484 CALLDATALOAD PUSH1 0x80 PUSH2 0x1A25 JUMP JUMPDEST PUSH2 0x1E57 PUSH2 0x4A4 CALLDATALOAD PUSH1 0x80 PUSH2 0x1AB1 JUMP JUMPDEST PUSH2 0x1E65 PUSH2 0x4C4 CALLDATALOAD PUSH1 0x80 PUSH2 0x1B3C JUMP JUMPDEST PUSH2 0x1E73 PUSH2 0x4E4 CALLDATALOAD PUSH1 0x80 PUSH2 0x1BC8 JUMP JUMPDEST DUP1 CALLDATALOAD PUSH2 0x100 MSTORE ADD CALLDATALOAD DUP2 SUB MOD PUSH2 0x120 MSTORE DUP1 CALLDATALOAD PUSH2 0x140 MSTORE DUP4 DUP2 ADD CALLDATALOAD PUSH2 0x160 MSTORE PUSH1 0x40 DUP2 ADD CALLDATALOAD PUSH2 0x180 MSTORE ADD CALLDATALOAD PUSH2 0x1A0 MSTORE PUSH32 0x2BCB07E090C509648460310EF6E09672B1F3A802F8F6AFCD5B560EBC8DFED400 PUSH2 0x1C0 MSTORE PUSH32 0x1C2D0B45B0EA4B29D9EC33C5BD4CA4051D136BC9C27C417D1CE735C8865F7D8D PUSH2 0x1E0 MSTORE PUSH32 0x170BEF003071274CF9C722C4A2EC8825CD56327BDB311E929BA9C19C64BD2B93 PUSH2 0x200 MSTORE PUSH32 0x4C196246635E807257B64025D1DA2F3D497F10F70CA9F9E14014D70985E1811 PUSH2 0x220 MSTORE PUSH32 0xCD90ADFE289BA215558D896EE457AF9708AF3C0C6133D61A0CD907E92782292 PUSH2 0x240 MSTORE PUSH32 0x196FAEE2853F78C04D354E9B0C2FF38F5B3E4DBC2CE3C6BC79755ACA3163C44F PUSH2 0x260 MSTORE PUSH1 0x80 MLOAD PUSH2 0x280 MSTORE PUSH1 0xA0 MLOAD PUSH2 0x2A0 MSTORE PUSH32 0x118591CD5F93DB67A738B3BD1556A7C5A116C5EDDFF9C7F9D7FB0D3297ED3D3D PUSH2 0x2C0 MSTORE PUSH32 0x10226223146E0333AC07A3026A095213B10AAB8A51A69112004A6243C070BE53 PUSH2 0x2E0 MSTORE PUSH32 0x8D524789251EA760D321556433B9DF73389CC6310AFDBE037237780F106234C PUSH2 0x300 MSTORE PUSH32 0xE50609F485F6635911CA9685614F031713AF9768D2B317DFEDC99569353B5FE PUSH2 0x320 MSTORE DUP1 CALLDATALOAD PUSH2 0x340 MSTORE ADD CALLDATALOAD PUSH2 0x360 MSTORE PUSH32 0x2EDD92A231B4A44DCAD9E185F8C7778A31A0B32A9C97BE302D7009250DCFB23E PUSH2 0x380 MSTORE PUSH32 0x1BF9AD1A92C8D86777CA41065A4FEF9225D3AE380E6055617C6C51177003D51E PUSH2 0x3A0 MSTORE PUSH32 0x7F8C3C3B1285DCBA6A185F08EEED9498DF70BFA7A69AF3FFA8D3FC24152CD68 PUSH2 0x3C0 MSTORE PUSH32 0x23CCEEDEA3653120ADF7889D4FF94A427450E8BBA3DEEDE2443C752388775FDA PUSH2 0x3E0 MSTORE PUSH1 0x20 PUSH2 0x100 PUSH2 0x300 DUP2 PUSH1 0x8 PUSH2 0x7CF NOT GAS ADD STATICCALL PUSH2 0x100 MLOAD AND SWAP1 JUMP JUMPDEST SWAP2 SWAP1 PUSH1 0x40 DUP1 MLOAD SWAP4 PUSH2 0x20EA DUP3 DUP7 PUSH2 0x4C0 JUMP JUMPDEST DUP5 SWAP2 DUP2 ADD SWAP3 DUP4 GT PUSH2 0x252 JUMPI SWAP1 JUMPDEST DUP3 DUP3 LT PUSH2 0x2103 JUMPI POP POP POP JUMP JUMPDEST DUP2 CALLDATALOAD DUP2 MSTORE PUSH1 0x20 SWAP2 DUP3 ADD SWAP2 ADD PUSH2 0x20F7 JUMP JUMPDEST PUSH1 0x40 MLOAD SWAP1 PUSH1 0x0 DUP1 DUP4 JUMPDEST PUSH1 0x2 DUP3 LT PUSH2 0x2132 JUMPI POP POP POP PUSH2 0x4F0 PUSH1 0x40 DUP4 PUSH2 0x4C0 JUMP JUMPDEST PUSH1 0x1 PUSH1 0x20 DUP2 SWAP3 DUP6 SLOAD DUP2 MSTORE ADD SWAP4 ADD SWAP2 ADD SWAP1 SWAP2 PUSH2 0x211C JUMP JUMPDEST PUSH1 0x40 MLOAD SWAP2 SWAP1 PUSH1 0x0 DUP4 JUMPDEST PUSH1 0x2 DUP3 LT PUSH2 0x2167 JUMPI POP POP POP PUSH2 0x4F0 PUSH1 0x40 DUP4 PUSH2 0x4C0 JUMP JUMPDEST PUSH1 0x1 PUSH1 0x20 DUP2 SWAP3 DUP6 SLOAD DUP2 MSTORE ADD SWAP4 ADD SWAP2 ADD SWAP1 SWAP2 PUSH2 0x2151 JUMP JUMPDEST PUSH1 0x40 MLOAD SWAP1 PUSH2 0x218A DUP3 PUSH2 0x49F JUMP JUMPDEST PUSH1 0x6 PUSH1 0x0 DUP4 JUMPDEST PUSH1 0x2 DUP3 LT PUSH2 0x219D JUMPI POP POP POP JUMP JUMPDEST PUSH1 0x2 PUSH1 0x20 PUSH1 0x1 SWAP3 PUSH2 0x21AD DUP7 PUSH2 0x2148 JUMP JUMPDEST DUP2 MSTORE ADD SWAP4 ADD SWAP2 ADD SWAP1 SWAP2 PUSH2 0x2190 JUMP JUMPDEST PUSH1 0x40 MLOAD SWAP1 PUSH2 0x21C8 DUP3 PUSH2 0x49F JUMP JUMPDEST PUSH1 0x2 PUSH1 0x0 DUP4 JUMPDEST PUSH1 0x2 DUP3 LT PUSH2 0x21DB JUMPI POP POP POP JUMP JUMPDEST PUSH1 0x2 PUSH1 0x20 PUSH1 0x1 SWAP3 PUSH2 0x21EB DUP7 PUSH2 0x2148 JUMP JUMPDEST DUP2 MSTORE ADD SWAP4 ADD SWAP2 ADD SWAP1 SWAP2 PUSH2 0x21CE JUMP JUMPDEST PUSH4 0x4E487B71 PUSH1 0xE0 SHL PUSH1 0x0 MSTORE PUSH1 0x32 PUSH1 0x4 MSTORE PUSH1 0x24 PUSH1 0x0 REVERT JUMPDEST SWAP1 SWAP2 SWAP1 PUSH1 0x0 SWAP1 PUSH1 0x1 SWAP1 DUP3 JUMPDEST DUP2 MLOAD DUP5 LT ISZERO PUSH2 0x2263 JUMPI PUSH32 0x30644E72E131A029B85045B68181585D2833E84879B9709143E1F593F0000001 DUP7 DUP2 PUSH1 0x1 SWAP4 DUP2 PUSH1 0x20 DUP10 PUSH1 0x5 SHL DUP9 ADD ADD MLOAD DUP9 MULMOD SWAP1 ADDMOD SWAP5 MULMOD SWAP4 ADD SWAP3 SWAP2 PUSH2 0x221A JUMP JUMPDEST SWAP5 POP POP POP POP JUMP JUMPDEST SWAP1 PUSH1 0x3 DUP2 LT ISZERO PUSH2 0x227B JUMPI PUSH1 0x5 SHL ADD SWAP1 JUMP JUMPDEST PUSH2 0x21F9 JUMP JUMPDEST ISZERO PUSH2 0x2287 JUMPI JUMP JUMPDEST PUSH1 0x40 MLOAD PUSH3 0x461BCD PUSH1 0xE5 SHL DUP2 MSTORE PUSH1 0x20 PUSH1 0x4 DUP3 ADD MSTORE PUSH1 0x38 PUSH1 0x24 DUP3 ADD MSTORE PUSH32 0x466F6C64696E673A20746865206E756D626572206F6620666F6C646564207374 PUSH1 0x44 DUP3 ADD MSTORE PUSH32 0x6570732073686F756C64206265206174206C6561737420320000000000000000 PUSH1 0x64 DUP3 ADD MSTORE PUSH1 0x84 SWAP1 REVERT JUMPDEST PUSH1 0x40 MLOAD SWAP1 PUSH1 0x20 PUSH2 0x2302 DUP2 DUP5 PUSH2 0x4C0 JUMP JUMPDEST CALLDATASIZE DUP4 CALLDATACOPY JUMP JUMPDEST PUSH1 0x40 MLOAD SWAP1 PUSH2 0x400 PUSH2 0x2302 DUP2 DUP5 PUSH2 0x4C0 JUMP JUMPDEST PUSH1 0x40 MLOAD SWAP1 PUSH1 0x80 PUSH2 0x2302 DUP2 DUP5 PUSH2 0x4C0 JUMP JUMPDEST SWAP1 PUSH1 0x20 DUP2 LT ISZERO PUSH2 0x227B JUMPI PUSH1 0x5 SHL ADD SWAP1 JUMP JUMPDEST PUSH4 0x4E487B71 PUSH1 0xE0 SHL PUSH1 0x0 MSTORE PUSH1 0x11 PUSH1 0x4 MSTORE PUSH1 0x24 PUSH1 0x0 REVERT JUMPDEST PUSH1 0x1 ADD SWAP1 DUP2 PUSH1 0x1 GT PUSH2 0x235D JUMPI JUMP JUMPDEST PUSH2 0x2339 JUMP JUMPDEST PUSH1 0x2 ADD SWAP1 DUP2 PUSH1 0x2 GT PUSH2 0x235D JUMPI JUMP JUMPDEST SWAP1 PUSH1 0x4 DUP2 LT ISZERO PUSH2 0x227B JUMPI PUSH1 0x5 SHL ADD SWAP1 JUMP JUMPDEST PUSH1 0xFF AND PUSH1 0x4 ADD SWAP1 PUSH1 0xFF DUP3 GT PUSH2 0x235D JUMPI JUMP JUMPDEST PUSH1 0xFF AND PUSH1 0x8 ADD SWAP1 PUSH1 0xFF DUP3 GT PUSH2 0x235D JUMPI JUMP JUMPDEST PUSH1 0xFF AND PUSH1 0xC ADD SWAP1 PUSH1 0xFF DUP3 GT PUSH2 0x235D JUMPI JUMP JUMPDEST PUSH1 0xFF AND PUSH1 0x10 ADD SWAP1 PUSH1 0xFF DUP3 GT PUSH2 0x235D JUMPI JUMP JUMPDEST PUSH1 0xFF AND PUSH1 0x18 ADD SWAP1 PUSH1 0xFF DUP3 GT PUSH2 0x235D JUMPI JUMP JUMPDEST PUSH1 0xFF AND PUSH1 0x1C ADD SWAP1 PUSH1 0xFF DUP3 GT PUSH2 0x235D JUMPI JUMP JUMPDEST SWAP1 DUP2 PUSH1 0x20 SWAP2 SUB SLT PUSH2 0x252 JUMPI MLOAD DUP1 ISZERO ISZERO DUP2 SUB PUSH2 0x252 JUMPI SWAP1 JUMP JUMPDEST PUSH1 0xC0 DUP2 ADD SWAP6 SWAP5 SWAP4 SWAP1 SWAP3 SWAP1 SWAP2 PUSH1 0x0 DUP5 JUMPDEST PUSH1 0x2 DUP3 LT PUSH2 0x242D JUMPI POP POP POP SWAP1 PUSH1 0x40 DUP4 SWAP3 DUP2 PUSH1 0xA0 SWAP6 ADD CALLDATACOPY PUSH1 0x80 DUP3 ADD MSTORE ADD MSTORE JUMP JUMPDEST PUSH1 0x20 DUP1 PUSH1 0x1 SWAP3 DUP6 MLOAD DUP2 MSTORE ADD SWAP4 ADD SWAP2 ADD SWAP1 SWAP2 PUSH2 0x240E JUMP JUMPDEST PUSH1 0x40 MLOAD RETURNDATASIZE PUSH1 0x0 DUP3 RETURNDATACOPY RETURNDATASIZE SWAP1 REVERT JUMPDEST ISZERO PUSH2 0x2456 JUMPI JUMP JUMPDEST PUSH1 0x40 MLOAD PUSH3 0x461BCD PUSH1 0xE5 SHL DUP2 MSTORE PUSH1 0x20 PUSH1 0x4 DUP3 ADD MSTORE PUSH1 0x2B PUSH1 0x24 DUP3 ADD MSTORE PUSH32 0x4B5A473A20766572696679696E672070726F6F6620666F72206368616C6C656E PUSH1 0x44 DUP3 ADD MSTORE PUSH11 0x19D94815C819985A5B1959 PUSH1 0xAA SHL PUSH1 0x64 DUP3 ADD MSTORE PUSH1 0x84 SWAP1 REVERT JUMPDEST ISZERO PUSH2 0x24B6 JUMPI JUMP JUMPDEST PUSH1 0x40 MLOAD PUSH3 0x461BCD PUSH1 0xE5 SHL DUP2 MSTORE PUSH1 0x20 PUSH1 0x4 DUP3 ADD MSTORE PUSH1 0x2B PUSH1 0x24 DUP3 ADD MSTORE PUSH32 0x4B5A473A20766572696679696E672070726F6F6620666F72206368616C6C656E PUSH1 0x44 DUP3 ADD MSTORE PUSH11 0x19D948114819985A5B1959 PUSH1 0xAA SHL PUSH1 0x64 DUP3 ADD MSTORE PUSH1 0x84 SWAP1 REVERT JUMPDEST SWAP2 SWAP5 SWAP4 SWAP3 SWAP1 SWAP5 PUSH1 0x40 PUSH2 0x500 DUP5 ADD SWAP7 DUP5 CALLDATACOPY PUSH1 0x0 PUSH1 0x40 DUP5 ADD JUMPDEST PUSH1 0x2 DUP3 LT PUSH2 0x2565 JUMPI POP POP POP SWAP1 PUSH1 0x40 PUSH2 0x100 SWAP3 PUSH1 0xC0 DUP4 ADD CALLDATACOPY ADD PUSH1 0x0 SWAP1 JUMPDEST PUSH1 0x20 DUP3 LT PUSH2 0x254F JUMPI POP POP POP JUMP JUMPDEST PUSH1 0x20 DUP1 PUSH1 0x1 SWAP3 DUP6 MLOAD DUP2 MSTORE ADD SWAP4 ADD SWAP2 ADD SWAP1 SWAP2 PUSH2 0x2542 JUMP JUMPDEST PUSH1 0x40 DUP1 DUP3 DUP2 DUP7 PUSH1 0x1 SWAP6 CALLDATACOPY ADD SWAP4 ADD SWAP2 ADD SWAP1 SWAP2 PUSH2 0x2526 JUMP JUMPDEST ISZERO PUSH2 0x2582 JUMPI JUMP JUMPDEST PUSH1 0x40 MLOAD PUSH3 0x461BCD PUSH1 0xE5 SHL DUP2 MSTORE PUSH1 0x20 PUSH1 0x4 DUP3 ADD MSTORE PUSH1 0x1F PUSH1 0x24 DUP3 ADD MSTORE PUSH32 0x47726F746831363A20766572696679696E672070726F6F66206661696C656400 PUSH1 0x44 DUP3 ADD MSTORE PUSH1 0x64 SWAP1 REVERT JUMPDEST PUSH1 0x40 SWAP1 DUP2 MLOAD PUSH2 0x25D6 DUP4 DUP3 PUSH2 0x4C0 JUMP JUMPDEST DUP3 CALLDATASIZE DUP3 CALLDATACOPY POP DUP1 MLOAD ISZERO DUP1 PUSH2 0x263F JUMPI JUMPDEST PUSH2 0x263A JUMPI PUSH1 0x20 PUSH1 0x0 DUP1 MLOAD PUSH1 0x20 PUSH2 0x27F0 DUP4 CODECOPY DUP2 MLOAD SWAP2 MSTORE SWAP2 PUSH2 0x2606 DUP5 MLOAD SWAP5 DUP6 PUSH2 0x4C0 JUMP JUMPDEST DUP1 MLOAD DUP5 MSTORE ADD MLOAD MOD PUSH1 0x0 DUP1 MLOAD PUSH1 0x20 PUSH2 0x27F0 DUP4 CODECOPY DUP2 MLOAD SWAP2 MSTORE SUB PUSH1 0x0 DUP1 MLOAD PUSH1 0x20 PUSH2 0x27F0 DUP4 CODECOPY DUP2 MLOAD SWAP2 MSTORE DUP2 GT PUSH2 0x235D JUMPI PUSH1 0x20 DUP3 ADD MSTORE SWAP1 JUMP JUMPDEST SWAP1 POP SWAP1 JUMP JUMPDEST POP PUSH1 0x20 DUP2 ADD MLOAD ISZERO PUSH2 0x25E4 JUMP JUMPDEST SWAP2 SWAP1 PUSH1 0x40 SWAP1 DUP2 MLOAD SWAP1 PUSH2 0x265D DUP4 DUP4 PUSH2 0x4C0 JUMP JUMPDEST DUP3 CALLDATASIZE DUP4 CALLDATACOPY DUP2 SWAP5 PUSH1 0x60 SWAP2 PUSH1 0x20 DUP6 MLOAD SWAP3 PUSH2 0x2675 DUP6 DUP6 PUSH2 0x4C0 JUMP JUMPDEST DUP5 CALLDATASIZE DUP6 CALLDATACOPY DUP1 MLOAD DUP5 MSTORE ADD MLOAD PUSH1 0x20 DUP4 ADD MSTORE DUP5 DUP3 ADD MSTORE PUSH1 0x7 PUSH2 0x7CF NOT GAS ADD STATICCALL ISZERO PUSH2 0x487 JUMPI JUMP JUMPDEST SWAP2 SWAP1 SWAP2 PUSH1 0x40 DUP1 SWAP2 PUSH1 0x80 DUP3 MLOAD SWAP2 PUSH2 0x26AE DUP5 DUP5 PUSH2 0x4C0 JUMP JUMPDEST DUP4 CALLDATASIZE DUP5 CALLDATACOPY PUSH1 0x20 DUP4 SWAP8 DUP2 DUP7 MLOAD SWAP4 PUSH2 0x26C4 DUP7 DUP7 PUSH2 0x4C0 JUMP JUMPDEST DUP1 MLOAD DUP6 MSTORE ADD MLOAD DUP3 DUP5 ADD MSTORE DUP1 MLOAD DUP7 DUP5 ADD MSTORE ADD MLOAD PUSH1 0x60 DUP3 ADD MSTORE PUSH1 0x6 PUSH2 0x7CF NOT GAS ADD STATICCALL DUP1 ISZERO PUSH2 0x487 JUMPI ISZERO PUSH2 0x26F2 JUMPI POP JUMP JUMPDEST MLOAD PUSH3 0x461BCD PUSH1 0xE5 SHL DUP2 MSTORE PUSH1 0x20 PUSH1 0x4 DUP3 ADD MSTORE PUSH1 0x17 PUSH1 0x24 DUP3 ADD MSTORE PUSH32 0x626E3235343A20706F696E7420616464206661696C6564000000000000000000 PUSH1 0x44 DUP3 ADD MSTORE PUSH1 0x64 SWAP1 REVERT JUMPDEST ISZERO PUSH2 0x273C JUMPI JUMP JUMPDEST PUSH1 0x40 MLOAD PUSH3 0x461BCD PUSH1 0xE5 SHL DUP2 MSTORE PUSH1 0x20 PUSH1 0x4 DUP3 ADD MSTORE PUSH1 0x15 PUSH1 0x24 DUP3 ADD MSTORE PUSH21 0x189B8C8D4D0E881C185A5C9A5B99C819985A5B1959 PUSH1 0x5A SHL PUSH1 0x44 DUP3 ADD MSTORE PUSH1 0x64 SWAP1 REVERT JUMPDEST PUSH1 0x80 DUP1 PUSH1 0x40 MLOAD PUSH2 0x2789 DUP3 DUP3 PUSH2 0x4C0 JUMP JUMPDEST CALLDATASIZE SWAP1 CALLDATACOPY PUSH1 0x40 MLOAD SWAP1 PUSH2 0x279A DUP2 DUP4 PUSH2 0x4C0 JUMP JUMPDEST CALLDATASIZE DUP3 CALLDATACOPY PUSH1 0x0 JUMPDEST PUSH1 0xFF DUP2 AND SWAP1 PUSH1 0x4 DUP3 LT ISZERO PUSH2 0x27E8 JUMPI DUP1 PUSH1 0x6 SHL SWAP1 PUSH2 0x3FC0 PUSH1 0xC0 DUP4 AND SWAP3 AND DUP3 SUB PUSH2 0x235D JUMPI PUSH1 0xFF SWAP3 PUSH2 0x27E0 PUSH8 0xFFFFFFFFFFFFFFFF DUP8 DUP7 PUSH1 0x1 SWAP7 AND SHR AND SWAP2 DUP7 PUSH2 0x2370 JUMP JUMPDEST MSTORE ADD AND PUSH2 0x27A0 JUMP JUMPDEST POP POP SWAP1 POP SWAP1 JUMP INVALID ADDRESS PUSH5 0x4E72E131A0 0x29 0xB8 POP GASLIMIT 0xB6 DUP2 DUP2 PC TSTORE SWAP8 DUP2 PUSH11 0x916871CA8D3C208C16D87C REVERT SELFBALANCE LOG2 PUSH5 0x6970667358 0x22 SLT KECCAK256 TSTORE 0xBF PUSH20 0x8EE6CC5A3EF90967942E1DF67C2B96591C3D1084 0xAE 0xB5 DIV MLOAD 0xB7 DUP5 0xCD 0x26 0x21 PUSH5 0x736F6C6343 STOP ADDMOD SHR STOP CALLER "},"methodIdentifiers":{"BN254_PRIME_FIELD()":"e16c8a91","BN254_SCALAR_FIELD()":"46bed3d1","check(uint256[2],uint256[2],uint256,uint256)":"9e78ccf7","evalPolyAt(uint256[],uint256)":"c1eb466c","verifyNovaProof(uint256[3],uint256[4],uint256[2],uint256[3],uint256[2],uint256[2][2],uint256[2],uint256[4],uint256[2][2])":"fc3d76fa","verifyProof(uint256[2],uint256[2][2],uint256[2],uint256[32])":"3cc08b24"}}}}}