{
  "_format": "hh-sol-artifact-1",
  "contractName": "IoTeXRewardDistributor",
  "sourceName": "contracts/DemoNovaNetIoTex.sol",
  "abi": [
    {
      "inputs": [
        {
          "internalType": "address",
          "name": "_novaDecider",
          "type": "address"
        },
        {
          "internalType": "address",
          "name": "_ioIDRegistry",
          "type": "address"
        },
        {
          "internalType": "address",
          "name": "_ioID",
          "type": "address"
        }
      ],
      "stateMutability": "nonpayable",
      "type": "constructor"
    },
    {
      "anonymous": false,
      "inputs": [
        {
          "indexed": false,
          "internalType": "address",
          "name": "deviceAddress",
          "type": "address"
        }
      ],
      "name": "DeviceAddressRecovered",
      "type": "event"
    },
    {
      "anonymous": false,
      "inputs": [
        {
          "indexed": false,
          "internalType": "uint256",
          "name": "deviceId",
          "type": "uint256"
        }
      ],
      "name": "DeviceIdFound",
      "type": "event"
    },
    {
      "anonymous": false,
      "inputs": [
        {
          "indexed": false,
          "internalType": "address",
          "name": "ownerAddress",
          "type": "address"
        }
      ],
      "name": "DeviceOwnerFound",
      "type": "event"
    },
    {
      "anonymous": false,
      "inputs": [
        {
          "indexed": true,
          "internalType": "address",
          "name": "recipient",
          "type": "address"
        },
        {
          "indexed": false,
          "internalType": "uint256",
          "name": "amount",
          "type": "uint256"
        }
      ],
      "name": "RewardSent",
      "type": "event"
    },
    {
      "anonymous": false,
      "inputs": [],
      "name": "VerificationSuccess",
      "type": "event"
    },
    {
      "inputs": [],
      "name": "getContractBalance",
      "outputs": [
        {
          "internalType": "uint256",
          "name": "",
          "type": "uint256"
        }
      ],
      "stateMutability": "view",
      "type": "function"
    },
    {
      "inputs": [],
      "name": "ioID",
      "outputs": [
        {
          "internalType": "contract IIoID",
          "name": "",
          "type": "address"
        }
      ],
      "stateMutability": "view",
      "type": "function"
    },
    {
      "inputs": [],
      "name": "ioIDRegistry",
      "outputs": [
        {
          "internalType": "contract IIoIDRegistry",
          "name": "",
          "type": "address"
        }
      ],
      "stateMutability": "view",
      "type": "function"
    },
    {
      "inputs": [],
      "name": "novaDecider",
      "outputs": [
        {
          "internalType": "contract INovaDecider",
          "name": "",
          "type": "address"
        }
      ],
      "stateMutability": "view",
      "type": "function"
    },
    {
      "inputs": [],
      "name": "owner",
      "outputs": [
        {
          "internalType": "address",
          "name": "",
          "type": "address"
        }
      ],
      "stateMutability": "view",
      "type": "function"
    },
    {
      "inputs": [
        {
          "internalType": "uint256[3]",
          "name": "i_z0_zi",
          "type": "uint256[3]"
        },
        {
          "internalType": "uint256[4]",
          "name": "U_i_cmW_U_i_cmE",
          "type": "uint256[4]"
        },
        {
          "internalType": "uint256[2]",
          "name": "u_i_cmW",
          "type": "uint256[2]"
        },
        {
          "internalType": "uint256[3]",
          "name": "cmT_r",
          "type": "uint256[3]"
        },
        {
          "internalType": "uint256[2]",
          "name": "pA",
          "type": "uint256[2]"
        },
        {
          "internalType": "uint256[2][2]",
          "name": "pB",
          "type": "uint256[2][2]"
        },
        {
          "internalType": "uint256[2]",
          "name": "pC",
          "type": "uint256[2]"
        },
        {
          "internalType": "uint256[4]",
          "name": "challenge_W_challenge_E_kzg_evals",
          "type": "uint256[4]"
        },
        {
          "internalType": "uint256[2][2]",
          "name": "kzg_proof",
          "type": "uint256[2][2]"
        },
        {
          "internalType": "bytes32",
          "name": "hash",
          "type": "bytes32"
        },
        {
          "internalType": "uint8",
          "name": "v",
          "type": "uint8"
        },
        {
          "internalType": "bytes32",
          "name": "r",
          "type": "bytes32"
        },
        {
          "internalType": "bytes32",
          "name": "s",
          "type": "bytes32"
        }
      ],
      "name": "verifyAndReward",
      "outputs": [],
      "stateMutability": "payable",
      "type": "function"
    },
    {
      "inputs": [
        {
          "internalType": "uint256[3]",
          "name": "i_z0_zi",
          "type": "uint256[3]"
        },
        {
          "internalType": "uint256[4]",
          "name": "U_i_cmW_U_i_cmE",
          "type": "uint256[4]"
        },
        {
          "internalType": "uint256[2]",
          "name": "u_i_cmW",
          "type": "uint256[2]"
        },
        {
          "internalType": "uint256[3]",
          "name": "cmT_r",
          "type": "uint256[3]"
        },
        {
          "internalType": "uint256[2]",
          "name": "pA",
          "type": "uint256[2]"
        },
        {
          "internalType": "uint256[2][2]",
          "name": "pB",
          "type": "uint256[2][2]"
        },
        {
          "internalType": "uint256[2]",
          "name": "pC",
          "type": "uint256[2]"
        },
        {
          "internalType": "uint256[4]",
          "name": "challenge_W_challenge_E_kzg_evals",
          "type": "uint256[4]"
        },
        {
          "internalType": "uint256[2][2]",
          "name": "kzg_proof",
          "type": "uint256[2][2]"
        },
        {
          "internalType": "bytes32",
          "name": "hash",
          "type": "bytes32"
        },
        {
          "internalType": "uint8",
          "name": "v",
          "type": "uint8"
        },
        {
          "internalType": "bytes32",
          "name": "r",
          "type": "bytes32"
        },
        {
          "internalType": "bytes32",
          "name": "s",
          "type": "bytes32"
        }
      ],
      "name": "verifyAndReward2",
      "outputs": [
        {
          "internalType": "bool",
          "name": "",
          "type": "bool"
        }
      ],
      "stateMutability": "payable",
      "type": "function"
    },
    {
      "inputs": [
        {
          "internalType": "uint256[3]",
          "name": "i_z0_zi",
          "type": "uint256[3]"
        },
        {
          "internalType": "uint256[4]",
          "name": "U_i_cmW_U_i_cmE",
          "type": "uint256[4]"
        },
        {
          "internalType": "uint256[2]",
          "name": "u_i_cmW",
          "type": "uint256[2]"
        },
        {
          "internalType": "uint256[3]",
          "name": "cmT_r",
          "type": "uint256[3]"
        },
        {
          "internalType": "uint256[2]",
          "name": "pA",
          "type": "uint256[2]"
        },
        {
          "internalType": "uint256[2][2]",
          "name": "pB",
          "type": "uint256[2][2]"
        },
        {
          "internalType": "uint256[2]",
          "name": "pC",
          "type": "uint256[2]"
        },
        {
          "internalType": "uint256[4]",
          "name": "challenge_W_challenge_E_kzg_evals",
          "type": "uint256[4]"
        },
        {
          "internalType": "uint256[2][2]",
          "name": "kzg_proof",
          "type": "uint256[2][2]"
        },
        {
          "internalType": "bytes32",
          "name": "hash",
          "type": "bytes32"
        },
        {
          "internalType": "uint8",
          "name": "v",
          "type": "uint8"
        },
        {
          "internalType": "bytes32",
          "name": "r",
          "type": "bytes32"
        },
        {
          "internalType": "bytes32",
          "name": "s",
          "type": "bytes32"
        }
      ],
      "name": "verifyAndReward3",
      "outputs": [
        {
          "internalType": "bool",
          "name": "",
          "type": "bool"
        }
      ],
      "stateMutability": "payable",
      "type": "function"
    },
    {
      "inputs": [
        {
          "internalType": "uint256[3]",
          "name": "i_z0_zi",
          "type": "uint256[3]"
        },
        {
          "internalType": "uint256[4]",
          "name": "U_i_cmW_U_i_cmE",
          "type": "uint256[4]"
        },
        {
          "internalType": "uint256[2]",
          "name": "u_i_cmW",
          "type": "uint256[2]"
        },
        {
          "internalType": "uint256[3]",
          "name": "cmT_r",
          "type": "uint256[3]"
        },
        {
          "internalType": "uint256[2]",
          "name": "pA",
          "type": "uint256[2]"
        },
        {
          "internalType": "uint256[2][2]",
          "name": "pB",
          "type": "uint256[2][2]"
        },
        {
          "internalType": "uint256[2]",
          "name": "pC",
          "type": "uint256[2]"
        },
        {
          "internalType": "uint256[4]",
          "name": "challenge_W_challenge_E_kzg_evals",
          "type": "uint256[4]"
        },
        {
          "internalType": "uint256[2][2]",
          "name": "kzg_proof",
          "type": "uint256[2][2]"
        },
        {
          "internalType": "bytes32",
          "name": "hash",
          "type": "bytes32"
        },
        {
          "internalType": "uint8",
          "name": "v",
          "type": "uint8"
        },
        {
          "internalType": "bytes32",
          "name": "r",
          "type": "bytes32"
        },
        {
          "internalType": "bytes32",
          "name": "s",
          "type": "bytes32"
        }
      ],
      "name": "verifyAndReward4",
      "outputs": [
        {
          "internalType": "address",
          "name": "",
          "type": "address"
        }
      ],
      "stateMutability": "payable",
      "type": "function"
    },
    {
      "inputs": [
        {
          "internalType": "uint256[3]",
          "name": "i_z0_zi",
          "type": "uint256[3]"
        },
        {
          "internalType": "uint256[4]",
          "name": "U_i_cmW_U_i_cmE",
          "type": "uint256[4]"
        },
        {
          "internalType": "uint256[2]",
          "name": "u_i_cmW",
          "type": "uint256[2]"
        },
        {
          "internalType": "uint256[3]",
          "name": "cmT_r",
          "type": "uint256[3]"
        },
        {
          "internalType": "uint256[2]",
          "name": "pA",
          "type": "uint256[2]"
        },
        {
          "internalType": "uint256[2][2]",
          "name": "pB",
          "type": "uint256[2][2]"
        },
        {
          "internalType": "uint256[2]",
          "name": "pC",
          "type": "uint256[2]"
        },
        {
          "internalType": "uint256[4]",
          "name": "challenge_W_challenge_E_kzg_evals",
          "type": "uint256[4]"
        },
        {
          "internalType": "uint256[2][2]",
          "name": "kzg_proof",
          "type": "uint256[2][2]"
        },
        {
          "internalType": "bytes32",
          "name": "hash",
          "type": "bytes32"
        },
        {
          "internalType": "uint8",
          "name": "v",
          "type": "uint8"
        },
        {
          "internalType": "bytes32",
          "name": "r",
          "type": "bytes32"
        },
        {
          "internalType": "bytes32",
          "name": "s",
          "type": "bytes32"
        }
      ],
      "name": "verifyAndReward5",
      "outputs": [
        {
          "internalType": "uint256",
          "name": "",
          "type": "uint256"
        }
      ],
      "stateMutability": "payable",
      "type": "function"
    },
    {
      "inputs": [
        {
          "internalType": "uint256[3]",
          "name": "i_z0_zi",
          "type": "uint256[3]"
        },
        {
          "internalType": "uint256[4]",
          "name": "U_i_cmW_U_i_cmE",
          "type": "uint256[4]"
        },
        {
          "internalType": "uint256[2]",
          "name": "u_i_cmW",
          "type": "uint256[2]"
        },
        {
          "internalType": "uint256[3]",
          "name": "cmT_r",
          "type": "uint256[3]"
        },
        {
          "internalType": "uint256[2]",
          "name": "pA",
          "type": "uint256[2]"
        },
        {
          "internalType": "uint256[2][2]",
          "name": "pB",
          "type": "uint256[2][2]"
        },
        {
          "internalType": "uint256[2]",
          "name": "pC",
          "type": "uint256[2]"
        },
        {
          "internalType": "uint256[4]",
          "name": "challenge_W_challenge_E_kzg_evals",
          "type": "uint256[4]"
        },
        {
          "internalType": "uint256[2][2]",
          "name": "kzg_proof",
          "type": "uint256[2][2]"
        },
        {
          "internalType": "bytes32",
          "name": "hash",
          "type": "bytes32"
        },
        {
          "internalType": "uint8",
          "name": "v",
          "type": "uint8"
        },
        {
          "internalType": "bytes32",
          "name": "r",
          "type": "bytes32"
        },
        {
          "internalType": "bytes32",
          "name": "s",
          "type": "bytes32"
        }
      ],
      "name": "verifyAndReward6",
      "outputs": [
        {
          "internalType": "address",
          "name": "",
          "type": "address"
        }
      ],
      "stateMutability": "payable",
      "type": "function"
    },
    {
      "stateMutability": "payable",
      "type": "receive"
    }
  ],
  "bytecode": "0x60803460ae57601f610cc238819003918201601f19168301916001600160401b0383118484101760b35780849260609460405283398101031260ae5760428160c9565b906057604060516020840160c9565b920160c9565b600080546001600160a01b031990811633179091556001805482166001600160a01b0395861617905560028054821693851693909317909255600380549092169216919091179055604051610be590816100dd8239f35b600080fd5b634e487b7160e01b600052604160045260246000fd5b51906001600160a01b038216820360ae5756fe608080604052600436101561001d575b50361561001b57600080fd5b005b60003560e01c9081633be5dfaf14610864575080636f9fb98a1461084857806373853c1f1461081f5780637a77762e146106475780637afc1dbd146104655780638da5cb5b1461043c57806395cc708614610413578063aa7ec76d146102ae578063c043a699146101ea578063c3b3135e146101bc5763eaa26e84146100a3573861000f565b6100ac366108a7565b989b93929a9491999590979634670de0b6b3a764000011156100cd90610a6d565b600154604051637e1ebb7d60e11b81529d6001600160a01b03909116988e9889986100fe9892939260048b016109bb565b03815a93602094fa9283156101b05761012561015894602097600091610183575b50610a21565b7fb3e1dcceef8890403a4fe86c7b460eae2a904c189ceb19137f8ee47e077c801a600080a16001600160a01b0394610b5d565b16610164811515610ab9565b600080516020610b9083398151915282604051838152a1604051908152f35b6101a39150883d8a116101a9575b61019b8183610943565b81019061097b565b3861011f565b503d610191565b6040513d6000823e3d90fd5b346101e55760003660031901126101e5576003546040516001600160a01b039091168152602090f35b600080fd5b61024460206101f8366108a7565b505050509261021b670de0b6b3a76400009b95989799969b939293341015610a6d565b60018060a01b0360015416976040519b8c9a8b998a99637e1ebb7d60e11b8b5260048b016109bb565b03915afa80156101b05761025f9160009161028f5750610a21565b60206040517fb3e1dcceef8890403a4fe86c7b460eae2a904c189ceb19137f8ee47e077c801a600080a160018152f35b6102a8915060203d6020116101a95761019b8183610943565b8261011f565b60206103096102bc366108a7565b9b94919997966102e0939e999d9493670de0b6b3a76400009c97929c341015610a6d565b60018060a01b0360015416976040519e8f9a8b998a99637e1ebb7d60e11b8b5260048b016109bb565b03915afa9384156101b05761032994610125916000916103f45750610a21565b16610335811515610ab9565b600080516020610b908339815191526020604051838152a1600254604051634965c7e160e01b81526004810192909252602090829060249082906001600160a01b03165afa9081156101b0576000916103bd575b6020827f54fdc702cd24f07b0c6343b84b51714e7c4feeb6c62183650c95cca861f87ea382604051838152a1604051908152f35b6020813d6020116103ec575b816103d660209383610943565b810103126103e8575190506020610389565b5080fd5b3d91506103c9565b61040d915060203d6020116101a95761019b8183610943565b8761011f565b346101e55760003660031901126101e5576002546040516001600160a01b039091168152602090f35b346101e55760003660031901126101e5576000546040516001600160a01b039091168152602090f35b60206104736102bc366108a7565b03915afa9384156101b05761049394610125916000916103f45750610a21565b1661049f811515610ab9565b600080516020610b908339815191526020604051838152a1600254604051634965c7e160e01b81526004810192909252602090829060249082906001600160a01b03165afa9081156101b057600091610612575b507f54fdc702cd24f07b0c6343b84b51714e7c4feeb6c62183650c95cca861f87ea36020604051838152a16003546040516331a9108f60e11b81526004810192909252602090829060249082906001600160a01b03165afa9081156101b0576000916105e3575b506001600160a01b031661056f811515610b18565b7f05c1d1aa5fabeec44c0c81dc91600d72eea899ec6deec672f886241b80ce3a196020604051838152a16000808080670de0b6b3a76400008582f1156101b0577f6177f4110771217c72937d51f3a73915f2c714a6b98507e17eea7a186136a24a6020604051670de0b6b3a76400008152a2005b610605915060203d60201161060b575b6105fd8183610943565b810190610af9565b8161055a565b503d6105f3565b906020823d60201161063f575b8161062c60209383610943565b8101031261063c575051816104f3565b80fd5b3d915061061f565b60206106556102bc366108a7565b03915afa9384156101b05761067594610125916000916103f45750610a21565b16610681811515610ab9565b600080516020610b908339815191526020604051838152a1600254604051634965c7e160e01b81526004810192909252602090829060249082906001600160a01b03165afa9081156101b0576000916107ed575b507f54fdc702cd24f07b0c6343b84b51714e7c4feeb6c62183650c95cca861f87ea36020604051838152a16003546040516331a9108f60e11b81526004810192909252602090829060249082906001600160a01b03165afa9081156101b0576000916107ce575b506001600160a01b0316610751811515610b18565b7f05c1d1aa5fabeec44c0c81dc91600d72eea899ec6deec672f886241b80ce3a196020604051838152a16000808080670de0b6b3a76400008582f1156101b057806020917f6177f4110771217c72937d51f3a73915f2c714a6b98507e17eea7a186136a24a83604051670de0b6b3a76400008152a2604051908152f35b6107e7915060203d60201161060b576105fd8183610943565b8161073c565b906020823d602011610817575b8161080760209383610943565b8101031261063c575051816106d5565b3d91506107fa565b346101e55760003660031901126101e5576001546040516001600160a01b039091168152602090f35b346101e55760003660031901126101e557602047604051908152f35b6020816102448180610875366108a7565b5050600154637e1ebb7d60e11b8d526001600160a01b03169d9a92999398949795969594939291505060048b016109bb565b6104006003198201126101e557806064116101e5576004918160e4116101e55760649180610124116101e55760e49181610184116101e55761012491806101c4116101e5576101849181610244116101e5576101c49180610284116101e5576102449181610304116101e55761028491610384116101e5576103049061038435906103a43560ff811681036101e557906103c435906103e43590565b90601f8019910116810190811067ffffffffffffffff82111761096557604052565b634e487b7160e01b600052604160045260246000fd5b908160209103126101e5575180151581036101e55790565b906000905b600282106109a557505050565b6040808281866001953701930191019091610998565b9694929099989795939161038088019a6060908937608090606089013760409060e08801376060906101208701376040906101808601376101c08401610a0091610993565b60409061024084013760809061028083013761030001610a1f91610993565b565b15610a2857565b60405162461bcd60e51b815260206004820152601f60248201527f4e6f76614465636964657220766572696669636174696f6e206661696c6564006044820152606490fd5b15610a7457565b60405162461bcd60e51b815260206004820152601a60248201527f496e73756666696369656e742072657761726420616d6f756e740000000000006044820152606490fd5b15610ac057565b60405162461bcd60e51b8152602060048201526011602482015270496e76616c6964207369676e617475726560781b6044820152606490fd5b908160209103126101e557516001600160a01b03811681036101e55790565b15610b1f57565b60405162461bcd60e51b815260206004820152601660248201527511195d9a58d9481bdddb995c881b9bdd08199bdd5b9960521b6044820152606490fd5b60209360009360ff60809460405194855216868401526040830152606082015282805260015afa156101b0576000519056feab87ce0e5c912801f43d7eda053869fabb4061dded4b6132f32341dbb166b3daa2646970667358221220f96ecac57105b42003f7799c83bea4f0abb4e046415bddfd76e448c7d354842e64736f6c634300081c0033",
  "linkReferences": {},
  "deployedLinkReferences": {}
}