{
  "_format": "hh-sol-artifact-1",
  "contractName": "KZG10Verifier",
  "sourceName": "contracts/OnchainVerifier.sol",
  "abi": [
    {
      "inputs": [],
      "name": "BN254_PRIME_FIELD",
      "outputs": [
        {
          "internalType": "uint256",
          "name": "",
          "type": "uint256"
        }
      ],
      "stateMutability": "view",
      "type": "function"
    },
    {
      "inputs": [],
      "name": "BN254_SCALAR_FIELD",
      "outputs": [
        {
          "internalType": "uint256",
          "name": "",
          "type": "uint256"
        }
      ],
      "stateMutability": "view",
      "type": "function"
    },
    {
      "inputs": [
        {
          "internalType": "uint256[2]",
          "name": "c",
          "type": "uint256[2]"
        },
        {
          "internalType": "uint256[2]",
          "name": "pi",
          "type": "uint256[2]"
        },
        {
          "internalType": "uint256",
          "name": "x",
          "type": "uint256"
        },
        {
          "internalType": "uint256",
          "name": "y",
          "type": "uint256"
        }
      ],
      "name": "check",
      "outputs": [
        {
          "internalType": "bool",
          "name": "result",
          "type": "bool"
        }
      ],
      "stateMutability": "view",
      "type": "function"
    },
    {
      "inputs": [
        {
          "internalType": "uint256[]",
          "name": "_coefficients",
          "type": "uint256[]"
        },
        {
          "internalType": "uint256",
          "name": "_index",
          "type": "uint256"
        }
      ],
      "name": "evalPolyAt",
      "outputs": [
        {
          "internalType": "uint256",
          "name": "",
          "type": "uint256"
        }
      ],
      "stateMutability": "pure",
      "type": "function"
    }
  ],
  "bytecode": "0x60806040523461027057610011610275565b7f171149d656ab2678f03a81fb4a13b38cb13c584222498b9f0824377ff4ef1c6c81527f1078a9c7358344c97989a825cd493c02502c5979785ab4102b85cab8785e1652602082015260005b6002811061025e5761006d610275565b610075610275565b7f2e85a64b176a89f651b755522402780ac5224a690c62c2a3580e2b77391eb85f81527f25a630e1b1bb847ca0e32e8d5a2c62d424e4b0d67d8295d094589efba2611485602082015281526100c8610275565b7f105e2254f385a54471f0f072b96fc88fc2a55e98e8fccbdcd5da2729f42941c781527f1478cea7a3717eed37243042378ca4d61c6d69d433ecbf2967d813cb1adc02ae6020820152602082015260026000915b600283106102285761012c610275565b610134610275565b7f213df544b48e424ce1eca450ed03a5496169eddd748b653832354ca0bcf23f6281527f2959a960103c0295e1a16715e806239ff6c59e4c0743824c117de81ae7f85c9660208201528152610187610275565b7f2dc616d796b0ecac95c855ccb68ea147ba7ae912cc510afd22db4596056d688681527f1afc010c12a7d030252d49bbe091ac357b40f62e2c1ac4c1f346b20ce3c2c5c66020820152602082015260066000915b600283106101f25760405161073a90816102ab8239f35b805160005b6002811061021457505060026020600192019201920191906101db565b8151848201556020909101906001016101f7565b805160005b6002811061024a575050600260206001920192019201919061011c565b81518482015560209091019060010161022d565b6001906020835193019281550161005d565b600080fd5b60408051919082016001600160401b0381118382101761029457604052565b634e487b7160e01b600052604160045260246000fdfe6080604052600436101561001257600080fd5b60003560e01c806346bed3d1146101b35780639e78ccf714610052578063c1eb466c1461004d5763e16c8a911461004857600080fd5b610318565b610271565b346101ae5760c03660031901126101ae5761006c366101ee565b60206100c56100bd61007d366101fb565b936100b760a435816100ae61009c6100a66084356100a183368e610341565b6104d1565b61056b565b953690610341565b916100a161037b565b90610603565b923690610341565b6101596100d06103e5565b936101386100dc610423565b91610119610180976100fb6100f08a610261565b978051895260200190565b51878901528051602001516040880152805151606088015260200190565b8051602001516080870152515160a0860152805160c086015260200190565b5160e084015280516020015161010084015280515161012084015260200190565b80516020015161014083015251516101608201526101756104bc565b92839160086107cf195a01fa80156101ac576101a8916101966001926106a0565b51604051911481529081906020820190565b0390f35bfe5b600080fd5b346101ae5760003660031901126101ae577f30644e72e131a029b85045b68181585d2833e84879b9709143e1f593f000000160805260206080f35b906004916044116101ae57565b906044916084116101ae57565b634e487b7160e01b600052604160045260246000fd5b6040810190811067ffffffffffffffff82111761023a57604052565b610208565b90601f8019910116810190811067ffffffffffffffff82111761023a57604052565b9061026f604051928361023f565b565b346101ae5760403660031901126101ae5760043567ffffffffffffffff81116101ae57366023820112156101ae5780600401359067ffffffffffffffff821161023a578160051b604051926102c9602083018561023f565b835260246020840191830101913683116101ae57602401905b828210610308576101a86102f860243586610461565b6040519081529081906020820190565b81358152602091820191016102e2565b346101ae5760003660031901126101ae5760206040516000805160206106e58339815191528152f35b91906040805193610352828661023f565b849181019283116101ae57905b82821061036b57505050565b813581526020918201910161035f565b60405190600080835b6002821061039a5750505061026f60408361023f565b6001602081928554815201930191019091610384565b60405191906000835b600282106103cf5750505061026f60408361023f565b60016020819285548152019301910190916103b9565b604051906103f28261021e565b60066000835b6002821061040557505050565b60026020600192610415866103b0565b8152019301910190916103f8565b604051906104308261021e565b60026000835b6002821061044357505050565b60026020600192610453866103b0565b815201930191019091610436565b909190600090600190825b81518410156104b5577f30644e72e131a029b85045b68181585d2833e84879b9709143e1f593f000000186816001938160208960051b880101518809900894099301929161046c565b9450505050565b6040519060206104cc818461023f565b368337565b60409081516104e0838261023f565b82368237508051158061055f575b61055a5760206000805160206106e5833981519152916105108451948561023f565b805184520151066000805160206106e5833981519152036000805160206106e5833981519152811161054457602082015290565b634e487b7160e01b600052601160045260246000fd5b905090565b506020810151156104ee565b91906040809181519061057e838361023f565b8236833781956060916020855192610596858561023f565b8436853780518452015160208301528482015260076107cf195a01fa80156101ac57156105c05750565b5162461bcd60e51b815260206004820152601860248201527f626e3235343a207363616c6172206d756c206661696c656400000000000000006044820152606490fd5b919091604080916080825191610619848461023f565b83368437602083978186519361062f868661023f565b805185520151828401528051868401520151606082015260066107cf195a01fa80156101ac571561065d5750565b5162461bcd60e51b815260206004820152601760248201527f626e3235343a20706f696e7420616464206661696c65640000000000000000006044820152606490fd5b156106a757565b60405162461bcd60e51b8152602060048201526015602482015274189b8c8d4d0e881c185a5c9a5b99c819985a5b1959605a1b6044820152606490fdfe30644e72e131a029b85045b68181585d97816a916871ca8d3c208c16d87cfd47a2646970667358221220fabe61ac4a490dafc7821a6f23ac597ef44a8fd1894c033dc6f3b36fc1bbe62264736f6c634300081c0033",
  "linkReferences": {},
  "deployedLinkReferences": {}
}