{"contracts/OnchainVerifier.sol":{"Groth16Verifier":{"abi":[{"inputs":[{"internalType":"uint256[2]","name":"_pA","type":"uint256[2]"},{"internalType":"uint256[2][2]","name":"_pB","type":"uint256[2][2]"},{"internalType":"uint256[2]","name":"_pC","type":"uint256[2]"},{"internalType":"uint256[32]","name":"_pubSignals","type":"uint256[32]"}],"name":"verifyProof","outputs":[{"internalType":"bool","name":"","type":"bool"}],"stateMutability":"view","type":"function"}],"evm":{"bytecode":{"linkReferences":{},"object":"6080806040523460155761189a908161001b8239f35b600080fdfe6080604052600436101561001257600080fd5b60003560e01c633cc08b241461002757600080fd5b34610200576105003660031901126102005761004236610205565b3660c4116102005761005336610212565b3661050411610200576101f79161040060405261007261010435610220565b61007e61012435610220565b61008a61014435610220565b61009661016435610220565b6100a261018435610220565b6100ae6101a435610220565b6100ba6101c435610220565b6100c66101e435610220565b6100d261020435610220565b6100de61022435610220565b6100ea61024435610220565b6100f661026435610220565b61010261028435610220565b61010e6102a435610220565b61011a6102c435610220565b6101266102e435610220565b61013261030435610220565b61013e61032435610220565b61014a61034435610220565b61015661036435610220565b61016261038435610220565b61016e6103a435610220565b61017a6103c435610220565b6101866103e435610220565b61019261040435610220565b61019e61042435610220565b6101aa61044435610220565b6101b661046435610220565b6101c261048435610220565b6101ce6104a435610220565b6101da6104c435610220565b6101e66104e435610220565b6101f261050435610220565b6113d1565b60005260206000f35b600080fd5b9060049160441161020057565b9060c4916101041161020057565b7f30644e72e131a029b85045b68181585d2833e84879b9709143e1f593f0000001111561024957565b6000805260206000f35b604051917f11010d9c6e38fa7c3cf45810cf9f531f458f567048e95539963fa9711c73917583527f018ccd0277cd1b06c9d2130b73f047c28f6ee4753a037754d3822b71fab25f4a60208401526040830190815260408360608160076107cf195a01fa1561024957815190526020810151606083015260409160809060066107cf195a01fa1561024957565b604051917f198fe48d9eb27296e4d46c93838ed990cfeddeace4ff225688cb36b82ec4271783527f0485afca2daab6776d99aa26b27c474e7529ca01b1ad0be331a49e6c5571447b60208401526040830190815260408360608160076107cf195a01fa1561024957815190526020810151606083015260409160809060066107cf195a01fa1561024957565b604051917f1f13a3fe67c7727d8a0335bc1c15fc2b764e5bd95daf0081c34cfd8dee47875f83527f229c0a86659cf518a997bbb20276ae50b93aba41373084e38bc70c4f6b45a0ce60208401526040830190815260408360608160076107cf195a01fa1561024957815190526020810151606083015260409160809060066107cf195a01fa1561024957565b604051917f1967416ceb3a4beb17e6ad4b4cdb175da60c26fcbb8086d1c45588be6cd6eae483527f1a22199e40346c8b01f07fa3be60cb695a950b9b3f023ad02d70a212dc4a7b4160208401526040830190815260408360608160076107cf195a01fa1561024957815190526020810151606083015260409160809060066107cf195a01fa1561024957565b604051917f1cd400afadce3d551aa765bfd507b4e32ad1449facdf798f29fd1329fccb135083527f15e80f197e156bfc612be47582fe9963f9d0396b4a4c545aaea48eb0d7330b8760208401526040830190815260408360608160076107cf195a01fa1561024957815190526020810151606083015260409160809060066107cf195a01fa1561024957565b604051917f23de5e0cf0d193985bb1f5e4eaf05a3d1411e932c6385fb906a116cb7afab8c983527f0a337e439f9058771097f19f2ab0fd3e298e38dd432ee2206d239ecdb9ab15fb60208401526040830190815260408360608160076107cf195a01fa1561024957815190526020810151606083015260409160809060066107cf195a01fa1561024957565b604051917f1b2c4dc7aadd5c5615cfbec2193c72eec4351f6388962a398d6318ee94684b0f83527f29b039e1766ccc319311e0a2418c8c6b61e2e7048c12fc038a969753d8b13f0560208401526040830190815260408360608160076107cf195a01fa1561024957815190526020810151606083015260409160809060066107cf195a01fa1561024957565b604051917f06a78a92f313fee6dfac403a8ca45110ba3c1d779469a93a74962ff0e51ab4d283527f2f43fac8c2c2dab2041d82d998c81e664872120d19664344a4db0e8fd293b99d60208401526040830190815260408360608160076107cf195a01fa1561024957815190526020810151606083015260409160809060066107cf195a01fa1561024957565b604051917f01cb1c4a07e2108684351408498b8259e7ae34214f54db065f7fa090ebea6aea83527f1f9785dc9f5562990187842a69793e9bf0a33ebac57224a593781a97ddafe94760208401526040830190815260408360608160076107cf195a01fa1561024957815190526020810151606083015260409160809060066107cf195a01fa1561024957565b604051917f04acdd3175587ad1dca2b0577dced9b765f1cce61209905fd467eb23bf3c6ebb83527f2499ba0dc99e8af0dd56ecb56b922f5478f83803c34cdcbf9fcc994df915341a60208401526040830190815260408360608160076107cf195a01fa1561024957815190526020810151606083015260409160809060066107cf195a01fa1561024957565b604051917f0711f2a71684b202a430e7dbf85431d15a2bb54ee16eeebd496eab3994074b1683527f14ae7c51cce8d46b87997a393ba565285227d1e639e7fa32bfdbdd377902a30860208401526040830190815260408360608160076107cf195a01fa1561024957815190526020810151606083015260409160809060066107cf195a01fa1561024957565b604051917f23330a0ae1259ace2f28ad040bf2e0c77504a413c2ff82638cb4b3cf647f3cda83527f27bceeb635df7332f9618d74565686ca6ec61aa24f0acdb09cff7e3a215b9bfa60208401526040830190815260408360608160076107cf195a01fa1561024957815190526020810151606083015260409160809060066107cf195a01fa1561024957565b604051917f20303fce6392875c09ca31b2894778446424475fec4e23b20af0cd4aaa6487fe83527f2568f820c814c94a40744b6f171fcd34cbe98b3a46299583fb4fb3634fcfb50660208401526040830190815260408360608160076107cf195a01fa1561024957815190526020810151606083015260409160809060066107cf195a01fa1561024957565b604051917f287947ba205e2ba1d5174b136e93848e50f104b5c802bdf0c3c62088cc22356183527f17c233346c6b4aaf4accf74881746ff097edf954aa4318e6ac89aefa4edef27560208401526040830190815260408360608160076107cf195a01fa1561024957815190526020810151606083015260409160809060066107cf195a01fa1561024957565b604051917f0e650541e9d2ec1d43807215375199f5a5ee2ebf4a5d3adf31fe93aae2f3796583527f15fad1251cb10082ad4e2528ea8ca77aa738ec5e86bb7b3adffa3e59c46b9e1360208401526040830190815260408360608160076107cf195a01fa1561024957815190526020810151606083015260409160809060066107cf195a01fa1561024957565b604051917f15590df5329bf6e99e6408770870d5ef1874c610416cd1d761b0c22cd0ee62d483527f1778b105a18c2910177a284eff8c0455b04bf1eb6610321ec03861dba6f5062b60208401526040830190815260408360608160076107cf195a01fa1561024957815190526020810151606083015260409160809060066107cf195a01fa1561024957565b604051917f17bf4d437010bee75009e5e1142dbeb4fd8e1bcfaa7d622083608786e0dc516e83527f24fff15b6df784700f53380202335d1b730c4f2785f3ebf9c9c04e5c5a9fe2b160208401526040830190815260408360608160076107cf195a01fa1561024957815190526020810151606083015260409160809060066107cf195a01fa1561024957565b604051917f08e006f7d5fe8f935d858885b8ebfaca99a13267e381f23108f134c17d78d39e83527f21892acceb9ba86650e4216ff30c077f2261c023e240d95ffb7346ac02513f8260208401526040830190815260408360608160076107cf195a01fa1561024957815190526020810151606083015260409160809060066107cf195a01fa1561024957565b604051917f263a958dc60569351ec7b99c5b144788bfec258cba37987e5abbbe6c34024f8383527f063f51092a1138e56509c3312ccc8601feb633646e8bc55b2c1808ffd258799d60208401526040830190815260408360608160076107cf195a01fa1561024957815190526020810151606083015260409160809060066107cf195a01fa1561024957565b604051917f1ce127bc75a2766c47f2aaed7e153731df98b92a0f983c912727c4a034078f7e83527f1bdab421c58a7fda6a41fb161c294b8c5ffaf7e2ba6fbc71cfc852bfeb10d86760208401526040830190815260408360608160076107cf195a01fa1561024957815190526020810151606083015260409160809060066107cf195a01fa1561024957565b604051917f185654525df54e91acc61c25647550698884a5f90a363d8dce3c73685837a23983527f16070596f4d1ae539bb992a236f3c9fe1febe33a7f0dabea87e6ea66cd76f47b60208401526040830190815260408360608160076107cf195a01fa1561024957815190526020810151606083015260409160809060066107cf195a01fa1561024957565b604051917f0170434e55af68cf14aba84d5a6201bf4459908f4272ed31ed74647595f8a5a583527f1e7ce3133949ea40a0441e3b0767e17d48a192d94752fda196bcd9cf55ba8d2460208401526040830190815260408360608160076107cf195a01fa1561024957815190526020810151606083015260409160809060066107cf195a01fa1561024957565b604051917e2b0e212e9f118c89478d3fdf9d77c0f9941760d4217ef45dfc2daedaf7edc483527f050090d0e9f95d287260387b80c5126a7e391a9638cc98e5ae9ffc86f3e72c1060208401526040830190815260408360608160076107cf195a01fa1561024957815190526020810151606083015260409160809060066107cf195a01fa1561024957565b604051917f11b9321b72aad9b82450e03336453e13d5688d3180a64139c73619b8f18cee6c83527f08d574dfa32e40352abaca79905afea14f0c25f650076b9dfb8b3b9ce670b80260208401526040830190815260408360608160076107cf195a01fa1561024957815190526020810151606083015260409160809060066107cf195a01fa1561024957565b604051917f2eae40c0aa87ffbb66bc10056e07c74a03d40266e0fffc1145d1a0c108bcfddf83527f1fd345fa97ba4246a0e5bdb19e7702b85f039fdfb7108bb91da02b46863378ea60208401526040830190815260408360608160076107cf195a01fa1561024957815190526020810151606083015260409160809060066107cf195a01fa1561024957565b604051917f07182515694d14480866446e299fe8ef8e526868062365ef6f22717bb277373483527f0c8545960481b22a260411aaf88e79fbeda4915c83486be1b7182733d41a8c9660208401526040830190815260408360608160076107cf195a01fa1561024957815190526020810151606083015260409160809060066107cf195a01fa1561024957565b604051917f0b4f5d9df420fdae60d9e119f9b4cc27c10ed0778706e78a33d529a28bedacef83527f14743a7006b2405669e1a1a5e67535da2da0f6ca8cf96e0b70463eaaae6c350860208401526040830190815260408360608160076107cf195a01fa1561024957815190526020810151606083015260409160809060066107cf195a01fa1561024957565b604051917f1cd803e77e85858819bff62686255b41df102895bc8e78e49d09557d384e3a1f83527f1e3121d260c6d9f91ff59435159f1e9db0fc35ad97cfda64194a2bc051e74a8960208401526040830190815260408360608160076107cf195a01fa1561024957815190526020810151606083015260409160809060066107cf195a01fa1561024957565b604051917f0488f90b11633501d63cba615b9fadff16e17e62d9ae5a63042b4ec05d85100683527f12aee098b3466c531da162e87e2354c5eafe265e00b2180968ce9ce450bd258f60208401526040830190815260408360608160076107cf195a01fa1561024957815190526020810151606083015260409160809060066107cf195a01fa1561024957565b604051917e4da33fa9998640d59f84629a8d0de5cf7f211bcbea72cbaffa0c92c5bb3d6283527f0f5203253ac1c168418a5708fc65f53e2efc8f599a6cb6943d8bf72318dde26460208401526040830190815260408360608160076107cf195a01fa1561024957815190526020810151606083015260409160809060066107cf195a01fa1561024957565b604051917f2fb25dcc3dd96e6e137261213f9a05c4d710e63e10eea32e9b06436bc4053e1d83527f0b260d90f09a1ccf7a42baa2113982af1df5d1d7290527f3720671fba819892c60208401526040830190815260408360608160076107cf195a01fa1561024957815190526020810151606083015260409160809060066107cf195a01fa1561024957565b604051917f0c9b526a00bdbd1e7031f3aae102dc8ddc653a153156f6426ffc7545bf88ec7e83527f048dacc60ffc2bd58b94bc051329fa03e919aa4ff1bc74cfdfd5994a3a293c1060208401526040830190815260408360608160076107cf195a01fa1561024957815190526020810151606083015260409160809060066107cf195a01fa1561024957565b907f30644e72e131a029b85045b68181585d97816a916871ca8d3c208c16d87cfd47602080937f0f8087d78fd3a13a9551931f3b55398f864454fe608e861546c590e110ce20206080527f26728a8140b0c67542590f90e0a88cb92e3d6213cf5453fec32e7778a785d5e860a05261144d610104356080610253565b61145b6101243560806102df565b61146961014435608061036b565b6114776101643560806103f7565b611485610184356080610483565b6114936101a435608061050f565b6114a16101c435608061059b565b6114af6101e4356080610627565b6114bd6102043560806106b3565b6114cb61022435608061073f565b6114d96102443560806107cb565b6114e7610264356080610857565b6114f56102843560806108e3565b6115036102a435608061096f565b6115116102c43560806109fb565b61151f6102e4356080610a87565b61152d610304356080610b13565b61153b610324356080610b9f565b611549610344356080610c2b565b611557610364356080610cb7565b611565610384356080610d43565b6115736103a4356080610dcf565b6115816103c4356080610e5b565b61158f6103e4356080610ee6565b61159d610404356080610f72565b6115ab610424356080610ffe565b6115b961044435608061108a565b6115c7610464356080611116565b6115d56104843560806111a2565b6115e36104a435608061122e565b6115f16104c43560806112b9565b6115ff6104e4356080611345565b80356101005201358103066101205260443561014052606435610160526084356101805260a4356101a0527f2bcb07e090c509648460310ef6e09672b1f3a802f8f6afcd5b560ebc8dfed4006101c0527f1c2d0b45b0ea4b29d9ec33c5bd4ca4051d136bc9c27c417d1ce735c8865f7d8d6101e0527f170bef003071274cf9c722c4a2ec8825cd56327bdb311e929ba9c19c64bd2b93610200527f04c196246635e807257b64025d1da2f3d497f10f70ca9f9e14014d70985e1811610220527f0cd90adfe289ba215558d896ee457af9708af3c0c6133d61a0cd907e92782292610240527f196faee2853f78c04d354e9b0c2ff38f5b3e4dbc2ce3c6bc79755aca3163c44f610260526080516102805260a0516102a0527f118591cd5f93db67a738b3bd1556a7c5a116c5eddff9c7f9d7fb0d3297ed3d3d6102c0527f10226223146e0333ac07a3026a095213b10aab8a51a69112004a6243c070be536102e0527f08d524789251ea760d321556433b9df73389cc6310afdbe037237780f106234c610300527f0e50609f485f6635911ca9685614f031713af9768d2b317dfedc99569353b5fe610320528035610340520135610360527f2edd92a231b4a44dcad9e185f8c7778a31a0b32a9c97be302d7009250dcfb23e610380527f1bf9ad1a92c8d86777ca41065a4fef9225d3ae380e6055617c6c51177003d51e6103a0527f07f8c3c3b1285dcba6a185f08eeed9498df70bfa7a69af3ffa8d3fc24152cd686103c0527f23cceedea3653120adf7889d4ff94a427450e8bba3deede2443c752388775fda6103e05260206101006103008160086107cf195a01fa61010051169056fea26469706673582212204c3e2d09fbcd5a62d16cc8925e5a20f09b553a3d5934cbbfc34c475d653e54dc64736f6c634300081c0033","opcodes":"PUSH1 0x80 DUP1 PUSH1 0x40 MSTORE CALLVALUE PUSH1 0x15 JUMPI PUSH2 0x189A SWAP1 DUP2 PUSH2 0x1B DUP3 CODECOPY RETURN JUMPDEST PUSH1 0x0 DUP1 REVERT INVALID PUSH1 0x80 PUSH1 0x40 MSTORE PUSH1 0x4 CALLDATASIZE LT ISZERO PUSH2 0x12 JUMPI PUSH1 0x0 DUP1 REVERT JUMPDEST PUSH1 0x0 CALLDATALOAD PUSH1 0xE0 SHR PUSH4 0x3CC08B24 EQ PUSH2 0x27 JUMPI PUSH1 0x0 DUP1 REVERT JUMPDEST CALLVALUE PUSH2 0x200 JUMPI PUSH2 0x500 CALLDATASIZE PUSH1 0x3 NOT ADD SLT PUSH2 0x200 JUMPI PUSH2 0x42 CALLDATASIZE PUSH2 0x205 JUMP JUMPDEST CALLDATASIZE PUSH1 0xC4 GT PUSH2 0x200 JUMPI PUSH2 0x53 CALLDATASIZE PUSH2 0x212 JUMP JUMPDEST CALLDATASIZE PUSH2 0x504 GT PUSH2 0x200 JUMPI PUSH2 0x1F7 SWAP2 PUSH2 0x400 PUSH1 0x40 MSTORE PUSH2 0x72 PUSH2 0x104 CALLDATALOAD PUSH2 0x220 JUMP JUMPDEST PUSH2 0x7E PUSH2 0x124 CALLDATALOAD PUSH2 0x220 JUMP JUMPDEST PUSH2 0x8A PUSH2 0x144 CALLDATALOAD PUSH2 0x220 JUMP JUMPDEST PUSH2 0x96 PUSH2 0x164 CALLDATALOAD PUSH2 0x220 JUMP JUMPDEST PUSH2 0xA2 PUSH2 0x184 CALLDATALOAD PUSH2 0x220 JUMP JUMPDEST PUSH2 0xAE PUSH2 0x1A4 CALLDATALOAD PUSH2 0x220 JUMP JUMPDEST PUSH2 0xBA PUSH2 0x1C4 CALLDATALOAD PUSH2 0x220 JUMP JUMPDEST PUSH2 0xC6 PUSH2 0x1E4 CALLDATALOAD PUSH2 0x220 JUMP JUMPDEST PUSH2 0xD2 PUSH2 0x204 CALLDATALOAD PUSH2 0x220 JUMP JUMPDEST PUSH2 0xDE PUSH2 0x224 CALLDATALOAD PUSH2 0x220 JUMP JUMPDEST PUSH2 0xEA PUSH2 0x244 CALLDATALOAD PUSH2 0x220 JUMP JUMPDEST PUSH2 0xF6 PUSH2 0x264 CALLDATALOAD PUSH2 0x220 JUMP JUMPDEST PUSH2 0x102 PUSH2 0x284 CALLDATALOAD PUSH2 0x220 JUMP JUMPDEST PUSH2 0x10E PUSH2 0x2A4 CALLDATALOAD PUSH2 0x220 JUMP JUMPDEST PUSH2 0x11A PUSH2 0x2C4 CALLDATALOAD PUSH2 0x220 JUMP JUMPDEST PUSH2 0x126 PUSH2 0x2E4 CALLDATALOAD PUSH2 0x220 JUMP JUMPDEST PUSH2 0x132 PUSH2 0x304 CALLDATALOAD PUSH2 0x220 JUMP JUMPDEST PUSH2 0x13E PUSH2 0x324 CALLDATALOAD PUSH2 0x220 JUMP JUMPDEST PUSH2 0x14A PUSH2 0x344 CALLDATALOAD PUSH2 0x220 JUMP JUMPDEST PUSH2 0x156 PUSH2 0x364 CALLDATALOAD PUSH2 0x220 JUMP JUMPDEST PUSH2 0x162 PUSH2 0x384 CALLDATALOAD PUSH2 0x220 JUMP JUMPDEST PUSH2 0x16E PUSH2 0x3A4 CALLDATALOAD PUSH2 0x220 JUMP JUMPDEST PUSH2 0x17A PUSH2 0x3C4 CALLDATALOAD PUSH2 0x220 JUMP JUMPDEST PUSH2 0x186 PUSH2 0x3E4 CALLDATALOAD PUSH2 0x220 JUMP JUMPDEST PUSH2 0x192 PUSH2 0x404 CALLDATALOAD PUSH2 0x220 JUMP JUMPDEST PUSH2 0x19E PUSH2 0x424 CALLDATALOAD PUSH2 0x220 JUMP JUMPDEST PUSH2 0x1AA PUSH2 0x444 CALLDATALOAD PUSH2 0x220 JUMP JUMPDEST PUSH2 0x1B6 PUSH2 0x464 CALLDATALOAD PUSH2 0x220 JUMP JUMPDEST PUSH2 0x1C2 PUSH2 0x484 CALLDATALOAD PUSH2 0x220 JUMP JUMPDEST PUSH2 0x1CE PUSH2 0x4A4 CALLDATALOAD PUSH2 0x220 JUMP JUMPDEST PUSH2 0x1DA PUSH2 0x4C4 CALLDATALOAD PUSH2 0x220 JUMP JUMPDEST PUSH2 0x1E6 PUSH2 0x4E4 CALLDATALOAD PUSH2 0x220 JUMP JUMPDEST PUSH2 0x1F2 PUSH2 0x504 CALLDATALOAD PUSH2 0x220 JUMP JUMPDEST PUSH2 0x13D1 JUMP JUMPDEST PUSH1 0x0 MSTORE PUSH1 0x20 PUSH1 0x0 RETURN JUMPDEST PUSH1 0x0 DUP1 REVERT JUMPDEST SWAP1 PUSH1 0x4 SWAP2 PUSH1 0x44 GT PUSH2 0x200 JUMPI JUMP JUMPDEST SWAP1 PUSH1 0xC4 SWAP2 PUSH2 0x104 GT PUSH2 0x200 JUMPI JUMP JUMPDEST PUSH32 0x30644E72E131A029B85045B68181585D2833E84879B9709143E1F593F0000001 GT ISZERO PUSH2 0x249 JUMPI JUMP JUMPDEST PUSH1 0x0 DUP1 MSTORE PUSH1 0x20 PUSH1 0x0 RETURN JUMPDEST PUSH1 0x40 MLOAD SWAP2 PUSH32 0x11010D9C6E38FA7C3CF45810CF9F531F458F567048E95539963FA9711C739175 DUP4 MSTORE PUSH32 0x18CCD0277CD1B06C9D2130B73F047C28F6EE4753A037754D3822B71FAB25F4A PUSH1 0x20 DUP5 ADD MSTORE PUSH1 0x40 DUP4 ADD SWAP1 DUP2 MSTORE PUSH1 0x40 DUP4 PUSH1 0x60 DUP2 PUSH1 0x7 PUSH2 0x7CF NOT GAS ADD STATICCALL ISZERO PUSH2 0x249 JUMPI DUP2 MLOAD SWAP1 MSTORE PUSH1 0x20 DUP2 ADD MLOAD PUSH1 0x60 DUP4 ADD MSTORE PUSH1 0x40 SWAP2 PUSH1 0x80 SWAP1 PUSH1 0x6 PUSH2 0x7CF NOT GAS ADD STATICCALL ISZERO PUSH2 0x249 JUMPI JUMP JUMPDEST PUSH1 0x40 MLOAD SWAP2 PUSH32 0x198FE48D9EB27296E4D46C93838ED990CFEDDEACE4FF225688CB36B82EC42717 DUP4 MSTORE PUSH32 0x485AFCA2DAAB6776D99AA26B27C474E7529CA01B1AD0BE331A49E6C5571447B PUSH1 0x20 DUP5 ADD MSTORE PUSH1 0x40 DUP4 ADD SWAP1 DUP2 MSTORE PUSH1 0x40 DUP4 PUSH1 0x60 DUP2 PUSH1 0x7 PUSH2 0x7CF NOT GAS ADD STATICCALL ISZERO PUSH2 0x249 JUMPI DUP2 MLOAD SWAP1 MSTORE PUSH1 0x20 DUP2 ADD MLOAD PUSH1 0x60 DUP4 ADD MSTORE PUSH1 0x40 SWAP2 PUSH1 0x80 SWAP1 PUSH1 0x6 PUSH2 0x7CF NOT GAS ADD STATICCALL ISZERO PUSH2 0x249 JUMPI JUMP JUMPDEST PUSH1 0x40 MLOAD SWAP2 PUSH32 0x1F13A3FE67C7727D8A0335BC1C15FC2B764E5BD95DAF0081C34CFD8DEE47875F DUP4 MSTORE PUSH32 0x229C0A86659CF518A997BBB20276AE50B93ABA41373084E38BC70C4F6B45A0CE PUSH1 0x20 DUP5 ADD MSTORE PUSH1 0x40 DUP4 ADD SWAP1 DUP2 MSTORE PUSH1 0x40 DUP4 PUSH1 0x60 DUP2 PUSH1 0x7 PUSH2 0x7CF NOT GAS ADD STATICCALL ISZERO PUSH2 0x249 JUMPI DUP2 MLOAD SWAP1 MSTORE PUSH1 0x20 DUP2 ADD MLOAD PUSH1 0x60 DUP4 ADD MSTORE PUSH1 0x40 SWAP2 PUSH1 0x80 SWAP1 PUSH1 0x6 PUSH2 0x7CF NOT GAS ADD STATICCALL ISZERO PUSH2 0x249 JUMPI JUMP JUMPDEST PUSH1 0x40 MLOAD SWAP2 PUSH32 0x1967416CEB3A4BEB17E6AD4B4CDB175DA60C26FCBB8086D1C45588BE6CD6EAE4 DUP4 MSTORE PUSH32 0x1A22199E40346C8B01F07FA3BE60CB695A950B9B3F023AD02D70A212DC4A7B41 PUSH1 0x20 DUP5 ADD MSTORE PUSH1 0x40 DUP4 ADD SWAP1 DUP2 MSTORE PUSH1 0x40 DUP4 PUSH1 0x60 DUP2 PUSH1 0x7 PUSH2 0x7CF NOT GAS ADD STATICCALL ISZERO PUSH2 0x249 JUMPI DUP2 MLOAD SWAP1 MSTORE PUSH1 0x20 DUP2 ADD MLOAD PUSH1 0x60 DUP4 ADD MSTORE PUSH1 0x40 SWAP2 PUSH1 0x80 SWAP1 PUSH1 0x6 PUSH2 0x7CF NOT GAS ADD STATICCALL ISZERO PUSH2 0x249 JUMPI JUMP JUMPDEST PUSH1 0x40 MLOAD SWAP2 PUSH32 0x1CD400AFADCE3D551AA765BFD507B4E32AD1449FACDF798F29FD1329FCCB1350 DUP4 MSTORE PUSH32 0x15E80F197E156BFC612BE47582FE9963F9D0396B4A4C545AAEA48EB0D7330B87 PUSH1 0x20 DUP5 ADD MSTORE PUSH1 0x40 DUP4 ADD SWAP1 DUP2 MSTORE PUSH1 0x40 DUP4 PUSH1 0x60 DUP2 PUSH1 0x7 PUSH2 0x7CF NOT GAS ADD STATICCALL ISZERO PUSH2 0x249 JUMPI DUP2 MLOAD SWAP1 MSTORE PUSH1 0x20 DUP2 ADD MLOAD PUSH1 0x60 DUP4 ADD MSTORE PUSH1 0x40 SWAP2 PUSH1 0x80 SWAP1 PUSH1 0x6 PUSH2 0x7CF NOT GAS ADD STATICCALL ISZERO PUSH2 0x249 JUMPI JUMP JUMPDEST PUSH1 0x40 MLOAD SWAP2 PUSH32 0x23DE5E0CF0D193985BB1F5E4EAF05A3D1411E932C6385FB906A116CB7AFAB8C9 DUP4 MSTORE PUSH32 0xA337E439F9058771097F19F2AB0FD3E298E38DD432EE2206D239ECDB9AB15FB PUSH1 0x20 DUP5 ADD MSTORE PUSH1 0x40 DUP4 ADD SWAP1 DUP2 MSTORE PUSH1 0x40 DUP4 PUSH1 0x60 DUP2 PUSH1 0x7 PUSH2 0x7CF NOT GAS ADD STATICCALL ISZERO PUSH2 0x249 JUMPI DUP2 MLOAD SWAP1 MSTORE PUSH1 0x20 DUP2 ADD MLOAD PUSH1 0x60 DUP4 ADD MSTORE PUSH1 0x40 SWAP2 PUSH1 0x80 SWAP1 PUSH1 0x6 PUSH2 0x7CF NOT GAS ADD STATICCALL ISZERO PUSH2 0x249 JUMPI JUMP JUMPDEST PUSH1 0x40 MLOAD SWAP2 PUSH32 0x1B2C4DC7AADD5C5615CFBEC2193C72EEC4351F6388962A398D6318EE94684B0F DUP4 MSTORE PUSH32 0x29B039E1766CCC319311E0A2418C8C6B61E2E7048C12FC038A969753D8B13F05 PUSH1 0x20 DUP5 ADD MSTORE PUSH1 0x40 DUP4 ADD SWAP1 DUP2 MSTORE PUSH1 0x40 DUP4 PUSH1 0x60 DUP2 PUSH1 0x7 PUSH2 0x7CF NOT GAS ADD STATICCALL ISZERO PUSH2 0x249 JUMPI DUP2 MLOAD SWAP1 MSTORE PUSH1 0x20 DUP2 ADD MLOAD PUSH1 0x60 DUP4 ADD MSTORE PUSH1 0x40 SWAP2 PUSH1 0x80 SWAP1 PUSH1 0x6 PUSH2 0x7CF NOT GAS ADD STATICCALL ISZERO PUSH2 0x249 JUMPI JUMP JUMPDEST PUSH1 0x40 MLOAD SWAP2 PUSH32 0x6A78A92F313FEE6DFAC403A8CA45110BA3C1D779469A93A74962FF0E51AB4D2 DUP4 MSTORE PUSH32 0x2F43FAC8C2C2DAB2041D82D998C81E664872120D19664344A4DB0E8FD293B99D PUSH1 0x20 DUP5 ADD MSTORE PUSH1 0x40 DUP4 ADD SWAP1 DUP2 MSTORE PUSH1 0x40 DUP4 PUSH1 0x60 DUP2 PUSH1 0x7 PUSH2 0x7CF NOT GAS ADD STATICCALL ISZERO PUSH2 0x249 JUMPI DUP2 MLOAD SWAP1 MSTORE PUSH1 0x20 DUP2 ADD MLOAD PUSH1 0x60 DUP4 ADD MSTORE PUSH1 0x40 SWAP2 PUSH1 0x80 SWAP1 PUSH1 0x6 PUSH2 0x7CF NOT GAS ADD STATICCALL ISZERO PUSH2 0x249 JUMPI JUMP JUMPDEST PUSH1 0x40 MLOAD SWAP2 PUSH32 0x1CB1C4A07E2108684351408498B8259E7AE34214F54DB065F7FA090EBEA6AEA DUP4 MSTORE PUSH32 0x1F9785DC9F5562990187842A69793E9BF0A33EBAC57224A593781A97DDAFE947 PUSH1 0x20 DUP5 ADD MSTORE PUSH1 0x40 DUP4 ADD SWAP1 DUP2 MSTORE PUSH1 0x40 DUP4 PUSH1 0x60 DUP2 PUSH1 0x7 PUSH2 0x7CF NOT GAS ADD STATICCALL ISZERO PUSH2 0x249 JUMPI DUP2 MLOAD SWAP1 MSTORE PUSH1 0x20 DUP2 ADD MLOAD PUSH1 0x60 DUP4 ADD MSTORE PUSH1 0x40 SWAP2 PUSH1 0x80 SWAP1 PUSH1 0x6 PUSH2 0x7CF NOT GAS ADD STATICCALL ISZERO PUSH2 0x249 JUMPI JUMP JUMPDEST PUSH1 0x40 MLOAD SWAP2 PUSH32 0x4ACDD3175587AD1DCA2B0577DCED9B765F1CCE61209905FD467EB23BF3C6EBB DUP4 MSTORE PUSH32 0x2499BA0DC99E8AF0DD56ECB56B922F5478F83803C34CDCBF9FCC994DF915341A PUSH1 0x20 DUP5 ADD MSTORE PUSH1 0x40 DUP4 ADD SWAP1 DUP2 MSTORE PUSH1 0x40 DUP4 PUSH1 0x60 DUP2 PUSH1 0x7 PUSH2 0x7CF NOT GAS ADD STATICCALL ISZERO PUSH2 0x249 JUMPI DUP2 MLOAD SWAP1 MSTORE PUSH1 0x20 DUP2 ADD MLOAD PUSH1 0x60 DUP4 ADD MSTORE PUSH1 0x40 SWAP2 PUSH1 0x80 SWAP1 PUSH1 0x6 PUSH2 0x7CF NOT GAS ADD STATICCALL ISZERO PUSH2 0x249 JUMPI JUMP JUMPDEST PUSH1 0x40 MLOAD SWAP2 PUSH32 0x711F2A71684B202A430E7DBF85431D15A2BB54EE16EEEBD496EAB3994074B16 DUP4 MSTORE PUSH32 0x14AE7C51CCE8D46B87997A393BA565285227D1E639E7FA32BFDBDD377902A308 PUSH1 0x20 DUP5 ADD MSTORE PUSH1 0x40 DUP4 ADD SWAP1 DUP2 MSTORE PUSH1 0x40 DUP4 PUSH1 0x60 DUP2 PUSH1 0x7 PUSH2 0x7CF NOT GAS ADD STATICCALL ISZERO PUSH2 0x249 JUMPI DUP2 MLOAD SWAP1 MSTORE PUSH1 0x20 DUP2 ADD MLOAD PUSH1 0x60 DUP4 ADD MSTORE PUSH1 0x40 SWAP2 PUSH1 0x80 SWAP1 PUSH1 0x6 PUSH2 0x7CF NOT GAS ADD STATICCALL ISZERO PUSH2 0x249 JUMPI JUMP JUMPDEST PUSH1 0x40 MLOAD SWAP2 PUSH32 0x23330A0AE1259ACE2F28AD040BF2E0C77504A413C2FF82638CB4B3CF647F3CDA DUP4 MSTORE PUSH32 0x27BCEEB635DF7332F9618D74565686CA6EC61AA24F0ACDB09CFF7E3A215B9BFA PUSH1 0x20 DUP5 ADD MSTORE PUSH1 0x40 DUP4 ADD SWAP1 DUP2 MSTORE PUSH1 0x40 DUP4 PUSH1 0x60 DUP2 PUSH1 0x7 PUSH2 0x7CF NOT GAS ADD STATICCALL ISZERO PUSH2 0x249 JUMPI DUP2 MLOAD SWAP1 MSTORE PUSH1 0x20 DUP2 ADD MLOAD PUSH1 0x60 DUP4 ADD MSTORE PUSH1 0x40 SWAP2 PUSH1 0x80 SWAP1 PUSH1 0x6 PUSH2 0x7CF NOT GAS ADD STATICCALL ISZERO PUSH2 0x249 JUMPI JUMP JUMPDEST PUSH1 0x40 MLOAD SWAP2 PUSH32 0x20303FCE6392875C09CA31B2894778446424475FEC4E23B20AF0CD4AAA6487FE DUP4 MSTORE PUSH32 0x2568F820C814C94A40744B6F171FCD34CBE98B3A46299583FB4FB3634FCFB506 PUSH1 0x20 DUP5 ADD MSTORE PUSH1 0x40 DUP4 ADD SWAP1 DUP2 MSTORE PUSH1 0x40 DUP4 PUSH1 0x60 DUP2 PUSH1 0x7 PUSH2 0x7CF NOT GAS ADD STATICCALL ISZERO PUSH2 0x249 JUMPI DUP2 MLOAD SWAP1 MSTORE PUSH1 0x20 DUP2 ADD MLOAD PUSH1 0x60 DUP4 ADD MSTORE PUSH1 0x40 SWAP2 PUSH1 0x80 SWAP1 PUSH1 0x6 PUSH2 0x7CF NOT GAS ADD STATICCALL ISZERO PUSH2 0x249 JUMPI JUMP JUMPDEST PUSH1 0x40 MLOAD SWAP2 PUSH32 0x287947BA205E2BA1D5174B136E93848E50F104B5C802BDF0C3C62088CC223561 DUP4 MSTORE PUSH32 0x17C233346C6B4AAF4ACCF74881746FF097EDF954AA4318E6AC89AEFA4EDEF275 PUSH1 0x20 DUP5 ADD MSTORE PUSH1 0x40 DUP4 ADD SWAP1 DUP2 MSTORE PUSH1 0x40 DUP4 PUSH1 0x60 DUP2 PUSH1 0x7 PUSH2 0x7CF NOT GAS ADD STATICCALL ISZERO PUSH2 0x249 JUMPI DUP2 MLOAD SWAP1 MSTORE PUSH1 0x20 DUP2 ADD MLOAD PUSH1 0x60 DUP4 ADD MSTORE PUSH1 0x40 SWAP2 PUSH1 0x80 SWAP1 PUSH1 0x6 PUSH2 0x7CF NOT GAS ADD STATICCALL ISZERO PUSH2 0x249 JUMPI JUMP JUMPDEST PUSH1 0x40 MLOAD SWAP2 PUSH32 0xE650541E9D2EC1D43807215375199F5A5EE2EBF4A5D3ADF31FE93AAE2F37965 DUP4 MSTORE PUSH32 0x15FAD1251CB10082AD4E2528EA8CA77AA738EC5E86BB7B3ADFFA3E59C46B9E13 PUSH1 0x20 DUP5 ADD MSTORE PUSH1 0x40 DUP4 ADD SWAP1 DUP2 MSTORE PUSH1 0x40 DUP4 PUSH1 0x60 DUP2 PUSH1 0x7 PUSH2 0x7CF NOT GAS ADD STATICCALL ISZERO PUSH2 0x249 JUMPI DUP2 MLOAD SWAP1 MSTORE PUSH1 0x20 DUP2 ADD MLOAD PUSH1 0x60 DUP4 ADD MSTORE PUSH1 0x40 SWAP2 PUSH1 0x80 SWAP1 PUSH1 0x6 PUSH2 0x7CF NOT GAS ADD STATICCALL ISZERO PUSH2 0x249 JUMPI JUMP JUMPDEST PUSH1 0x40 MLOAD SWAP2 PUSH32 0x15590DF5329BF6E99E6408770870D5EF1874C610416CD1D761B0C22CD0EE62D4 DUP4 MSTORE PUSH32 0x1778B105A18C2910177A284EFF8C0455B04BF1EB6610321EC03861DBA6F5062B PUSH1 0x20 DUP5 ADD MSTORE PUSH1 0x40 DUP4 ADD SWAP1 DUP2 MSTORE PUSH1 0x40 DUP4 PUSH1 0x60 DUP2 PUSH1 0x7 PUSH2 0x7CF NOT GAS ADD STATICCALL ISZERO PUSH2 0x249 JUMPI DUP2 MLOAD SWAP1 MSTORE PUSH1 0x20 DUP2 ADD MLOAD PUSH1 0x60 DUP4 ADD MSTORE PUSH1 0x40 SWAP2 PUSH1 0x80 SWAP1 PUSH1 0x6 PUSH2 0x7CF NOT GAS ADD STATICCALL ISZERO PUSH2 0x249 JUMPI JUMP JUMPDEST PUSH1 0x40 MLOAD SWAP2 PUSH32 0x17BF4D437010BEE75009E5E1142DBEB4FD8E1BCFAA7D622083608786E0DC516E DUP4 MSTORE PUSH32 0x24FFF15B6DF784700F53380202335D1B730C4F2785F3EBF9C9C04E5C5A9FE2B1 PUSH1 0x20 DUP5 ADD MSTORE PUSH1 0x40 DUP4 ADD SWAP1 DUP2 MSTORE PUSH1 0x40 DUP4 PUSH1 0x60 DUP2 PUSH1 0x7 PUSH2 0x7CF NOT GAS ADD STATICCALL ISZERO PUSH2 0x249 JUMPI DUP2 MLOAD SWAP1 MSTORE PUSH1 0x20 DUP2 ADD MLOAD PUSH1 0x60 DUP4 ADD MSTORE PUSH1 0x40 SWAP2 PUSH1 0x80 SWAP1 PUSH1 0x6 PUSH2 0x7CF NOT GAS ADD STATICCALL ISZERO PUSH2 0x249 JUMPI JUMP JUMPDEST PUSH1 0x40 MLOAD SWAP2 PUSH32 0x8E006F7D5FE8F935D858885B8EBFACA99A13267E381F23108F134C17D78D39E DUP4 MSTORE PUSH32 0x21892ACCEB9BA86650E4216FF30C077F2261C023E240D95FFB7346AC02513F82 PUSH1 0x20 DUP5 ADD MSTORE PUSH1 0x40 DUP4 ADD SWAP1 DUP2 MSTORE PUSH1 0x40 DUP4 PUSH1 0x60 DUP2 PUSH1 0x7 PUSH2 0x7CF NOT GAS ADD STATICCALL ISZERO PUSH2 0x249 JUMPI DUP2 MLOAD SWAP1 MSTORE PUSH1 0x20 DUP2 ADD MLOAD PUSH1 0x60 DUP4 ADD MSTORE PUSH1 0x40 SWAP2 PUSH1 0x80 SWAP1 PUSH1 0x6 PUSH2 0x7CF NOT GAS ADD STATICCALL ISZERO PUSH2 0x249 JUMPI JUMP JUMPDEST PUSH1 0x40 MLOAD SWAP2 PUSH32 0x263A958DC60569351EC7B99C5B144788BFEC258CBA37987E5ABBBE6C34024F83 DUP4 MSTORE PUSH32 0x63F51092A1138E56509C3312CCC8601FEB633646E8BC55B2C1808FFD258799D PUSH1 0x20 DUP5 ADD MSTORE PUSH1 0x40 DUP4 ADD SWAP1 DUP2 MSTORE PUSH1 0x40 DUP4 PUSH1 0x60 DUP2 PUSH1 0x7 PUSH2 0x7CF NOT GAS ADD STATICCALL ISZERO PUSH2 0x249 JUMPI DUP2 MLOAD SWAP1 MSTORE PUSH1 0x20 DUP2 ADD MLOAD PUSH1 0x60 DUP4 ADD MSTORE PUSH1 0x40 SWAP2 PUSH1 0x80 SWAP1 PUSH1 0x6 PUSH2 0x7CF NOT GAS ADD STATICCALL ISZERO PUSH2 0x249 JUMPI JUMP JUMPDEST PUSH1 0x40 MLOAD SWAP2 PUSH32 0x1CE127BC75A2766C47F2AAED7E153731DF98B92A0F983C912727C4A034078F7E DUP4 MSTORE PUSH32 0x1BDAB421C58A7FDA6A41FB161C294B8C5FFAF7E2BA6FBC71CFC852BFEB10D867 PUSH1 0x20 DUP5 ADD MSTORE PUSH1 0x40 DUP4 ADD SWAP1 DUP2 MSTORE PUSH1 0x40 DUP4 PUSH1 0x60 DUP2 PUSH1 0x7 PUSH2 0x7CF NOT GAS ADD STATICCALL ISZERO PUSH2 0x249 JUMPI DUP2 MLOAD SWAP1 MSTORE PUSH1 0x20 DUP2 ADD MLOAD PUSH1 0x60 DUP4 ADD MSTORE PUSH1 0x40 SWAP2 PUSH1 0x80 SWAP1 PUSH1 0x6 PUSH2 0x7CF NOT GAS ADD STATICCALL ISZERO PUSH2 0x249 JUMPI JUMP JUMPDEST PUSH1 0x40 MLOAD SWAP2 PUSH32 0x185654525DF54E91ACC61C25647550698884A5F90A363D8DCE3C73685837A239 DUP4 MSTORE PUSH32 0x16070596F4D1AE539BB992A236F3C9FE1FEBE33A7F0DABEA87E6EA66CD76F47B PUSH1 0x20 DUP5 ADD MSTORE PUSH1 0x40 DUP4 ADD SWAP1 DUP2 MSTORE PUSH1 0x40 DUP4 PUSH1 0x60 DUP2 PUSH1 0x7 PUSH2 0x7CF NOT GAS ADD STATICCALL ISZERO PUSH2 0x249 JUMPI DUP2 MLOAD SWAP1 MSTORE PUSH1 0x20 DUP2 ADD MLOAD PUSH1 0x60 DUP4 ADD MSTORE PUSH1 0x40 SWAP2 PUSH1 0x80 SWAP1 PUSH1 0x6 PUSH2 0x7CF NOT GAS ADD STATICCALL ISZERO PUSH2 0x249 JUMPI JUMP JUMPDEST PUSH1 0x40 MLOAD SWAP2 PUSH32 0x170434E55AF68CF14ABA84D5A6201BF4459908F4272ED31ED74647595F8A5A5 DUP4 MSTORE PUSH32 0x1E7CE3133949EA40A0441E3B0767E17D48A192D94752FDA196BCD9CF55BA8D24 PUSH1 0x20 DUP5 ADD MSTORE PUSH1 0x40 DUP4 ADD SWAP1 DUP2 MSTORE PUSH1 0x40 DUP4 PUSH1 0x60 DUP2 PUSH1 0x7 PUSH2 0x7CF NOT GAS ADD STATICCALL ISZERO PUSH2 0x249 JUMPI DUP2 MLOAD SWAP1 MSTORE PUSH1 0x20 DUP2 ADD MLOAD PUSH1 0x60 DUP4 ADD MSTORE PUSH1 0x40 SWAP2 PUSH1 0x80 SWAP1 PUSH1 0x6 PUSH2 0x7CF NOT GAS ADD STATICCALL ISZERO PUSH2 0x249 JUMPI JUMP JUMPDEST PUSH1 0x40 MLOAD SWAP2 PUSH31 0x2B0E212E9F118C89478D3FDF9D77C0F9941760D4217EF45DFC2DAEDAF7EDC4 DUP4 MSTORE PUSH32 0x50090D0E9F95D287260387B80C5126A7E391A9638CC98E5AE9FFC86F3E72C10 PUSH1 0x20 DUP5 ADD MSTORE PUSH1 0x40 DUP4 ADD SWAP1 DUP2 MSTORE PUSH1 0x40 DUP4 PUSH1 0x60 DUP2 PUSH1 0x7 PUSH2 0x7CF NOT GAS ADD STATICCALL ISZERO PUSH2 0x249 JUMPI DUP2 MLOAD SWAP1 MSTORE PUSH1 0x20 DUP2 ADD MLOAD PUSH1 0x60 DUP4 ADD MSTORE PUSH1 0x40 SWAP2 PUSH1 0x80 SWAP1 PUSH1 0x6 PUSH2 0x7CF NOT GAS ADD STATICCALL ISZERO PUSH2 0x249 JUMPI JUMP JUMPDEST PUSH1 0x40 MLOAD SWAP2 PUSH32 0x11B9321B72AAD9B82450E03336453E13D5688D3180A64139C73619B8F18CEE6C DUP4 MSTORE PUSH32 0x8D574DFA32E40352ABACA79905AFEA14F0C25F650076B9DFB8B3B9CE670B802 PUSH1 0x20 DUP5 ADD MSTORE PUSH1 0x40 DUP4 ADD SWAP1 DUP2 MSTORE PUSH1 0x40 DUP4 PUSH1 0x60 DUP2 PUSH1 0x7 PUSH2 0x7CF NOT GAS ADD STATICCALL ISZERO PUSH2 0x249 JUMPI DUP2 MLOAD SWAP1 MSTORE PUSH1 0x20 DUP2 ADD MLOAD PUSH1 0x60 DUP4 ADD MSTORE PUSH1 0x40 SWAP2 PUSH1 0x80 SWAP1 PUSH1 0x6 PUSH2 0x7CF NOT GAS ADD STATICCALL ISZERO PUSH2 0x249 JUMPI JUMP JUMPDEST PUSH1 0x40 MLOAD SWAP2 PUSH32 0x2EAE40C0AA87FFBB66BC10056E07C74A03D40266E0FFFC1145D1A0C108BCFDDF DUP4 MSTORE PUSH32 0x1FD345FA97BA4246A0E5BDB19E7702B85F039FDFB7108BB91DA02B46863378EA PUSH1 0x20 DUP5 ADD MSTORE PUSH1 0x40 DUP4 ADD SWAP1 DUP2 MSTORE PUSH1 0x40 DUP4 PUSH1 0x60 DUP2 PUSH1 0x7 PUSH2 0x7CF NOT GAS ADD STATICCALL ISZERO PUSH2 0x249 JUMPI DUP2 MLOAD SWAP1 MSTORE PUSH1 0x20 DUP2 ADD MLOAD PUSH1 0x60 DUP4 ADD MSTORE PUSH1 0x40 SWAP2 PUSH1 0x80 SWAP1 PUSH1 0x6 PUSH2 0x7CF NOT GAS ADD STATICCALL ISZERO PUSH2 0x249 JUMPI JUMP JUMPDEST PUSH1 0x40 MLOAD SWAP2 PUSH32 0x7182515694D14480866446E299FE8EF8E526868062365EF6F22717BB2773734 DUP4 MSTORE PUSH32 0xC8545960481B22A260411AAF88E79FBEDA4915C83486BE1B7182733D41A8C96 PUSH1 0x20 DUP5 ADD MSTORE PUSH1 0x40 DUP4 ADD SWAP1 DUP2 MSTORE PUSH1 0x40 DUP4 PUSH1 0x60 DUP2 PUSH1 0x7 PUSH2 0x7CF NOT GAS ADD STATICCALL ISZERO PUSH2 0x249 JUMPI DUP2 MLOAD SWAP1 MSTORE PUSH1 0x20 DUP2 ADD MLOAD PUSH1 0x60 DUP4 ADD MSTORE PUSH1 0x40 SWAP2 PUSH1 0x80 SWAP1 PUSH1 0x6 PUSH2 0x7CF NOT GAS ADD STATICCALL ISZERO PUSH2 0x249 JUMPI JUMP JUMPDEST PUSH1 0x40 MLOAD SWAP2 PUSH32 0xB4F5D9DF420FDAE60D9E119F9B4CC27C10ED0778706E78A33D529A28BEDACEF DUP4 MSTORE PUSH32 0x14743A7006B2405669E1A1A5E67535DA2DA0F6CA8CF96E0B70463EAAAE6C3508 PUSH1 0x20 DUP5 ADD MSTORE PUSH1 0x40 DUP4 ADD SWAP1 DUP2 MSTORE PUSH1 0x40 DUP4 PUSH1 0x60 DUP2 PUSH1 0x7 PUSH2 0x7CF NOT GAS ADD STATICCALL ISZERO PUSH2 0x249 JUMPI DUP2 MLOAD SWAP1 MSTORE PUSH1 0x20 DUP2 ADD MLOAD PUSH1 0x60 DUP4 ADD MSTORE PUSH1 0x40 SWAP2 PUSH1 0x80 SWAP1 PUSH1 0x6 PUSH2 0x7CF NOT GAS ADD STATICCALL ISZERO PUSH2 0x249 JUMPI JUMP JUMPDEST PUSH1 0x40 MLOAD SWAP2 PUSH32 0x1CD803E77E85858819BFF62686255B41DF102895BC8E78E49D09557D384E3A1F DUP4 MSTORE PUSH32 0x1E3121D260C6D9F91FF59435159F1E9DB0FC35AD97CFDA64194A2BC051E74A89 PUSH1 0x20 DUP5 ADD MSTORE PUSH1 0x40 DUP4 ADD SWAP1 DUP2 MSTORE PUSH1 0x40 DUP4 PUSH1 0x60 DUP2 PUSH1 0x7 PUSH2 0x7CF NOT GAS ADD STATICCALL ISZERO PUSH2 0x249 JUMPI DUP2 MLOAD SWAP1 MSTORE PUSH1 0x20 DUP2 ADD MLOAD PUSH1 0x60 DUP4 ADD MSTORE PUSH1 0x40 SWAP2 PUSH1 0x80 SWAP1 PUSH1 0x6 PUSH2 0x7CF NOT GAS ADD STATICCALL ISZERO PUSH2 0x249 JUMPI JUMP JUMPDEST PUSH1 0x40 MLOAD SWAP2 PUSH32 0x488F90B11633501D63CBA615B9FADFF16E17E62D9AE5A63042B4EC05D851006 DUP4 MSTORE PUSH32 0x12AEE098B3466C531DA162E87E2354C5EAFE265E00B2180968CE9CE450BD258F PUSH1 0x20 DUP5 ADD MSTORE PUSH1 0x40 DUP4 ADD SWAP1 DUP2 MSTORE PUSH1 0x40 DUP4 PUSH1 0x60 DUP2 PUSH1 0x7 PUSH2 0x7CF NOT GAS ADD STATICCALL ISZERO PUSH2 0x249 JUMPI DUP2 MLOAD SWAP1 MSTORE PUSH1 0x20 DUP2 ADD MLOAD PUSH1 0x60 DUP4 ADD MSTORE PUSH1 0x40 SWAP2 PUSH1 0x80 SWAP1 PUSH1 0x6 PUSH2 0x7CF NOT GAS ADD STATICCALL ISZERO PUSH2 0x249 JUMPI JUMP JUMPDEST PUSH1 0x40 MLOAD SWAP2 PUSH31 0x4DA33FA9998640D59F84629A8D0DE5CF7F211BCBEA72CBAFFA0C92C5BB3D62 DUP4 MSTORE PUSH32 0xF5203253AC1C168418A5708FC65F53E2EFC8F599A6CB6943D8BF72318DDE264 PUSH1 0x20 DUP5 ADD MSTORE PUSH1 0x40 DUP4 ADD SWAP1 DUP2 MSTORE PUSH1 0x40 DUP4 PUSH1 0x60 DUP2 PUSH1 0x7 PUSH2 0x7CF NOT GAS ADD STATICCALL ISZERO PUSH2 0x249 JUMPI DUP2 MLOAD SWAP1 MSTORE PUSH1 0x20 DUP2 ADD MLOAD PUSH1 0x60 DUP4 ADD MSTORE PUSH1 0x40 SWAP2 PUSH1 0x80 SWAP1 PUSH1 0x6 PUSH2 0x7CF NOT GAS ADD STATICCALL ISZERO PUSH2 0x249 JUMPI JUMP JUMPDEST PUSH1 0x40 MLOAD SWAP2 PUSH32 0x2FB25DCC3DD96E6E137261213F9A05C4D710E63E10EEA32E9B06436BC4053E1D DUP4 MSTORE PUSH32 0xB260D90F09A1CCF7A42BAA2113982AF1DF5D1D7290527F3720671FBA819892C PUSH1 0x20 DUP5 ADD MSTORE PUSH1 0x40 DUP4 ADD SWAP1 DUP2 MSTORE PUSH1 0x40 DUP4 PUSH1 0x60 DUP2 PUSH1 0x7 PUSH2 0x7CF NOT GAS ADD STATICCALL ISZERO PUSH2 0x249 JUMPI DUP2 MLOAD SWAP1 MSTORE PUSH1 0x20 DUP2 ADD MLOAD PUSH1 0x60 DUP4 ADD MSTORE PUSH1 0x40 SWAP2 PUSH1 0x80 SWAP1 PUSH1 0x6 PUSH2 0x7CF NOT GAS ADD STATICCALL ISZERO PUSH2 0x249 JUMPI JUMP JUMPDEST PUSH1 0x40 MLOAD SWAP2 PUSH32 0xC9B526A00BDBD1E7031F3AAE102DC8DDC653A153156F6426FFC7545BF88EC7E DUP4 MSTORE PUSH32 0x48DACC60FFC2BD58B94BC051329FA03E919AA4FF1BC74CFDFD5994A3A293C10 PUSH1 0x20 DUP5 ADD MSTORE PUSH1 0x40 DUP4 ADD SWAP1 DUP2 MSTORE PUSH1 0x40 DUP4 PUSH1 0x60 DUP2 PUSH1 0x7 PUSH2 0x7CF NOT GAS ADD STATICCALL ISZERO PUSH2 0x249 JUMPI DUP2 MLOAD SWAP1 MSTORE PUSH1 0x20 DUP2 ADD MLOAD PUSH1 0x60 DUP4 ADD MSTORE PUSH1 0x40 SWAP2 PUSH1 0x80 SWAP1 PUSH1 0x6 PUSH2 0x7CF NOT GAS ADD STATICCALL ISZERO PUSH2 0x249 JUMPI JUMP JUMPDEST SWAP1 PUSH32 0x30644E72E131A029B85045B68181585D97816A916871CA8D3C208C16D87CFD47 PUSH1 0x20 DUP1 SWAP4 PUSH32 0xF8087D78FD3A13A9551931F3B55398F864454FE608E861546C590E110CE2020 PUSH1 0x80 MSTORE PUSH32 0x26728A8140B0C67542590F90E0A88CB92E3D6213CF5453FEC32E7778A785D5E8 PUSH1 0xA0 MSTORE PUSH2 0x144D PUSH2 0x104 CALLDATALOAD PUSH1 0x80 PUSH2 0x253 JUMP JUMPDEST PUSH2 0x145B PUSH2 0x124 CALLDATALOAD PUSH1 0x80 PUSH2 0x2DF JUMP JUMPDEST PUSH2 0x1469 PUSH2 0x144 CALLDATALOAD PUSH1 0x80 PUSH2 0x36B JUMP JUMPDEST PUSH2 0x1477 PUSH2 0x164 CALLDATALOAD PUSH1 0x80 PUSH2 0x3F7 JUMP JUMPDEST PUSH2 0x1485 PUSH2 0x184 CALLDATALOAD PUSH1 0x80 PUSH2 0x483 JUMP JUMPDEST PUSH2 0x1493 PUSH2 0x1A4 CALLDATALOAD PUSH1 0x80 PUSH2 0x50F JUMP JUMPDEST PUSH2 0x14A1 PUSH2 0x1C4 CALLDATALOAD PUSH1 0x80 PUSH2 0x59B JUMP JUMPDEST PUSH2 0x14AF PUSH2 0x1E4 CALLDATALOAD PUSH1 0x80 PUSH2 0x627 JUMP JUMPDEST PUSH2 0x14BD PUSH2 0x204 CALLDATALOAD PUSH1 0x80 PUSH2 0x6B3 JUMP JUMPDEST PUSH2 0x14CB PUSH2 0x224 CALLDATALOAD PUSH1 0x80 PUSH2 0x73F JUMP JUMPDEST PUSH2 0x14D9 PUSH2 0x244 CALLDATALOAD PUSH1 0x80 PUSH2 0x7CB JUMP JUMPDEST PUSH2 0x14E7 PUSH2 0x264 CALLDATALOAD PUSH1 0x80 PUSH2 0x857 JUMP JUMPDEST PUSH2 0x14F5 PUSH2 0x284 CALLDATALOAD PUSH1 0x80 PUSH2 0x8E3 JUMP JUMPDEST PUSH2 0x1503 PUSH2 0x2A4 CALLDATALOAD PUSH1 0x80 PUSH2 0x96F JUMP JUMPDEST PUSH2 0x1511 PUSH2 0x2C4 CALLDATALOAD PUSH1 0x80 PUSH2 0x9FB JUMP JUMPDEST PUSH2 0x151F PUSH2 0x2E4 CALLDATALOAD PUSH1 0x80 PUSH2 0xA87 JUMP JUMPDEST PUSH2 0x152D PUSH2 0x304 CALLDATALOAD PUSH1 0x80 PUSH2 0xB13 JUMP JUMPDEST PUSH2 0x153B PUSH2 0x324 CALLDATALOAD PUSH1 0x80 PUSH2 0xB9F JUMP JUMPDEST PUSH2 0x1549 PUSH2 0x344 CALLDATALOAD PUSH1 0x80 PUSH2 0xC2B JUMP JUMPDEST PUSH2 0x1557 PUSH2 0x364 CALLDATALOAD PUSH1 0x80 PUSH2 0xCB7 JUMP JUMPDEST PUSH2 0x1565 PUSH2 0x384 CALLDATALOAD PUSH1 0x80 PUSH2 0xD43 JUMP JUMPDEST PUSH2 0x1573 PUSH2 0x3A4 CALLDATALOAD PUSH1 0x80 PUSH2 0xDCF JUMP JUMPDEST PUSH2 0x1581 PUSH2 0x3C4 CALLDATALOAD PUSH1 0x80 PUSH2 0xE5B JUMP JUMPDEST PUSH2 0x158F PUSH2 0x3E4 CALLDATALOAD PUSH1 0x80 PUSH2 0xEE6 JUMP JUMPDEST PUSH2 0x159D PUSH2 0x404 CALLDATALOAD PUSH1 0x80 PUSH2 0xF72 JUMP JUMPDEST PUSH2 0x15AB PUSH2 0x424 CALLDATALOAD PUSH1 0x80 PUSH2 0xFFE JUMP JUMPDEST PUSH2 0x15B9 PUSH2 0x444 CALLDATALOAD PUSH1 0x80 PUSH2 0x108A JUMP JUMPDEST PUSH2 0x15C7 PUSH2 0x464 CALLDATALOAD PUSH1 0x80 PUSH2 0x1116 JUMP JUMPDEST PUSH2 0x15D5 PUSH2 0x484 CALLDATALOAD PUSH1 0x80 PUSH2 0x11A2 JUMP JUMPDEST PUSH2 0x15E3 PUSH2 0x4A4 CALLDATALOAD PUSH1 0x80 PUSH2 0x122E JUMP JUMPDEST PUSH2 0x15F1 PUSH2 0x4C4 CALLDATALOAD PUSH1 0x80 PUSH2 0x12B9 JUMP JUMPDEST PUSH2 0x15FF PUSH2 0x4E4 CALLDATALOAD PUSH1 0x80 PUSH2 0x1345 JUMP JUMPDEST DUP1 CALLDATALOAD PUSH2 0x100 MSTORE ADD CALLDATALOAD DUP2 SUB MOD PUSH2 0x120 MSTORE PUSH1 0x44 CALLDATALOAD PUSH2 0x140 MSTORE PUSH1 0x64 CALLDATALOAD PUSH2 0x160 MSTORE PUSH1 0x84 CALLDATALOAD PUSH2 0x180 MSTORE PUSH1 0xA4 CALLDATALOAD PUSH2 0x1A0 MSTORE PUSH32 0x2BCB07E090C509648460310EF6E09672B1F3A802F8F6AFCD5B560EBC8DFED400 PUSH2 0x1C0 MSTORE PUSH32 0x1C2D0B45B0EA4B29D9EC33C5BD4CA4051D136BC9C27C417D1CE735C8865F7D8D PUSH2 0x1E0 MSTORE PUSH32 0x170BEF003071274CF9C722C4A2EC8825CD56327BDB311E929BA9C19C64BD2B93 PUSH2 0x200 MSTORE PUSH32 0x4C196246635E807257B64025D1DA2F3D497F10F70CA9F9E14014D70985E1811 PUSH2 0x220 MSTORE PUSH32 0xCD90ADFE289BA215558D896EE457AF9708AF3C0C6133D61A0CD907E92782292 PUSH2 0x240 MSTORE PUSH32 0x196FAEE2853F78C04D354E9B0C2FF38F5B3E4DBC2CE3C6BC79755ACA3163C44F PUSH2 0x260 MSTORE PUSH1 0x80 MLOAD PUSH2 0x280 MSTORE PUSH1 0xA0 MLOAD PUSH2 0x2A0 MSTORE PUSH32 0x118591CD5F93DB67A738B3BD1556A7C5A116C5EDDFF9C7F9D7FB0D3297ED3D3D PUSH2 0x2C0 MSTORE PUSH32 0x10226223146E0333AC07A3026A095213B10AAB8A51A69112004A6243C070BE53 PUSH2 0x2E0 MSTORE PUSH32 0x8D524789251EA760D321556433B9DF73389CC6310AFDBE037237780F106234C PUSH2 0x300 MSTORE PUSH32 0xE50609F485F6635911CA9685614F031713AF9768D2B317DFEDC99569353B5FE PUSH2 0x320 MSTORE DUP1 CALLDATALOAD PUSH2 0x340 MSTORE ADD CALLDATALOAD PUSH2 0x360 MSTORE PUSH32 0x2EDD92A231B4A44DCAD9E185F8C7778A31A0B32A9C97BE302D7009250DCFB23E PUSH2 0x380 MSTORE PUSH32 0x1BF9AD1A92C8D86777CA41065A4FEF9225D3AE380E6055617C6C51177003D51E PUSH2 0x3A0 MSTORE PUSH32 0x7F8C3C3B1285DCBA6A185F08EEED9498DF70BFA7A69AF3FFA8D3FC24152CD68 PUSH2 0x3C0 MSTORE PUSH32 0x23CCEEDEA3653120ADF7889D4FF94A427450E8BBA3DEEDE2443C752388775FDA PUSH2 0x3E0 MSTORE PUSH1 0x20 PUSH2 0x100 PUSH2 0x300 DUP2 PUSH1 0x8 PUSH2 0x7CF NOT GAS ADD STATICCALL PUSH2 0x100 MLOAD AND SWAP1 JUMP INVALID LOG2 PUSH5 0x6970667358 0x22 SLT KECCAK256 0x4C RETURNDATACOPY 0x2D MULMOD 0xFB 0xCD GAS PUSH3 0xD16CC8 SWAP3 MCOPY GAS KECCAK256 CREATE SWAP12 SSTORE GASPRICE RETURNDATASIZE MSIZE CALLVALUE 0xCB 0xBF 0xC3 0x4C SELFBALANCE TSTORE PUSH6 0x3E54DC64736F PUSH13 0x634300081C0033000000000000 "},"methodIdentifiers":{"verifyProof(uint256[2],uint256[2][2],uint256[2],uint256[32])":"3cc08b24"}}}}}