{"contracts/DemoOnchainRewards.sol":{"IoTeXRewardDistributor":{"abi":[{"inputs":[{"internalType":"address","name":"_novaDecider","type":"address"},{"internalType":"address","name":"_ioIDRegistry","type":"address"},{"internalType":"address","name":"_ioID","type":"address"}],"stateMutability":"nonpayable","type":"constructor"},{"anonymous":false,"inputs":[{"indexed":false,"internalType":"address","name":"deviceAddress","type":"address"}],"name":"DeviceAddressRecovered","type":"event"},{"anonymous":false,"inputs":[{"indexed":false,"internalType":"uint256","name":"deviceId","type":"uint256"}],"name":"DeviceIdFound","type":"event"},{"anonymous":false,"inputs":[{"indexed":false,"internalType":"address","name":"ownerAddress","type":"address"}],"name":"DeviceOwnerFound","type":"event"},{"anonymous":false,"inputs":[{"indexed":true,"internalType":"address","name":"recipient","type":"address"},{"indexed":false,"internalType":"uint256","name":"amount","type":"uint256"}],"name":"RewardSent","type":"event"},{"anonymous":false,"inputs":[],"name":"VerificationSuccess","type":"event"},{"inputs":[],"name":"getContractBalance","outputs":[{"internalType":"uint256","name":"","type":"uint256"}],"stateMutability":"view","type":"function"},{"inputs":[],"name":"ioID","outputs":[{"internalType":"contract IIoID","name":"","type":"address"}],"stateMutability":"view","type":"function"},{"inputs":[],"name":"ioIDRegistry","outputs":[{"internalType":"contract IIoIDRegistry","name":"","type":"address"}],"stateMutability":"view","type":"function"},{"inputs":[],"name":"novaDecider","outputs":[{"internalType":"contract INovaDecider","name":"","type":"address"}],"stateMutability":"view","type":"function"},{"inputs":[],"name":"owner","outputs":[{"internalType":"address","name":"","type":"address"}],"stateMutability":"view","type":"function"},{"inputs":[{"internalType":"uint256[3]","name":"i_z0_zi","type":"uint256[3]"},{"internalType":"uint256[4]","name":"U_i_cmW_U_i_cmE","type":"uint256[4]"},{"internalType":"uint256[2]","name":"u_i_cmW","type":"uint256[2]"},{"internalType":"uint256[3]","name":"cmT_r","type":"uint256[3]"},{"internalType":"uint256[2]","name":"pA","type":"uint256[2]"},{"internalType":"uint256[2][2]","name":"pB","type":"uint256[2][2]"},{"internalType":"uint256[2]","name":"pC","type":"uint256[2]"},{"internalType":"uint256[4]","name":"challenge_W_challenge_E_kzg_evals","type":"uint256[4]"},{"internalType":"uint256[2][2]","name":"kzg_proof","type":"uint256[2][2]"},{"internalType":"bytes32","name":"hash","type":"bytes32"},{"internalType":"uint8","name":"v","type":"uint8"},{"internalType":"bytes32","name":"r","type":"bytes32"},{"internalType":"bytes32","name":"s","type":"bytes32"}],"name":"verifyAndReward","outputs":[],"stateMutability":"payable","type":"function"},{"inputs":[{"internalType":"uint256[3]","name":"i_z0_zi","type":"uint256[3]"},{"internalType":"uint256[4]","name":"U_i_cmW_U_i_cmE","type":"uint256[4]"},{"internalType":"uint256[2]","name":"u_i_cmW","type":"uint256[2]"},{"internalType":"uint256[3]","name":"cmT_r","type":"uint256[3]"},{"internalType":"uint256[2]","name":"pA","type":"uint256[2]"},{"internalType":"uint256[2][2]","name":"pB","type":"uint256[2][2]"},{"internalType":"uint256[2]","name":"pC","type":"uint256[2]"},{"internalType":"uint256[4]","name":"challenge_W_challenge_E_kzg_evals","type":"uint256[4]"},{"internalType":"uint256[2][2]","name":"kzg_proof","type":"uint256[2][2]"},{"internalType":"bytes32","name":"hash","type":"bytes32"},{"internalType":"uint8","name":"v","type":"uint8"},{"internalType":"bytes32","name":"r","type":"bytes32"},{"internalType":"bytes32","name":"s","type":"bytes32"}],"name":"verifyAndReward2","outputs":[{"internalType":"bool","name":"","type":"bool"}],"stateMutability":"payable","type":"function"},{"inputs":[{"internalType":"uint256[3]","name":"i_z0_zi","type":"uint256[3]"},{"internalType":"uint256[4]","name":"U_i_cmW_U_i_cmE","type":"uint256[4]"},{"internalType":"uint256[2]","name":"u_i_cmW","type":"uint256[2]"},{"internalType":"uint256[3]","name":"cmT_r","type":"uint256[3]"},{"internalType":"uint256[2]","name":"pA","type":"uint256[2]"},{"internalType":"uint256[2][2]","name":"pB","type":"uint256[2][2]"},{"internalType":"uint256[2]","name":"pC","type":"uint256[2]"},{"internalType":"uint256[4]","name":"challenge_W_challenge_E_kzg_evals","type":"uint256[4]"},{"internalType":"uint256[2][2]","name":"kzg_proof","type":"uint256[2][2]"},{"internalType":"bytes32","name":"hash","type":"bytes32"},{"internalType":"uint8","name":"v","type":"uint8"},{"internalType":"bytes32","name":"r","type":"bytes32"},{"internalType":"bytes32","name":"s","type":"bytes32"}],"name":"verifyAndReward3","outputs":[{"internalType":"bool","name":"","type":"bool"}],"stateMutability":"payable","type":"function"},{"inputs":[{"internalType":"uint256[3]","name":"i_z0_zi","type":"uint256[3]"},{"internalType":"uint256[4]","name":"U_i_cmW_U_i_cmE","type":"uint256[4]"},{"internalType":"uint256[2]","name":"u_i_cmW","type":"uint256[2]"},{"internalType":"uint256[3]","name":"cmT_r","type":"uint256[3]"},{"internalType":"uint256[2]","name":"pA","type":"uint256[2]"},{"internalType":"uint256[2][2]","name":"pB","type":"uint256[2][2]"},{"internalType":"uint256[2]","name":"pC","type":"uint256[2]"},{"internalType":"uint256[4]","name":"challenge_W_challenge_E_kzg_evals","type":"uint256[4]"},{"internalType":"uint256[2][2]","name":"kzg_proof","type":"uint256[2][2]"},{"internalType":"bytes32","name":"hash","type":"bytes32"},{"internalType":"uint8","name":"v","type":"uint8"},{"internalType":"bytes32","name":"r","type":"bytes32"},{"internalType":"bytes32","name":"s","type":"bytes32"}],"name":"verifyAndReward4","outputs":[{"internalType":"address","name":"","type":"address"}],"stateMutability":"payable","type":"function"},{"inputs":[{"internalType":"uint256[3]","name":"i_z0_zi","type":"uint256[3]"},{"internalType":"uint256[4]","name":"U_i_cmW_U_i_cmE","type":"uint256[4]"},{"internalType":"uint256[2]","name":"u_i_cmW","type":"uint256[2]"},{"internalType":"uint256[3]","name":"cmT_r","type":"uint256[3]"},{"internalType":"uint256[2]","name":"pA","type":"uint256[2]"},{"internalType":"uint256[2][2]","name":"pB","type":"uint256[2][2]"},{"internalType":"uint256[2]","name":"pC","type":"uint256[2]"},{"internalType":"uint256[4]","name":"challenge_W_challenge_E_kzg_evals","type":"uint256[4]"},{"internalType":"uint256[2][2]","name":"kzg_proof","type":"uint256[2][2]"},{"internalType":"bytes32","name":"hash","type":"bytes32"},{"internalType":"uint8","name":"v","type":"uint8"},{"internalType":"bytes32","name":"r","type":"bytes32"},{"internalType":"bytes32","name":"s","type":"bytes32"}],"name":"verifyAndReward5","outputs":[{"internalType":"uint256","name":"","type":"uint256"}],"stateMutability":"payable","type":"function"},{"inputs":[{"internalType":"uint256[3]","name":"i_z0_zi","type":"uint256[3]"},{"internalType":"uint256[4]","name":"U_i_cmW_U_i_cmE","type":"uint256[4]"},{"internalType":"uint256[2]","name":"u_i_cmW","type":"uint256[2]"},{"internalType":"uint256[3]","name":"cmT_r","type":"uint256[3]"},{"internalType":"uint256[2]","name":"pA","type":"uint256[2]"},{"internalType":"uint256[2][2]","name":"pB","type":"uint256[2][2]"},{"internalType":"uint256[2]","name":"pC","type":"uint256[2]"},{"internalType":"uint256[4]","name":"challenge_W_challenge_E_kzg_evals","type":"uint256[4]"},{"internalType":"uint256[2][2]","name":"kzg_proof","type":"uint256[2][2]"},{"internalType":"bytes32","name":"hash","type":"bytes32"},{"internalType":"uint8","name":"v","type":"uint8"},{"internalType":"bytes32","name":"r","type":"bytes32"},{"internalType":"bytes32","name":"s","type":"bytes32"}],"name":"verifyAndReward6","outputs":[{"internalType":"address","name":"","type":"address"}],"stateMutability":"payable","type":"function"},{"stateMutability":"payable","type":"receive"}],"evm":{"bytecode":{"linkReferences":{},"object":"60803460ae57601f610cc238819003918201601f19168301916001600160401b0383118484101760b35780849260609460405283398101031260ae5760428160c9565b906057604060516020840160c9565b920160c9565b600080546001600160a01b031990811633179091556001805482166001600160a01b0395861617905560028054821693851693909317909255600380549092169216919091179055604051610be590816100dd8239f35b600080fd5b634e487b7160e01b600052604160045260246000fd5b51906001600160a01b038216820360ae5756fe608080604052600436101561001d575b50361561001b57600080fd5b005b60003560e01c9081633be5dfaf14610864575080636f9fb98a1461084857806373853c1f1461081f5780637a77762e146106475780637afc1dbd146104655780638da5cb5b1461043c57806395cc708614610413578063aa7ec76d146102ae578063c043a699146101ea578063c3b3135e146101bc5763eaa26e84146100a3573861000f565b6100ac366108a7565b989b93929a9491999590979647670de0b6b3a764000011156100cd90610a6d565b600154604051637e1ebb7d60e11b81529d6001600160a01b03909116988e9889986100fe9892939260048b016109bb565b03815a93602094fa9283156101b05761012561015894602097600091610183575b50610a21565b7fb3e1dcceef8890403a4fe86c7b460eae2a904c189ceb19137f8ee47e077c801a600080a16001600160a01b0394610b5d565b16610164811515610ab9565b600080516020610b9083398151915282604051838152a1604051908152f35b6101a39150883d8a116101a9575b61019b8183610943565b81019061097b565b3861011f565b503d610191565b6040513d6000823e3d90fd5b346101e55760003660031901126101e5576003546040516001600160a01b039091168152602090f35b600080fd5b61024460206101f8366108a7565b505050509261021b670de0b6b3a76400009b95989799969b939293471015610a6d565b60018060a01b0360015416976040519b8c9a8b998a99637e1ebb7d60e11b8b5260048b016109bb565b03915afa80156101b05761025f9160009161028f5750610a21565b60206040517fb3e1dcceef8890403a4fe86c7b460eae2a904c189ceb19137f8ee47e077c801a600080a160018152f35b6102a8915060203d6020116101a95761019b8183610943565b8261011f565b60206103096102bc366108a7565b9b94919997966102e0939e999d9493670de0b6b3a76400009c97929c471015610a6d565b60018060a01b0360015416976040519e8f9a8b998a99637e1ebb7d60e11b8b5260048b016109bb565b03915afa9384156101b05761032994610125916000916103f45750610a21565b16610335811515610ab9565b600080516020610b908339815191526020604051838152a1600254604051634965c7e160e01b81526004810192909252602090829060249082906001600160a01b03165afa9081156101b0576000916103bd575b6020827f54fdc702cd24f07b0c6343b84b51714e7c4feeb6c62183650c95cca861f87ea382604051838152a1604051908152f35b6020813d6020116103ec575b816103d660209383610943565b810103126103e8575190506020610389565b5080fd5b3d91506103c9565b61040d915060203d6020116101a95761019b8183610943565b8761011f565b346101e55760003660031901126101e5576002546040516001600160a01b039091168152602090f35b346101e55760003660031901126101e5576000546040516001600160a01b039091168152602090f35b60206104736102bc366108a7565b03915afa9384156101b05761049394610125916000916103f45750610a21565b1661049f811515610ab9565b600080516020610b908339815191526020604051838152a1600254604051634965c7e160e01b81526004810192909252602090829060249082906001600160a01b03165afa9081156101b057600091610612575b507f54fdc702cd24f07b0c6343b84b51714e7c4feeb6c62183650c95cca861f87ea36020604051838152a16003546040516331a9108f60e11b81526004810192909252602090829060249082906001600160a01b03165afa9081156101b0576000916105e3575b506001600160a01b031661056f811515610b18565b7f05c1d1aa5fabeec44c0c81dc91600d72eea899ec6deec672f886241b80ce3a196020604051838152a16000808080670de0b6b3a76400008582f1156101b0577f6177f4110771217c72937d51f3a73915f2c714a6b98507e17eea7a186136a24a6020604051670de0b6b3a76400008152a2005b610605915060203d60201161060b575b6105fd8183610943565b810190610af9565b8161055a565b503d6105f3565b906020823d60201161063f575b8161062c60209383610943565b8101031261063c575051816104f3565b80fd5b3d915061061f565b60206106556102bc366108a7565b03915afa9384156101b05761067594610125916000916103f45750610a21565b16610681811515610ab9565b600080516020610b908339815191526020604051838152a1600254604051634965c7e160e01b81526004810192909252602090829060249082906001600160a01b03165afa9081156101b0576000916107ed575b507f54fdc702cd24f07b0c6343b84b51714e7c4feeb6c62183650c95cca861f87ea36020604051838152a16003546040516331a9108f60e11b81526004810192909252602090829060249082906001600160a01b03165afa9081156101b0576000916107ce575b506001600160a01b0316610751811515610b18565b7f05c1d1aa5fabeec44c0c81dc91600d72eea899ec6deec672f886241b80ce3a196020604051838152a16000808080670de0b6b3a76400008582f1156101b057806020917f6177f4110771217c72937d51f3a73915f2c714a6b98507e17eea7a186136a24a83604051670de0b6b3a76400008152a2604051908152f35b6107e7915060203d60201161060b576105fd8183610943565b8161073c565b906020823d602011610817575b8161080760209383610943565b8101031261063c575051816106d5565b3d91506107fa565b346101e55760003660031901126101e5576001546040516001600160a01b039091168152602090f35b346101e55760003660031901126101e557602047604051908152f35b6020816102448180610875366108a7565b5050600154637e1ebb7d60e11b8d526001600160a01b03169d9a92999398949795969594939291505060048b016109bb565b6104006003198201126101e557806064116101e5576004918160e4116101e55760649180610124116101e55760e49181610184116101e55761012491806101c4116101e5576101849181610244116101e5576101c49180610284116101e5576102449181610304116101e55761028491610384116101e5576103049061038435906103a43560ff811681036101e557906103c435906103e43590565b90601f8019910116810190811067ffffffffffffffff82111761096557604052565b634e487b7160e01b600052604160045260246000fd5b908160209103126101e5575180151581036101e55790565b906000905b600282106109a557505050565b6040808281866001953701930191019091610998565b9694929099989795939161038088019a6060908937608090606089013760409060e08801376060906101208701376040906101808601376101c08401610a0091610993565b60409061024084013760809061028083013761030001610a1f91610993565b565b15610a2857565b60405162461bcd60e51b815260206004820152601f60248201527f4e6f76614465636964657220766572696669636174696f6e206661696c6564006044820152606490fd5b15610a7457565b60405162461bcd60e51b815260206004820152601d60248201527f496e73756666696369656e7420636f6e74726163742062616c616e63650000006044820152606490fd5b15610ac057565b60405162461bcd60e51b8152602060048201526011602482015270496e76616c6964207369676e617475726560781b6044820152606490fd5b908160209103126101e557516001600160a01b03811681036101e55790565b15610b1f57565b60405162461bcd60e51b815260206004820152601660248201527511195d9a58d9481bdddb995c881b9bdd08199bdd5b9960521b6044820152606490fd5b60209360009360ff60809460405194855216868401526040830152606082015282805260015afa156101b0576000519056feab87ce0e5c912801f43d7eda053869fabb4061dded4b6132f32341dbb166b3daa26469706673582212204a3f675fee8c738341610dc4b88396aa364952559c1790046a4e5fa91657d2c464736f6c634300081c0033","opcodes":"PUSH1 0x80 CALLVALUE PUSH1 0xAE JUMPI PUSH1 0x1F PUSH2 0xCC2 CODESIZE DUP2 SWAP1 SUB SWAP2 DUP3 ADD PUSH1 0x1F NOT AND DUP4 ADD SWAP2 PUSH1 0x1 PUSH1 0x1 PUSH1 0x40 SHL SUB DUP4 GT DUP5 DUP5 LT OR PUSH1 0xB3 JUMPI DUP1 DUP5 SWAP3 PUSH1 0x60 SWAP5 PUSH1 0x40 MSTORE DUP4 CODECOPY DUP2 ADD SUB SLT PUSH1 0xAE JUMPI PUSH1 0x42 DUP2 PUSH1 0xC9 JUMP JUMPDEST SWAP1 PUSH1 0x57 PUSH1 0x40 PUSH1 0x51 PUSH1 0x20 DUP5 ADD PUSH1 0xC9 JUMP JUMPDEST SWAP3 ADD PUSH1 0xC9 JUMP JUMPDEST PUSH1 0x0 DUP1 SLOAD PUSH1 0x1 PUSH1 0x1 PUSH1 0xA0 SHL SUB NOT SWAP1 DUP2 AND CALLER OR SWAP1 SWAP2 SSTORE PUSH1 0x1 DUP1 SLOAD DUP3 AND PUSH1 0x1 PUSH1 0x1 PUSH1 0xA0 SHL SUB SWAP6 DUP7 AND OR SWAP1 SSTORE PUSH1 0x2 DUP1 SLOAD DUP3 AND SWAP4 DUP6 AND SWAP4 SWAP1 SWAP4 OR SWAP1 SWAP3 SSTORE PUSH1 0x3 DUP1 SLOAD SWAP1 SWAP3 AND SWAP3 AND SWAP2 SWAP1 SWAP2 OR SWAP1 SSTORE PUSH1 0x40 MLOAD PUSH2 0xBE5 SWAP1 DUP2 PUSH2 0xDD DUP3 CODECOPY RETURN JUMPDEST PUSH1 0x0 DUP1 REVERT JUMPDEST PUSH4 0x4E487B71 PUSH1 0xE0 SHL PUSH1 0x0 MSTORE PUSH1 0x41 PUSH1 0x4 MSTORE PUSH1 0x24 PUSH1 0x0 REVERT JUMPDEST MLOAD SWAP1 PUSH1 0x1 PUSH1 0x1 PUSH1 0xA0 SHL SUB DUP3 AND DUP3 SUB PUSH1 0xAE JUMPI JUMP INVALID PUSH1 0x80 DUP1 PUSH1 0x40 MSTORE PUSH1 0x4 CALLDATASIZE LT ISZERO PUSH2 0x1D JUMPI JUMPDEST POP CALLDATASIZE ISZERO PUSH2 0x1B JUMPI PUSH1 0x0 DUP1 REVERT JUMPDEST STOP JUMPDEST PUSH1 0x0 CALLDATALOAD PUSH1 0xE0 SHR SWAP1 DUP2 PUSH4 0x3BE5DFAF EQ PUSH2 0x864 JUMPI POP DUP1 PUSH4 0x6F9FB98A EQ PUSH2 0x848 JUMPI DUP1 PUSH4 0x73853C1F EQ PUSH2 0x81F JUMPI DUP1 PUSH4 0x7A77762E EQ PUSH2 0x647 JUMPI DUP1 PUSH4 0x7AFC1DBD EQ PUSH2 0x465 JUMPI DUP1 PUSH4 0x8DA5CB5B EQ PUSH2 0x43C JUMPI DUP1 PUSH4 0x95CC7086 EQ PUSH2 0x413 JUMPI DUP1 PUSH4 0xAA7EC76D EQ PUSH2 0x2AE JUMPI DUP1 PUSH4 0xC043A699 EQ PUSH2 0x1EA JUMPI DUP1 PUSH4 0xC3B3135E EQ PUSH2 0x1BC JUMPI PUSH4 0xEAA26E84 EQ PUSH2 0xA3 JUMPI CODESIZE PUSH2 0xF JUMP JUMPDEST PUSH2 0xAC CALLDATASIZE PUSH2 0x8A7 JUMP JUMPDEST SWAP9 SWAP12 SWAP4 SWAP3 SWAP11 SWAP5 SWAP2 SWAP10 SWAP6 SWAP1 SWAP8 SWAP7 SELFBALANCE PUSH8 0xDE0B6B3A7640000 GT ISZERO PUSH2 0xCD SWAP1 PUSH2 0xA6D JUMP JUMPDEST PUSH1 0x1 SLOAD PUSH1 0x40 MLOAD PUSH4 0x7E1EBB7D PUSH1 0xE1 SHL DUP2 MSTORE SWAP14 PUSH1 0x1 PUSH1 0x1 PUSH1 0xA0 SHL SUB SWAP1 SWAP2 AND SWAP9 DUP15 SWAP9 DUP10 SWAP9 PUSH2 0xFE SWAP9 SWAP3 SWAP4 SWAP3 PUSH1 0x4 DUP12 ADD PUSH2 0x9BB JUMP JUMPDEST SUB DUP2 GAS SWAP4 PUSH1 0x20 SWAP5 STATICCALL SWAP3 DUP4 ISZERO PUSH2 0x1B0 JUMPI PUSH2 0x125 PUSH2 0x158 SWAP5 PUSH1 0x20 SWAP8 PUSH1 0x0 SWAP2 PUSH2 0x183 JUMPI JUMPDEST POP PUSH2 0xA21 JUMP JUMPDEST PUSH32 0xB3E1DCCEEF8890403A4FE86C7B460EAE2A904C189CEB19137F8EE47E077C801A PUSH1 0x0 DUP1 LOG1 PUSH1 0x1 PUSH1 0x1 PUSH1 0xA0 SHL SUB SWAP5 PUSH2 0xB5D JUMP JUMPDEST AND PUSH2 0x164 DUP2 ISZERO ISZERO PUSH2 0xAB9 JUMP JUMPDEST PUSH1 0x0 DUP1 MLOAD PUSH1 0x20 PUSH2 0xB90 DUP4 CODECOPY DUP2 MLOAD SWAP2 MSTORE DUP3 PUSH1 0x40 MLOAD DUP4 DUP2 MSTORE LOG1 PUSH1 0x40 MLOAD SWAP1 DUP2 MSTORE RETURN JUMPDEST PUSH2 0x1A3 SWAP2 POP DUP9 RETURNDATASIZE DUP11 GT PUSH2 0x1A9 JUMPI JUMPDEST PUSH2 0x19B DUP2 DUP4 PUSH2 0x943 JUMP JUMPDEST DUP2 ADD SWAP1 PUSH2 0x97B JUMP JUMPDEST CODESIZE PUSH2 0x11F JUMP JUMPDEST POP RETURNDATASIZE PUSH2 0x191 JUMP JUMPDEST PUSH1 0x40 MLOAD RETURNDATASIZE PUSH1 0x0 DUP3 RETURNDATACOPY RETURNDATASIZE SWAP1 REVERT JUMPDEST CALLVALUE PUSH2 0x1E5 JUMPI PUSH1 0x0 CALLDATASIZE PUSH1 0x3 NOT ADD SLT PUSH2 0x1E5 JUMPI PUSH1 0x3 SLOAD PUSH1 0x40 MLOAD PUSH1 0x1 PUSH1 0x1 PUSH1 0xA0 SHL SUB SWAP1 SWAP2 AND DUP2 MSTORE PUSH1 0x20 SWAP1 RETURN JUMPDEST PUSH1 0x0 DUP1 REVERT JUMPDEST PUSH2 0x244 PUSH1 0x20 PUSH2 0x1F8 CALLDATASIZE PUSH2 0x8A7 JUMP JUMPDEST POP POP POP POP SWAP3 PUSH2 0x21B PUSH8 0xDE0B6B3A7640000 SWAP12 SWAP6 SWAP9 SWAP8 SWAP10 SWAP7 SWAP12 SWAP4 SWAP3 SWAP4 SELFBALANCE LT ISZERO PUSH2 0xA6D JUMP JUMPDEST PUSH1 0x1 DUP1 PUSH1 0xA0 SHL SUB PUSH1 0x1 SLOAD AND SWAP8 PUSH1 0x40 MLOAD SWAP12 DUP13 SWAP11 DUP12 SWAP10 DUP11 SWAP10 PUSH4 0x7E1EBB7D PUSH1 0xE1 SHL DUP12 MSTORE PUSH1 0x4 DUP12 ADD PUSH2 0x9BB JUMP JUMPDEST SUB SWAP2 GAS STATICCALL DUP1 ISZERO PUSH2 0x1B0 JUMPI PUSH2 0x25F SWAP2 PUSH1 0x0 SWAP2 PUSH2 0x28F JUMPI POP PUSH2 0xA21 JUMP JUMPDEST PUSH1 0x20 PUSH1 0x40 MLOAD PUSH32 0xB3E1DCCEEF8890403A4FE86C7B460EAE2A904C189CEB19137F8EE47E077C801A PUSH1 0x0 DUP1 LOG1 PUSH1 0x1 DUP2 MSTORE RETURN JUMPDEST PUSH2 0x2A8 SWAP2 POP PUSH1 0x20 RETURNDATASIZE PUSH1 0x20 GT PUSH2 0x1A9 JUMPI PUSH2 0x19B DUP2 DUP4 PUSH2 0x943 JUMP JUMPDEST DUP3 PUSH2 0x11F JUMP JUMPDEST PUSH1 0x20 PUSH2 0x309 PUSH2 0x2BC CALLDATASIZE PUSH2 0x8A7 JUMP JUMPDEST SWAP12 SWAP5 SWAP2 SWAP10 SWAP8 SWAP7 PUSH2 0x2E0 SWAP4 SWAP15 SWAP10 SWAP14 SWAP5 SWAP4 PUSH8 0xDE0B6B3A7640000 SWAP13 SWAP8 SWAP3 SWAP13 SELFBALANCE LT ISZERO PUSH2 0xA6D JUMP JUMPDEST PUSH1 0x1 DUP1 PUSH1 0xA0 SHL SUB PUSH1 0x1 SLOAD AND SWAP8 PUSH1 0x40 MLOAD SWAP15 DUP16 SWAP11 DUP12 SWAP10 DUP11 SWAP10 PUSH4 0x7E1EBB7D PUSH1 0xE1 SHL DUP12 MSTORE PUSH1 0x4 DUP12 ADD PUSH2 0x9BB JUMP JUMPDEST SUB SWAP2 GAS STATICCALL SWAP4 DUP5 ISZERO PUSH2 0x1B0 JUMPI PUSH2 0x329 SWAP5 PUSH2 0x125 SWAP2 PUSH1 0x0 SWAP2 PUSH2 0x3F4 JUMPI POP PUSH2 0xA21 JUMP JUMPDEST AND PUSH2 0x335 DUP2 ISZERO ISZERO PUSH2 0xAB9 JUMP JUMPDEST PUSH1 0x0 DUP1 MLOAD PUSH1 0x20 PUSH2 0xB90 DUP4 CODECOPY DUP2 MLOAD SWAP2 MSTORE PUSH1 0x20 PUSH1 0x40 MLOAD DUP4 DUP2 MSTORE LOG1 PUSH1 0x2 SLOAD PUSH1 0x40 MLOAD PUSH4 0x4965C7E1 PUSH1 0xE0 SHL DUP2 MSTORE PUSH1 0x4 DUP2 ADD SWAP3 SWAP1 SWAP3 MSTORE PUSH1 0x20 SWAP1 DUP3 SWAP1 PUSH1 0x24 SWAP1 DUP3 SWAP1 PUSH1 0x1 PUSH1 0x1 PUSH1 0xA0 SHL SUB AND GAS STATICCALL SWAP1 DUP2 ISZERO PUSH2 0x1B0 JUMPI PUSH1 0x0 SWAP2 PUSH2 0x3BD JUMPI JUMPDEST PUSH1 0x20 DUP3 PUSH32 0x54FDC702CD24F07B0C6343B84B51714E7C4FEEB6C62183650C95CCA861F87EA3 DUP3 PUSH1 0x40 MLOAD DUP4 DUP2 MSTORE LOG1 PUSH1 0x40 MLOAD SWAP1 DUP2 MSTORE RETURN JUMPDEST PUSH1 0x20 DUP2 RETURNDATASIZE PUSH1 0x20 GT PUSH2 0x3EC JUMPI JUMPDEST DUP2 PUSH2 0x3D6 PUSH1 0x20 SWAP4 DUP4 PUSH2 0x943 JUMP JUMPDEST DUP2 ADD SUB SLT PUSH2 0x3E8 JUMPI MLOAD SWAP1 POP PUSH1 0x20 PUSH2 0x389 JUMP JUMPDEST POP DUP1 REVERT JUMPDEST RETURNDATASIZE SWAP2 POP PUSH2 0x3C9 JUMP JUMPDEST PUSH2 0x40D SWAP2 POP PUSH1 0x20 RETURNDATASIZE PUSH1 0x20 GT PUSH2 0x1A9 JUMPI PUSH2 0x19B DUP2 DUP4 PUSH2 0x943 JUMP JUMPDEST DUP8 PUSH2 0x11F JUMP JUMPDEST CALLVALUE PUSH2 0x1E5 JUMPI PUSH1 0x0 CALLDATASIZE PUSH1 0x3 NOT ADD SLT PUSH2 0x1E5 JUMPI PUSH1 0x2 SLOAD PUSH1 0x40 MLOAD PUSH1 0x1 PUSH1 0x1 PUSH1 0xA0 SHL SUB SWAP1 SWAP2 AND DUP2 MSTORE PUSH1 0x20 SWAP1 RETURN JUMPDEST CALLVALUE PUSH2 0x1E5 JUMPI PUSH1 0x0 CALLDATASIZE PUSH1 0x3 NOT ADD SLT PUSH2 0x1E5 JUMPI PUSH1 0x0 SLOAD PUSH1 0x40 MLOAD PUSH1 0x1 PUSH1 0x1 PUSH1 0xA0 SHL SUB SWAP1 SWAP2 AND DUP2 MSTORE PUSH1 0x20 SWAP1 RETURN JUMPDEST PUSH1 0x20 PUSH2 0x473 PUSH2 0x2BC CALLDATASIZE PUSH2 0x8A7 JUMP JUMPDEST SUB SWAP2 GAS STATICCALL SWAP4 DUP5 ISZERO PUSH2 0x1B0 JUMPI PUSH2 0x493 SWAP5 PUSH2 0x125 SWAP2 PUSH1 0x0 SWAP2 PUSH2 0x3F4 JUMPI POP PUSH2 0xA21 JUMP JUMPDEST AND PUSH2 0x49F DUP2 ISZERO ISZERO PUSH2 0xAB9 JUMP JUMPDEST PUSH1 0x0 DUP1 MLOAD PUSH1 0x20 PUSH2 0xB90 DUP4 CODECOPY DUP2 MLOAD SWAP2 MSTORE PUSH1 0x20 PUSH1 0x40 MLOAD DUP4 DUP2 MSTORE LOG1 PUSH1 0x2 SLOAD PUSH1 0x40 MLOAD PUSH4 0x4965C7E1 PUSH1 0xE0 SHL DUP2 MSTORE PUSH1 0x4 DUP2 ADD SWAP3 SWAP1 SWAP3 MSTORE PUSH1 0x20 SWAP1 DUP3 SWAP1 PUSH1 0x24 SWAP1 DUP3 SWAP1 PUSH1 0x1 PUSH1 0x1 PUSH1 0xA0 SHL SUB AND GAS STATICCALL SWAP1 DUP2 ISZERO PUSH2 0x1B0 JUMPI PUSH1 0x0 SWAP2 PUSH2 0x612 JUMPI JUMPDEST POP PUSH32 0x54FDC702CD24F07B0C6343B84B51714E7C4FEEB6C62183650C95CCA861F87EA3 PUSH1 0x20 PUSH1 0x40 MLOAD DUP4 DUP2 MSTORE LOG1 PUSH1 0x3 SLOAD PUSH1 0x40 MLOAD PUSH4 0x31A9108F PUSH1 0xE1 SHL DUP2 MSTORE PUSH1 0x4 DUP2 ADD SWAP3 SWAP1 SWAP3 MSTORE PUSH1 0x20 SWAP1 DUP3 SWAP1 PUSH1 0x24 SWAP1 DUP3 SWAP1 PUSH1 0x1 PUSH1 0x1 PUSH1 0xA0 SHL SUB AND GAS STATICCALL SWAP1 DUP2 ISZERO PUSH2 0x1B0 JUMPI PUSH1 0x0 SWAP2 PUSH2 0x5E3 JUMPI JUMPDEST POP PUSH1 0x1 PUSH1 0x1 PUSH1 0xA0 SHL SUB AND PUSH2 0x56F DUP2 ISZERO ISZERO PUSH2 0xB18 JUMP JUMPDEST PUSH32 0x5C1D1AA5FABEEC44C0C81DC91600D72EEA899EC6DEEC672F886241B80CE3A19 PUSH1 0x20 PUSH1 0x40 MLOAD DUP4 DUP2 MSTORE LOG1 PUSH1 0x0 DUP1 DUP1 DUP1 PUSH8 0xDE0B6B3A7640000 DUP6 DUP3 CALL ISZERO PUSH2 0x1B0 JUMPI PUSH32 0x6177F4110771217C72937D51F3A73915F2C714A6B98507E17EEA7A186136A24A PUSH1 0x20 PUSH1 0x40 MLOAD PUSH8 0xDE0B6B3A7640000 DUP2 MSTORE LOG2 STOP JUMPDEST PUSH2 0x605 SWAP2 POP PUSH1 0x20 RETURNDATASIZE PUSH1 0x20 GT PUSH2 0x60B JUMPI JUMPDEST PUSH2 0x5FD DUP2 DUP4 PUSH2 0x943 JUMP JUMPDEST DUP2 ADD SWAP1 PUSH2 0xAF9 JUMP JUMPDEST DUP2 PUSH2 0x55A JUMP JUMPDEST POP RETURNDATASIZE PUSH2 0x5F3 JUMP JUMPDEST SWAP1 PUSH1 0x20 DUP3 RETURNDATASIZE PUSH1 0x20 GT PUSH2 0x63F JUMPI JUMPDEST DUP2 PUSH2 0x62C PUSH1 0x20 SWAP4 DUP4 PUSH2 0x943 JUMP JUMPDEST DUP2 ADD SUB SLT PUSH2 0x63C JUMPI POP MLOAD DUP2 PUSH2 0x4F3 JUMP JUMPDEST DUP1 REVERT JUMPDEST RETURNDATASIZE SWAP2 POP PUSH2 0x61F JUMP JUMPDEST PUSH1 0x20 PUSH2 0x655 PUSH2 0x2BC CALLDATASIZE PUSH2 0x8A7 JUMP JUMPDEST SUB SWAP2 GAS STATICCALL SWAP4 DUP5 ISZERO PUSH2 0x1B0 JUMPI PUSH2 0x675 SWAP5 PUSH2 0x125 SWAP2 PUSH1 0x0 SWAP2 PUSH2 0x3F4 JUMPI POP PUSH2 0xA21 JUMP JUMPDEST AND PUSH2 0x681 DUP2 ISZERO ISZERO PUSH2 0xAB9 JUMP JUMPDEST PUSH1 0x0 DUP1 MLOAD PUSH1 0x20 PUSH2 0xB90 DUP4 CODECOPY DUP2 MLOAD SWAP2 MSTORE PUSH1 0x20 PUSH1 0x40 MLOAD DUP4 DUP2 MSTORE LOG1 PUSH1 0x2 SLOAD PUSH1 0x40 MLOAD PUSH4 0x4965C7E1 PUSH1 0xE0 SHL DUP2 MSTORE PUSH1 0x4 DUP2 ADD SWAP3 SWAP1 SWAP3 MSTORE PUSH1 0x20 SWAP1 DUP3 SWAP1 PUSH1 0x24 SWAP1 DUP3 SWAP1 PUSH1 0x1 PUSH1 0x1 PUSH1 0xA0 SHL SUB AND GAS STATICCALL SWAP1 DUP2 ISZERO PUSH2 0x1B0 JUMPI PUSH1 0x0 SWAP2 PUSH2 0x7ED JUMPI JUMPDEST POP PUSH32 0x54FDC702CD24F07B0C6343B84B51714E7C4FEEB6C62183650C95CCA861F87EA3 PUSH1 0x20 PUSH1 0x40 MLOAD DUP4 DUP2 MSTORE LOG1 PUSH1 0x3 SLOAD PUSH1 0x40 MLOAD PUSH4 0x31A9108F PUSH1 0xE1 SHL DUP2 MSTORE PUSH1 0x4 DUP2 ADD SWAP3 SWAP1 SWAP3 MSTORE PUSH1 0x20 SWAP1 DUP3 SWAP1 PUSH1 0x24 SWAP1 DUP3 SWAP1 PUSH1 0x1 PUSH1 0x1 PUSH1 0xA0 SHL SUB AND GAS STATICCALL SWAP1 DUP2 ISZERO PUSH2 0x1B0 JUMPI PUSH1 0x0 SWAP2 PUSH2 0x7CE JUMPI JUMPDEST POP PUSH1 0x1 PUSH1 0x1 PUSH1 0xA0 SHL SUB AND PUSH2 0x751 DUP2 ISZERO ISZERO PUSH2 0xB18 JUMP JUMPDEST PUSH32 0x5C1D1AA5FABEEC44C0C81DC91600D72EEA899EC6DEEC672F886241B80CE3A19 PUSH1 0x20 PUSH1 0x40 MLOAD DUP4 DUP2 MSTORE LOG1 PUSH1 0x0 DUP1 DUP1 DUP1 PUSH8 0xDE0B6B3A7640000 DUP6 DUP3 CALL ISZERO PUSH2 0x1B0 JUMPI DUP1 PUSH1 0x20 SWAP2 PUSH32 0x6177F4110771217C72937D51F3A73915F2C714A6B98507E17EEA7A186136A24A DUP4 PUSH1 0x40 MLOAD PUSH8 0xDE0B6B3A7640000 DUP2 MSTORE LOG2 PUSH1 0x40 MLOAD SWAP1 DUP2 MSTORE RETURN JUMPDEST PUSH2 0x7E7 SWAP2 POP PUSH1 0x20 RETURNDATASIZE PUSH1 0x20 GT PUSH2 0x60B JUMPI PUSH2 0x5FD DUP2 DUP4 PUSH2 0x943 JUMP JUMPDEST DUP2 PUSH2 0x73C JUMP JUMPDEST SWAP1 PUSH1 0x20 DUP3 RETURNDATASIZE PUSH1 0x20 GT PUSH2 0x817 JUMPI JUMPDEST DUP2 PUSH2 0x807 PUSH1 0x20 SWAP4 DUP4 PUSH2 0x943 JUMP JUMPDEST DUP2 ADD SUB SLT PUSH2 0x63C JUMPI POP MLOAD DUP2 PUSH2 0x6D5 JUMP JUMPDEST RETURNDATASIZE SWAP2 POP PUSH2 0x7FA JUMP JUMPDEST CALLVALUE PUSH2 0x1E5 JUMPI PUSH1 0x0 CALLDATASIZE PUSH1 0x3 NOT ADD SLT PUSH2 0x1E5 JUMPI PUSH1 0x1 SLOAD PUSH1 0x40 MLOAD PUSH1 0x1 PUSH1 0x1 PUSH1 0xA0 SHL SUB SWAP1 SWAP2 AND DUP2 MSTORE PUSH1 0x20 SWAP1 RETURN JUMPDEST CALLVALUE PUSH2 0x1E5 JUMPI PUSH1 0x0 CALLDATASIZE PUSH1 0x3 NOT ADD SLT PUSH2 0x1E5 JUMPI PUSH1 0x20 SELFBALANCE PUSH1 0x40 MLOAD SWAP1 DUP2 MSTORE RETURN JUMPDEST PUSH1 0x20 DUP2 PUSH2 0x244 DUP2 DUP1 PUSH2 0x875 CALLDATASIZE PUSH2 0x8A7 JUMP JUMPDEST POP POP PUSH1 0x1 SLOAD PUSH4 0x7E1EBB7D PUSH1 0xE1 SHL DUP14 MSTORE PUSH1 0x1 PUSH1 0x1 PUSH1 0xA0 SHL SUB AND SWAP14 SWAP11 SWAP3 SWAP10 SWAP4 SWAP9 SWAP5 SWAP8 SWAP6 SWAP7 SWAP6 SWAP5 SWAP4 SWAP3 SWAP2 POP POP PUSH1 0x4 DUP12 ADD PUSH2 0x9BB JUMP JUMPDEST PUSH2 0x400 PUSH1 0x3 NOT DUP3 ADD SLT PUSH2 0x1E5 JUMPI DUP1 PUSH1 0x64 GT PUSH2 0x1E5 JUMPI PUSH1 0x4 SWAP2 DUP2 PUSH1 0xE4 GT PUSH2 0x1E5 JUMPI PUSH1 0x64 SWAP2 DUP1 PUSH2 0x124 GT PUSH2 0x1E5 JUMPI PUSH1 0xE4 SWAP2 DUP2 PUSH2 0x184 GT PUSH2 0x1E5 JUMPI PUSH2 0x124 SWAP2 DUP1 PUSH2 0x1C4 GT PUSH2 0x1E5 JUMPI PUSH2 0x184 SWAP2 DUP2 PUSH2 0x244 GT PUSH2 0x1E5 JUMPI PUSH2 0x1C4 SWAP2 DUP1 PUSH2 0x284 GT PUSH2 0x1E5 JUMPI PUSH2 0x244 SWAP2 DUP2 PUSH2 0x304 GT PUSH2 0x1E5 JUMPI PUSH2 0x284 SWAP2 PUSH2 0x384 GT PUSH2 0x1E5 JUMPI PUSH2 0x304 SWAP1 PUSH2 0x384 CALLDATALOAD SWAP1 PUSH2 0x3A4 CALLDATALOAD PUSH1 0xFF DUP2 AND DUP2 SUB PUSH2 0x1E5 JUMPI SWAP1 PUSH2 0x3C4 CALLDATALOAD SWAP1 PUSH2 0x3E4 CALLDATALOAD SWAP1 JUMP JUMPDEST SWAP1 PUSH1 0x1F DUP1 NOT SWAP2 ADD AND DUP2 ADD SWAP1 DUP2 LT PUSH8 0xFFFFFFFFFFFFFFFF DUP3 GT OR PUSH2 0x965 JUMPI PUSH1 0x40 MSTORE JUMP JUMPDEST PUSH4 0x4E487B71 PUSH1 0xE0 SHL PUSH1 0x0 MSTORE PUSH1 0x41 PUSH1 0x4 MSTORE PUSH1 0x24 PUSH1 0x0 REVERT JUMPDEST SWAP1 DUP2 PUSH1 0x20 SWAP2 SUB SLT PUSH2 0x1E5 JUMPI MLOAD DUP1 ISZERO ISZERO DUP2 SUB PUSH2 0x1E5 JUMPI SWAP1 JUMP JUMPDEST SWAP1 PUSH1 0x0 SWAP1 JUMPDEST PUSH1 0x2 DUP3 LT PUSH2 0x9A5 JUMPI POP POP POP JUMP JUMPDEST PUSH1 0x40 DUP1 DUP3 DUP2 DUP7 PUSH1 0x1 SWAP6 CALLDATACOPY ADD SWAP4 ADD SWAP2 ADD SWAP1 SWAP2 PUSH2 0x998 JUMP JUMPDEST SWAP7 SWAP5 SWAP3 SWAP1 SWAP10 SWAP9 SWAP8 SWAP6 SWAP4 SWAP2 PUSH2 0x380 DUP9 ADD SWAP11 PUSH1 0x60 SWAP1 DUP10 CALLDATACOPY PUSH1 0x80 SWAP1 PUSH1 0x60 DUP10 ADD CALLDATACOPY PUSH1 0x40 SWAP1 PUSH1 0xE0 DUP9 ADD CALLDATACOPY PUSH1 0x60 SWAP1 PUSH2 0x120 DUP8 ADD CALLDATACOPY PUSH1 0x40 SWAP1 PUSH2 0x180 DUP7 ADD CALLDATACOPY PUSH2 0x1C0 DUP5 ADD PUSH2 0xA00 SWAP2 PUSH2 0x993 JUMP JUMPDEST PUSH1 0x40 SWAP1 PUSH2 0x240 DUP5 ADD CALLDATACOPY PUSH1 0x80 SWAP1 PUSH2 0x280 DUP4 ADD CALLDATACOPY PUSH2 0x300 ADD PUSH2 0xA1F SWAP2 PUSH2 0x993 JUMP JUMPDEST JUMP JUMPDEST ISZERO PUSH2 0xA28 JUMPI JUMP JUMPDEST PUSH1 0x40 MLOAD PUSH3 0x461BCD PUSH1 0xE5 SHL DUP2 MSTORE PUSH1 0x20 PUSH1 0x4 DUP3 ADD MSTORE PUSH1 0x1F PUSH1 0x24 DUP3 ADD MSTORE PUSH32 0x4E6F76614465636964657220766572696669636174696F6E206661696C656400 PUSH1 0x44 DUP3 ADD MSTORE PUSH1 0x64 SWAP1 REVERT JUMPDEST ISZERO PUSH2 0xA74 JUMPI JUMP JUMPDEST PUSH1 0x40 MLOAD PUSH3 0x461BCD PUSH1 0xE5 SHL DUP2 MSTORE PUSH1 0x20 PUSH1 0x4 DUP3 ADD MSTORE PUSH1 0x1D PUSH1 0x24 DUP3 ADD MSTORE PUSH32 0x496E73756666696369656E7420636F6E74726163742062616C616E6365000000 PUSH1 0x44 DUP3 ADD MSTORE PUSH1 0x64 SWAP1 REVERT JUMPDEST ISZERO PUSH2 0xAC0 JUMPI JUMP JUMPDEST PUSH1 0x40 MLOAD PUSH3 0x461BCD PUSH1 0xE5 SHL DUP2 MSTORE PUSH1 0x20 PUSH1 0x4 DUP3 ADD MSTORE PUSH1 0x11 PUSH1 0x24 DUP3 ADD MSTORE PUSH17 0x496E76616C6964207369676E6174757265 PUSH1 0x78 SHL PUSH1 0x44 DUP3 ADD MSTORE PUSH1 0x64 SWAP1 REVERT JUMPDEST SWAP1 DUP2 PUSH1 0x20 SWAP2 SUB SLT PUSH2 0x1E5 JUMPI MLOAD PUSH1 0x1 PUSH1 0x1 PUSH1 0xA0 SHL SUB DUP2 AND DUP2 SUB PUSH2 0x1E5 JUMPI SWAP1 JUMP JUMPDEST ISZERO PUSH2 0xB1F JUMPI JUMP JUMPDEST PUSH1 0x40 MLOAD PUSH3 0x461BCD PUSH1 0xE5 SHL DUP2 MSTORE PUSH1 0x20 PUSH1 0x4 DUP3 ADD MSTORE PUSH1 0x16 PUSH1 0x24 DUP3 ADD MSTORE PUSH22 0x11195D9A58D9481BDDDB995C881B9BDD08199BDD5B99 PUSH1 0x52 SHL PUSH1 0x44 DUP3 ADD MSTORE PUSH1 0x64 SWAP1 REVERT JUMPDEST PUSH1 0x20 SWAP4 PUSH1 0x0 SWAP4 PUSH1 0xFF PUSH1 0x80 SWAP5 PUSH1 0x40 MLOAD SWAP5 DUP6 MSTORE AND DUP7 DUP5 ADD MSTORE PUSH1 0x40 DUP4 ADD MSTORE PUSH1 0x60 DUP3 ADD MSTORE DUP3 DUP1 MSTORE PUSH1 0x1 GAS STATICCALL ISZERO PUSH2 0x1B0 JUMPI PUSH1 0x0 MLOAD SWAP1 JUMP INVALID 0xAB DUP8 0xCE 0xE TLOAD SWAP2 0x28 ADD DELEGATECALL RETURNDATASIZE PUSH31 0xDA053869FABB4061DDED4B6132F32341DBB166B3DAA2646970667358221220 BLOBBASEFEE EXTCODEHASH PUSH8 0x5FEE8C738341610D 0xC4 0xB8 DUP4 SWAP7 0xAA CALLDATASIZE BLOBHASH MSTORE SSTORE SWAP13 OR SWAP1 DIV PUSH11 0x4E5FA91657D2C464736F6C PUSH4 0x4300081C STOP CALLER "},"methodIdentifiers":{"getContractBalance()":"6f9fb98a","ioID()":"c3b3135e","ioIDRegistry()":"95cc7086","novaDecider()":"73853c1f","owner()":"8da5cb5b","verifyAndReward(uint256[3],uint256[4],uint256[2],uint256[3],uint256[2],uint256[2][2],uint256[2],uint256[4],uint256[2][2],bytes32,uint8,bytes32,bytes32)":"7afc1dbd","verifyAndReward2(uint256[3],uint256[4],uint256[2],uint256[3],uint256[2],uint256[2][2],uint256[2],uint256[4],uint256[2][2],bytes32,uint8,bytes32,bytes32)":"3be5dfaf","verifyAndReward3(uint256[3],uint256[4],uint256[2],uint256[3],uint256[2],uint256[2][2],uint256[2],uint256[4],uint256[2][2],bytes32,uint8,bytes32,bytes32)":"c043a699","verifyAndReward4(uint256[3],uint256[4],uint256[2],uint256[3],uint256[2],uint256[2][2],uint256[2],uint256[4],uint256[2][2],bytes32,uint8,bytes32,bytes32)":"eaa26e84","verifyAndReward5(uint256[3],uint256[4],uint256[2],uint256[3],uint256[2],uint256[2][2],uint256[2],uint256[4],uint256[2][2],bytes32,uint8,bytes32,bytes32)":"aa7ec76d","verifyAndReward6(uint256[3],uint256[4],uint256[2],uint256[3],uint256[2],uint256[2][2],uint256[2],uint256[4],uint256[2][2],bytes32,uint8,bytes32,bytes32)":"7a77762e"}}}}}